:020000040800F2
:100000000050002099160008E1160008E1160008CB
:10001000E1160008E1160008E116000800000000E3
:10002000000000000000000000000000E1160008D1
:10003000E116000800000000E1160008E1160008C3
:10004000E1160008E1160008E1160008E1160008B4
:10005000E1160008E1160008E1160008E1160008A4
:10006000E1160008E1160008E1160008E116000894
:10007000E1160008E1160008E1160008E116000884
:10008000E1160008E1160008E1160008E116000874
:10009000E1160008E1160008E1160008E116000864
:1000A000E1160008E1160008E1160008E116000854
:1000B000E1160008E1160008E1160008E116000844
:1000C000E1160008E1160008E1160008E116000834
:1000D000E1160008E1160008E1160008E116000824
:1000E000E1160008E1160008E11600080000000013
:1000F0000000000000000000000000000000000000
:0C01000000000000000000005FF808F1A3
:10011000034613F8012B002AFBD1181A0138704747
:1001200081F0004102E000BF83F0004330B54FEAA8
:1001300041044FEA430594EA050F08BF90EA020F15
:100140001FBF54EA000C55EA020C7FEA645C7FEAA8
:10015000655C00F0E2804FEA5454D4EB5555B8BFCB
:100160006D420CDD2C4480EA020281EA030382EA3C
:10017000000083EA010180EA020281EA0303362DCE
:1001800088BF30BD11F0004F4FEA01314FF4801CA1
:100190004CEA113102D0404261EB410113F0004FB3
:1001A0004FEA03334CEA133302D0524263EB43036A
:1001B00094EA050F00F0A780A4F10104D5F1200E08
:1001C0000DDB02FA0EFC22FA05F2801841F1000163
:1001D00003FA0EF2801843FA05F359410EE0A5F137
:1001E00020050EF1200E012A03FA0EFC28BF4CF068
:1001F000020C43FA05F3C01851EBE37101F000451E
:1002000007D54FF0000EDCF1000C7EEB00006EEB2A
:100210000101B1F5801F1BD3B1F5001F0CD34908B4
:100220005FEA30004FEA3C0C04F101044FEA44520B
:1002300012F5800F80F09A80BCF1004F08BF5FEA92
:10024000500C50F1000041EB045141EA050130BD72
:100250005FEA4C0C404141EB0101013C28BFB1F584
:10026000801FE9D291F0000F04BF01460020B1FACF
:1002700081F308BF2033A3F10B03B3F120020CDAA2
:100280000C3208DD02F1140CC2F10C0201FA0CF080
:1002900021FA02F10CE002F11402D8BFC2F1200CE5
:1002A00001FA02F120FA0CFCDCBF41EA0C0190409B
:1002B000E41AA2BF01EB0451294330BD6FEA0404E4
:1002C0001F3C1CDA0C340EDC04F11404C4F12002CF
:1002D00020FA04F001FA02F340EA030021FA04F3E1
:1002E00045EA030130BDC4F10C04C4F1200220FA38
:1002F00002F001FA04F340EA0300294630BD21FA76
:1003000004F0294630BD94F0000F83F4801306BF3B
:1003100081F480110134013D4EE77FEA645C18BF2F
:100320007FEA655C29D094EA050F08BF90EA020FC6
:1003300005D054EA000C04BF1946104630BD91EABE
:10034000030F1EBF0021002030BD5FEA545C05D1C1
:100350004000494128BF41F0004130BD14F5800400
:100360003CBF01F5801130BD01F0004545F0FE4174
:1003700041F470014FF0000030BD7FEA645C1ABFA9
:10038000194610467FEA655C1CBF0B46024650EAE0
:10039000013406BF52EA033591EA030F41F400210C
:1003A00030BD00BF90F0000F04BF0021704730B592
:1003B0004FF4806404F132044FF000054FF0000167
:1003C00050E700BF90F0000F04BF0021704730B528
:1003D0004FF4806404F1320410F0004548BF4042FD
:1003E0004FF000013EE700BF42004FEAE2014FEA52
:1003F00031014FEA02701FBF12F07F4393F07F4F2D
:1004000081F06051704732F07F4208BF704793F02F
:100410007F4F04BF41F40021704730B54FF4607442
:1004200001F0004521F000411CE700BF50EA010245
:1004300008BF704730B54FF000050AE050EA0102EE
:1004400008BF704730B511F0004502D5404261EB5E
:1004500041014FF4806404F132045FEA915C3FF49F
:10046000D8AE4FF003025FEADC0C18BF03325FEA3C
:10047000DC0C18BF033202EBDC02C2F1200300FAED
:1004800003FC20FA02F001FA03FE40EA0E0021FA12
:1004900002F11444BDE600BF70B54FF0FF0C4CF400
:1004A000E06C1CEA11541DBF1CEA135594EA0C0FB2
:1004B00095EA0C0F00F0DEF82C4481EA030621EAED
:1004C0004C5123EA4C5350EA013518BF52EA033528
:1004D00041F4801143F4801338D0A0FB02CE4FF0DA
:1004E0000005E1FB02E506F00042E0FB03E54FF00A
:1004F0000006E1FB03569CF0000F18BF4EF0010E02
:10050000A4F1FF04B6F5007F64F5407404D25FEAFD
:100510004E0E6D4146EB060642EAC62141EA5551B0
:100520004FEAC52040EA5E504FEACE2EB4F1FD0CF2
:1005300088BFBCF5E06F1ED8BEF1004F08BF5FEA70
:10054000500E50F1000041EB045170BD06F0004622
:1005500046EA010140EA020081EA0301B4EB5C04CF
:10056000C2BFD4EB0C0541EA045170BD41F48011C7
:100570004FF0000E013C00F3AB8014F1360FDEBFEC
:10058000002001F0004170BDC4F10004203C35DAC8
:100590000C341BDC04F11404C4F1200500FA05F34B
:1005A00020FA04F001FA05F240EA020001F00042EC
:1005B00021F0004110EBD37021FA04F642EB060162
:1005C0005EEA430E08BF20EAD37070BDC4F10C048C
:1005D000C4F1200500FA04F320FA05F001FA04F250
:1005E00040EA020001F0004110EBD37041F100013C
:1005F0005EEA430E08BF20EAD37070BDC4F1200547
:1006000000FA05F24EEA020E20FA04F301FA05F2AE
:1006100043EA020321FA04F001F0004121FA04F256
:1006200020EA020000EBD3705EEA430E08BF20EA26
:10063000D37070BD94F0000F0FD101F00046400060
:1006400041EB010111F4801F08BF013CF7D041EAE2
:10065000060195F0000F18BF704703F000465200E6
:1006600043EB030313F4801F08BF013DF7D043EAB7
:100670000603704794EA0C0F0CEA135518BF95EA6D
:100680000C0F0CD050EA410618BF52EA4306D1D1F4
:1006900081EA030101F000414FF0000070BD50EA13
:1006A000410606BF1046194652EA430619D094EA9D
:1006B0000C0F02D150EA013613D195EA0C0F05D187
:1006C00052EA03361CBF104619460AD181EA0301DB
:1006D00001F0004141F0FE4141F470014FF0000093
:1006E00070BD41F0FE4141F4780170BD70B54FF02E
:1006F000FF0C4CF4E06C1CEA11541DBF1CEA1355AE
:1007000094EA0C0F95EA0C0F00F0A7F8A4EB05048F
:1007100081EA030E52EA03354FEA013100F0888086
:100720004FEA03334FF0805545EA131343EA12634F
:100730004FEA022245EA111545EA10654FEA002604
:100740000EF000419D4208BF964244F1FD0404F5BD
:10075000407402D25B084FEA3202B61A65EB030519
:100760005B084FEA32024FF480104FF4002CB6EBD6
:10077000020E75EB030E22BFB61A754640EA0C0056
:100780005B084FEA3202B6EB020E75EB030E22BF96
:10079000B61A754640EA5C005B084FEA3202B6EBD7
:1007A000020E75EB030E22BFB61A754640EA9C0096
:1007B0005B084FEA3202B6EB020E75EB030E22BF66
:1007C000B61A754640EADC0055EA060E18D04FEA24
:1007D000051545EA16754FEA06164FEAC30343EAC4
:1007E00052734FEAC2025FEA1C1CC0D111F4801F91
:1007F0000BD141EA00014FF000004FF0004CB6E78A
:1008000011F4801F04BF01430020B4F1FD0C88BF28
:10081000BCF5E06F3FF6AFAEB5EB030C04BFB6EB33
:10082000020C5FEA500C50F1000041EB045170BD26
:100830000EF0004E4EEA113114EB5C04C2BFD4EB53
:100840000C0541EA045170BD41F480114FF0000ED7
:10085000013C90E645EA060E8DE60CEA135594EA53
:100860000C0F08BF95EA0C0F3FF43BAF94EA0C0F56
:100870000AD150EA01347FF434AF95EA0C0F7FF4CB
:1008800025AF104619462CE795EA0C0F06D152EA1F
:1008900003353FF4FDAE1046194622E750EA410603
:1008A00018BF52EA43067FF4C5AE50EA41047FF414
:1008B0000DAF52EA43057FF4EBAE12E74FF0FF3C79
:1008C00006E000BF4FF0010C02E000BF4FF0010C4A
:1008D0004DF804CD4FEA410C7FEA6C5C4FEA430CC3
:1008E00018BF7FEA6C5C1BD001B050EA410C0CBF12
:1008F00052EA430C91EA030F02BF90EA020F002074
:10090000704710F1000F91EA030F58BF994208BFDA
:1009100090422CBFD8176FEAE37040F00100704797
:100920004FEA410C7FEA6C5C02D150EA013C07D1EE
:100930004FEA430C7FEA6C5CD6D152EA033CD3D039
:100940005DF8040B704700BF8446104662468C4633
:100950001946634600E000BF01B5FFF7B7FF002866
:1009600048BF10F1000F01BD4DF808EDFFF7F4FF8F
:100970000CBF012000205DF808FB00BF4DF808ED1A
:10098000FFF7EAFF34BF012000205DF808FB00BF3D
:100990004DF808EDFFF7E0FF94BF012000205DF85F
:1009A00008FB00BF4DF808EDFFF7CEFF94BF012014
:1009B00000205DF808FB00BF4DF808EDFFF7C4FF0D
:1009C00034BF012000205DF808FB00BF4FEA410C56
:1009D0007FEA6C5C02D150EA013C0AD14FEA430C39
:1009E0007FEA6C5C02D152EA033C02D14FF0000076
:1009F00070474FF0010070474FEA410212F50012B4
:100A000015D211D56FF47873B3EB625212D94FEA55
:100A1000C12343F0004343EA505311F0004F23FA3F
:100A200002F018BF404270474FF00000704750EA94
:100A3000013005D111F0004008BF6FF00040704751
:100A40004FF00000704700BF10B5054C237833B954
:100A5000044B13B10448AFF300800123237010BD91
:100A6000C801002000000000C840000808B5034B82
:100A70001BB103490348AFF3008008BD000000002C
:100A8000CC010020C8400008BFF34F8F0549064B3A
:100A9000CA6802F4E0621343CB60BFF34F8F00BF1C
:100AA000FDE700BF00ED00E00400FA052DE9F0438A
:100AB0000024C3B00DF1010500F090F900F06CFBCB
:100AC000294604202C7000F0B9FA002871D02B7848
:100AD000002B6ED0012B40F09F800DF102063146B5
:100AE00013208DF8024000F0A9FA9DF8023001AF02
:100AF000A3424FF0040239464FF0050014BF4FF4F3
:100B0000F0384FF4704800F006FB3E680422394686
:100B1000092036BA00F0FFFA731EB3F5304F04D344
:100B20000021042000F068FA43E0314640463F6867
:100B300000F084FB3FBA8742F2D100F0A3F802AF85
:100B400078B939463870122000F078FA3B780133D2
:100B5000D9B2397002292AD8122000F04DFAFFF7D5
:100B600093FFA6EB0409B9F5807F28BF4FF4807985
:100B700039464A4608EB040000F047FB04F10060E8
:100B80004A46394600F5A04000F0A0F8002864D09D
:100B900004F58074A642E4D80021042000F02CFA69
:100BA0000021122000F028FA00211120BAE70223C8
:100BB0002B7000F0DDF800282DD02F4A1468506803
:100BC00072B62E4B996921F004019961996921F05F
:100BD00008019961996921F010019961996921F4DD
:100BE00080519961996921F480419961D96921F411
:100BF0000031D961D96921F40011D961D96921F095
:100C00000101D961596921F00101596184F3088812
:100C10001B4B9A608047FEE700F034F80028C8D0EC
:100C20004FF48072204602A900F0EFFA04F1006050
:100C30004FF4807202A900F5A04000F047F80028A8
:100C4000B7D004F58074B4F5704FE9D100210420C9
:100C500000F0D2F90021122064E70DF103042146CF
:100C60008DF80300122000F0E9F99DF803300133FC
:100C7000D9B28DF803106DE7005000080010024053
:100C800000ED00E070B5002486B01022002102A81B
:100C900001F08CFA019400F001FC72B62C230A4E8C
:100CA00001A902A8CDE90463029400F0A1FC054665
:100CB00062B600F005FC2DB93068431C584258411B
:100CC00006B070BD2046FBE7005000082DE9F0415A
:100CD000804616460C4611B90020BDE8F081002A76
:100CE000FAD0224B9842F7D3024403F530439A429C
:100CF000F2D800F0E5FB00F0D1FB72B600256B1CCA
:100D00009E4294BF4FF07F436378227888BF1B02D6
:100D10001A43AB1C9E4294BF4FF07F43A3784FF021
:100D2000020088BF1B041343EA1C964294BF4FF095
:100D30007F47E77808EB050188BF3F061F433A4627
:100D4000002300F0F1FB18B162B600F0B9FBC3E775
:100D500058F805309F42F7D10435AE4204F104043F
:100D6000CDD862B600F0ACFB0120B6E70050000819
:100D70000A4A1368506803F16043B3F5A04F0AD8DC
:100D800000F17843A3F5A043B3F5304F2CBF00200A
:100D900000F0010070470020704700BF00500008BD
:100DA0001022014B5A617047000801401022014B8C
:100DB0001A61704700080140034B18739A68D20704
:100DC000FCD5187B704700BF00300140024B98688B
:100DD000C0F3C010704700BF000C01401FB50E4BA0
:100DE0004FF0030C1A68C02022F001021A601A6842
:100DF000112122F001021A6000238DE80B106946D0
:100E0000064800F04FFA4023044A1361802313611F
:100E100005B05DF804FB00BF00540040000C014029
:100E20008023124A84B0136100230193019B0E2B8F
:100E300012DD4023136100230293029B0E2B0EDD73
:100E400080230A4A536100230393039B0E2B09DD81
:100E50004023536104B07047019B0133E5E7029BD7
:100E60000133E9E7039B0133EEE700BF000C0140CB
:100E70008023114A84B0536100230193019B0E2B00
:100E800010DD4023136100230293029B0E2B0CDD27
:100E90008022094B1A6100230393039B0E2B07DD6D
:100EA00004B07047019B0133E7E7029B0133EBE796
:100EB000039B0133F0E700BF000C01407FB507231F
:100EC000802600214025124A40FA03F4E4074CBF73
:100ED000166156610191019C0E2C0DDD1561029188
:100EE000029C0E2C0CDD55610391039C0E2C0BDD36
:100EF000013BE9D204B070BD019C01340194EAE7E2
:100F0000029C01340294EBE7039C01340394ECE768
:100F1000000C0140802307B5094A13614023136187
:100F200000230193019B0E2B06DDFFF74FFF4023AB
:100F3000536103B05DF804FB019B0133F1E700BF8F
:100F4000000C014080220A4B82B060B11A6140223D
:100F50001A6100230193019B0E2B06DD4022044BF6
:100F60005A6102B070475A61F1E7019B0133F1E722
:100F7000000C014000222DE9F34180260446114671
:100F800040279046134D2E612F61CDF80080009BC5
:100F90000E2B16DDFFF71AFF18B146FA02F30B43CA
:100FA000D9B26F61CDF80480019B0E2B0DDD0132AB
:100FB000082AE9D12046FFF7C5FF084602B0BDE880
:100FC000F081009B01330093E1E7019B0133019322
:100FD000EAE700BF000C01400623002182B0019126
:100FE000019AB2F5FA6F03D3013BF8D102B0704712
:100FF000019A01320192F3E738B505460C46FFF736
:101000000FFFA020FFF75AFFFFF784FF30B1002445
:10101000FFF72EFFFFF7E0FF204638BD2846FFF719
:101020004DFFFFF777FF0028F1D12046FFF746FF7D
:10103000FFF770FFB0FA80F46409E9E738B50546B8
:101040000C4651B1FFF7ECFEA020FFF737FFFFF78A
:1010500061FF20B10024FFF70BFF204638BD284672
:10106000FFF72CFFFFF756FF0028F3D1FFF7D8FE5C
:10107000A120FFF723FFFFF74DFF0028EAD1012051
:10108000FFF778FF20700124E5E72DE9F0470546DA
:1010900016468946D1B18318B3F5807F16DC4FF030
:1010A00000080EB9012012E005F00704C4F108049D
:1010B000E4B2B44288BFF4B2FFF7B2FEA020FFF75B
:1010C000FDFEFFF727FF20B1FFF7D2FE0020BDE8AD
:1010D000F0872846FFF7F2FEFFF71CFF07460028BF
:1010E000F2D109EB080A1AF8010BFFF7E7FEFFF748
:1010F00011FF0028E8D10137FFB2BC42F3D1A04470
:101100002544341BFFF7B4FE5FFA88F8FFF764FF4D
:10111000EDB2A6B2C5E72DE9F041064615460C46EC
:1011200069B18318B3F5807F09DCFFF779FEA02051
:10113000FFF7C4FEFFF7EEFE20B1FFF799FE002097
:10114000BDE8F0813046FFF7B9FEFFF7E3FE002867
:10115000F3D1FFF765FEA120FFF7B0FEFFF7DAFE3F
:101160000028EAD1671E6E1EC4F1010808EB0703D0
:101170009E420ADC0120FFF7FDFE002D08BF00267D
:10118000A055FFF775FE0120DAE70020FFF7F2FE19
:1011900007F8010FEAE7000007B5042269460020BE
:1011A000FFF7B9FF18B9002003B05DF804FB009BFE
:1011B000B3F1A53FF8D004224FF0A53300200DEB8A
:1011C00002010193FFF761FF0028ECD00021042009
:1011D000FFF712FF0028E6D006222020024903B0C4
:1011E0005DF804EBFFF751BFE040000810B504467E
:1011F000C0F30740FFF7E0FDC4F30720FFF7DCFD75
:10120000E0B2BDE81040FFF7D7BD70B506460C460A
:101210001546FFF7C5FD0320FFF7CEFD3046FFF76B
:10122000E5FF2544AC4203D1BDE87040FFF7BEBDE9
:10123000FF20FFF7C1FD04F8010BF3E72DE9F041B2
:1012400005460C464FF0FF36DFF84480C0B01CB9AD
:10125000F04340B0BDE8F081B4F5807F274628BF59
:101260004FF4807769463A462846FFF7CEFF694635
:10127000002211F8013B01327340DBB258F82330F1
:10128000974283EA1626F4D13D44E41BDFE700BF12
:10129000AC42000870470000014B1868704700BF5F
:1012A000E40100202DE9F74F00244FF00F0E2646F1
:1012B000DFF884C1614B00F104080A6832FA06F5D0
:1012C00002D103B0BDE8F08F012505FA06F702EA66
:1012D000070537EA020276D14A68032A07D8013A9D
:1012E000022A00F28380DFE802F091969C00122A25
:1012F00000F0948069D8112A00F08A80FF2D94BFF5
:101300008146C1464FEA8602D9F8007088BF203A6C
:101310000EFA02FA27EA0A0704FA02F21743C9F89A
:101320000070D1F8049019F0805F4CD0DCF81820E0
:1013300026F0030742F00102CCF81820DCF8182050
:1013400007F1804702F00102019207F5803706F0AD
:10135000030A019A4FEA8A0ABA680EFA0AFB22EADD
:101360000B0B374A904260D002F5806290425ED00B
:1013700002F5806290425CD002F58062904214BF18
:101380000422032202FA0AF242EA0B02BA609A68C5
:1013900019F4801F14BF2A43AA439A60DA6819F42B
:1013A000001F14BF2A43AA43DA605A6819F4003FA9
:1013B00014BF2A43AA435A601A6819F4803F14BF25
:1013C0002A43AA431A60013677E7DFF878904A4546
:1013D0000CD014D8A9F580194A4507D009F5702911
:1013E0004A4503D0A9F580194A4587D18A68D2B108
:1013F000012A4FF008040CBF076147617EE7DFF860
:1014000048904A45F2D009F58039EDE7CC6875E798
:10141000CC68043472E7CC6808346FE7CC680C34CD
:101420006CE700246AE7042468E70022AAE70122A7
:10143000A8E70222A6E700BF001002400004014016
:10144000000801400000221000003110114AD3684A
:1014500013F0100305D01049CB6943F00203CB61B0
:101460001023D268500706D50B4943F00403CA691C
:1014700042F00102CA61074AD169C90708D5064886
:10148000C16941F00401C161D16921F00101D1615B
:10149000D360704700200240E8010020064B186925
:1014A00010F0800007D0054A5A6002F188325A6075
:1014B0001869C0F3C010704700200240230167453F
:1014C000034A0020136943F080031361704700BF93
:1014D0000020024070B50546FFF7DEFE0646114CBF
:1014E000E368D80712D4E368990644BF2023E36079
:1014F000E368DA0606D4E369DB0703D4E06810F09A
:10150000040007D0FFF7A2FF012003E06B1CE7D027
:101510000DB9032070BDFFF7BFFE801BA842DFD9C5
:10152000F7E700BF002002402DE9F84FDFF894A054
:101530001F469AF818300546012B884691463FD041
:1015400001234CF250308AF81830FFF7C3FF90BBEC
:10155000012D03D0022D14BF042502250026334699
:10156000DFF864B03401C4F12001A4F1200207FACD
:1015700001F129FA04F4CAF81C300C4327FA02F2EC
:101580001443DBF81020A4B242F00102CBF8102083
:101590004CF2503028F81640FFF79CFFDBF8102083
:1015A00022F00102CBF8102028B90136F2B29542A0
:1015B0004FF00003D6D800238AF81830BDE8F88F22
:1015C0000220FBE7E8010020002002400022064B39
:1015D000DA61064B1A6942F002021A6158611A690F
:1015E00042F040021A617047E801002000200240EA
:1015F0002DE9F041264F05463B7E8846012B44D01D
:1016000001243C7603684CF25030022B1AD1FFF7CC
:1016100061FF20B1012000233B76BDE8F0811D4C25
:10162000F86123694CF2503043F0040323612369CD
:1016300043F040032361FFF74DFF236923F00403C8
:101640002361E8E7FFF746FF0028E3D14FF0FF33BF
:10165000C8F800302046AE680E4CD5E9023203EBE4
:101660008223B342D7D93046FFF7B0FF4CF2503057
:10167000FFF730FF236923F00203236110B1C8F89C
:101680000060C8E706F58066E7E70220C5E700BF0F
:10169000E801002000200240FFF7FCFD0B480C4948
:1016A0000C4A002302E0D458C4500433C4188C42BE
:1016B000F9D3094A094C002301E013600432A24225
:1016C000FBD300F0C5FDFFF7F1F9704700000020E3
:1016D000C8010020BC480008C801002058030020B1
:1016E000FEE7002B2DE9F0471D46BBBF03F1004389
:1016F0001D4600232D2388B01446B8BF1446129A05
:10170000109E1370149BDDF84CA023F02008B8F154
:10171000460F05D0B8F1450F00D10136022300E095
:10172000032307AA049206AACDE902A2CDE9003656
:1017300022462B4600F04CFEB8F1470F074619D160
:10174000119BDB070ED500EB060900220023204683
:101750002946FFF709F908B1CDF81C903022079B04
:101760004B451ED33846079B159ADB1B136008B008
:10177000BDE8F087B8F1460F00EB0609E5D1037824
:10178000302B0AD10022002320462946FFF7ECF82F
:1017900018B9C6F10106CAF80060DAF800309944B9
:1017A000D3E7591C07911A70D9E7F7B50029B6BFDE
:1017B0002D232B23494209290270437029DD0DF1A5
:1017C000070425460A27B1FBF7F6224607FB161346
:1017D000303302F8013C0B46632B314604F1FF34F1
:1017E000F1DC3031931E04F8011C1C46411CAB4255
:1017F0000AD30DF109039B1AA54238BF0023821CAE
:101800001344181A03B0F0BD13F8016B01F8016F0F
:10181000EDE7302330318370C170031DF1E7000024
:101820002DE9F04F91B00C46DDF8688016461F4652
:10183000054600F0C3FC036818460A93FEF768FCEF
:1018400000230E93D8F8003094F818A0073323F043
:101850000703F3E80212D4F800B0CDE90812C8F883
:10186000003013460A46C4E91223DDE9088323F059
:1018700000490B904FF0FF32404649469B4BFFF723
:10188000A5F870BB4FF0FF3240464946974BFFF733
:101890007FF830BBDDE9080100220023FFF76EF876
:1018A00010B12D2384F84330914A924BBAF1470F7F
:1018B0008CBF9046984603234FF0000923612BF01C
:1018C0000403236033462146284600970FAA00F000
:1018D000D3F9013040F08F804FF0FF3011B0BDE8F8
:1018E000F08FDDE9082310461946FFF76FF840B185
:1018F000099B814A002BBCBF2D2384F843307F4BCA
:10190000D4E763680AF0DF095A1C3ED106236360FE
:1019100000224BF48063236006920EAACDE904A254
:101920000DAA03920DF13302CDE901326368284616
:101930000093DDE90823FFF7D4FEB9F1470F804695
:101940000D9929D1C81C02DB63688B4241DAAAF1E8
:10195000020A5FFA8AFA5246013904F150000D91E9
:10196000FFF723FF0E9A81461318012A236102DC38
:101970002268D20701D5013323619DF83330002B53
:10198000A0D02D2384F843309CE7B9F1470FBFD195
:10199000002BBDD10123BAE7BAF1650FDBD9BAF14B
:1019A000660F18D1002963680BDD216113B9226825
:1019B000D00702D501330B4423614FF00009A16524
:1019C000DBE713B92268D20701D50233F4E701231C
:1019D000F2E74FF0670A0E9B8B4205DC236821611A
:1019E000D807EAD54B1CE7E70029CCBF0122C1F19B
:1019F00002021344E0E723685A0507D423694246EC
:101A000031462846B84701302BD165E7BAF1650F5A
:101A100040F2DC80D4E9120100220023FEF7A4FF8B
:101A2000002833D0012331462846354AB8470130D3
:101A30003FF452AFDDE90D38434502DB2368D80798
:101A40000FD5DDE90A2331462846B84701303FF477
:101A500043AF4FF0000908F1FF3804F11A0AC845F6
:101A600009DC23689B0700F10281E0680F9B984224
:101A7000B8BF184632E70123524631462846B847D8
:101A800001303FF429AF09F10109E8E70D9B002B74
:101A900038DC012331462846194AB84701303FF463
:101AA0001BAFDDE90D3959EA030302D12368D907D9
:101AB000D7D5DDE90A2331462846B84701303FF43F
:101AC0000BAF4FF0000A04F11A0B0D9B5B4253451C
:101AD00001DC4B4693E701235A4631462846B84776
:101AE00001303FF4F9AE0AF1010AEEE7FFFFEF7FA4
:101AF000EB400008E7400008F3400008EF40000812
:101B0000E5400008A36DDDF838A05345A8BF534653
:101B1000002B994636DC4FF0000B29EAE97904F1F5
:101B20001A02A36D0893A3EB09035B4531DC0D9BFF
:101B30009A453ADC2368DA0737D40D9BAAEB0309F0
:101B4000089BAAEB03039945A8BF9946B9F1000F7A
:101B500033DC4FF0000829EAE97904F11A0B0D9BF8
:101B6000AAEB0303A3EB090343457FF77AAF0123F5
:101B70005A4631462846B84701303FF4ADAE08F129
:101B80000108ECE7424631462846B8470130C2D149
:101B9000A2E60123314628460892B84701303FF4B7
:101BA0009BAE089A0BF1010BBBE73146DDE90A2336
:101BB0002846B8470130C0D18EE6089A4B463146D8
:101BC00028464244B8470130C3D185E6DDF838A045
:101BD000BAF1010F01DCDB0736D50123424631465D
:101BE0002846B84701303FF477AEDDE90A23314695
:101BF0002846B84701303FF46FAED4E91201002205
:101C000000230AF1FF3AFEF7AFFEC0B9534608F1D0
:101C1000010231462846B84701300CD15CE6012369
:101C20005A4631462846B84701303FF455AE08F1D0
:101C30000108D045F3DB4B4604F15002E0E64FF0DB
:101C4000000804F11A0BF4E701234246E1E70123FF
:101C50004A4631462846B84701303FF43DAE08F1C8
:101C60000108E3680F995B1A4345F0DCFDE64FF08D
:101C7000000804F11909F4E72DE9F04716469846E3
:101C80008A680B6907469342B8BF1346336091F8E0
:101C900043200C46DDF820900AB1013333602368FD
:101CA000990642BF336802333360256815F0060594
:101CB00006D104F1190AE36832689B1AAB422BDCA7
:101CC00094F843302268003B18BF0123920630D4B9
:101CD0004146384604F14302C847013023D0236807
:101CE000226903F00603042B14BF002533684FF06C
:101CF000000608BFE56804F11A0408BFED1A54F89D
:101D0000123C08BF25EAE5759342C4BF9B1AED1843
:101D1000B5421AD1002008E0012352464146384618
:101D2000C847013003D14FF0FF30BDE8F0870135DF
:101D3000C1E73020E11881F843005A1C94F845109F
:101D40002244023382F84310C2E70123224641466F
:101D50003846C8470130E6D00136D9E72DE9FF47BC
:101D60000F7E9146782F80460C469A460C9E01F1D4
:101D7000430207D8622F0AD8002F00F0D280582FD4
:101D800000F0B78004F1420684F842703AE0A7F10F
:101D90006303152BF6D801A151F823F0F51D0008B7
:101DA000091E0008851D0008851D0008851D000806
:101DB000851D0008091E0008851D0008851D0008F6
:101DC000851D0008851D0008091F0008331E000836
:101DD000BF1E0008851D0008851D00082B1F000878
:101DE000851D0008331E0008851D0008851D00089C
:101DF000C71E000833681A1D1B68326004F14206D2
:101E000084F8423001239DE033682068191D316059
:101E1000060601D51D6803E04506FBD5B3F9005061
:101E2000002D03DA2D236D4284F843300A235948EC
:101E300010E021683368080653F8045B02D44906B1
:101E400048BFADB26F2F5348336059D108230021EA
:101E500084F843106668002EA66005DB21682E43D7
:101E600021F0040121604DD01646B5FBF3F103FBD0
:101E70001157C75D06F8017D2F46BB420D46F4D9C8
:101E8000082B0BD12368DF0708D5236961689942C5
:101E9000DEBF302306F8013C06F1FF36921B2261BB
:101EA0004B4621464046CDF800A003AAFFF7E4FECA
:101EB00001304CD14FF0FF3004B0BDE8F08723680B
:101EC00043F0200323607827334884F84570236863
:101ED00031681F0651F8045B02D45F0648BFADB2FB
:101EE0003160D90744BF43F0200323601DB11023A4
:101EF000ADE72848E9E7236823F020032360F6E7ED
:101F00000A23A4E71646BBE733682568181D6169F4
:101F100030602E061B6801D5196002E06806FBD50B
:101F20001980002316462361BAE7336800211A1D81
:101F300032601E686268304600F0B1F908B1801B5B
:101F4000606063682361002384F84330A8E7324669
:101F5000494640462369D0470130ABD023689B07F0
:101F600013D4E068039B9842B8BF1846A4E7012346
:101F7000324649464046D04701309BD00135E368A0
:101F800003995B1AAB42F2DCEBE7002504F119067A
:101F9000F5E700BFF740000808410008002310B52E
:101FA0000446C0E90033C0E904338360818143669D
:101FB000C2818361194608225C3000F0F7F80D4BAE
:101FC000246263620C4BA3620C4BE3620C4B2363F1
:101FD0000C4B9C4206D003F16802944202D0D033ED
:101FE0009C4205D104F15800BDE8104000F054B9FE
:101FF00010BD00BF25210008472100087F210008EF
:10200000A521000808020020024A0349034800F005
:102010006BB800BF000000209D39000810000020B0
:1020200041680C4B10B59942044601D001F0B6FC52
:10203000A168094B994202D0204601F0AFFCE1684B
:10204000064B994204D02046BDE8104001F0A6BCE2
:1020500010BD00BF0802002070020020D80200203E
:102060000C4B0D4A10B504211A600C480022FFF7F2
:1020700095FF0A4B01221C46092103F16800FFF776
:102080008DFF04F1D0000222BDE810401221FFF7BD
:1020900085BF00BF4003002009200008080200207F
:1020A000014800F0FAB800BF49030020014800F0E1
:1020B000F5B800BF4903002010B50446FFF7F0FF54
:1020C000236A1BB1BDE81040FFF7F0BF044B236249
:1020D000044B1B68002BF5D1FFF7C2FFF2E700BFEE
:1020E00021200008400300202DE9F84307468846D8
:1020F00014460026D4E90195B9F1010905D52468F3
:10210000002CF7D13046BDE8F883AB89012B07D905
:10211000B5F90E30013303D029463846C04706438F
:102120006835E9E710B50C46B1F90E1000F06CF80F
:102130000028ABBF636DA3891B1823F48053ACBF89
:102140006365A38110BD2DE9F0411F468B890546CB
:10215000DB050C46164605D502230022B1F90E1008
:1021600000F040F8A389324623F48053A381284627
:102170003B46B4F90E10BDE8F04100F057B810B579
:102180000C46B1F90E1000F02DF8B4F90C30421CD9
:102190000BBF23F4805343F48053A381A38118BF62
:1021A000606510BDB1F90E1000F00CB80346024492
:1021B000934200D1704703F8011BF9E700487047CC
:1021C0004C01002038B50023054D044608462B601D
:1021D00001F02AFF431C02D12B6803B1236038BDF4
:1021E0004403002038B50446084611460022054D38
:1021F0002A601A4601F040FF431C02D12B6803B14C
:10220000236038BD4403002038B504460846114613
:102210000022054D2A601A4601F036FF431C02D108
:102220002B6803B1236038BD4403002038B5044651
:10223000084611460022054D2A601A4601F03AFF71
:10224000431C02D12B6803B1236038BD4403002036
:1022500070B500260C4D0D4B5B1B9C10A64209D19E
:10226000002601F031FF0A4D0A4B5B1B9C10A64271
:1022700005D170BD55F8043B98470136EEE755F897
:10228000043B98470136F2E7B4480008B448000818
:10229000B4480008B84800087047704770470346C4
:1022A00010B5C9B202449342184601D1002003E0A0
:1022B000047801338C42F6D110BD2DE9F74F036944
:1022C0000C690746A3427EDB013CA30000F1140524
:1022D00001F11408009305EB8403019358F82430AE
:1022E00055F8242001339A42B2FBF3F608EB840937
:1022F0002ED34FF0000AC446AE46D3465CF8043BEA
:1023000098B206FB00A01B0C020C06FB0323DEF8B0
:10231000002080B292B2121A5A44DEF800004FEA4E
:10232000134A9BB2C3EB224303EB104392B242EA3F
:102330000342E1454FEA234B4EF8042BDED2009BCB
:10234000EB582BB9019B043B9D421A462FD33C61AD
:10235000384601F099F9002825DB2946002058F875
:10236000042BD1F800C01FFA82FE1FFA8CF3A3EBF6
:102370000E030344120CC2EB234202EB1C429BB23D
:1023800043EA0243C1454FEA224041F8043BE6D20A
:1023900055F8242005EB840322B9043B9D421A46DC
:1023A0000BD33C610136304603B0BDE8F08F1268B4
:1023B000043B002ACBD1013CC6E71268043B002A4B
:1023C000EFD1013CEAE70020EEE70000000000004A
:1023D0002DE9F04F16461F46C26999B08146CDE9F6
:1023E0000E67259C82B9102000F020FE0246C9F835
:1023F0001C0020B9EF21A84BA84801F015FB0023D1
:10240000C0E901330360C360116859B10123526808
:10241000484693404A608B6000F0FCFE0022D9F8E9
:102420001C301A60B7F10008B5BF012300232360F8
:1024300023609B4BBCBF28F00048CDF83C8033EABA
:1024400008031AD142F20F73249AC8F3130858EA0A
:102450000608136000F07485269B53B9914B21E068
:10246000914B03930833269A1360039819B0BDE883
:10247000F08F8C4B03930333F5E7DDE90E34CDE9A0
:102480000A34DDE90A0100220023FEF76DFA8246D4
:1024900050B10123249A1360269B13B1834B269AD3
:1024A0001360834B0393E0E716AB019317AB0093E4
:1024B0004846DDE90A2301F09BF95FEA1854169DAE
:1024C00004907BD0DDE90A010B9BA4F2FF34C3F337
:1024D000130343F07F5343F44013CDF850A0194643
:1024E0000022744BFDF720FE65A3D3E90023FDF71E
:1024F000D3FF65A3D3E90023FDF718FE0646204667
:102500000F46FDF75FFF62A3D3E90023FDF7C4FF89
:1025100002460B4630463946FDF708FE06460F4692
:10252000FEF76AFA00228046002330463946FEF75D
:1025300025FA48B14046FDF745FF32463B46FEF7D7
:1025400013FA08B908F1FF38B8F1160F53D8DDE9CE
:102550000A01594B03EBC803D3E90023FEF70EFA37
:1025600000284AD0002308F1FF3811932D1B6B1E61
:10257000099349BF00230027C5F101070993B8F16A
:10258000000F3CDB099BCDF84080434409930023B6
:102590000C93229B092B66D8052BC4BF043B2293C6
:1025A000229BC8BF0024A3F10203D8BF0124032B40
:1025B00000F28680DFE803F05355362B179C2C443D
:1025C00004F23243202BC1BFC3F1400308FA03F8E1
:1025D00004F2124326FA03F3D6BFC3F1200348EAFC
:1025E000030006FA03F0FDF7DDFE0122A1F1F87306
:1025F000013C149273E70123B7E71190B6E7C8F1E5
:1026000000030C930023A7EB08071093C1E70123F5
:102610000D93239B434408930133012B0593B8BFCB
:10262000012306E001230D93239B002B4BDD089330
:10263000059300210422D9F81C0002F114059D42E3
:1026400001F1010644D94160484600F0A5FD039020
:10265000002840D1024640F2AF11184BCCE60023CF
:10266000E1E70023D4E7012400230D9422934FF0E7
:10267000FF3300220893059312232392D9E700BF6A
:1026800061436F63A787D23FB3C8608B288AC63F78
:10269000FB799F501344D33F264100083D41000879
:1026A0000000F07F2241000819410008E6400008C0
:1026B000E54000080000F83FE0460008BF41000880
:1026C00001230D93D3E701231A4608930593D4E71A
:1026D00031465200B1E7D9F81C30039A1A60059BC5
:1026E0000E2B00F2A180002C00F09E80B8F1000FAC
:1026F00036DD9F4B08F00F0203EBC20318F4807F16
:102700004FEA2815D3E900AB16D0DDE90A01994B51
:102710000324D3E90823FDF7E9FFCDE9060105F01D
:102720000F05944E75B9DDE9060152465B46FDF78B
:10273000DDFF82468B462DE0DDE90A34CDE9063423
:102740000224EEE7E90708D5D6E9002350465946AA
:10275000FDF7A2FE82468B4601346D100836E1E794
:1027600000F0AD80DDE90A01C8F10005804B05F0FD
:102770000F0203EBC203D3E90023FDF78DFE022411
:1027800082468B4600237B4E2D11002D40F08C801D
:10279000002BCED1119B002B00F0958000225046DB
:1027A0005946754BFEF7EAF8002800F08C80059B2F
:1027B000002B00F08880089B002B35DD08F1FF33EB
:1027C00050465946069300226C4BFDF765FE824643
:1027D0008B46089E01342046FDF7F4FD52465B46C9
:1027E000FDF75AFE0022664BFDF7A0FC0446A1F15E
:1027F0005075CDE91245002E69D100225046594648
:10280000604BFDF791FC22462B4682468B46FEF735
:10281000D3F8002840F0998222465046594605F1E7
:102820000043FEF7ABF820BB179B002BC0F265817D
:10283000B8F10E0F00F361814D4B03EBC803D3E9F0
:1028400000AB239B002B80F2EF80059B002B00F355
:10285000EB800ED100224B4B50465946FDF71CFE33
:1028600002460B46DDE90A01FEF792F8002800F067
:102870006F8200252C46239B039EDB43069327464D
:1028800000242946484600F0C5FC002F00F0C28015
:102890002CB1BC4203D02146484600F0BBFC39466F
:1028A000484600F0B7FCB5E0EA0705D5D6E90023B5
:1028B000FDF7F2FD012301346D10083665E70224AF
:1028C000DDE90AAB66E7059ECDF8188083E7284B63
:1028D00003EBC60353E902010D9B002B56D00246C1
:1028E0000B4600202849FDF701FFDDE91223FDF723
:1028F0001BFC039BCDE912019D191E46594650460B
:10290000FEF77AF80446FDF75DFD02460B46504699
:102910005946FDF709FCDDE91223303406F8014B76
:1029200082468B46FEF72AF8002873D152465B4652
:1029300000201149FDF7F8FBDDE91223FEF71EF830
:10294000002840F0BB80AE423FF46EAFDDE91201DB
:1029500000220A4BFDF7A0FD0022CDE91201074B32
:1029600050465946FDF798FD82468B46C6E700BFA4
:10297000E0460008B84600080000F03F0000244090
:1029800000001C40000014400000E03FDDE912237D
:10299000FDF782FD039BCDE912013344039D15939E
:1029A00059465046FEF728F80446FDF70BFD0B4646
:1029B000024659465046FDF7B7FB3034159B05F8E3
:1029C000014B9D4282468B4627D1DDE91201039BD4
:1029D00000221E44B54BFDF7A9FB02460B465046AC
:1029E0005946FDF7E9FF002868D1DDE912230020F0
:1029F000AE49FDF799FB02460B4650465946FDF796
:102A0000BDFF00283FF410AF334616F8012D302AE1
:102A1000FAD01E46DDF818803EE00022A44BFDF7F8
:102A20003BFD82468B46BBE70024039EA04D5246E9
:102A3000DDE90A015B46FDF759FEFDF7DDFF0746BC
:102A4000FDF7C0FC52465B46FDF726FD02460B46ED
:102A5000DDE90A01FDF768FB07F1300C06F801CB50
:102A6000DDF80CC0DDF814E0A6EB0C0CE6450246E0
:102A70000B4633D1FDF75AFB52465B4604460D46E2
:102A8000FDF79AFFC0B952465B4620462946FDF73E
:102A90006BFF08B1FB070FD44846049900F0BAFB5E
:102AA0000023249A337008F101031360269B002B46
:102AB0003FF4DBAC1E60D8E4CDF8188033461E46E8
:102AC00013F8012D392A06D1039A9A42F7D1069AB2
:102AD00001320692302201321A709BE722462B46C1
:102AE000FDF7DAFC02460B46CDE90A23002200235B
:102AF000FDF73AFF00289AD0CEE70D9A002A00F0A1
:102B0000E380229A012A00F3C280149A002A00F07E
:102B1000BA8003F233430C9D3E46099A01211A44C0
:102B200048461F44099200F029FC044656B1099B0F
:102B3000002B07DDB342A8BF3346099AFF1AF61AE5
:102B4000D31A09930C9B0BB30D9B002B00F0C38091
:102B5000002D00F0BD8021462A46484600F0CCFCFE
:102B6000049A01460446484600F01EFC0499824639
:102B7000484600F04FFB0C9B5B1B0C9300F0AE80B3
:102B800051460C9A484600F0B7FC04900121484693
:102B900000F0F4FB109B0546002B00F0D8811A468C
:102BA0000146484600F0A8FC229B0546012B00F395
:102BB0009D800E9B002B40F094800F9BC3F313036A
:102BC000002B40F08E800F9B23F000431B0D1B0554
:102BD000002B00F089804FF0010A099B0137013377
:102BE0000993109B002B00F0B8812B6905EB830340
:102BF000186900F077FBC0F12000099B184410F021
:102C00001F007ED0C0F12003042B72DD099BC0F1B0
:102C10001C000344074406440993002F05DD3A468F
:102C20004846049900F0C4FC0490099B002B05DD84
:102C300029461A46484600F0BBFC0546119B002B6E
:102C400061D02946049800F01FFD00285BDA08F1E6
:102C5000FF3306930A2200234846049900F0FCFA49
:102C60000D9B0490002B00F07A81002321460A225C
:102C7000484600F0F1FA089B0446002B72DC229BC8
:102C8000022B49DC6EE0169BC3F1360343E7059B3C
:102C90005D1E0C9BAB420DDB5D1B059B002BBFF645
:102CA0003BAF059BFE1A002337E700BF0000E03F63
:102CB000000024400C9B109AEB1A1A440C953E46D7
:102CC0000025059B109228E73E460C9D0D9C2DE7A4
:102CD000DDF810A054E70C9A049953E7CDF810A042
:102CE00054E74FF0000A7CE79A467AE74FF0000A73
:102CF0007BE792D0099A1C331A441F441E44099260
:102D00008BE70346F6E7059BCDF81880002B23DC04
:102D10000893229B022B21DD089B002B7FF4ABAD97
:102D200029460522484600F097FA014605460498D0
:102D300000F0AAFC00287FF79EAD3123039E06F821
:102D4000013B069B0133069399E535462C46F4E793
:102D5000059DCDF81880F9E7059B08930D9B002B86
:102D600000F00181002E05DD21463246484600F084
:102D70001FFC0446BAF1000F5AD04846616800F0C3
:102D80000BFA064628B9024640F2EF21814BFFF7C5
:102D900033BB226904F10C01023292000C3000F0C6
:102DA00035FE01223146484600F002FC0746039BEF
:102DB000039A03F1010B089B13440A930E9B03F043
:102DC000010309930BF1FF33294604980593FFF79C
:102DD00074FA2146089000F1300A049800F054FC7F
:102DE0003A4680462946484600F06AFCC2680646D4
:102DF00002BB0146049800F047FC024631464846B3
:102E00000C9200F007FA229B0C9A5E4642EA0301FC
:102E1000099B194310D1BAF1390F2BD0B8F1000F2B
:102E200002DD089B03F1310A059B83F800A028E529
:102E30002746BCE70122E1E7B8F1000F06DB229B41
:102E400048EA0308099B58EA030820D1002AEBDD71
:102E500001220499484600F0ABFB2946049000F09B
:102E600013FC002803DCDFD11AF0010FDCD0BAF12B
:102E7000390FD6D13923059A137033461E4616F8FA
:102E8000012C013B392A53D001321A70F9E4002A8F
:102E900007DDBAF1390FEDD0059A0AF1010313707D
:102EA000EFE40A9B0BF801AC5B452BD000230A2210
:102EB0000499484600F0D0F9BC4204904FF000035A
:102EC0004FF00A022146484606D100F0C5F90446F3
:102ED00007460BF1010B75E700F0BEF939460446D1
:102EE00000230A22484600F0B7F90746F1E7089B9D
:102EF0002746002B03F1FF36D8BF00260024039B92
:102F00005A1C164401220499484600F051FB2946F8
:102F1000049000F0B9FB0028AFDC02D11AF0010FD9
:102F2000ABD133461E4613F8012D302AFAD0A8E45F
:102F3000039A9A42A2D1069B013306933123AEE74E
:102F4000269B002B7FF48CAA134BFFF7ABBA229B76
:102F5000012B7FF72EAEDDF840A001204DE6089B47
:102F6000002B7FF7D6AE039E29460498FFF7A5F9FC
:102F7000039B00F1300A06F801ABF21A089B93425A
:102F8000B5DD00230A224846049900F065F9049053
:102F9000EAE700BFBF4100081941000838B50546FF
:102FA000002940D051F8043C0C1F002BB8BFE41896
:102FB00000F0E6F81C4A136833B9636014602846D1
:102FC000BDE8384000F0E2B8A34208D920682118D3
:102FD0008B4201BF19685B6809182160EDE71A464A
:102FE0005B680BB1A342FAD911685018A0420BD10B
:102FF00020680144501883421160E0D118685B6872
:10300000084410605360DAE702D90C232B60D6E73E
:10301000206821188B4201BF19685B68091821607C
:1030200063605460CBE738BD50030020024B01467B
:10303000186800F025B800BF0C00002070B50F4ED6
:103040000C463168054611B900F0D0FC30602146CD
:10305000284600F0CBFC431C03D14FF0FF34204640
:1030600070BDC41C24F00304A042F8D0211A2846E5
:1030700000F0BCFC0130F2D1EFE700BF4C030020B0
:103080002DE9F843CD1C25F0030508350C2D38BF7C
:103090000C25002D064601DBA94204D90C23336020
:1030A0000020BDE8F883DFF8D48000F069F8D8F894
:1030B00000301C4644BB29463046FFF7BFFF431C87
:1030C000044658D1D8F800402746002F43D1002CA1
:1030D0004BD023683946304604EB030900F086FCE8
:1030E000814542D1216830466D1A2946FFF7A6FF77
:1030F00001303AD023682B442360D8F800305A6856
:1031000062BBC8F800700FE02268521B20D40B2A63
:1031100017D96119A342256018BF5960636808BFB9
:10312000C8F8001062514B60304600F02FF804F1EF
:103130000B00231D20F00700C21A1CBF1B1AA3504E
:10314000AFE76268A3420CBFC8F800205A60EBE703
:1031500023466468AEE73C467F68B6E71A465B687C
:10316000A342FBD100235360DEE70C2330463360DB
:1031700000F00CF894E70560D6E700BF500300208C
:103180000148FFF78AB800BF480300200148FFF755
:1031900085B800BF4803002070B5C46905460E46D7
:1031A00084B91020FFF742FF0446E86128B90246BF
:1031B0006B21164B164800F037FC0023C0E90133A1
:1031C0000360C360E36853B921220421284600F05C
:1031D00049FCEB69E060DB680BB9002070BD53F877
:1031E000260030B1026843F826200023C0E90333EB
:1031F000F4E7012101FA06F4621D2846920000F06E
:1032000031FC0028E9D0C0E90164EEE7264100085E
:10321000D041000870B5C66905460C4676B9102045
:10322000FFF704FF0246E86120B98F21084B0948E7
:1032300000F0FAFBC0E901660660C6603CB1EB69CC
:103240006268DB6853F82210216043F8224070BDA9
:1032500026410008D04100082DE9F04107460C4600
:103260001E4600200D6901F1140CDCF8003001301D
:1032700099B202FB01611E0C0B0C02FB063389B2F2
:1032800001EB034185424FEA13464CF8041BECDC8A
:103290000EB3A368AB4219DC616838460131FFF711
:1032A0007BFF804628B90246BA210C4B0C4800F03F
:1032B000BBFB226904F10C01023292000C3000F0D9
:1032C000A5FB21463846FFF7A5FF444604EB8503DE
:1032D00001355E6125612046BDE8F081BF410008EF
:1032E000D04100080346B0F5803F3ABF03041020E8
:1032F0000020B3F1807F3CBF1B020830B3F1805F38
:103300003CBF1B010430B3F1804F3CBF9B00023037
:10331000002B05DB13F0804F00F1010008BF2020D7
:1033200070470368024613F007000BD0D90721D479
:10333000980749BF5B089B08012013605CBF02200F
:103340001360704799B209B910201B0CD9B209B9A2
:1033500008301B0A190704BF1B090430990704BF72
:103360009B080230D90703D45B0800F1010003D0A9
:1033700013607047002070472020704710B50C463E
:103380000121FFF709FF024628B940F24511044B1D
:10339000044800F049FB01234461036110BD00BFF4
:1033A000BF410008D04100082DE9F04FD1F810903E
:1033B000D2F810A08846D145144685B004DB5346A8
:1033C0000C46CA4690469946A36861680AEB09060E
:1033D000B342B8BF0131FFF7DFFE30B902464FF408
:1033E000B171434B434800F01FFB00F114052B461D
:1033F000002205EB8607BB421FD304F1140C08F131
:1034000014010CEB8A0301EB890202921A1B153A94
:1034100022F0030215349C4288BF00220192029AD6
:1034200003918A420CD8002E03DD57F8043D002B8F
:103430005CD0066105B0BDE8F08F43F8042BDAE7F5
:10344000B1F800A0BAF1000F23D0E046A9464FF032
:10345000000E58F8042BD9F800401FFA82FBA4B2E2
:103460000AFB0B447444D9F800E0120C4FEA1E4EDC
:103470000AFB02E202EB1442A4B244EA02444345CE
:103480004FEA124E49F8044BE3D8019AAA18C2F841
:1034900004E0039A0431B2F80280B8F1000F23D09F
:1034A0002A68E6469146AA464FF0000BBEF8004057
:1034B00092B208FB04B404EB194442EA04424AF80D
:1034C000042B5EF8042BDAF800904FEA124B1FFA37
:1034D00089F208FB0B22734502EB14424FEA124BB0
:1034E000E4D8019C2C196260043598E7013E9AE704
:1034F000BF410008D04100082DE9F843174612F0FB
:10350000030280460D4607D0264C013A002354F8AA
:103510002220FFF7A1FE0546BF103FD0D8F81C407F
:1035200094B91020FFF782FD0446C8F81C0030B99A
:10353000024640F2B3111C4B1C4800F075FA002300
:10354000C0E901330360C360A66846B940F2712147
:103550004046FFF713FF00230646A06003602C4699
:103560004FF0000907F001037F1053B1294632469E
:103570004046FFF719FF214605464046FFF74AFE41
:1035800067B1306838B9324631464046FFF70CFF24
:103590003060C0F8009006462C46E3E72846BDE8B8
:1035A000F88300BFAC46000826410008D04100085F
:1035B0002DE9F84F0C46074615462369496803EB89
:1035C0006218A3684FEA621A08F101094B450BDB48
:1035D0003846FFF7E1FD064648B902464FF4EF7161
:1035E000274B284800F020FA01315B00EEE700236A
:1035F000194600F1140C00F11002534534DB226926
:103600002AEAEA7A0CEB8A0C04F1140315F01F0E77
:10361000614603EB82022BD00025CEF1200A8B46B7
:103620001868043100FA0EF02843CBF8000053F874
:10363000045B9A4225FA0AF5F1D8131B153B23F0D7
:10364000030304F115018A4238BF00239C44CCF8DF
:10365000045005B9C14638462146C6F81090FFF718
:10366000D9FD3046BDE8F88F42F8041F0133C4E7A6
:1036700053F8045B04319A4241F8045CF8D8E9E756
:10368000BF410008D041000803460A69006930B50F
:10369000801A0ED11433143103EB820401EB820142
:1036A00054F8045D51F8042D954203D005D24FF033
:1036B000FF3030BDA342F3D3FBE70120F9E7000060
:1036C0002DE9F74F8A460646114650461446FFF745
:1036D000DBFF051E12D129463046FFF75DFD02468D
:1036E00028B940F23721404B404800F09DF90123B2
:1036F000C0E90435104603B0BDE8F08FBCBF5346A7
:10370000A2463046DAF80410BABF1C46012500254F
:10371000FFF742FD024618B940F24521324BE3E77C
:10372000C56000F11405AB464FF0000CDAF81070DC
:1037300026690AF1140904F1140E0AF1100309EBC9
:1037400087080EEB86060193019B5EF8040B53F885
:1037500004AF81B201931FFA8AF35B1A000C634431
:10376000C0EB1A4000EB23409BB243EA004376458E
:103770004FEA204C4BF8043BE6D8331B153B15347D
:1037800023F00303A64238BF0023E8184B441C1D56
:1037900026460430A5EB0905464506EB050E0ED37B
:1037A00008F10301091B21F003010133984538BFDB
:1037B0000021014451F8043DA3B117619AE7E246A4
:1037C00056F8041B1FFA81FCD4444FEA11495144B6
:1037D00009EB2C4989B241EA09414FEA294CCEF85C
:1037E0000010D9E7013FE5E7BF410008D0410008DC
:1037F0002DE97343012190469946089EFFF7CCFCC2
:10380000044630B9024640F20F31234B234800F002
:103810000BF9C9F30A55C9F313030DB143F480132F
:103820000193B8F1000324D068460093FFF779FDB7
:103830000099E0B1019AC0F1200302FA03F30B43AF
:10384000C24063610192019B002B0CBF0122022246
:10385000A3612261ADB1A5F2334505443560C0F1E5
:103860003500099B1860204602B0BDE87083616195
:10387000E9E701A8FFF755FD019B012263612030B4
:10388000E7E7A0F2324004EB820330601869FFF7EB
:1038900029FDC0EB4210E4E7BF410008D041000819
:1038A000B1F90C20F8B5160705460C4651D44B6803
:1038B000002B02DC0B6C002B49DDE66A002E46D0A3
:1038C000002312F480522F682B6031D0626DA389DF
:1038D000590705D56368D21A636B0BB1236CD21AF2
:1038E00000232846E66A216AB047421CB4F90C302E
:1038F00006D129681D2945D8274ACA40D60741D58F
:10390000002262602269D904226004D5421C01D1E0
:103910002B6803B96065616B2F60C1B104F144038A
:10392000994202D02846FFF739FB002363630EE07B
:1039300001232846216AB0470246501CC7D12B6894
:10394000002BC4D01D2B01D0162B19D12F600020C5
:103950001DE00F69002FFAD0930718BF00230E68EF
:1039600008BF4B69F61B0F608B60002EEFDD3346FE
:103970003A462846216AD4F828C0E047002807DCE8
:10398000B4F90C304FF0FF3043F04003A381F8BD91
:103990000744361AE9E700BF0100402038B50B693B
:1039A00005460C4613B90025284638BD18B1036AF0
:1039B0000BB9FEF781FBB4F90C30002BF3D0626E2B
:1039C000D00704D4990502D4A06DFEF766FC284602
:1039D0002146FFF765FF636E0546DA07E4D4A38945
:1039E0009B05E1D4A06DFEF759FCDDE738B5002357
:1039F000054D044608462B6000F04EFB431C02D1E7
:103A00002B6803B1236038BD440300200A4491426F
:103A100000F1FF3300D1704710B511F8014B91420E
:103A200003F8014FF9D110BD1FB514461A46094BD2
:103A300005461B68D8684CB1074BCDE901340091AD
:103A40002B46064900F042F800F052F8044B1C46A1
:103A5000F3E700BF0C0000205D4200086A42000846
:103A60009842000870B5A1FB025434B92946FFF70B
:103A700007FB064628B9304670BD0C2200260260BE
:103A8000F9E72A462146FEF791FBF4E782B001B937
:103A900001A942B14BB113780B601278101E18BF08
:103AA000012002B070471046FBE76FF00100F8E715
:103AB0000346084641B1FF2A04D98A224FF0FF305D
:103AC0001A60704701200A70704700000EB403B5F9
:103AD000014603AB054853F8042B0068019300F03E
:103AE00035F802B05DF804EB03B070470C0000201D
:103AF000062008B500F0FCF9012000F0E3FA936815
:103B000010B4013B002B936007DA9469A34201DBF8
:103B10000A2902D110BC00F031B91368581C10609A
:103B20001970084610BC7047F8B506460F46144693
:103B3000D518AC4201D1002007E03A46304614F8CF
:103B4000011BFFF7DCFF431CF3D1F8BD2DE9F04F5B
:103B50000D461446984606469DB018B1036A0BB947
:103B6000FEF7AAFA6B6ED90705D4AB899A0502D481
:103B7000A86DFEF792FBAB891B0701D52B699BB99A
:103B80002946304600F038F970B16B6EDC0704D579
:103B90004FF0FF301DB0BDE8F08FAB899805F7D42A
:103BA000A86DFEF77BFBF3E70023099320238DF834
:103BB000293030234FF00109CDF80C80DFF8A881BF
:103BC0008DF82A3023469A4613F8012B0AB1252A8C
:103BD000F9D1BAEB040B0BD05B462246294630469E
:103BE000FFF7A2FF013000F0A780099A5A4409921A
:103BF0009AF80030002B00F09F8000234FF0FF3236
:103C0000CDE905230AF1010A049307938DF8533097
:103C10001A935446052214F8011B5348FEF73FFB44
:103C2000049AD8B9D10644BF20238DF85330130726
:103C300044BF2B238DF853309AF800302A2B15D02F
:103C4000544600204FF00A0C079A214611F8013B18
:103C5000303B092B4BD9B0B1079214E0A0EB08031D
:103C600009FA03F31343A2460493D2E7039B191DF9
:103C70001B680391002BBBBF5B4242F0020207931B
:103C80000793B8BF049223782E2B0AD163782A2B8E
:103C900032D1039B02341A1D1B68039243EAE3737B
:103CA0000593DFF8C8A0032250462178FEF7F7FA03
:103CB00038B14022049BA0EB0A0082401343013438
:103CC000049314F8011B062229488DF82810FEF7EA
:103CD000E6FA00283FD0274B1BBB039B073323F09A
:103CE000070308330393099B3B4409936AE70C4697
:103CF00001200CFB0232A8E700234FF00A0C194602
:103D000001340593204610F8012B303A092A03D9D3
:103D1000002BC6D00591C4E7044601230CFB01210A
:103D2000F0E703AB00932A463046134B04A9FDF796
:103D300077FD0746781CD6D16B6ED90705D4AB89C1
:103D40009A0502D4A86DFEF7A9FAAB895B063FF588
:103D50001FAF09981EE703AB00932A463046064B77
:103D600004A9FDF7FBFFE4E7994200089F42000821
:103D7000A342000821180008293B0008F8B50E46A8
:103D80001446054618B1036A0BB9FEF795F9A36905
:103D9000A360A3891A0701D5236943B921462846A0
:103DA00000F02AF818B14FF0FF373846F8BD236805
:103DB0002269F6B2981A63693746834205DC2146C8
:103DC0002846FFF7EBFD0028EDD1A368013BA36077
:103DD00023685A1C22601E706269431C9A4204D0F8
:103DE000A389DB07E1D50A2EDFD121462846FFF75C
:103DF000D5FD0028D9D0D6E738B5284B0546186838
:103E00000C4618B1036A0BB9FEF756F9B4F90C3039
:103E10001A0721D4D80607D409222A6043F04003A8
:103E20004FF0FF30A38130E0590712D5616B41B1EB
:103E300004F14403994202D02846FFF7AFF800236B
:103E400063630022B4F90C306260226923F024031A
:103E5000226043F00803A38122693AB99A0501D58B
:103E6000180603D52146284600F082F8B4F90C3034
:103E700013F001020AD00022A26062695242A261DC
:103E8000226942B913F08000C8D138BD990758BFE4
:103E90006269A260F4E70020F7E700BF0C00002091
:103EA0001F2938B505460C4604D9162303604FF088
:103EB000FF3038BDC26B12B152F821304BB92846E1
:103EC00000F030F8224601462846BDE8384000F0B0
:103ED00017B8012B0AD0591C03D116230360012007
:103EE000E7E70021204642F8241098470020E0E749
:103EF000024B01461868FFF7D3BF00BF0C0000203B
:103F000038B50023064D0446084611462B6000F0E4
:103F1000ABF8431C02D12B6803B1236038BD00BF4E
:103F20004403002000F090B870B50C46B1F90E10B3
:103F3000154600291E4696B00ADAA18911F08001C3
:103F400013D14FF48062002031602A6016B070BD3A
:103F50006A4600F047F80028EFDB019901F4704150
:103F6000A1F5005359425941EBE700214022EAE70D
:103F70008B8973B59E0705460C4607D504F14703A8
:103F8000236023610123636102B070BD01AB6A4607
:103F9000FFF7CAFF009E28463146FFF771F8B4F9D3
:103FA0000C3038B99A05EFD423F0030343F0020331
:103FB000A381E3E743F08003A381019BC4E90406E6
:103FC0002060002BE0D02846B4F90E1000F01CF859
:103FD0000028D9D0A38923F0030343F00103A38170
:103FE000D2E7000038B50023064D044608461146C6
:103FF0002B6000F021F8431C02D12B6803B1236031
:1040000038BD00BF4403002038B50023054D0446E9
:1040100008462B6000F020F8431C02D12B6803B146
:10402000236038BD440300205822024B4FF0FF307C
:104030001A607047440300205822024B4FF0FF30B3
:104040001A607047440300205822024B4FF0FF30A3
:104050001A607047440300205822024B00201A6067
:10406000704700BF440300205822024B4FF0FF303E
:104070001A607047440300205822024B4FF0FF3073
:104080001A607047440300205822024B4FF0FF3063
:104090001A60704744030020044A05491368002B46
:1040A00008BF0B46184410601846704754030020A0
:1040B000580300205822024B4FF0FF301A6070471F
:1040C00044030020FEE700BFF8B500BFF8BC08BC01
:1040D0009E467047F8B500BFF8BC08BC9E467047C6
:1040E00076312E302E3000494E4600696E66004E05
:1040F000414E006E616E0030313233343536373820
:104100003941424344454600303132333435363745
:10411000383961626364656600496E66696E697408
:1041200079004E614E005245454E54206D616C6CD5
:104130006F6320737563636565646564002F5F5FFB
:10414000772F61726D2D6E6F6E652D656162692DC1
:104150006763632D787061636B2F61726D2D6E6F75
:104160006E652D656162692D6763632D787061638B
:104170006B2F6275696C642D6173736574732F6244
:1041800075696C642F77696E33322D7836342F73EE
:104190006F75726365732F6E65776C69622D6379D5
:1041A0006777696E2F6E65776C69622F6C696263E1
:1041B0002F7374646C69622F64746F612E630042A4
:1041C000616C6C6F6320737563636565646564001F
:1041D0002F5F5F772F61726D2D6E6F6E652D65613C
:1041E00062692D6763632D787061636B2F61726DF7
:1041F0002D6E6F6E652D656162692D6763632D7825
:104200007061636B2F6275696C642D617373657483
:10421000732F6275696C642F77696E33322D78362F
:10422000342F736F75726365732F6E65776C696277
:104230002D63796777696E2F6E65776C69622F6C75
:104240006962632F7374646C69622F6D7072656349
:104250002E63004300504F534958002E002C206617
:10426000756E6374696F6E3A200061737365727462
:10427000696F6E2022257322206661696C65643A3D
:104280002066696C6520222573222C206C696E657E
:10429000202564257325730A00232D302B20006808
:1042A0006C4C006566674546470000000000000052
:1042B000963007772C610EEEBA51099919C46D0733
:1042C0008FF46A7035A563E9A395649E3288DB0E8E
:1042D000A4B8DC791EE9D5E088D9D2972B4CB60971
:1042E000BD7CB17E072DB8E7911DBF906410B71D4E
:1042F000F220B06A4871B9F3DE41BE847DD4DA1A87
:10430000EBE4DD6D51B5D4F4C785D38356986C13B7
:10431000C0A86B647AF962FDECC9658A4F5C011430
:10432000D96C0663633D0FFAF50D088DC8206E3B0E
:104330005E10694CE44160D5727167A2D1E4033C20
:1043400047D4044BFD850DD26BB50AA5FAA8B53547
:104350006C98B242D6C9BBDB40F9BCACE36CD83236
:10436000755CDF45CF0DD6DC593DD1ABAC30D926DD
:104370003A00DE518051D7C81661D0BFB5F4B421E0
:1043800023C4B3569995BACF0FA5BDB89EB80228DD
:104390000888055FB2D90CC624E90BB1877C6F2F62
:1043A000114C6858AB1D61C13D2D66B69041DC765D
:1043B0000671DB01BC20D2982A10D5EF8985B17136
:1043C0001FB5B606A5E4BF9F33D4B8E8A2C90778E5
:1043D00034F9000F8EA8099618980EE1BB0D6A7F7C
:1043E0002D3D6D08976C6491015C63E6F4516B6B35
:1043F00062616C1CD83065854E0062F2ED95066CEA
:104400007BA5011BC1F4088257C40FF5C6D9B0655E
:1044100050E9B712EAB8BE8B7C88B9FCDF1DDD62BB
:10442000492DDA15F37CD38C654CD4FB5861B24D21
:10443000CE51B53A7400BCA3E230BBD441A5DF4AEB
:10444000D795D83D6DC4D1A4FBF4D6D36AE96943AE
:10445000FCD96E34468867ADD0B860DA732D044459
:10446000E51D03335F4C0AAAC97C0DDD3C71055084
:10447000AA41022710100BBE86200CC925B568572B
:10448000B3856F2009D466B99FE461CE0EF9DE5E74
:1044900098C9D9292298D0B0B4A8D7C7173DB35925
:1044A000810DB42E3B5CBDB7AD6CBAC02083B8EDB6
:1044B000B6B3BF9A0CE2B6039AD2B1743947D5EAC3
:1044C000AF77D29D1526DB048316DC73120B63E3F2
:1044D000843B64943E6A6D0DA85A6A7A0BCF0EE451
:1044E0009DFF099327AE000AB19E077D44930FF00C
:1044F000D2A3088768F2011EFEC206695D5762F703
:10450000CB67658071366C19E7066B6E761BD4FE3F
:10451000E02BD3895A7ADA10CC4ADD676FDFB9F91C
:10452000F9EFBE8E43BEB717D58EB060E8A3D6D6DE
:104530007E93D1A1C4C2D83852F2DF4FF167BBD10C
:104540006757BCA6DD06B53F4B36B248DA2B0DD80F
:104550004C1B0AAFF64A0336607A0441C3EF60DFB2
:1045600055DF67A8EF8E6E3179BE69468CB361CB9B
:104570001A8366BCA0D26F2536E2685295770CCCC0
:1045800003470BBBB91602222F260555BE3BBAC501
:10459000280BBDB2925AB42B040AB35CA7FFD7C252
:1045A00031CFD0B58B9ED92C1DAEDE5BB0C2649BE3
:1045B00026F263EC9CA36A750A936D02A906099C16
:1045C0003F360EEB8567077213570005824ABF9589
:1045D000147AB8E2AE2BB17B381BB60C9B8ED2920C
:1045E0000DBED5E5B7EFDC7C21DFDB0BD4D2D38663
:1045F00042E2D4F1F8B3DD686E83DA1FCD16BE81D6
:104600005B26B9F6E177B06F7747B718E65A0888A6
:10461000706A0FFFCA3B06665C0B0111FF9E658F37
:1046200069AE62F8D3FF6B6145CF6C1678E20AA0E1
:10463000EED20DD75483044EC2B30339612667A767
:10464000F71660D04D476949DB776E3E4A6AD1AEB6
:10465000DC5AD6D9660BDF40F03BD83753AEBCA945
:10466000C59EBBDE7FCFB247E9FFB5301CF2BDBDB2
:104670008AC2BACA3093B353A6A3B4240536D0BABB
:104680009306D7CD2957DE54BF67D9232E7A66B358
:10469000B84A61C4021B685D942B6F2A37BE0BB405
:1046A000A18E0CC31BDF055A8DEF022D0500000003
:1046B000190000007D0000000080E03779C341430D
:1046C000176E05B5B5B89346F5F93FE9034F384D78
:1046D000321D30F94877825A3CBF737FDD4F157524
:1046E000000000000000F03F000000000000244037
:1046F00000000000000059400000000000408F4012
:10470000000000000088C34000000000006AF8407C
:104710000000000080842E4100000000D0126341A0
:104720000000000084D797410000000065CDCD4116
:10473000000000205FA00242000000E876483742F7
:10474000000000A2941A6D42000040E59C30A24295
:104750000000901EC4BCD64200003426F56B0C430A
:104760000080E03779C3414300A0D88557347643B1
:1047700000C84E676DC1AB43003D9160E458E14312
:10478000408CB5781DAF154450EFE2D6E41A4B4487
:1047900092D54D06CFF08044F64AE1C7022DB544CC
:1047A000B49DD9794378EA4400202020202020209D
:1047B00020202828282828202020202020202020D1
:1047C00020202020202020202088101010101010E1
:1047D000101010101010101010040404040404042D
:1047E00004040410101010101010414141414141C7
:1047F00001010101010101010101010101010101A9
:1048000001010101101010101010424242424242B8
:104810000202020202020202020202020202020278
:104820000202020210101010200000000000000020
:104830000000000000000000000000000000000078
:104840000000000000000000000000000000000068
:104850000000000000000000000000000000000058
:104860000000000000000000000000000000000048
:104870000000000000000000000000000000000038
:104880000000000000000000000000000000000028
:104890000000000000000000000000000000000018
:0C48A0000000000000000000000000000C
:0848AC0064B8FF7F0100000069
:0448B4006D0A000881
:0448B800490A0008A1
:1048BC00000000000300000008020020100000208F
:1048CC00000000000802002070020020D802002026
:1048DC0000000000000000000000000000000000CC
:1048EC0000000000000000000000000000000000BC
:1048FC0000000000000000000000000000000000AC
:10490C000000000000000000000000004300000058
:10491C00000000000000000000000000000000008B
:10492C000000000000000000000000004300000038
:10493C00000000000000000000000000000000006B
:10494C000000000000000000000000004300000018
:10495C00000000000000000000000000000000004B
:10496C0000000000000000000000000043000000F8
:10497C00000000000000000000000000000000002B
:10498C0000000000000000000000000043000000D8
:10499C00000000000000000000000000000000000B
:1049AC0000000000000000000000000043000000B8
:1049BC0000000000000000000000000000000000EB
:1049CC000000000000000000000000004300000098
:1049DC0000000000000000000000000000000000CB
:1049EC00000000000000000000000000B13A0008C8
:1049FC008D3A000800000000A84700085B42000840
:104A0C009842000898420008984200089842000812
:104A1C009842000898420008984200089842000802
:104A2C0098420008FFFFFFFFFFFFFFFFFFFFFFFFA4
:104A3C00FFFF000001004153434949000000000002
:104A4C00000000000000000000000000000000005A
:104A5C0000000000000041534349490000000000E1
:104A6C00000000000000000000000000000000003A
:084A7C00000000000000000032
:040000050800169940
:00000001FF
