:020000040800F2
:10000000005000205D0D0008A50D0008A50D00089A
:10001000A50D0008A50D0008A50D000800000000B2
:10002000000000000000000000000000A50D000816
:10003000A50D000800000000A50D0008A50D000892
:10004000A50D0008A50D0008A50D0008A50D0008C8
:10005000A50D0008A50D0008A50D0008A50D0008B8
:10006000A50D0008A50D0008A50D0008A50D0008A8
:10007000A50D0008A50D0008A50D0008A50D000898
:10008000A50D0008A50D0008A50D0008A50D000888
:10009000A50D0008A50D0008A50D0008A50D000878
:1000A000A50D0008A50D0008A50D0008A50D000868
:1000B000A50D0008A50D0008A50D0008A50D000858
:1000C000A50D0008A50D0008A50D0008A50D000848
:1000D000A50D0008A50D0008A50D0008A50D000838
:1000E000A50D0008A50D0008A50D000800000000E2
:1000F0000000000000000000000000000000000000
:0C01000000000000000000005FF808F1A3
:10010C0010B5054C237833B9044B13B10448AFF345
:10011C0000800123237010BD0000002000000000AF
:10012C00000E000808B5034B1BB103490348AFF39D
:10013C00008008BD0000000004000020000E000834
:10014C00BFF34F8F0549064BCA6802F4E0621343B4
:10015C00CB60BFF34F8F00BFFDE700BF00ED00E0A9
:10016C000400FA052DE9F0430024C3B00DF101059C
:10017C0000F090F900F06CFB294604202C7000F084
:10018C00B9FA002871D02B78002B6ED0012B40F0DF
:10019C009F800DF10206314613208DF8024000F0CD
:1001AC00A9FA9DF8023001AFA3424FF00402394680
:1001BC004FF0050014BF4FF4F0384FF4704800F0C6
:1001CC0006FB3E6804223946092036BA00F0FFFAD5
:1001DC00731EB3F5304F04D30021042000F068FAED
:1001EC0043E0314640463F6800F084FB3FBA87420B
:1001FC00F2D100F0A3F802AF78B93946387012206A
:10020C0000F078FA3B780133D9B2397002292AD838
:10021C00122000F04DFAFFF793FFA6EB0409B9F595
:10022C00807F28BF4FF4807939464A4608EB04009A
:10023C0000F047FB04F100604A46394600F5A04047
:10024C0000F0A0F8002864D004F58074A642E4D82D
:10025C000021042000F02CFA0021122000F028FAD2
:10026C0000211120BAE702232B7000F0DDF80028E2
:10027C002DD02F4A1468506872B62E4B996921F014
:10028C0004019961996921F008019961996921F03A
:10029C0010019961996921F480519961996921F44E
:1002AC0080419961D96921F40031D961D96921F46E
:1002BC000011D961D96921F00101D961596921F085
:1002CC000101596184F308881B4B9A608047FEE753
:1002DC0000F034F80028C8D04FF48072204602A9F0
:1002EC0000F0EFFA04F100604FF4807202A900F5FF
:1002FC00A04000F047F80028B7D004F58074B4F59E
:10030C00704FE9D10021042000F0D2F90021122015
:10031C0064E70DF1030421468DF80300122000F070
:10032C00E9F99DF803300133D9B28DF803106DE76C
:10033C00005000080010024000ED00E070B50024F1
:10034C0086B01022002102A800F027FD019400F0D5
:10035C0001FC72B62C230A4E01A902A8CDE9046354
:10036C00029400F0A1FC054662B600F005FC2DB924
:10037C003068431C5842584106B070BD2046FBE71C
:10038C00005000082DE9F041804616460C4611B984
:10039C000020BDE8F081002AFAD0224B9842F7D316
:1003AC00024403F530439A42F2D800F0E5FB00F02A
:1003BC00D1FB72B600256B1C9E4294BF4FF07F435D
:1003CC006378227888BF1B021A43AB1C9E4294BFF1
:1003DC004FF07F43A3784FF0020088BF1B041343F8
:1003EC00EA1C964294BF4FF07F47E77808EB050173
:1003FC0088BF3F061F433A46002300F0F1FB18B1BB
:10040C0062B600F0B9FBC3E758F805309F42F7D14C
:10041C000435AE4204F10404CDD862B600F0ACFB56
:10042C000120B6E7005000080A4A1368506803F12F
:10043C006043B3F5A04F0AD800F17843A3F5A0436D
:10044C00B3F5304F2CBF002000F0010070470020A6
:10045C00704700BF005000081022014B5A617047D2
:10046C00000801401022014B1A617047000801403E
:10047C00034B18739A68D207FCD5187B704700BFE2
:10048C0000300140024B9868C0F3C010704700BFA9
:10049C00000C01401FB50E4B4FF0030C1A68C02026
:1004AC0022F001021A601A68112122F001021A606E
:1004BC0000238DE80B106946064800F04FFA4023E4
:1004CC00044A13618023136105B05DF804FB00BF7F
:1004DC0000540040000C01408023124A84B0136188
:1004EC0000230193019B0E2B12DD4023136100238B
:1004FC000293029B0E2B0EDD80230A4A53610023CC
:10050C000393039B0E2B09DD4023536104B070470A
:10051C00019B0133E5E7029B0133E9E7039B0133C0
:10052C00EEE700BF000C01408023114A84B05361F8
:10053C0000230193019B0E2B10DD4023136100233C
:10054C000293029B0E2B0CDD8022094B1A610023B7
:10055C000393039B0E2B07DD04B07047019B013303
:10056C00E7E7029B0133EBE7039B0133F0E700BFA6
:10057C00000C01407FB50723802600214025124A3C
:10058C0040FA03F4E4074CBF166156610191019CDB
:10059C000E2C0DDD15610291029C0E2C0CDD5561AB
:1005AC000391039C0E2C0BDD013BE9D204B070BD12
:1005BC00019C01340194EAE7029C01340294EBE7BC
:1005CC00039C01340394ECE7000C0140802307B535
:1005DC00094A13614023136100230193019B0E2BE5
:1005EC0006DDFFF74FFF4023536103B05DF804FBBA
:1005FC00019B0133F1E700BF000C014080220A4B44
:10060C0082B060B11A6140221A6100230193019BF0
:10061C000E2B06DD4022044B5A6102B070475A6122
:10062C00F1E7019B0133F1E7000C014000222DE9B9
:10063C00F34180260446114640279046134D2E6107
:10064C002F61CDF80080009B0E2B16DDFFF71AFFF3
:10065C0018B146FA02F30B43D9B26F61CDF804809E
:10066C00019B0E2B0DDD0132082AE9D12046FFF744
:10067C00C5FF084602B0BDE8F081009B0133009332
:10068C00E1E7019B01330193EAE700BF000C014055
:10069C000623002182B00191019AB2F5FA6F03D3BF
:1006AC00013BF8D102B07047019A01320192F3E795
:1006BC0038B505460C46FFF70FFFA020FFF75AFF91
:1006CC00FFF784FF30B10024FFF72EFFFFF7E0FFA8
:1006DC00204638BD2846FFF74DFFFFF777FF00286F
:1006EC00F1D12046FFF746FFFFF770FFB0FA80F418
:1006FC006409E9E738B505460C4651B1FFF7ECFE45
:10070C00A020FFF737FFFFF761FF20B10024FFF7B0
:10071C000BFF204638BD2846FFF72CFFFFF756FF8E
:10072C000028F3D1FFF7D8FEA120FFF723FFFFF736
:10073C004DFF0028EAD10120FFF778FF207001243B
:10074C00E5E72DE9F047054616468946D1B18318F1
:10075C00B3F5807F16DC4FF000080EB9012012E0D3
:10076C0005F00704C4F10804E4B2B44288BFF4B243
:10077C00FFF7B2FEA020FFF7FDFEFFF727FF20B129
:10078C00FFF7D2FE0020BDE8F0872846FFF7F2FE07
:10079C00FFF71CFF07460028F2D109EB080A1AF8EC
:1007AC00010BFFF7E7FEFFF711FF0028E8D1013737
:1007BC00FFB2BC42F3D1A0442544341BFFF7B4FE76
:1007CC005FFA88F8FFF764FFEDB2A6B2C5E72DE932
:1007DC00F041064615460C4669B18318B3F5807F87
:1007EC0009DCFFF779FEA020FFF7C4FEFFF7EEFE51
:1007FC0020B1FFF799FE0020BDE8F0813046FFF7ED
:10080C00B9FEFFF7E3FE0028F3D1FFF765FEA12048
:10081C00FFF7B0FEFFF7DAFE0028EAD1671E6E1E66
:10082C00C4F1010808EB07039E420ADC0120FFF724
:10083C00FDFE002D08BF0026A055FFF775FE012018
:10084C00DAE70020FFF7F2FE07F8010FEAE70000F5
:10085C0007B5042269460020FFF7B9FF18B900203C
:10086C0003B05DF804FB009BB3F1A53FF8D0042264
:10087C004FF0A53300200DEB02010193FFF761FF50
:10088C000028ECD000210420FFF712FF0028E6D04E
:10089C0006222020024903B05DF804EBFFF751BF9C
:1008AC00180E000810B50446C0F30740FFF7E0FD32
:1008BC00C4F30720FFF7DCFDE0B2BDE81040FFF702
:1008CC00D7BD70B506460C461546FFF7C5FD03208F
:1008DC00FFF7CEFD3046FFF7E5FF2544AC4203D1D0
:1008EC00BDE87040FFF7BEBDFF20FFF7C1FD04F867
:1008FC00010BF3E72DE9F04105460C464FF0FF36AE
:10090C00DFF84480C0B01CB9F04340B0BDE8F081C2
:10091C00B4F5807F274628BF4FF4807769463A4666
:10092C002846FFF7CEFF6946002211F8013B013241
:10093C007340DBB258F82330974283EA1626F4D181
:10094C003D44E41BDFE700BF200E000870470000A9
:10095C00014B1868704700BF1C0000202DE9F74FB1
:10096C0000244FF00F0E2646DFF884C1614B00F1D6
:10097C0004080A6832FA06F502D103B0BDE8F08F1C
:10098C00012505FA06F702EA070537EA020276D1D5
:10099C004A68032A07D8013A022A00F28380DFE86A
:1009AC0002F091969C00122A00F0948069D8112ACA
:1009BC0000F08A80FF2D94BF8146C1464FEA860223
:1009CC00D9F8007088BF203A0EFA02FA27EA0A0713
:1009DC0004FA02F21743C9F80070D1F8049019F028
:1009EC00805F4CD0DCF8182026F0030742F001029F
:1009FC00CCF81820DCF8182007F1804702F001022F
:100A0C00019207F5803706F0030A019A4FEA8A0A29
:100A1C00BA680EFA0AFB22EA0B0B374A904260D0F6
:100A2C0002F5806290425ED002F5806290425CD00A
:100A3C0002F58062904214BF0422032202FA0AF2E9
:100A4C0042EA0B02BA609A6819F4801F14BF2A4359
:100A5C00AA439A60DA6819F4001F14BF2A43AA4308
:100A6C00DA605A6819F4003F14BF2A43AA435A604B
:100A7C001A6819F4803F14BF2A43AA431A6001363E
:100A8C0077E7DFF878904A450CD014D8A9F580198F
:100A9C004A4507D009F570294A4503D0A9F58019B4
:100AAC004A4587D18A68D2B1012A4FF008040CBF9D
:100ABC00076147617EE7DFF848904A45F2D009F5B7
:100ACC008039EDE7CC6875E7CC68043472E7CC6804
:100ADC0008346FE7CC680C346CE700246AE7042414
:100AEC0068E70022AAE70122A8E70222A6E700BFD6
:100AFC0000100240000401400008014000002210D8
:100B0C0000003110114AD36813F0100305D01049BE
:100B1C00CB6943F00203CB611023D268500706D592
:100B2C000B4943F00403CA6942F00102CA61074A47
:100B3C00D169C90708D50648C16941F00401C161F2
:100B4C00D16921F00101D161D360704700200240CE
:100B5C0020000020064B186910F0800007D0054AD1
:100B6C005A6002F188325A601869C0F3C01070479D
:100B7C000020024023016745034A0020136943F01B
:100B8C0080031361704700BF0020024070B505461A
:100B9C00FFF7DEFE0646114CE368D80712D4E36873
:100BAC00990644BF2023E360E368DA0606D4E369C0
:100BBC00DB0703D4E06810F0040007D0FFF7A2FFB6
:100BCC00012003E06B1CE7D00DB9032070BDFFF7CB
:100BDC00BFFE801BA842DFD9F7E700BF0020024010
:100BEC002DE9F84FDFF894A01F469AF81830054607
:100BFC00012B884691463FD001234CF250308AF8A5
:100C0C001830FFF7C3FF90BB012D03D0022D14BF8A
:100C1C000425022500263346DFF864B03401C4F104
:100C2C002001A4F1200207FA01F129FA04F4CAF810
:100C3C001C300C4327FA02F21443DBF81020A4B248
:100C4C0042F00102CBF810204CF2503028F816403C
:100C5C00FFF79CFFDBF8102022F00102CBF81020EC
:100C6C0028B90136F2B295424FF00003D6D80023D2
:100C7C008AF81830BDE8F88F0220FBE7200000202E
:100C8C00002002400022064BDA61064B1A6942F042
:100C9C0002021A6158611A6942F040021A617047E7
:100CAC0020000020002002402DE9F041264F05468F
:100CBC003B7E8846012B44D001243C7603684CF2E1
:100CCC005030022B1AD1FFF761FF20B10120002315
:100CDC003B76BDE8F0811D4CF86123694CF2503035
:100CEC0043F004032361236943F040032361FFF7BE
:100CFC004DFF236923F004032361E8E7FFF746FF68
:100D0C000028E3D14FF0FF33C8F800302046AE681E
:100D1C000E4CD5E9023203EB8223B342D7D93046CD
:100D2C00FFF7B0FF4CF25030FFF730FF236923F090
:100D3C000203236110B1C8F80060C8E706F58066AD
:100D4C00E7E70220C5E700BF20000020002002409A
:100D5C00FFF7FCFD0B480C490C4A002302E0D45869
:100D6C00C4500433C4188C42F9D3094A094C0023EB
:100D7C0001E013600432A242FBD300F017F8FFF736
:100D8C00F1F9704700000020000000202812000834
:100D9C000000002040000020FEE70346024493427E
:100DAC0000D1704703F8011BF9E7000070B500266D
:100DBC000C4D0D4B5B1B9C10A64209D1002600F07C
:100DCC0019F80A4D0A4B5B1B9C10A64205D170BD4D
:100DDC0055F8043B98470136EEE755F8043B984725
:100DEC000136F2E720120008201200082012000839
:100DFC0024120008F8B500BFF8BC08BC9E4670472A
:0C0E0C00F8B500BFF8BC08BC9E4670475B
:100E180076312E302E300000000000009630077723
:100E28002C610EEEBA51099919C46D078FF46A70D6
:100E380035A563E9A395649E3288DB0EA4B8DC79F6
:100E48001EE9D5E088D9D2972B4CB609BD7CB17E76
:100E5800072DB8E7911DBF906410B71DF220B06A46
:100E68004871B9F3DE41BE847DD4DA1AEBE4DD6D56
:100E780051B5D4F4C785D38356986C13C0A86B6456
:100E88007AF962FDECC9658A4F5C0114D96C066376
:100E9800633D0FFAF50D088DC8206E3B5E10694C56
:100EA800E44160D5727167A2D1E4033C47D4044B96
:100EB800FD850DD26BB50AA5FAA8B5356C98B24276
:100EC800D6C9BBDB40F9BCACE36CD832755CDF45F6
:100ED800CF0DD6DC593DD1ABAC30D9263A00DE5126
:100EE8008051D7C81661D0BFB5F4B42123C4B35616
:100EF8009995BACF0FA5BDB89EB802280888055F96
:100F0800B2D90CC624E90BB1877C6F2F114C6858F5
:100F1800AB1D61C13D2D66B69041DC760671DB01E3
:100F2800BC20D2982A10D5EF8985B1711FB5B606B5
:100F3800A5E4BF9F33D4B8E8A2C9077834F9000FF5
:100F48008EA8099618980EE1BB0D6A7F2D3D6D0895
:100F5800976C6491015C63E6F4516B6B62616C1C85
:100F6800D83065854E0062F2ED95066C7BA5011BB5
:100F7800C1F4088257C40FF5C6D9B06550E9B71255
:100F8800EAB8BE8B7C88B9FCDF1DDD62492DDA1515
:100F9800F37CD38C654CD4FB5861B24DCE51B53A35
:100FA8007400BCA3E230BBD441A5DF4AD795D83D35
:100FB8006DC4D1A4FBF4D6D36AE96943FCD96E3475
:100FC800468867ADD0B860DA732D0444E51D033355
:100FD8005F4C0AAAC97C0DDD3C710550AA41022765
:100FE80010100BBE86200CC925B56857B3856F2035
:100FF80009D466B99FE461CE0EF9DE5E98C9D92995
:101008002298D0B0B4A8D7C7173DB359810DB42ED4
:101018003B5CBDB7AD6CBAC02083B8EDB6B3BF9A20
:101028000CE2B6039AD2B1743947D5EAAF77D29DAC
:101038001526DB048316DC73120B63E3843B64948C
:101048003E6A6D0DA85A6A7A0BCF0EE49DFF09938C
:1010580027AE000AB19E077D44930FF0D2A30887FC
:1010680068F2011EFEC206695D5762F7CB676580AC
:1010780071366C19E7066B6E761BD4FEE02BD389AC
:101088005A7ADA10CC4ADD676FDFB9F9F9EFBE8E0C
:1010980043BEB717D58EB060E8A3D6D67E93D1A14C
:1010A800C4C2D83852F2DF4FF167BBD16757BCA62C
:1010B800DD06B53F4B36B248DA2B0DD84C1B0AAFCC
:1010C800F64A0336607A0441C3EF60DF55DF67A84C
:1010D800EF8E6E3179BE69468CB361CB1A8366BCDC
:1010E800A0D26F2536E2685295770CCC03470BBB2C
:1010F800B91602222F260555BE3BBAC5280BBDB22C
:10110800925AB42B040AB35CA7FFD7C231CFD0B52B
:101118008B9ED92C1DAEDE5BB0C2649B26F263ECBD
:101128009CA36A750A936D02A906099C3F360EEBCB
:101138008567077213570005824ABF95147AB8E28B
:10114800AE2BB17B381BB60C9B8ED2920DBED5E56B
:10115800B7EFDC7C21DFDB0BD4D2D38642E2D4F1BB
:10116800F8B3DD686E83DA1FCD16BE815B26B9F64B
:10117800E177B06F7747B718E65A0888706A0FFFAB
:10118800CA3B06665C0B0111FF9E658F69AE62F86B
:10119800D3FF6B6145CF6C1678E20AA0EED20DD76B
:1011A8005483044EC2B30339612667A7F71660D08B
:1011B8004D476949DB776E3E4A6AD1AEDC5AD6D9CB
:1011C800660BDF40F03BD83753AEBCA9C59EBBDEEB
:1011D8007FCFB247E9FFB5301CF2BDBD8AC2BACA9B
:1011E8003093B353A6A3B4240536D0BA9306D7CD0B
:1011F8002957DE54BF67D9232E7A66B3B84A61C42B
:10120800021B685D942B6F2A37BE0BB4A18E0CC3EA
:081218001BDF055A8DEF022DCA
:041220003101000890
:041224000D010008B0
:0400000508000D5D85
:00000001FF
