:020000040800F2
:1000000000500020F13A000861050008630500086F
:100010006505000867050008690500080000000084
:100020000000000000000000000000009135000802
:100030006B05000800000000F135000835360008A7
:10004000393B0008393B0008393B0008393B0008C0
:10005000393B0008393B0008393B0008393B0008B0
:10006000393B0008393B0008393B0008393B0008A0
:10007000393B0008393B00086D0500087D05000884
:10008000393B0008393B0008393B0008393B000880
:10009000393B0008393B0008393B0008393B000870
:1000A000393B0008393B0008393B0008393B000860
:1000B0008D050008393B0008393B0008393B000832
:1000C000393B0008393B0008393B0008393B000840
:1000D000393B00089D050008393B0008393B000802
:1000E000393B0008393B0008393B0008000000009C
:1000F0000000000000000000000000000000000000
:0C01000000000000000000005FF808F1A3
:10011000034613F8012B002AFBD1181A0138704747
:1001200010B5054C237833B9044B13B10448AFF331
:1001300000800123237010BD6C000020000000002F
:10014000844E000808B5034B1BB103490348AFF3C5
:10015000008008BD0000000070000020844E0008F0
:1001600038B5054600244FF40051074801F0DEFC85
:100170000134234604F001022946044803F0A2FD9D
:10018000C82002F019FBEEE7001001409C4E000869
:1001900038B5054600244FF48041084801F0C6FCFC
:1001A0000134234604F001022946054803F08AFD84
:1001B0004FF4FA7002F000FBEDE700BF00100140C1
:1001C000C04E000830B583B0054600240EE0019B08
:1001D00001330193019A0C4B9A42F8D922462946E1
:1001E0000A4803F06FFD642002F0E6FA4FF4004184
:1001F000074801F09BFC013422462946054803F0DC
:1002000061FD00230193E5E7FF340C000C4F00086B
:1002100000100140E44E000838B50024651C03F0CE
:100220007BF902462146044803F04CFD4FF47A6006
:1002300002F0C2FA2C46F1E7304F000808B5074833
:1002400003F0A8FD40F6B83002F0B6FA044803F017
:10025000A1FD002002F078F808BD00BF704F000833
:10026000A84F000800B5ADF5017D41F2883002F0DD
:10027000A3FA684602F092FC074803F08BFD69463A
:10028000064803F01FFD064803F084FD41F2883064
:1002900002F092FAEDE700BFDC4F00087050000852
:1002A00000500008034B0360034B0B608023136076
:1002B000704700BF880200208800002008B50C4667
:1002C00072B6094803F066FD084D284603F062FD4A
:1002D000074803F05FFD2146064803F0F3FC28467B
:1002E00003F058FDFEE700BF6853000824500008E3
:1002F000485000086450000808B50368B3F1804F07
:1003000000D008BD00F0AEFFFBE772B6FEE710B507
:1003100090B006AC28220021204603F03BFE0023CB
:1003200001930293039304930593022306930123FD
:100330000A9310230B93204600F0BCFF60B90F23F3
:1003400001930021029103910491059101A801F00C
:10035000E3F918B910B010BDFFF7D7FFFFF7D5FFCD
:100360002DE9F04385B000F06BFFFFF7D0FF03F0FD
:10037000E5F903F09BFB03F01FFA03F0CFFA5448B2
:1003800003F008FD534803F005FD534B196853482B
:1003900003F098FC524803F0FDFC03F0BDF807465B
:1003A00000230193032300934E4B4FF480724E4978
:1003B0004E4801F096FF012871D1002301930223DA
:1003C00000934B4B4FF480624A494B4801F089FF40
:1003D000012868D10023019301230093474B4FF478
:1003E00080724749474801F07CFF01285FD1002314
:1003F0000193012200924FF400724349434801F0F7
:1004000070FF012857D100230193012200924FF47D
:1004100080723F493F4801F064FF01284FD103F04B
:100420007BF805463C1A3C4B02933C4B019302235C
:10043000009300234FF4807239493A4801F035FFA8
:10044000804603F069F80646A5EB0009364803F03C
:10045000A1FC0A224FF42051344803F033FC394602
:10046000334803F02FFC2A462146324803F02AFC89
:10047000314BA3FB0434A4082146304803F022FC8E
:10048000324649462E4803F01DFCB8F1000F1AD041
:1004900021462C4803F016FC01F0FEFFFEE72A4837
:1004A00003F078FC89E7294803F074FC92E72848B8
:1004B00003F070FC9BE7274803F06CFCA3E7264899
:1004C00003F068FCABE7254803F064FCE4E700BFF9
:1004D00078500008A450000808000020C850000808
:1004E000E45000081051000818510008610100088C
:1004F0003C5100084451000891010008685100086F
:1005000070510008C5010008945100083D02000820
:10051000BC51000865020008DC0200203003002006
:10052000E051000819020008E85100080C520008C8
:100530003852000860520008CDCCCCCC9052000854
:10054000D052000800530008205100084C51000808
:10055000785100089C510008C45100083853000825
:10056000FEE7FEE7FEE7FEE7FEE7704708B5024854
:1005700001F0D8FB08BD00BF0033002008B50248D9
:1005800001F0D0FB08BD00BFBC32002008B5024816
:1005900000F066F808BD00BF7432002008B50248BC
:1005A00000F02EFC08BD00BF4433002082B00E4B8B
:1005B0009A6942F001029A619A6902F0010200927E
:1005C000009ADA6942F08052DA61DB6903F0805305
:1005D0000193019B054A536823F0E06343F00073E5
:1005E000536002B0704700BF00100240000001409D
:1005F0007047000090F83D30012B27D1022380F88E
:100600003D300268D36843F00103D3600368114AA8
:10061000934210D0B3F1804F0DD0A2F594329342A3
:1006200009D002F58062934205D01A6842F00102B7
:100630001A60002070479A6802F00702062A07D065
:100640001A6842F001021A600020704701207047CA
:1006500000207047002C014070477047704770477A
:1006600070B504460368DE681D6915F0020F10D0EE
:1006700016F0020F0DD06FF002021A61012303770A
:1006800003689B6913F0030F5ED0FFF7E6FF0023BA
:10069000237715F0040F12D016F0040F0FD0236843
:1006A0006FF004021A610223237723689B6913F415
:1006B000407F4FD02046FFF7D0FF0023237715F06F
:1006C000080F12D016F0080F0FD023686FF0080241
:1006D0001A61042323772368DB6913F0030F40D0EA
:1006E0002046FFF7BAFF0023237715F0100F12D032
:1006F00016F0100F0FD023686FF010021A61082354
:1007000023772368DB6913F4407F31D02046FFF75D
:10071000A4FF0023237715F0010F02D016F0010F7C
:100720002DD115F0800F02D016F0800F2FD115F0CB
:10073000400F02D016F0400F31D115F0200F02D03B
:1007400016F0200F33D170BDFFF786FF2046FFF76C
:1007500085FF9CE72046FFF77FFF2046FFF77EFFDF
:10076000ABE72046FFF778FF2046FFF777FFBAE7B1
:100770002046FFF771FF2046FFF770FFC9E72368A7
:100780006FF001021A612046FFF7B6FDC9E7236842
:100790006FF080021A61204600F081F8C7E72368F5
:1007A0006FF040021A612046FFF759FFC5E7236842
:1007B0006FF020021A61204600F070F8C3E70000D5
:1007C00003681F4A90420AD0B0F1804F07D0A2F5CB
:1007D0009432904203D002F58062904203D123F01C
:1007E00070034A681343164A90420AD0B0F1804F12
:1007F00007D0A2F59432904203D002F58062904275
:1008000003D123F44073CA68134323F080034A6979
:10081000134303608B68C3620B688362084B984282
:100820000AD001234361036913F0010F03D0036968
:1008300023F00103036170470B690363F1E700BF15
:10084000002C014040B310B5044690F83D30F3B1A0
:10085000022384F83D30214651F8040BFFF7B0FF26
:10086000012384F8463084F83E3084F83F3084F821
:10087000403084F8413084F8423084F8433084F8C2
:10088000443084F8453084F83D30002010BD80F8B5
:100890003C30FFF7ADFEDBE7012070477047704743
:1008A000026802F10C0353E8003F23F0C0030C324E
:1008B00042E800310029F3D1202380F8413070470D
:1008C000026802F10C0353E8003F23F490730C32EA
:1008D00042E800310029F3D1026802F1140353E821
:1008E000003F23F00103143242E800310029F3D124
:1008F000036B012B05D0202380F8423000230363D3
:100900007047026802F10C0353E8003F23F0100324
:100910000C3242E800310029F3D1ECE790F8413085
:10092000212B01D0022070478368B3F5805F17D078
:10093000036A5A1C02621A7803685A60C38C9BB21D
:10094000013B9BB2C3844BB90268D36823F0800398
:10095000D3600268D36843F04003D360002070473F
:100960000369002BE4D1036A1B880268C3F3080300
:100970005360036A02330362E0E7000010B50446E7
:100980000268136923F44053C1680B431361836801
:100990000269134342691A430168CB6823F4B053D8
:1009A00023F00C031343CB600268536923F44073B4
:1009B00081690B4353610268134B9A4220D000F0C7
:1009C00067FF024602EB820202EB820263689B0031
:1009D000B2FBF3F20D48A0FB02314909642303FB8B
:1009E00011231B013233A0FB03035B0903F0F00268
:1009F00002EB011203F00F03216813448B6010BD5A
:100A000000F056FF0246DDE7003801401F85EB513C
:100A10002DE9F04383B005460E4617469946DDF8AA
:100A200028802B681C6836EA04040CBF01240024CB
:100A3000BC4228D1B8F1FF3FF3D000F01FFCA0EB7F
:100A40000900404523D8B8F1000F22D02B68DA689E
:100A500012F0040FE5D0802EE3D0402EE1D01A68CA
:100A600012F0080FDDD0002401941A6801925B682F
:100A70000193019B2846FFF723FF08236B6485F849
:100A80004040012000E0002003B0BDE8F0830320D7
:100A9000FAE70320F8E760B310B5044690F8413058
:100AA00013B3242384F841302268D36823F400531D
:100AB000D3602046FFF762FF2268136923F4904356
:100AC00013612268536923F02A0353612268D368B3
:100AD00043F40053D36000206064202384F8413045
:100AE00084F84230606310BD80F8403002F07EFE32
:100AF000D7E7012070472DE9F04182B01E4690F8FB
:100B00004130202B56D104460D469046002955D041
:100B10000AB901204FE000234364212380F84130CB
:100B200000F0ACFB0746A4F82480A4F82680A36854
:100B3000B3F5805F02D04FF0000814E023692BB3B7
:100B40004FF000080FE0202384F84130032032E00A
:100B500038F8023B2268C3F308035360E28C92B278
:100B6000013A92B2E284E38C9BB293B100963B4689
:100B7000002280212046FFF74BFF0028E3D1002D03
:100B8000E6D015F8012B23685A60E7E7A846002550
:100B9000E9E700963B46002240212046FFF738FF58
:100BA00018B9202384F8413005E0202384F841302F
:100BB000032000E0022002B0BDE8F0810120FAE746
:100BC00038B590F84130202B30D1044600292FD081
:100BD0000AB9012038BD01628284C28400234364C3
:100BE000212084F84100A06B124D8562A06B124D4C
:100BF000C562A06B114D0563A06B4363206813466B
:100C0000021DA06B00F0E6FF23686FF040021A603F
:100C1000226802F1140353E8003F43F080031432CA
:100C200042E800310029F3D10020D3E70220D1E7C8
:100C30000120CFE7410C0008A90C0008B90C0008FE
:100C400008B50346406A1B681B6813F0200F1AD1D1
:100C50000023C384026802F1140353E8003F23F029
:100C60008003143242E800310029F3D1026802F116
:100C70000C0353E8003F43F040030C3242E80031DC
:100C80000029F3D108BD02F0A7FEFBE708B5016813
:100C9000CA6822F04002CA60202280F8412002F097
:100CA0009BFE002008BD704708B5406AFFF7FBFFB8
:100CB00008BD70477047704710B5446A23685B6988
:100CC00094F84120212A0FD023685B6903F0400388
:100CD00094F84220222A11D0636C43F0100363641D
:100CE0002046FFF7E8FF10BD03F08003002BEBD098
:100CF0000023E3842046FFF7D3FDE5E7002BEBD08C
:100D00000023E3852046FFF7DBFDE5E708B5406AF1
:100D10000023C385C384FFF7CEFF08BD90F842309F
:100D2000222B69D18368B3F5805F4FD0826AB3F517
:100D3000805F04D0002B56D10369002B53D1036888
:100D40005B681370836A01338362C38D9BB2013B7E
:100D50009BB2C385002B51D100B583B00268D36824
:100D600023F02003D3600268D36823F48073D36038
:100D70000268536923F001035361202380F8423055
:100D800000234363036B012B33D100230363026809
:100D900002F10C0353E8003F23F010030C3242E849
:100DA00000310029F3D103681A6812F0100F06D041
:100DB000002201921A6801925B680193019B818D68
:100DC00002F02EFE002003B05DF804FB0269002A49
:100DD000ACD1826A03685B68C3F308031380836A3B
:100DE00002338362B1E703685B6803F07F0313702B
:100DF000A8E7FFF75EFFE5E7022070470020704795
:100E000010B582B0044602681368D068516913F0C7
:100E10000F0F09D113F0200F0CD010F0200F09D0C4
:100E20002046FFF77BFF16E011F0010115D110F409
:100E3000907F12D1216B012979D013F0800F03D05C
:100E400010F0800F40F0138113F0400F03D010F02A
:100E5000400F40F0108102B010BD13F0010F06D01A
:100E600010F4807F03D0626C42F00102626413F0E0
:100E7000040F04D019B1626C42F00202626413F0F4
:100E8000020F04D019B1626C42F00402626413F0E4
:100E9000080F07D010F0200F00D119B1626C42F09A
:100EA00008026264626C002AD5D013F0200F02D0D1
:100EB00010F0200F29D123685B6903F04003626CB6
:100EC00012F0080F00D163B32046FFF7F9FC236846
:100ED0005B6913F0400F20D0226802F1140353E83D
:100EE000003F23F04003143242E800310029F3D1DF
:100EF000E36B73B1624A5A63E06B00F0C7FE0028EF
:100F0000A9D0E06B436B9847A5E72046FFF706FFA3
:100F1000D1E72046FFF7CFFE9DE72046FFF7CBFE47
:100F200099E72046FFF7C7FE0023636493E713F0B9
:100F3000100F82D010F0100F3FF47FAF0023019309
:100F40001368019353680193019B536913F0400F99
:100F500051D0E26B13685B689BB2002B3FF47BAF10
:100F6000A18D99427FF677AFE3859369202B37D027
:100F7000226802F10C0353E8003F23F480730C3223
:100F800042E800310029F3D1226802F1140353E84A
:100F9000003F23F00103143242E800310029F3D16D
:100FA000226802F1140353E8003F23F04003143297
:100FB00042E800310029F3D1202384F84230002395
:100FC0002363226802F10C0353E8003F23F010036F
:100FD0000C3242E800310029F3D1E06B00F034FE1E
:100FE00002236363A18DE38D9BB2C91A89B22046A7
:100FF00002F016FD2FE7A18DE38D9BB2C91A89B2CD
:10100000E38D9BB2002B3FF426AF00293FF423AFC2
:10101000226802F10C0353E8003F23F490730C3272
:1010200042E800300028F3D1226802F1140353E8AB
:10103000003F23F00103143242E800300028F3D1CE
:10104000202384F8423000232363226802F10C033A
:1010500053E8003F23F010030C3242E80030002830
:10106000F3D102236363204602F0DAFCF3E6204664
:10107000FFF754FCEFE62046FFF708FEEBE600BF63
:101080000D0D000808B5406A01234363036B012B73
:1010900002D0FFF70FFE08BD818D490802F0C0FCA9
:1010A000F9E708B50346406A1B681B6813F0200F78
:1010B0002BD10023C385026802F10C0353E8003FE3
:1010C00023F480730C3242E800310029F3D1026826
:1010D00002F1140353E8003F23F00103143242E805
:1010E00000310029F3D1026802F1140353E8003FF4
:1010F00023F04003143242E800310029F3D12023C9
:1011000080F84230036B012B07D000234363036B4D
:10111000012B0FD0FFF7CDFD08BD026802F10C03D3
:1011200053E8003F23F010030C3242E8003100295D
:10113000F3D1EAE7818D02F073FCEDE730B583B0BF
:10114000044613468162828500254564222280F888
:101150004220C26B1F489062E26B1F48D062E26B74
:101160001E481063E26B556320680A46011DE06B60
:1011700000F030FD019523681A6801925B680193C5
:10118000019B23695BB1226802F10C0353E8003F25
:1011900043F480730C3242E800310029F3D1226815
:1011A00002F1140353E8003F43F00103143242E814
:1011B00000310029F3D1226802F1140353E8003F03
:1011C00043F04003143242E800310029F3D10020FB
:1011D00003B030BDA310000885100008B90C00084A
:1011E00090F84230202B27D110B582B0044629B3A5
:1011F00012B9012002B010BD012303630023436331
:10120000FFF79CFF236B012B01D00120F2E70023A5
:10121000019323681A6801925B680193019B22681D
:1012200002F10C0353E8003F43F010030C3242E894
:1012300000310029F3D1DDE7022070470120D9E712
:1012400008B5074A136843F010031360032000F049
:101250003FFE0F2002F036FAFFF7A8F9002008BD84
:1012600000200240034A1168034B1B780B441360B3
:10127000704700BF3007002000000020014B1868B5
:10128000704700BF3007002082B0084B1B68084A37
:10129000A2FB03235B0A00FB03F3019300BF019B46
:1012A0005A1E0192002BF9D102B0704708000020AD
:1012B000D34D6210002800F0F18170B582B0044671
:1012C000036813F0010F2CD0994B5B6803F00C03FB
:1012D000042B1DD0964B5B6803F00C03082B12D037
:1012E0006368B3F5803F41D0002B55D103F18043B3
:1012F00003F504331A6822F480321A601A6822F463
:1013000080221A6037E08A4B5B6813F4803FE7D095
:10131000874B1B6813F4003F03D06368002B00F079
:10132000BF81236813F0020F75D0814B5B6813F007
:101330000C0F5FD07E4B5B6803F00C03082B54D07E
:101340002369002B00F08A807A4B01221A60FFF794
:1013500095FF0546764B1B6813F0020F75D1FFF71A
:101360008DFF401B0228F5D903209EE1704A1368C7
:1013700043F480331360636843B3FFF77FFF054690
:101380006B4B1B6813F4003FCBD1FFF777FF401B7B
:101390006428F5D9032088E1B3F5A02F09D0644B68
:1013A0001A6822F480321A601A6822F480221A60C5
:1013B000E1E703F18043A3F53C331A6842F480224D
:1013C0001A601A6842F480321A60D4E7FFF756FFB9
:1013D0000546574B1B6813F4003FA2D0FFF74EFFA2
:1013E000401B6428F5D903205FE1514B5B6813F47F
:1013F000803FA5D14E4B1B6813F0020F03D0236929
:10140000012B40F04F814A4A136823F0F8036169C9
:1014100043EAC1031360236813F0080F33D0A369B4
:10142000002B5CD0434B0122C3F88024FFF726FF3A
:1014300005463F4B5B6A13F0020F21D1FFF71EFFF9
:10144000401B0228F5D903202FE1394A136823F005
:10145000F803616943EAC1031360DCE7354B0022FE
:101460001A60FFF70BFF0546314B1B6813F0020FA4
:10147000D1D0FFF703FF401B0228F5D9032014E168
:101480000120FFF701FF236813F0040F00F096809E
:10149000274BDB6913F0805F34D1254BDA6942F0CA
:1014A0008052DA61DB6903F080530193019B0125CF
:1014B000214B1B6813F4807F26D0E368012B3DD0BD
:1014C000002B53D103F1804303F504331A6A22F051
:1014D00001021A621A6A22F004021A6233E0154B02
:1014E0000022C3F88024FFF7C9FE0546104B5B6A53
:1014F00013F0020FC7D0FFF7C1FE401B0228F5D939
:101500000320D2E00025D3E70B4A136843F480732D
:101510001360FFF7B3FE0646074B1B6813F4807F8A
:10152000CBD1FFF7ABFE801B6428F5D90320BCE0CC
:101530000010024000004242007000405F4A136AFF
:1015400043F001031362E36833B3FFF797FE0646E7
:101550005A4B1B6A13F0020F2FD1FFF78FFE801B2F
:1015600041F288339842F3D903209EE0052B09D03D
:10157000524B1A6A22F001021A621A6A22F004021D
:101580001A62E0E74D4B1A6A42F004021A621A6AC4
:1015900042F001021A62D6E7FFF770FE0646474B9B
:1015A0001B6A13F0020F08D0FFF768FE801B41F2A0
:1015B00088339842F3D9032077E0E5B9E369002B3B
:1015C00072D03E4A526802F00C02082A56D0022B12
:1015D00017D03B4B00221A66FFF750FE0446374BEC
:1015E0001B6813F0007F47D0FFF748FE001B02285E
:1015F000F5D9032059E0314AD36923F08053D361F0
:10160000DCE72F4B00221A66FFF738FE05462B4B0E
:101610001B6813F0007F06D0FFF730FE401B022846
:10162000F5D9032041E0236AB3F5803F1AD023495E
:101630004B6823F47413226A606A024313434B60BD
:101640001F4B01221A66FFF719FE04461B4B1B684D
:1016500013F0007F0ED1FFF711FE001B0228F5D911
:10166000032022E0154A536823F40033A1680B439A
:101670005360DCE7002018E0002016E0012B16D0B4
:101680000E4B5B6803F48031226A914211D103F45E
:101690007013626A93420ED1002006E00120704769
:1016A000012002E0012000E0002002B070BD012016
:1016B000FBE70120F9E70120F7E700BF0010024037
:1016C000000042420F4B5B6803F00C02082A01D075
:1016D0000D487047C3F383420C49885C13F4803F84
:1016E0000BD0084B5B68C3F34043094AD35C064AFE
:1016F00002FB00F0B0FBF3F07047064B03FB00F079
:10170000704700BF0010024000127A00905300089A
:101710008C53000800093D00002800F0A08070B53F
:101720000D460446524B1B6803F007038B420BD255
:101730004F4A136823F007030B431360136803F049
:1017400007038B4240F08D80236813F0020F17D0FF
:1017500013F0040F04D0474A536843F4E063536026
:10176000236813F0080F04D0424A536843F46053CF
:101770005360404A536823F0F003A1680B43536061
:10178000236813F0010F31D06368012B20D0022BA6
:1017900025D0384A126812F0020F64D035494A68E1
:1017A00022F0030213434B60FFF768FD0646314BFE
:1017B0005B6803F00C036268B3EB820F16D0FFF78F
:1017C0005DFD801B41F288339842F0D9032045E04B
:1017D000284A126812F4003FE0D101203EE0254A79
:1017E000126812F0007FD9D1012037E0204B1B682E
:1017F00003F00703AB420AD91D4A136823F007031D
:101800002B431360136803F00703AB422DD1236809
:1018100013F0040F06D0174A536823F4E063E1681D
:101820000B435360236813F0080F07D0114A536825
:1018300023F46053216943EAC1035360FFF742FF79
:101840000C4B5B68C3F303130B4AD35CD8400B4BC0
:1018500018600B4B186801F035FF002070BD0120A7
:1018600070470120FAE70120F8E70120F6E700BF02
:101870000020024000100240A85300080800002089
:1018800004000020014B1868704700BF08000020CA
:1018900008B5FFF7F7FF044B5B68C3F30223034A65
:1018A000D35CD84008BD00BF00100240A053000820
:1018B00008B5FFF7E7FF044B5B68C3F3C223034A95
:1018C000D35CD84008BD00BF00100240A053000800
:1018D0000F2303600B4B5A6802F0030242605A6800
:1018E00002F0F00282605A6802F4E062C2605B6853
:1018F000DB0803F4E0630361034B1B6803F0070399
:101900000B607047001002400020024070B582B0AA
:101910000024A4469EE07C4DAB4214D00CD8A5F523
:101920008015AB420FD005F57025AB420BD0A5F565
:101930008015AB421FD106E0744DAB4203D005F5D4
:101940008035AB4217D18B68A3B1012B0DD042611A
:10195000082410E0CC680EE0CC6804340BE0CC68BE
:10196000083408E0CC680C3405E00261082402E089
:10197000002400E00424BEF1FF0F37D806464FEAEA
:101980008C0233680F25954023EA050304FA02F21E
:10199000134333604B6813F0805F59D05C4B9A69F6
:1019A00042F001029A619B6903F001030193019BDC
:1019B0004FEA9C02951C574B53F825600CF0030529
:1019C000AD000F23AB4026EA0306534B984214D0D8
:1019D00003F58063984279D003F58063984277D00D
:1019E00003F58063984206D0042307E0061DACF19E
:1019F00008029200C5E7032300E00023AB40334315
:101A00000232444D45F822304B6813F4801F61D0F8
:101A1000424A936843EA0E0393604B6813F4001F35
:101A20005ED03E4AD36843EA0E03D3604B6813F49A
:101A3000003F5BD0394A536843EA0E0353604B685A
:101A400013F4803F58D0354A136843EA0E031360FD
:101A50000CF1010C0B6833FA0CF253D0012202FA9C
:101A60000CF203EA020E32EA0303F1D14B68122BA7
:101A70003FF651AF122B3FF67EAF01A555F823F08C
:101A800047190008551900085F1900087119000866
:101A900077190008771900087719000877190008E6
:101AA00077190008771900087719000877190008D6
:101AB00077190008771900087719000877190008C6
:101AC000771900085919000865190008012395E7DE
:101AD000022393E7114A936823EA0E0393609CE77D
:101AE0000E4AD36823EA0E03D3609FE70B4A53687C
:101AF00023EA0E035360A2E7084A136823EA0E03A1
:101B00001360A5E702B070BD000022100000311084
:101B100000100240000001400008014000040140A4
:101B20000AB101617047090401617047C36801EAA5
:101B3000030221EA030141EA02410161704730B426
:101B40000124056CAC40C56B6C600468636043683D
:101B5000102B05D0036899600368DA6030BC7047C9
:101B600003689A600368D960F8E7000050B310B4C6
:101B700002460168144B0B441448A0FB03031B09E5
:101B80009B001364124BD363022382F82130086850
:101B90006FF30D10536894682343D468234314698A
:101BA00023435469234394692343D4692343034360
:101BB0000B6000209063012382F8213082F820001E
:101BC00010BC704701207047F8FFFDBFCDCCCCCCD6
:101BD0000000024038B5044690F82000012831D0BA
:101BE000012084F8200094F82100012804D000236B
:101BF00084F82030022038BD022084F82100002023
:101C0000A0632568286820F0010028602046FFF7BF
:101C100096FFE36A5BB12268136843F00E0313601A
:101C20002268136843F0010313600020E3E7226891
:101C3000136823F0040313602268136843F00A0357
:101C40001360EDE70220D6E7034690F82120022A30
:101C500006D004228263002280F8202001207047F1
:101C600001680A6822F00E020A6001680A6822F020
:101C700001020A60026CC06B012101FA02F24260AB
:101C800083F82110002083F82000704708B590F8F1
:101C90002130022B03D004238363012008BD026896
:101CA000136823F00E0313600268136823F0010326
:101CB00013600368194A934214D0143293421FD020
:101CC000143293421ED0143293421ED014329342E7
:101CD0001ED01432934202D04FF0807203E04FF4D2
:101CE000801200E001220E4B5A60012380F821305F
:101CF000002380F82030436B6BB198470020CDE77C
:101D00001022F0E74FF48072EDE74FF48052EAE7DB
:101D10004FF48032E7E70020C0E700BF0800024030
:101D20000000024038B5C36B1A6804682568016C6E
:101D300004238B40134235D015F0040F32D02368B2
:101D400013F0200F03D1236823F0040323600368FA
:101D5000434A934214D01432934218D0143293421F
:101D600017D01432934217D01432934217D0143242
:101D7000934202D04FF0806203E04FF4800200E013
:101D80000422384B5A60C36A03B1984738BD4022D9
:101D9000F7E74FF48062F4E74FF48042F1E74FF445
:101DA0008022EEE702238B4013423CD015F0020F55
:101DB00039D0236813F0200F06D1236823F00A03DB
:101DC0002360012380F821300368254A934214D010
:101DD000143293421CD0143293421BD014329342DB
:101DE0001BD0143293421BD01432934202D04FF0D6
:101DF000007203E04FF4001200E00222194B5A6017
:101E0000002380F82030836A002BBFD09847BDE7BD
:101E10002022F3E74FF40072F0E74FF40052EDE7B1
:101E20004FF40032EAE708238B401342AED015F09E
:101E3000080FABD0236823F00E032360026CC16B44
:101E4000012303FA02F24A60836380F82130002301
:101E500080F82030036B002B98D0984796E700BF9E
:101E60000800024000000240002808DB0901C9B256
:101E700000F1604000F5614080F80013704700F009
:101E80000F000901C9B2014B1954704714ED00E06D
:101E900000B500F00700C0F1070CBCF1040F28BF2B
:101EA0004FF0040C031D062B0FD9C31E4FF0FF3E4D
:101EB0000EFA0CF021EA000199400EFA03FE22EA24
:101EC0000E0241EA02005DF804FB0023EEE7000089
:101ED000074AD36823F4E0631B041B0C000200F4E0
:101EE000E060034343F0BF6343F40033D3607047C3
:101EF00000ED00E010B50446054BD868C0F30220A1
:101F0000FFF7C6FF01462046FFF7AEFF10BD00BF3A
:101F100000ED00E0002807DB00F01F02400901236C
:101F20009340024A42F82030704700BF00E100E0D1
:101F30007047002301E0013001330278A52AFAD06E
:101F4000C3F38F0070470000074B1B681B6823B961
:101F5000064B4FF0FF321A607047034B1B68DB687B
:101F60001A68024B1A607047A40700203C07002043
:101F70002DE9F04780460D4617469946089EDDF844
:101F800024A00A9C9200A521206B02F003F8236B89
:101F900007F18042013A03EB820727F0070795B368
:101FA0004FF0000CBCF10F0F09D815F80C3004EB02
:101FB0000C0282F8343013B10CF1010CF2E700236B
:101FC00084F843301F2E00D91F26E662201D00F042
:101FD0004CFE04F1180000F048FE2461C6F1200612
:101FE000A66164620023E36484F850304A464146A7
:101FF000384601F0B7FA2060BAF1000F01D0CAF8F4
:102000000040BDE8F087002384F83430DAE70000B0
:1020100038B5002407E004EB840293000E4818440E
:1020200000F018FE01341F2CF5D90C4D284600F0A5
:1020300011FE0B4C204600F00DFE0A4800F00AFE8F
:10204000094800F007FE094800F004FE084B1D6037
:10205000084B1C6038BD00BFD0070020BC07002023
:10206000A80700208C0700207807002060070020C8
:10207000A4070020A007002010B5044601F09AFA3A
:10208000294A136801331360284B1B685BB1284B46
:102090001B686BB9254B1B68DA6AE36A9A4207D85A
:1020A000224B1C6004E0214B1C601368012B37D0CD
:1020B000204A1368013313606364E36A01229A4083
:1020C0001D49086802430A601C4A03EB830302EBC4
:1020D00083035B68A3609868E060211D416099609C
:1020E000E36A03EB8301880002EB8101616111580F
:1020F0000131115001F06EFA0D4B1B687BB10B4B97
:102100001B68DA6AE36A9A4209D24FF0E0234FF083
:102110008052C3F8042DBFF34F8FBFF36F8F10BDF4
:10212000FFF776FFC4E700BF5C070020500A0020DD
:10213000500700204007002054070020D00700204F
:1021400010B5044690F8513013B1012B07D010BDE3
:10215000006B01F0B5F9204601F0B2F9F7E701F0A4
:10216000AFF9F4E70F4B1B68D3B110B501F022FAB9
:102170000D4BDB68DC68201D00F09EFD0B4A1368E8
:10218000013B1360074A1368013B136001F022FA18
:102190002046FFF7D5FF034B1B68002BE6D110BD8F
:1021A000704700BF74070020780700205C070020FC
:1021B00008B5FFF7D7FF074B1B68012BF9D94FF084
:1021C000E0234FF08052C3F8042DBFF34F8FBFF3CD
:1021D0006F8FEEE7D007002070B504460D46234B05
:1021E0001E68234B1868043000F066FD48B9204B88
:1021F0001B68DB6A01229A401E490B6823EA02032E
:102200000B60B4F1FF3F0DD03444194B1B685C6088
:10221000A6421DD9184B1868154B1968043100F0F7
:1022200032FD70BD002DEFD0144A5168104B186874
:10223000816018688C68C460186804306060186831
:10224000043088601B685A61136801331360E8E743
:102250000B4B1868064B1968043100F014FD094B4C
:102260001B68A342DDD9074B1C60DAE75807002042
:10227000500A002054070020A0070020600700201B
:10228000A40700203C07002010B5044601F0F7FE2B
:102290002046FDF73DFF02E02023235401300E28A5
:1022A000FAD900232354204410BD30B587B00B9DCC
:1022B0000C9C8CB185B12563022584F85150002512
:1022C0000395029405AD01950A9D0095FFF750FE18
:1022D0002046FFF7D1FE01E000230593059807B0E3
:1022E00030BD2DE9F04385B00746884614461E46AA
:1022F000900001F073F808B38146542001F06EF8A5
:102300000546A8B1C0F83090002380F851300393FF
:1023100002900D9B01930C9B00933346224641464D
:102320003846FFF725FE2846FFF7A6FE012007E006
:10233000484601F0C5F84FF0FF3001E04FF0FF30A4
:1023400005B0BDE8F083000038B5044601F032F96D
:10235000002C38D0251D284600F0AEFC70B9E26A8A
:1023600002EB82039B002349CB583BB9012303FABC
:1023700002F221490B6823EA02030B60A36A1BB136
:1023800004F1180000F098FC1C4A13680133136034
:102390001B4B1B68A34219D01A4A1368013B1360F8
:1023A000FFF7D2FD01F016F9154B1B68A34202D0CE
:1023B0002046FFF7C5FE144B1B681BB1104B1B6872
:1023C000A3420CD038BD0E4B1C68C3E729460F480A
:1023D00000F04EFC0E4A136801331360E2E74FF041
:1023E000E0234FF08052C3F8042DBFF34F8FBFF3AB
:1023F0006F8FE7E7D0070020540700204007002038
:10240000500A00205C0700205007002078070020B9
:1024100074070020F8B51B4B1B68834228D0044684
:1024200001F0C8F86569184B1E68184B1F6801F069
:10243000D1F8B5421ED0BD421ED0154B9D4205D0ED
:10244000144B9D421CD08DB1012012E0A36A43B110
:1024500002200EE0E21892F85020012A0ED001333B
:1024600000E00023002BF5DD032002E0042000E063
:102470000020F8BD0220FCE70220FAE70220F8E77E
:102480000420F6E7500A0020A4070020A00700203F
:10249000600700207807002010B588B0002405945C
:1024A000069407AA06A905A8FDF7FCFE059B029362
:1024B000069B019300942346079A0F490F48FFF7A4
:1024C000F4FE0F4B186090B14FF0500383F3118866
:1024D000BFF36F8FBFF34F8F0A4B4FF0FF321A607D
:1024E000094B01221A60094B1C6001F0CDF8084B22
:1024F0001B6808B010BD00BF6C530008B121000874
:10250000380700203C070020500700205807002013
:10251000B8530008024A136801331360704700BFC4
:1025200034070020F8B54C4B1B68002B40F08D8021
:102530004A4B1C6801341C60ACB1494B1B68A34278
:102540001ED90020474B1B68DB6A03EB83039A000C
:10255000454B9B58012B00D90120444B1B68002B95
:1025600078D0012076E0424A1168424B186810602A
:102570001960414A136801331360FFF7E5FCDCE79B
:10258000002037E0364B4FF0FF321A60DAE7344B69
:102590001A60D7E7D968516042E00021996211685A
:1025A00001391160DA6A01219140344E37683943AC
:1025B00031602D4902EB82024FEA820C8C44DCF838
:1025C00004209A609668DE6075609560DA6A02EBB6
:1025D000820C4FEA8C056E185E614D5901354FEA49
:1025E0008C0C41F80C50DA6A1E4B1B68DB6A9A426D
:1025F00000D301201E4B1B681B68002BC2D01C4B54
:102600001B68DB68DB685A689442C0D35A699D68CE
:10261000D968A9609D684D6051681D1DA942B9D057
:10262000002159611168013911609A6A002AB9D0F4
:10263000DE69196AB160DE694E60566803F11801FF
:102640008E42AAD1196A5160A7E70D4A1368013377
:1026500013600020F8BD00BF340700205807002099
:102660003C070020500A0020D00700204807002027
:10267000A4070020A00700204407002054070020E2
:102680004C07002038B500F095FF434B1A68013A1B
:102690001A601B68002B7AD1404B1B683BB90024A1
:1026A00076E0196A516015E0D968516021E0002395
:1026B0003B4A1268002A47D0394BDB68DB689A6ACC
:1026C000D869196A8160D8694860506803F11801B7
:1026D0008842E6D0002199621168013911605A6977
:1026E0009868D9688160986848605168181D81426F
:1026F000DAD000215961116801391160DA6A0121CB
:102700009140284C256829432160274902EB820229
:1027100001EB820252689A609468DC6060609060AD
:10272000DA6A02EB8200840001EB800058610859EC
:1027300001300851D96A1D4A1268D26A9142B7D352
:102740001B4A01211160B3E70BB1FFF7FDFB194BE9
:102750001C6884B9164B1C68D4B14FF0E0234FF0CD
:102760008052C3F8042DBFF34F8FBFF36F8F012446
:102770000EE0013C07D0FFF7D5FE0028F9D00C4B46
:1027800001221A60F5E70B4B00221A60E2E70024F1
:1027900000F020FF204638BD340700205C070020F1
:1027A0008C07002054070020D0070020500A00208A
:1027B000480700204C07002010B550B94FF0E02327
:1027C0004FF08052C3F8042DBFF34F8FBFF36F8FCC
:1027D00010BD0446FFF79EFE00212046FFF7FCFCDB
:1027E000FFF750FF0028F3D1E8E7000008B5264BBB
:1027F0001B681BB1254B01221A6008BD234B002228
:102800001A60234B1B681B6B1A68B2F1A53F03D1FA
:102810005A68B2F1A53F26D01D4B186819683431AB
:10282000FDF74CFD1B4B1B68B3FA83F3DBB2C3F11E
:102830001F03194803EB83018A0002445168496869
:10284000516003EB830C4FEA8C0208320244914240
:1028500012D003EB83039A000F4B13445B68DA68D2
:102860000B4B1A60C9E79A68B2F1A53FD4D1DB6877
:10287000B3F1A53FD0D1D5E7486862469100064A3A
:102880000A445060E5E700BF3407002048070020F5
:10289000500A002054070020D007002010B50C4635
:1028A000044B1968183100F0EEF901212046FFF7BA
:1028B00093FC10BD500A002030B4C368DB689A6AEC
:1028C000D869196A8160D8694860516803F11800B5
:1028D00081423ED000219962116801391160274A76
:1028E0001268002A3BD15A699868D9688160986853
:1028F00048605168181D81422ED00021596111682D
:1029000001391160DA6A012191401D4C2568294383
:1029100021601C4902EB820201EB820252689A603C
:102920009468DC6060609060DA6A02EB8200840088
:1029300001EB80005861085901300851DA6A124BE6
:102940001B68DB6A9A4216D90120104B186030BC14
:102950007047196A5160BDE7D9685160CDE70C4AEC
:102960005168D9618C681C62606088609A621168E5
:1029700001311160E2E70020E9E700BF34070020E1
:1029800054070020D0070020500A002048070020EC
:102990008C070020034B1B680360034B1B684360DC
:1029A000704700BF440700205807002070B5044658
:1029B0000D4600F0FFFD134B19686368C81A2A68BA
:1029C000B2F1FF3F19D0104E3668D4F800C0B445BC
:1029D00005D08B4203D800232B6001240EE08242F5
:1029E00003D800232B60012408E05B1A13442B60FA
:1029F0002046FFF7CFFF002400E0002400F0EAFDAE
:102A0000204670BD5807002044070020014B0122DA
:102A10001A6070474807002070B50C4616460546F8
:102A2000C8B1256005F134026260EA6A22612A6B4E
:102A3000E2616A6CA26000226261A261052B19D07A
:102A4000114A1268AA4209D02373032B09D0B6B9E0
:102A50000023238470BD0C4A1568E2E7002323732A
:102A6000F5E7FFF757FDAB6A0BB102232373FFF7BE
:102A700009FEECE72846FFF7CDFC2073E7E7286B5B
:102A8000FFF757FA2084E5E7500A00202DE9F047C8
:102A90000C683CB307460D4690464B685B684B603C
:102AA00001F108094B4504D06B68D3F80CA0002451
:102AB00010E05B684B60F7E76B68DE6804EBC4010D
:102AC0004346012207EB81013046FFF7A5FF0134A1
:102AD000B24507D06B68596869608945ECD14B688D
:102AE0006B60E9E72046BDE8F0870000F8B50746CF
:102AF0000C461646FFF70EFD224B1B68A3423BD83F
:102B000020240025013C05EBC50004EB84010122D3
:102B10001D4B03EB810107EB8000FFF7B7FF054476
:102B2000002CEFD105EBC500184B1968022207EB0A
:102B30008000FFF7ABFF054405EBC500144B196897
:102B4000022207EB8000FFF7A1FF054405EBC5005B
:102B50000422104907EB8000FFF798FF054405EBBE
:102B6000C50003220C4907EB8000FFF78FFF0544E7
:102B70001EB10023336000E00025FFF783FD2846E7
:102B8000F8BD00BF5C070020D0070020A40700208C
:102B9000A007002078070020600700202DE9F043FF
:102BA00083B0064600230370284B1C68186800EBAE
:102BB000C000800000F012FC002844D080460022B3
:102BC0002146FFF793FF0746002517E04FF058090D
:102BD00001E04FF0420961683046FFF755FB0646B9
:102BE0002369228CA168019100924A46184901F09C
:102BF000D9F83046FDF78CFA06440135BD421FD2A4
:102C000005EBC50408EB8404237B042B12D801A236
:102C100052F823F0CD2B00083B2C0008D32B0008E2
:102C2000292C00082F2C00084FF05309D3E74FF050
:102C30004409D0E74FF00009CDE74FF05209CAE749
:102C4000404600F03DFC03B0BDE8F0835C07002087
:102C50007453000800F1080343604FF0FF328260B4
:102C6000C360036100230360704700230361704762
:102C700043684B609A688A60516099600861036894
:102C800001330360704730B40D68B5F1FF3F11D0D8
:102C900000F108031C465B681A68AA42FAD9636807
:102CA0004B6099608C606160086103680133036068
:102CB00030BC70470469F2E70369416882688A6042
:102CC000416851605A68824206D0002202611A6847
:102CD000013A1A601868704782685A60F5E710B5C3
:102CE000044600F067FCA26BE36B9A4204D0002418
:102CF00000F070FC204610BD0124F9E710B5044631
:102D000000F058FCA36B23B9012400F063FC2046BB
:102D100010BD0024F9E770B504461646856B026CB9
:102D2000EAB166B9406801F0B2F96368226C1344F5
:102D30006360A268934212D3236863600FE0C068A7
:102D400001F0A5F9E368226C51429B1AE360226806
:102D5000934202D2A3680B44E360022E03D00135F4
:102D6000A563002070BD002DF9D0013DF7E708B53F
:102D70000346026C62B10846D9681144D960D3F8A1
:102D800008C0614501D31968D960D96801F07FF99D
:102D900008BD38B5054600F00DFC95F8454064B215
:102DA00001E0013C64B2002C0ADD6B6A43B105F11D
:102DB0002400FFF781FD0028F3D0FFF727FEF0E79E
:102DC000FF2385F8453000F005FC00F0F3FB95F893
:102DD000444064B201E0013C64B2002C0ADD2B697E
:102DE00043B105F11000FFF767FD0028F3D0FFF7AE
:102DF0000DFEF0E7FF2385F8443000F0EBFB38BD13
:102E0000002844D038B50D460446C36B002B40D093
:102E1000026C0021A2FB032313B919B1002039E091
:102E20000121FAE700F0C6FB2368E26B216C01FB8D
:102E30000230A0600020A0636360013A02FB01330E
:102E4000E360FF2384F8443084F84530B5B9236942
:102E50001BB900F0BFFB01201CE004F11000FFF7DC
:102E60002BFD0028F5D04FF0E0234FF08052C3F83F
:102E7000042DBFF34F8FBFF36F8FEAE704F110000B
:102E8000FFF7E8FE04F12400FFF7E4FEE1E700208D
:102E90007047002038BD38B51D46049C0B4649B923
:102EA0002460E063236401212046FFF7A9FF84F832
:102EB0004C5038BD2260F4E7F0B583B0F8B10C4651
:102EC000174606460023A4FB0012B2B9DBB904FB87
:102ED00006F010F1510F18D8503000F07FFA054677
:102EE00070B1002380F8463000903B4600F150025C
:102EF00021463046FFF7CFFF02E00123E6E7002539
:102F0000284603B0F0BD0025FAE70025F8E7F0B544
:102F100085B004460F4601921D4600263DE02A4634
:102F200039462046FFF7F7FE636A7BB948B14FF098
:102F3000E0234FF08052C3F8042DBFF34F8FBFF34F
:102F40006F8F00F047FB012005B0F0BD04F12400B5
:102F5000FFF7B2FC0028F4D04FF0E0234FF080528E
:102F6000C3F8042DBFF34F8FBFF36F8FE9E700F075
:102F700031FB0020E8E702A8FFF70CFD012619E06D
:102F8000002384F8443021E0002384F8453023E016
:102F90002046FFF7FEFEFFF775FB00F00BFBA26B70
:102FA000E36B9A42BBD3022DB9D0019B002BDED03C
:102FB000002EE0D000F00EFBFFF7ACFA00F0FAFABA
:102FC00094F8440040B2B0F1FF3FD9D094F84500E6
:102FD00040B2B0F1FF3FD7D000F0FCFA01A902A83F
:102FE000FFF7E4FCD8B92046FFF779FE0028CFD0E0
:102FF000019904F11000FFF751FC2046FFF7C9FECC
:10300000FFF740FB0028C8D14FF0E0234FF080527B
:10301000C3F8042DBFF34F8FBFF36F8FBDE720467A
:10302000FFF7B7FEFFF72EFB00208DE7F8B504464B
:1030300017461A46EFF311864FF0500383F31188B9
:10304000BFF36F8FBFF34F8F806BE36B984205D355
:10305000022A03D0002086F31188F8BD94F8455069
:103060006DB2A36B2046FFF756FEB5F1FF3F05D0CA
:1030700001356DB284F845500120ECE7636A0BB965
:103080000120E8E704F12400FFF716FC18B127B18E
:1030900001203860DFE70120DDE70120DBE738B5FC
:1030A000EFF311844FF0500383F31188BFF36F8F58
:1030B000BFF34F8F826BC36B93421AD90D4690F8C2
:1030C00045305BB201328263B3F1FF3F05D001337B
:1030D0005BB280F8453001200CE0436A0BB9012057
:1030E00008E02430FFF7E8FB38B145B10120286043
:1030F00000E0002084F3118838BD0120FAE70120A8
:10310000F8E7F0B585B004460F46019200263EE090
:1031100039462046FFF72BFE013DA563236923B9FD
:1031200000F058FA012005B0F0BD04F11000FFF7DF
:10313000C3FB0028F4D04FF0E0234FF08052C3F8D7
:10314000042DBFF34F8FBFF36F8FE9E700F042FA12
:103150000020E8E702A8FFF71DFC012621E000237C
:1031600084F8443029E0002384F845302BE02046E1
:10317000FFF70FFEFFF786FA09E02046FFF709FE8A
:10318000FFF780FA2046FFF7B9FD00283FD100F095
:1031900011FAA56B002DBBD1019B002BD6D0002EC0
:1031A000D8D000F017FAFFF7B5F900F003FA94F859
:1031B00044305BB2B3F1FF3FD1D094F845305BB2FD
:1031C000B3F1FF3FCFD000F005FA01A902A8FFF745
:1031D000EDFB0028D1D12046FFF790FD0028C6D096
:1031E000019904F12400FFF759FB2046FFF7D1FDB8
:1031F000FFF748FA0028CAD14FF0E0234FF0805281
:10320000C3F8042DBFF34F8FBFF36F8FBFE70020CC
:1032100089E730B585B00446019100253AE0013BCD
:10322000A363236923B900F0D5F9012005B030BDAF
:1032300004F11000FFF740FB0028F4D04FF0E0232A
:103240004FF08052C3F8042DBFF34F8FBFF36F8F41
:10325000E9E700F0BFF90020E8E702A8FFF79AFBD2
:10326000012521E0002384F8443029E0002384F87C
:1032700045302BE02046FFF78CFDFFF703FA09E00D
:103280002046FFF786FDFFF7FDF92046FFF736FDE4
:1032900000283FD100F08EF9A36B002BBFD1019B1A
:1032A000002BD6D0002DD8D000F094F9FFF732F9DA
:1032B00000F080F994F844305BB2B3F1FF3FD1D015
:1032C00094F845305BB2B3F1FF3FCFD000F082F904
:1032D00001A902A8FFF76AFB0028D1D12046FFF719
:1032E0000DFD0028C6D0019904F12400FFF7D6FA9D
:1032F0002046FFF74EFDFFF7C5F90028CAD14FF071
:10330000E0234FF08052C3F8042DBFF34F8FBFF37B
:103310006F8FBFE7002089E7124A12F0070F1ED017
:10332000D11D21F00701C1F5205313440A460E4870
:103330000260002141601344083B23F007030B485F
:10334000036059601960991A51601360084B196045
:10335000084B1960084B4FF000421A6070474FF459
:103360002053E4E7740A00206C0A0020680A002059
:10337000600A0020640A0020540A0020154B1A46F7
:103380001B688342FBD3516802EB010C844509D0D2
:10339000416800EB010C634509D00360904218D0EE
:1033A000106070474068014451601046F0E710B467
:1033B000094C2468A3420AD05B6819444160136831
:1033C0001B680360904200D0106010BC704704601E
:1033D000F8E770476C0A0020680A002038B50446F8
:1033E000FFF798F8304B1B68DBB1304B1B681C4271
:1033F0004AD1631E13F10A0F4BD804F1080214F0EE
:10340000070F05D022F007030833934243D91A4629
:10341000002A42D0264B1B68934240D325490C68B2
:1034200004E0FFF779FFE0E721461C46636893421A
:1034300002D22368002BF7D11B4B1B68A34230D06C
:103440000D68083523680B6063689B1A102B15D82C
:10345000626817490B689B1A0B60174909688B4211
:1034600001D215490B60114B1B68134363600023A5
:103470002360124A13680133136006E0A01843600A
:103480006260FFF77BFFE3E70025FFF7FBF82846C4
:1034900038BD0025F9E70025F7E70025F5E7002509
:1034A000F3E70025F1E700BF680A0020540A002076
:1034B000640A00206C0A0020600A00205C0A0020D8
:1034C00018B338B50446A0F1080550F8043C0F4A7B
:1034D0001268134202D050F8081C01B138BD23EA2B
:1034E000020340F8043CFFF715F854F8041C084A9E
:1034F00013680B4413602846FFF740FF054A136822
:1035000001331360FFF7BEF8E8E77047540A002064
:10351000640A0020580A0020014B1868704700BF59
:10352000640A002082B0002301934FF0500383F31C
:103530001188BFF36F8FBFF34F8F019B002BFCD01F
:1035400002B0704706480068006880F3088862B6D9
:1035500061B6BFF34F8FBFF36F8F00DF00BF000076
:1035600008ED00E04FF0807340F8043C21F00101C9
:1035700040F8081C034B40F80C3C40F8202C403825
:10358000704700BF25350008000000000000000063
:10359000074B19680868B0E8F00F80F30988BFF39B
:1035A0006F8F4FF0000080F311884EF00D0E7047C2
:1035B000500A00204FF0500383F31188BFF36F8F40
:1035C000BFF34F8F024A136801331360704700BF87
:1035D0000C000020034A1368013B13600BB983F30E
:1035E000118870470C00002000000000000000005F
:1035F000EFF30980BFF36F8F0D4B1A6820E9F00FCE
:1036000010602DE908404FF0500080F31188FFF75B
:10361000EDF84FF0000080F31188BDE8084019680C
:103620000868B0E8F00F80F30988BFF36F8F704728
:10363000500A002008B54FF0500383F31188BFF300
:103640006F8FBFF34F8FFEF76DFF28B14FF0E02370
:103650004FF08052C3F8042D002383F3118808BD76
:103660004FF0E022002313619361054B1B6805496D
:10367000A1FB03139B09013B5361072313617047AF
:1036800008000020D34D621010B54FF0E023D3F8AE
:10369000202D42F47002C3F8202DD3F8202D42F0E3
:1036A0007042C3F8202DFFF7DBFF0024044B1C60A1
:1036B000FFF748FFFFF79AF8FFF734FF204610BDE9
:1036C0000C00002000B589B0014600221C20FEF746
:1036D00011FC1C20FEF71EFC154BDA6942F00102BA
:1036E000DA61DB6903F001030193019B02A903A8DE
:1036F000FEF7EEF8FEF7CCF80E4BA3FB00239B0C75
:10370000013B0D484FF08042026040F2E732C26058
:103710004360002303618360FDF794F818B1012032
:1037200009B05DF804FB0448FCF764FFF8E700BF4C
:103730000010024083DE1B437432002070B588B055
:1037400004AD00240494059406940794184B9A69D8
:1037500042F010029A619A6902F010020192019AF5
:103760009A6942F020029A619A6902F0200202925C
:10377000029A9A6942F004029A619B6903F0040379
:103780000393039B0B4E22464FF460413046FEF7F5
:10379000C7F94FF460430493012305930694022371
:1037A000079329463046FEF7B1F808B070BD00BF58
:1037B000001002400010014008B50A480A4B03609F
:1037C0004FF4E133436000238360C36003610C2244
:1037D00042618361C361FDF75EF900B908BDFCF782
:1037E00094FDFBE74433002000380140F0B587B07A
:1037F000002302930393049305930268314B9A428A
:1038000001D007B0F0BD044603F558439A6942F46D
:1038100080429A619A6902F480420092009A9A6901
:1038200042F004029A619B6903F004030193019B37
:103830004FF400730293022303930323059302AF13
:10384000214E39463046FEF761F84FF4806302930B
:1038500000250395049539463046FEF757F81B4876
:103860001B4B03601023436085608023C3600561A8
:1038700045618561C561FEF779F9E8B9134BA3632A
:103880005C621448144B0360002343608360802211
:10389000C260036143618361C361FEF767F970B978
:1038A0000C4BE3635C62002211462520FEF722FBED
:1038B0002520FEF72FFBA4E7FCF727FDDEE7FCF74A
:1038C00024FDEDE7003801400008014000330020EE
:1038D00044000240BC3200205800024000B593B0C2
:1038E0004FF0FF3201A90A4B1868FFF70AFC0128C4
:1038F000F6D1BDF8442001A90648FDF761F900287A
:10390000EED14FF0FF31044B1868FFF782FCE7E778
:1039100090340020443300208C340020114B1B686D
:1039200003B1704700B583B0032200210120FFF7E7
:10393000C3FA0D4B186088B1002242211020FFF716
:10394000BBFA084B186048B1002301930122009292
:103950004FF4807205490648FEF7C3FC03B05DF8DA
:1039600004FB00BF903400208C34002084530008F6
:10397000DD3800082DE9F04192B088461746144B17
:103980001B680BB100251CE04FF0FF3392B21148C9
:10399000FDF7B1F8384612B0BDE8F08101AE22461D
:1039A00008EB0501304600F072FBADF844400023FF
:1039B0000A22314606480068FFF7A9FA0128E9D132
:1039C0002544AF42E6D97C1B402CE7D94024E5E7EB
:1039D000903400204433002002680F4B9A4200D0FC
:1039E00070470E4B18680028FAD000B583B000234A
:1039F000019301A9FFF753FB019B4BB14FF0E0236B
:103A00004FF08052C3F8042DBFF34F8FBFF36F8F79
:103A100003B05DF804FB00BF003801408C34002087
:103A200002681E4B9A4200D07047F0B593B00E4624
:103A300089B31B4B1B6873B30024009411E001AFE2
:103A40002A4618492144384600F021FBADF844507D
:103A500000236A46394612480068FFF7E7FA2C440B
:103A6000A4B2B44205D2351BADB2402DE7D94025F2
:103A7000E5E74FF480720B490B48FDF7B1FB009B63
:103A80004BB14FF0E0234FF08052C3F8042DBFF349
:103A90004F8FBFF36F8F13B0F0BD00BF00380140F0
:103AA000903400208C3300204433002000B583B0D4
:103AB0000E4B5A6942F001025A615B6903F001033F
:103AC0000193019B002211460E20FEF713FA0E20EF
:103AD000FEF720FA002211460F20FEF70BFA0F2006
:103AE000FEF718FA03B05DF804FB00BF00100240B7
:103AF000FEF71EFA0B480C490C4A002302E0D4588A
:103B0000C4500433C4188C42F9D3094A094C002329
:103B100001E013600432A242FBD300F089FAFCF703
:103B20001FFC7047000000206C00002000540008BB
:103B30006C000020E4350020FEE70000002310B5F3
:103B40000446C0E90033C0E90433836081814366E1
:103B5000C2818361194608225C3000F01BFA0D4BCC
:103B6000246263620C4BA3620C4BE3620C4B236335
:103B70000C4B9C4206D003F16802944202D0D03331
:103B80009C4205D104F15800BDE8104000F074BA21
:103B900010BD00BFE93D00080B3E0008433E000891
:103BA000693E000894340020024A0349034800F0AB
:103BB0006BB800BF10000020F14B0008200000206F
:103BC00041680C4B10B59942044601D001F010F841
:103BD000A168094B994202D0204601F009F8E1683A
:103BE000064B994204D02046BDE8104001F000B8D1
:103BF00010BD00BF94340020FC3400206435002048
:103C00000C4B0D4A10B504211A600C480022FFF736
:103C100095FF0A4B01221C46092103F16800FFF7BA
:103C20008DFF04F1D0000222BDE810401221FFF701
:103C300085BF00BFCC350020A93B0008943400208C
:103C4000014800F01ABA00BFD5350020014800F045
:103C500015BA00BFD535002010B50446FFF7F0FFB8
:103C6000236A1BB1BDE81040FFF7F0BF044B23628D
:103C7000044B1B68002BF5D1FFF7C2FFF2E700BF32
:103C8000C13B0008CC3500202DE9F84307468846A3
:103C900014460026D4E90195B9F1010905D5246837
:103CA000002CF7D13046BDE8F883AB89012B07D94A
:103CB000B5F90E30013303D029463846C0470643D4
:103CC0006835E9E70FB407B5064904AB086853F84F
:103CD000042B8168019300F063FC03B05DF804EBF2
:103CE00004B070471C000020036A70B505460E46FC
:103CF00084680BB9FFF7B0FF636EDB0705D4A389B7
:103D0000980502D4A06D00F0B8F9A389190702D56F
:103D10002369002B35D12146284600F0E7F880B30F
:103D20004FF0FF35636EDA0705D4A3899B0502D4F3
:103D3000A06D00F0A3F9284670BD002B04DAA2693B
:103D4000934217DB0A2915D023685A1C2260197088
:103D5000A36816F8011F013BA3600029EDD1002BD9
:103D600011DA22460A21284600F082F80130D7D025
:103D70000A25D7E72246284600F07AF80130E7D135
:103D8000CEE7013EE4E723685A1C22600A221A703B
:103D9000EEE70000024B01461868FFF7A5BF00BF21
:103DA0001C0000200EB46FF0004110B500249DB03F
:103DB0001FAB02900690079104910948094953F8F6
:103DC000042B0591006802A901931B9400F0C4FA2A
:103DD000029B1C701DB0BDE8104003B0704700BFCF
:103DE0001C0000200802FFFF10B50C46B1F90E10B0
:103DF00000F0FAF80028ABBF636DA3891B1823F409
:103E00008053ACBF6365A38110BD2DE9F0411F460F
:103E10008B890546DB050C46164605D50223002294
:103E2000B1F90E1000F0CEF8A389324623F4805386
:103E3000A38128463B46B4F90E10BDE8F04100F0DE
:103E4000E5B810B50C46B1F90E1000F0BBF8B4F9A6
:103E50000C30421C0BBF23F4805343F48053A381E6
:103E6000A38118BF606510BDB1F90E1000F09AB8BB
:103E7000F8B50E461446054618B1036A0BB9FFF7AC
:103E8000EBFEA369A360A3891A0701D5236943B98F
:103E90002146284600F02AF818B14FF0FF3738467F
:103EA000F8BD23682269F6B2981A636937468342DF
:103EB00005DC2146284600F09BFE0028EDD1A368D2
:103EC000013BA36023685A1C22601E706269431C78
:103ED0009A4204D0A389DB07E1D50A2EDFD121461F
:103EE000284600F085FE0028D9D0D6E738B5284B03
:103EF000054618680C4618B1036A0BB9FFF7ACFE0B
:103F0000B4F90C301A0721D4D80607D409222A6044
:103F100043F040034FF0FF30A38130E0590712D542
:103F2000616B41B104F14403994202D0284600F08C
:103F3000BDF8002363630022B4F90C30626022698B
:103F400023F02403226043F00803A38122693AB9D5
:103F50009A0501D5180603D52146284600F094FE9F
:103F6000B4F90C3013F001020AD00022A260626999
:103F70005242A261226942B913F08000C8D138BD13
:103F8000990758BF6269A260F4E70020F7E700BF15
:103F90001C00002003460244934200D1704703F8FE
:103FA000011BF9E738B50023054D044608462B6090
:103FB00000F032FF431C02D12B6803B1236038BDEF
:103FC000D035002038B50446084611460022054D7C
:103FD0002A601A4600F038FF431C02D12B6803B157
:103FE000236038BDD035002038B504460846114658
:103FF0000022054D2A601A4600F02EFF431C02D114
:104000002B6803B1236038BDD035002038B5044695
:10401000084611460022054D2A601A46FFF7AAFC01
:10402000431C02D12B6803B1236038BDD03500207A
:1040300070B500260C4D0D4B5B1B9C10A64209D1A0
:10404000002600F01FFF0A4D0A4B5B1B9C10A64286
:1040500005D170BD55F8043B98470136EEE755F899
:10406000043B98470136F2E7F8530008F85300087C
:10407000F8530008FC530008704770477047034628
:1040800011F8012B03F8012B002AF9D170470A44DB
:10409000914200F1FF3300D1704710B511F8014B88
:1040A000914203F8014FF9D110BD000038B5054623
:1040B000002940D051F8043C0C1F002BB8BFE41875
:1040C00000F0DEF81C4A136833B9636014602846B8
:1040D000BDE8384000F0DAB8A34208D920682118BA
:1040E0008B4201BF19685B6809182160EDE71A4629
:1040F0005B680BB1A342FAD911685018A0420BD1EA
:1041000020680144501883421160E0D118685B6850
:10411000084410605360DAE702D90C232B60D6E71D
:10412000206821188B4201BF19685B68091821605B
:1041300063605460CBE738BDDC35002070B50F4EAE
:104140000C463168054611B900F012FE3060214678
:10415000284600F00DFE431C03D14FF0FF342046EB
:1041600070BDC41C24F00304A042F8D0211A2846D4
:1041700000F0FEFD0130F2D1EFE700BFD83500209E
:104180002DE9F843CD1C25F0030508350C2D38BF6B
:104190000C25002D064601DBA94204D90C2333600F
:1041A0000020BDE8F883DFF8D48000F069F8D8F883
:1041B00000301C4644BB29463046FFF7BFFF431C76
:1041C000044658D1D8F800402746002F43D1002C90
:1041D0004BD023683946304604EB030900F0C8FD94
:1041E000814542D1216830466D1A2946FFF7A6FF66
:1041F00001303AD023682B442360D8F800305A6845
:1042000062BBC8F800700FE02268521B20D40B2A52
:1042100017D96119A342256018BF5960636808BFA8
:10422000C8F8001062514B60304600F02FF804F1DE
:104230000B00231D20F00700C21A1CBF1B1AA3503D
:10424000AFE76268A3420CBFC8F800205A60EBE7F2
:1042500023466468AEE73C467F68B6E71A465B686B
:10426000A342FBD100235360DEE70C2330463360CA
:1042700000F00CF894E70560D6E700BFDC350020BD
:104280000148FFF7FABE00BFD43500200148FFF710
:10429000F5BE00BFD43500202DE9F0471F468E68DB
:1042A0008246BE420C469046334653D8B1F90C00C4
:1042B00010F4906F2BD065692368096905EB4505FB
:1042C000A3EB010905EBD5757B1C6D104B44AB428C
:1042D0002A4684BF1D462A46430527D51146504627
:1042E000FFF74EFF064658B34A462169FFF7CFFE57
:1042F000A38923F4906343F08003A38126614E4495
:1043000026603B463E466561A5EB0905A5601F4654
:104310003A464146206800F0F0FC0020A3689B1B51
:10432000A36023683B442360BDE8F087504600F05B
:104330003DFD06460028E1D150462169FFF7B6FE53
:104340000C23CAF80030A3894FF0FF3043F040033C
:10435000A381E9E73E46DBE72DE9F04F98468B89DC
:1043600007461B060D4614469DB010D50B6973B960
:104370004021FFF705FF2860286130B90C233B601E
:104380004FF0FF301DB0BDE8F08F40236B6100237C
:10439000099320238DF8293030234FF00109CDF8FF
:1043A0000C80DFF898818DF82A3023469A4613F85E
:1043B000012B0AB1252AF9D1BAEB040B0BD05B46CD
:1043C000224629463846FFF767FF013000F0A780F4
:1043D000099A5A4409929AF80030002B00F09F8005
:1043E00000234FF0FF32CDE905230AF1010A0493BF
:1043F00007938DF853301A935446052214F8011B85
:104400004E4800F0C5FC049AD8B9D00644BF20231A
:104410008DF85330110744BF2B238DF853309AF891
:1044200000302A2B15D0544600204FF00A0C079A72
:10443000214611F8013B303B092B4BD9B0B1079213
:1044400014E0A0EB080309FA03F31343A246049314
:10445000D2E7039B191D1B680391002BBBBF5B4276
:1044600042F0020207930793B8BF049223782E2BE1
:104470000AD163782A2B32D1039B02341A1D1B68A0
:10448000039243EAE3730593DFF8B4A00322504696
:10449000217800F07DFC38B14022049BA0EB0A009B
:1044A000824013430134049314F8011B062225486B
:1044B0008DF8281000F06CFC002836D0224B1BBB76
:1044C000039B073323F0070308330393099B33440B
:1044D00009936AE70C4601200CFB0232A8E700238F
:1044E0004FF00A0C194601340593204610F8012BB1
:1044F000303A092A03D9002BC6D00591C4E70446F7
:1045000001230CFB0121F0E703AB00932A46384658
:104510000E4B04A9AFF30080421C0646D6D1AB89EE
:104520005B063FF52DAF09982CE703AB00932A46B5
:104530003846064B04A900F0BDF9EDE7BC5300086E
:10454000C2530008C653000800000000994200084A
:10455000936810B4013B002B936007DA9469A3427F
:1045600001DB0A2902D110BCFFF782BC1368581C7A
:1045700010601970084610BC7047F8B506460F4623
:104580001446D518AC4201D1002007E03A46304627
:1045900014F8011BFFF7DCFF431CF3D1F8BD00004A
:1045A0002DE9F04F0D461446984606469DB018B1C9
:1045B000036A0BB9FFF750FB6B6ED90705D4AB89C3
:1045C0009A0502D4A86DFFF758FDAB891B0701D5EA
:1045D0002B699BB929463046FFF788FC70B16B6E9A
:1045E000DC0704D54FF0FF301DB0BDE8F08FAB897C
:1045F0009805F7D4A86DFFF741FDF3E70023099371
:1046000020238DF8293030234FF00109CDF80C809C
:10461000DFF8A8818DF82A3023469A4613F8012B3B
:104620000AB1252AF9D1BAEB040B0BD05B4622461E
:1046300029463046FFF7A1FF013000F0A780099A14
:104640005A4409929AF80030002B00F09F80002312
:104650004FF0FF32CDE905230AF1010A04930793D5
:104660008DF853301A935446052214F8011B534811
:1046700000F08EFB049AD8B9D10644BF20238DF8F0
:104680005330130744BF2B238DF853309AF8003072
:104690002A2B15D0544600204FF00A0C079A2146C9
:1046A00011F8013B303B092B4BD9B0B1079214E014
:1046B000A0EB080309FA03F31343A2460493D2E7DD
:1046C000039B191D1B680391002BBBBF5B4242F08B
:1046D000020207930793B8BF049223782E2B0AD1C6
:1046E00063782A2B32D1039B02341A1D1B68039274
:1046F00043EAE3730593DFF8C8A00322504621780C
:1047000000F046FB38B14022049BA0EB0A00824037
:1047100013430134049314F8011B062229488DF831
:10472000281000F035FB00283FD0274B1BBB039B14
:10473000073323F0070308330393099B3B44099392
:104740006AE70C4601200CFB0232A8E700234FF079
:104750000A0C194601340593204610F8012B303A13
:10476000092A03D9002BC6D00591C4E704460123CA
:104770000CFB0121F0E703AB00932A463046134BB4
:1047800004A9AFF300800746781CD6D16B6ED90719
:1047900005D4AB899A0502D4A86DFFF76FFCAB89ED
:1047A0005B063FF51FAF09981EE703AB00932A464F
:1047B0003046064B04A900F07DF8E4E7BC5300083E
:1047C000C2530008C6530008000000007B450008E3
:1047D0002DE9F047164698468A680B6907469342CA
:1047E000B8BF1346336091F843200C46DDF82090A3
:1047F0000AB1013333602368990642BF336802333C
:104800003360256815F0060506D104F1190AE3683E
:1048100032689B1AAB422BDC94F843302268003B91
:1048200018BF0123920630D44146384604F14302B2
:10483000C847013023D02368226903F00603042B04
:1048400014BF002533684FF0000608BFE56804F187
:104850001A0408BFED1A54F8123C08BF25EAE575A2
:104860009342C4BF9B1AED18B5421AD1002008E04C
:104870000123524641463846C847013003D14FF024
:10488000FF30BDE8F0870135C1E73020E11881F83D
:1048900043005A1C94F845102244023382F8431016
:1048A000C2E70123224641463846C8470130E6D0D8
:1048B0000136D9E72DE9FF470F7E9146782F8046D4
:1048C0000C469A460C9E01F1430207D8622F0AD883
:1048D000002F00F0D280582F00F0B78004F142067C
:1048E00084F842703AE0A7F16303152BF6D801A1D2
:1048F00051F823F04D49000861490008DD480008DF
:10490000DD480008DD480008DD480008614900086E
:10491000DD480008DD480008DD480008DD480008E3
:10492000614A00088B490008174A0008DD48000862
:10493000DD480008834A0008DD4800088B4900086C
:10494000DD480008DD4800081F4A000833681A1DCA
:104950001B68326004F1420684F8423001239DE076
:1049600033682068191D3160060601D51D6803E013
:104970004506FBD5B3F90050002D03DA2D236D4217
:1049800084F843300A23594810E021683368080648
:1049900053F8045B02D4490648BFADB26F2F5348A9
:1049A000336059D10823002184F843106668002E33
:1049B000A66005DB21682E4321F0040121604DD063
:1049C0001646B5FBF3F103FB1157C75D06F8017DF1
:1049D0002F46BB420D46F4D9082B0BD12368DF07C5
:1049E00008D5236961689942DEBF302306F8013C8F
:1049F00006F1FF36921B22614B4621464046CDF818
:104A000000A003AAFFF7E4FE01304CD14FF0FF30C5
:104A100004B0BDE8F087236843F0200323607827C3
:104A2000334884F84570236831681F0651F8045BE9
:104A300002D45F0648BFADB23160D90744BF43F02E
:104A4000200323601DB11023ADE72848E9E7236860
:104A500023F020032360F6E70A23A4E71646BBE70A
:104A600033682568181D616930602E061B6801D502
:104A7000196002E06806FBD5198000231646236101
:104A8000BAE7336800211A1D32601E68626830463A
:104A900000F07EF908B1801B606063682361002329
:104AA00084F84330A8E73246494640462369D04758
:104AB0000130ABD023689B0713D4E068039B984276
:104AC000B8BF1846A4E70123324649464046D047BE
:104AD00001309BD00135E36803995B1AAB42F2DCED
:104AE000EBE7002504F11906F5E700BFCD530008F8
:104AF000DE530008B1F90C20F8B5160705460C4640
:104B000051D44B68002B02DC0B6C002B49DDE66AAC
:104B1000002E46D0002312F480522F682B6031D033
:104B2000626DA389590705D56368D21A636B0BB10F
:104B3000236CD21A00232846E66A216AB047421C39
:104B4000B4F90C3006D129681D2945D8274ACA4036
:104B5000D60741D5002262602269D904226004D5BB
:104B6000421C01D12B6803B96065616B2F60C1B134
:104B700004F14403994202D02846FFF797FA002334
:104B800063630EE001232846216AB0470246501CA9
:104B9000C7D12B68002BC4D01D2B01D0162B19D1E7
:104BA0002F6000201DE00F69002FFAD0930718BF77
:104BB00000230E6808BF4B69F61B0F608B60002E48
:104BC000EFDD33463A462846216AD4F828C0E0474C
:104BD000002807DCB4F90C304FF0FF3043F04003FD
:104BE000A381F8BD0744361AE9E700BF0100402061
:104BF00038B50B6905460C4613B90025284638BD63
:104C000018B1036A0BB9FFF727F8B4F90C30002B81
:104C1000F3D0626ED00704D4990502D4A06DFFF7DB
:104C20002CFA28462146FFF765FF636E0546DA0732
:104C3000E4D4A3899B05E1D4A06DFFF71FFADDE75B
:104C400070B50C46B1F90E10154600291E4696B0F7
:104C50000ADAA18911F0800113D14FF4806200209B
:104C600031602A6016B070BD6A4600F05FF8002817
:104C7000EFDB019901F47041A1F50053594259410C
:104C8000EBE700214022EAE78B8973B59E070546D2
:104C90000C4607D504F147032360236101236361B8
:104CA00002B070BD01AB6A46FFF7CAFF009E2846FE
:104CB0003146FFF765FAB4F90C3038B99A05EFD4EC
:104CC00023F0030343F00203A381E3E743F08003EF
:104CD000A381019BC4E904062060002BE0D0284694
:104CE000B4F90E1000F034F80028D9D0A38923F0CD
:104CF000030343F00103A381D2E7884210B501EB1F
:104D0000020402D98442234607D8431EA14207D099
:104D100011F8012B03F8012FF8E70244824200D179
:104D200010BD13F8011D02F8011DF7E738B5002387
:104D3000064D0446084611462B6000F075F8431CEA
:104D400002D12B6803B1236038BD00BFD0350020ED
:104D500038B50023054D044608462B6000F06CF87A
:104D6000431C02D12B6803B1236038BDD03500202D
:104D700038B50023054D044608462B6000F074F852
:104D8000431C02D12B6803B1236038BDD03500200D
:104D9000034610B5C9B202449342184601D100201F
:104DA00003E0047801338C42F6D110BD2DE9F041C7
:104DB000074614460D4621B91146BDE8F041FFF7FC
:104DC000DFB92AB9FFF772F925462846BDE8F08118
:104DD00000F01AF88442064602D8B4EB500FF4D81B
:104DE00021463846FFF7CCF9804608B94546ECE73E
:104DF000B4422246294628BF3246FFF748F92946E1
:104E00003846FFF753F9F1E751F8043C181F002B1F
:104E1000BCBF0B58C01870475822024B4FF0FF30F0
:104E20001A607047D03500205822024B4FF0FF30F7
:104E30001A607047D03500205822024B00201A60BB
:104E4000704700BFD03500205822024B4FF0FF3092
:104E50001A607047D03500205822024B4FF0FF30C7
:104E60001A607047D0350020044A05491368002BAA
:104E700008BF0B461844106018467047E035002004
:104E8000E8350020F8B500BFF8BC08BC9E46704766
:0C4E9000F8B500BFF8BC08BC9E46704797
:104E9C005B25735D205072696F3D33207C204C453F
:104EAC0044204F4E3D2564207C2023256C750D0A33
:104EBC00000000005B25735D205072696F3D32204D
:104ECC007C204C4544204F4E3D2564207C202325DE
:104EDC006C750D0A000000005B25735D2050726933
:104EEC006F3D31207C20537461727420627573792C
:104EFC002D776169742023256C750D0A0000000064
:104F0C005B25735D205072696F3D31207C204275AA
:104F1C0073792D776169742023256C7520646F6E0D
:104F2C00650D0A005B53746174696344656D6F5D54
:104F3C002052756E6E696E672066726F6D20737489
:104F4C0061746963206D656D6F72792120636F7573
:104F5C006E743D256C75207C20686561703D2575EF
:104F6C000D0A00005B53656C6644656C5D204865FA
:104F7C006C6C6F2120492077696C6C2064656C65C2
:104F8C007465206D7973656C6620696E20332073AF
:104F9C0065636F6E64732E2E2E0D00005B53656C73
:104FAC006644656C5D20476F6F64627965212043B0
:104FBC00616C6C696E6720765461736B44656C65CB
:104FCC007465284E554C4C292E2E2E0D00000000D9
:104FDC003D3D3D3D3D3D3D3D3D3D205461736B2090
:104FEC004C697374203D3D3D3D3D3D3D3D3D3D0D8A
:104FFC00000000003D3D3D3D3D3D3D3D3D3D3D3DC9
:10500C003D3D3D3D3D3D3D3D3D3D3D3D3D3D3D3DC4
:10501C003D3D3D0D0A0D00003D3D3D3D3D3D3D3DC1
:10502C003D3D3D3D3D3D3D3D3D3D3D3D3D3D3D3DA4
:10503C003D3D3D3D3D3D3D3D3D0D000020467265F5
:10504C006552544F5320537461636B204F766572D5
:10505C00666C6F77210D0000205461736B204E61DC
:10506C006D653A2025730D0A000000003D3D3D3D65
:10507C003D3D3D3D3D3D3D3D3D3D3D3D3D3D3D3D54
:10508C003D3D3D3D3D3D3D3D3D3D3D3D3D3D3D3D44
:10509C003D3D3D3D0D00000020204672656552549B
:1050AC004F53205363686564756C65722045787046
:1050BC006572696D656E74730D0000002020535489
:1050CC004D33324631303343385478207C20256CB4
:1050DC007520487A0D0A00003D3D3D3D3D3D3D3D6E
:1050EC003D3D3D3D3D3D3D3D3D3D3D3D3D3D3D3DE4
:1050FC003D3D3D3D3D3D3D3D3D3D3D3D3D3D3D3DD4
:10510C000D0A0D00504331335B485D004C45445F44
:10511C0048000000212121204C45445F4820637247
:10512C0065617465204641494C45440D0000000002
:10513C00504331345B4D5D004C45445F4D000000E5
:10514C00212121204C45445F4D20637265617465BB
:10515C00204641494C45440D000000005043313578
:10516C005B4C5D004C45445F4C000000212121202C
:10517C004C45445F4C20637265617465204641491F
:10518C004C45440D0000000053656C6644656C0092
:10519C002121212053656C6644656C206372656126
:1051AC007465204641494C454420290D00000000FF
:1051BC004C69737452707400212121204C697374F2
:1051CC0052707420637265617465204641494C4588
:1051DC00440D000053746174696344003D3D3D20EF
:1051EC00486561703A2044796E616D69632076730D
:1051FC0020537461746963203D3D3D0D0000000037
:10520C0020204865617020746F74616C3A202020F6
:10521C00202020202535752062797465732028257F
:10522C0075204B6942290D0A0000000020204265C0
:10523C00666F7265207461736B733A202020202096
:10524C0025357520627974657320667265650D0A63
:10525C000D0A00002020352064796E616D69632091
:10526C007461736B733A20202535752062797465EF
:10527C007320636F73742020282575206672656512
:10528C00290D0A00202020202D3E20617667202544
:10529C0075206279746573207065722064796E6113
:1052AC006D6963207461736B20285443422B7374B3
:1052BC0061636B206F6E2068656170290D0A0D0AA1
:1052CC000000000020203120737461746963207425
:1052DC0061736B3A20202020253575206279746526
:1052EC007320636F737420202825752066726565A2
:1052FC00290D0A00202020202D3E204352454154E8
:10530C004544204F4B2C2068656170207361766595
:10531C0064207E2575206279746573207673206411
:10532C00796E616D69630D0A0D0A00002020202042
:10533C002D3E204552524F523A20785461736B43A4
:10534C0072656174655374617469632072657475F8
:10535C00726E6564204E554C4C210D0A0D000000F8
:10536C0049444C45000000000925630925750925B1
:10537C00750925750D0A00005561727454580000AA
:10538C000102000002030405060708090A0B0C0DB4
:10539C000E0F1010000000000102030400000000BA
:1053AC000000000001020304060708091F000000AA
:1053BC00232D302B2000686C4C00656667454647F2
:1053CC000030313233343536373839414243444575
:1053DC0046003031323334353637383961626364E4
:0453EC0065660000F2
:0853F00020ADFF7F0100000069
:0453F8004501000863
:0453FC002101000883
:10540000010000001000000000127A00AAAAAAAA57
:105410000000000003000000943400202000002061
:105420000000000094340020FC340020643500208B
:10543000000000000000000000000000000000006C
:10544000000000000000000000000000000000005C
:10545000000000000000000000000000000000004C
:0C54600000000000000000000000000040
:0400000508003AF1C4
:00000001FF
