:020000040800F2
:1000000000500020694900084D0400084F04000812
:1000100051040008530400085504000800000000C3
:100020000000000000000000000000009131000806
:100030005704000800000000F131000835320008C4
:10004000B1490008B1490008B1490008B1490008A8
:10005000B1490008B1490008B1490008B149000898
:10006000B1490008B1490008B1490008B149000888
:10007000B1490008B14900085904000869040008A2
:10008000B1490008B1490008B1490008B149000868
:10009000B1490008B1490008B1490008B149000858
:1000A000B1490008B1490008B1490008B149000848
:1000B00079040008B1490008B1490008B1490008B5
:1000C000B1490008B1490008B1490008B149000828
:1000D000B149000889040008B1490008B149000885
:1000E000B1490008B1490008B1490008000000000A
:1000F0000000000000000000000000000000000000
:0C01000000000000000000005FF808F1A3
:1001100010B5054C237833B9044B13B10448AFF341
:1001200000800123237010BD6C000020000000003F
:100130005459000808B5034B1BB103490348AFF3FA
:10014000008008BD00000000700000205459000825
:1001500030B585B00546002408E04FF400510D4845
:1001600001F0D8FC4FF4FA7002F056FA684603F03A
:10017000E2FB0028F6D101340023642269462846B8
:1001800002F0CCFC0128E8D02146034804F0D6FC5C
:10019000E8E700BF001001406C59000830B587B097
:1001A000044601460C4804F0C9FC00254FF0FF321C
:1001B00002A9204602F0ACFD0128F7D10135BDF9B6
:1001C0000C300093BDF90A30BDF9082029460348D8
:1001D00004F0B4FCEAE700BF90590008AC590008ED
:1001E000034B0360034B0B6080231360704700BF19
:1001F000880200208800002008B5024804F09EFC18
:1002000072B6FEE7D459000808B50368B3F1804F11
:1002100000D008BD00F09CFFFBE772B6FEE710B50A
:1002200090B006AC28220021204604F0CDFD00232A
:1002300001930293039304930593022306930123EE
:100240000A9310230B93204600F0AAFF60B90F23F6
:1002500001930021029103910491059101A801F0FD
:10026000D1F918B910B010BDFFF7D7FFFFF7D5FFD0
:1002700030B585B000F05AFFFFF7D1FF03F05EF80C
:1002800003F060FA03F0A0F803F07EFA03F0C0FC7C
:10029000534B187003F0C8F9524804F0B7FC5248A9
:1002A00004F0B4FC514B1968514804F047FC514824
:1002B00004F0ACFC504804F041FC0124002501E0AE
:1002C0000134E4B27E2C0DD80A23022261004B488F
:1002D00004F084FA0028F3D12146494804F02EFCAA
:1002E0000135EDE7002D5FD1464804F08FFC3C4B13
:1002F0001978454804F022FC404C204603F0F0FFFA
:1003000003F042FA75238DF80E3064230093012325
:100310000DF10E02D021204603F0FCFF014600281B
:1003200047D09DF80F20394804F008FC03F0CFFABD
:10033000002849D1364804F069FC00220E2108202B
:1003400002F0C1FB334B1860002841D00E21324827
:1003500004F0F4FB00230193022300932D4B1B6850
:100360004FF400722D492E4801F094FF012833D03C
:100370002C492D4804F0E2FB002301930123009354
:10038000244B1B684FF400722849294801F082FF72
:10039000012823D02349274804F0D0FB264804F045
:1003A00035FC01F0A9FFFEE72946244804F0C6FB0E
:1003B0009DE76423009301230DF10F02D021204615
:1003C00004F062F80146ACE71D4804F01FFCB4E7F6
:1003D0001C4804F01BFCBDE71B49CAE71A49DAE7D1
:1003E000DC020020005A00082C5A000808000020F7
:1003F000545A0008705A00089C5A00084C300020DB
:10040000A85A0008B05A0008D85A0008045B00082F
:10041000445B0008E0020020905B0008B85B000825
:1004200051010008F8590008C45B0008E45B0008AB
:100430009D010008F05B0008105C0008C45A000829
:100440005C5B0008785B0008F4590008FEE7FEE7F3
:10045000FEE7FEE7FEE7704708B5024801F056FCEC
:1004600008BD00BFB42E002008B5024801F04EFCC4
:1004700008BD00BF702E002008B5024800F066F8E5
:1004800008BD00BF282E002008B5024800F02EFC51
:1004900008BD00BFF82E002082B00E4B9A6942F0D2
:1004A00001029A619A6902F001020092009ADA69E7
:1004B00042F08052DA61DB6903F080530193019BC3
:1004C000054A536823F0E06343F00073536002B0C1
:1004D000704700BF0010024000000140704700005C
:1004E00090F83D30012B27D1022380F83D3002687F
:1004F000D36843F00103D3600368114A934210D0DC
:10050000B3F1804F0DD0A2F59432934209D002F599
:100510008062934205D01A6842F001021A600020FE
:1005200070479A6802F00702062A07D01A6842F05C
:1005300001021A60002070470120704700207047B8
:10054000002C0140704770477047704770B50446F3
:100550000368DE681D6915F0020F10D016F0020F57
:100560000DD06FF002021A610123037703689B69C3
:1005700013F0030F5ED0FFF7E6FF0023237715F09B
:10058000040F12D016F0040F0FD023686FF004028E
:100590001A610223237723689B6913F4407F4FD0AD
:1005A0002046FFF7D0FF0023237715F0080F12D065
:1005B00016F0080F0FD023686FF008021A610423A9
:1005C00023772368DB6913F0030F40D02046FFF741
:1005D000BAFF0023237715F0100F12D016F0100F7A
:1005E0000FD023686FF010021A6108232377236865
:1005F000DB6913F4407F31D02046FFF7A4FF0023CE
:10060000237715F0010F02D016F0010F2DD115F050
:10061000800F02D016F0800F2FD115F0400F02D0BE
:1006200016F0400F31D115F0200F02D016F0200F38
:1006300033D170BDFFF786FF2046FFF785FF9CE7AB
:100640002046FFF77FFF2046FFF77EFFABE72046FF
:10065000FFF778FF2046FFF777FFBAE72046FFF75E
:1006600071FF2046FFF770FFC9E723686FF00102B2
:100670001A612046FFF7C8FDC9E723686FF08002C2
:100680001A61204600F081F8C7E723686FF0400246
:100690001A612046FFF759FFC5E723686FF0200273
:1006A0001A61204600F070F8C3E7000003681F4A93
:1006B00090420AD0B0F1804F07D0A2F59432904218
:1006C00003D002F58062904203D123F070034A68A0
:1006D0001343164A90420AD0B0F1804F07D0A2F5DA
:1006E0009432904203D002F58062904203D123F409
:1006F0004073CA68134323F080034A6913430360BD
:100700008B68C3620B688362084B98420AD001234E
:100710004361036913F0010F03D0036923F0010360
:10072000036170470B690363F1E700BF002C0140D0
:1007300040B310B5044690F83D30F3B1022384F87D
:100740003D30214651F8040BFFF7B0FF012384F838
:10075000463084F83E3084F83F3084F8403084F8E6
:10076000413084F8423084F8433084F8443084F8CF
:10077000453084F83D30002010BD80F83C30FFF754
:10078000ADFEDBE70120704770477047026802F159
:100790000C0353E8003F23F0C0030C3242E8003161
:1007A0000029F3D1202380F841307047026802F11C
:1007B0000C0353E8003F23F490730C3242E80031FD
:1007C0000029F3D1026802F1140353E8003F23F03B
:1007D0000103143242E800310029F3D1036B012BED
:1007E00005D0202380F8423000230363704702685D
:1007F00002F10C0353E8003F23F010030C3242E8EF
:1008000000310029F3D1ECE790F84130212B01D0E1
:10081000022070478368B3F5805F17D0036A5A1CC3
:1008200002621A7803685A60C38C9BB2013B9BB288
:10083000C3844BB90268D36823F08003D360026895
:10084000D36843F04003D360002070470369002B56
:10085000E4D1036A1B880268C3F308035360036A88
:1008600002330362E0E7000010B504460268136932
:1008700023F44053C1680B43136183680269134337
:1008800042691A430168CB6823F4B05323F00C0388
:100890001343CB600268536923F4407381690B43AF
:1008A00053610268134B9A4220D000F067FF024662
:1008B00002EB820202EB820263689B00B2FBF3F25E
:1008C0000D48A0FB02314909642303FB11231B01DE
:1008D0003233A0FB03035B0903F0F00202EB0112C9
:1008E00003F00F03216813448B6010BD00F056FF26
:1008F0000246DDE7003801401F85EB512DE9F0434A
:1009000083B005460E4617469946DDF828802B68C9
:100910001C6836EA04040CBF01240024BC4228D120
:10092000B8F1FF3FF3D000F01FFCA0EB09004045F9
:1009300023D8B8F1000F22D02B68DA6812F0040F28
:10094000E5D0802EE3D0402EE1D01A6812F0080FD7
:10095000DDD0002401941A6801925B680193019B29
:100960002846FFF723FF08236B6485F840400120E9
:1009700000E0002003B0BDE8F0830320FAE7032085
:10098000F8E760B310B5044690F8413013B3242360
:1009900084F841302268D36823F40053D3602046A2
:1009A000FFF762FF2268136923F490431361226802
:1009B000536923F02A0353612268D36843F4005338
:1009C000D36000206064202384F8413084F84230F2
:1009D000606310BD80F8403002F010FDD7E70120C1
:1009E00070472DE9F04182B01E4690F84130202B2F
:1009F00056D104460D469046002955D00AB901202B
:100A00004FE000234364212380F8413000F0ACFB29
:100A10000746A4F82480A4F82680A368B3F5805F75
:100A200002D04FF0000814E023692BB34FF0000808
:100A30000FE0202384F84130032032E038F8023BF5
:100A40002268C3F308035360E28C92B2013A92B277
:100A5000E284E38C9BB293B100963B460022802156
:100A60002046FFF74BFF0028E3D1002DE6D015F814
:100A7000012B23685A60E7E7A8460025E9E70096BE
:100A80003B46002240212046FFF738FF18B92023BB
:100A900084F8413005E0202384F84130032000E051
:100AA000022002B0BDE8F0810120FAE738B590F8E5
:100AB0004130202B30D1044600292FD00AB9012023
:100AC00038BD01628284C28400234364212084F8FB
:100AD0004100A06B124D8562A06B124DC562A06BE8
:100AE000114D0563A06B436320681346021DA06B84
:100AF00001F064F823686FF040021A60226802F186
:100B0000140353E8003F43F08003143242E80031FD
:100B10000029F3D10020D3E70220D1E70120CFE75D
:100B20002D0B0008950B0008A50B000808B503461F
:100B3000406A1B681B6813F0200F1AD10023C3847E
:100B4000026802F1140353E8003F23F080031432DB
:100B500042E800310029F3D1026802F10C0353E8A6
:100B6000003F43F040030C3242E800310029F3D14A
:100B700008BD02F029FDFBE708B50168CA6822F04C
:100B80004002CA60202280F8412002F01DFD0020B2
:100B900008BD704708B5406AFFF7FBFF08BD704706
:100BA0007047704710B5446A23685B6994F8412028
:100BB000212A0FD023685B6903F0400394F8422098
:100BC000222A11D0636C43F0100363642046FFF7C0
:100BD000E8FF10BD03F08003002BEBD00023E3847B
:100BE0002046FFF7D3FDE5E7002BEBD00023E3859C
:100BF0002046FFF7DBFDE5E708B5406A0023C38523
:100C0000C384FFF7CEFF08BD90F84230222B69D194
:100C10008368B3F5805F4FD0826AB3F5805F04D0FC
:100C2000002B56D10369002B53D103685B68137006
:100C3000836A01338362C38D9BB2013B9BB2C38540
:100C4000002B51D100B583B00268D36823F0200394
:100C5000D3600268D36823F48073D3600268536959
:100C600023F001035361202380F8423000234363C3
:100C7000036B012B33D100230363026802F10C03E1
:100C800053E8003F23F010030C3242E80031002902
:100C9000F3D103681A6812F0100F06D000220192F7
:100CA0001A6801925B680193019B818D02F002FD3D
:100CB000002003B05DF804FB0269002AACD1826A0F
:100CC00003685B68C3F308031380836A023383629B
:100CD000B1E703685B6803F07F031370A8E7FFF7D1
:100CE0005EFFE5E7022070470020704710B582B034
:100CF000044602681368D068516913F00F0F09D1D8
:100D000013F0200F0CD010F0200F09D02046FFF771
:100D10007BFF16E011F0010115D110F4907F12D184
:100D2000216B012979D013F0800F03D010F0800FD0
:100D300040F0138113F0400F03D010F0400F40F04B
:100D4000108102B010BD13F0010F06D010F4807FA7
:100D500003D0626C42F00102626413F0040F04D00D
:100D600019B1626C42F00202626413F0020F04D007
:100D700019B1626C42F00402626413F0080F07D0EC
:100D800010F0200F00D119B1626C42F008026264C9
:100D9000626C002AD5D013F0200F02D010F0200F83
:100DA00029D123685B6903F04003626C12F0080FDD
:100DB00000D163B32046FFF7F9FC23685B6913F0A9
:100DC000400F20D0226802F1140353E8003F23F0C3
:100DD0004003143242E800310029F3D1E36B73B1D0
:100DE000624A5A63E06B00F045FF0028A9D0E06B2F
:100DF000436B9847A5E72046FFF706FFD1E720465B
:100E0000FFF7CFFE9DE72046FFF7CBFE99E7204690
:100E1000FFF7C7FE0023636493E713F0100F82D03F
:100E200010F0100F3FF47FAF00230193136801937C
:100E300053680193019B536913F0400F51D0E26B4B
:100E400013685B689BB2002B3FF47BAFA18D994286
:100E50007FF677AFE3859369202B37D0226802F1C4
:100E60000C0353E8003F23F480730C3242E8003156
:100E70000029F3D1226802F1140353E8003F23F064
:100E80000103143242E800310029F3D1226802F153
:100E9000140353E8003F23F04003143242E80031CA
:100EA0000029F3D1202384F84230002323632268F1
:100EB00002F10C0353E8003F23F010030C3242E828
:100EC00000310029F3D1E06B00F0B2FE022363632E
:100ED000A18DE38D9BB2C91A89B2204602F0EAFBCC
:100EE0002FE7A18DE38D9BB2C91A89B2E38D9BB226
:100EF000002B3FF426AF00293FF423AF226802F114
:100F00000C0353E8003F23F490730C3242E80030A6
:100F10000028F3D1226802F1140353E8003F23F0C4
:100F20000103143242E800300028F3D1202384F872
:100F3000423000232363226802F10C0353E8003F90
:100F400023F010030C3242E800300028F3D10223D2
:100F50006363204602F0AEFBF3E62046FFF754FC45
:100F6000EFE62046FFF708FEEBE600BFF90B0008AE
:100F700008B5406A01234363036B012B02D0FFF7DE
:100F80000FFE08BD818D490802F094FBF9E708B512
:100F90000346406A1B681B6813F0200F2BD1002307
:100FA000C385026802F10C0353E8003F23F4807309
:100FB0000C3242E800310029F3D1026802F1140337
:100FC00053E8003F23F00103143242E800310029C6
:100FD000F3D1026802F1140353E8003F23F0400309
:100FE000143242E800310029F3D1202380F8423046
:100FF000036B012B07D000234363036B012B0FD03E
:10100000FFF7CDFD08BD026802F10C0353E8003F75
:1010100023F010030C3242E800310029F3D1EAE753
:10102000818D02F047FBEDE730B583B004461346EF
:101030008162828500254564222280F84220C26BAD
:101040001F489062E26B1F48D062E26B1E4810633B
:10105000E26B556320680A46011DE06B00F0AEFDAF
:10106000019523681A6801925B680193019B2369CB
:101070005BB1226802F10C0353E8003F43F4807334
:101080000C3242E800310029F3D1226802F1140346
:1010900053E8003F43F00103143242E800310029D5
:1010A000F3D1226802F1140353E8003F43F04003F8
:1010B000143242E800310029F3D1002003B030BDE2
:1010C0008F0F0008710F0008A50B000890F8423040
:1010D000202B27D110B582B0044629B312B90120C4
:1010E00002B010BD0123036300234363FFF79CFF9D
:1010F000236B012B01D00120F2E700230193236829
:101100001A6801925B680193019B226802F10C034B
:1011100053E8003F43F010030C3242E8003100294D
:10112000F3D1DDE7022070470120D9E708B5074A6F
:10113000136843F010031360032000F0BDFE0F207E
:1011400002F0C0F8FFF7A8F9002008BD0020024017
:10115000034A1168034B1B780B441360704700BFB0
:10116000E402002000000020014B1868704700BF17
:10117000E402002082B0084B1B68084AA2FB03234C
:101180005B0A00FB03F3019300BF019B5A1E01920F
:10119000002BF9D102B0704708000020D34D621037
:1011A000002800F0F18170B582B00446036813F0A6
:1011B000010F2CD0994B5B6803F00C03042B1DD05E
:1011C000964B5B6803F00C03082B12D06368B3F5F1
:1011D000803F41D0002B55D103F1804303F5043308
:1011E0001A6822F480321A601A6822F480221A6087
:1011F00037E08A4B5B6813F4803FE7D0874B1B686E
:1012000013F4003F03D06368002B00F0BF81236814
:1012100013F0020F75D0814B5B6813F00C0F5FD099
:101220007E4B5B6803F00C03082B54D02369002B22
:1012300000F08A807A4B01221A60FFF795FF05467D
:10124000764B1B6813F0020F75D1FFF78DFF401B23
:101250000228F5D903209EE1704A136843F48033D5
:101260001360636843B3FFF77FFF05466B4B1B6852
:1012700013F4003FCBD1FFF777FF401B6428F5D96B
:10128000032088E1B3F5A02F09D0644B1A6822F43B
:1012900080321A601A6822F480221A60E1E703F1B2
:1012A0008043A3F53C331A6842F480221A601A681E
:1012B00042F480321A60D4E7FFF756FF0546574BD9
:1012C0001B6813F4003FA2D0FFF74EFF401B6428B9
:1012D000F5D903205FE1514B5B6813F4803FA5D142
:1012E0004E4B1B6813F0020F03D02369012B40F013
:1012F0004F814A4A136823F0F803616943EAC10346
:101300001360236813F0080F33D0A369002B5CD05F
:10131000434B0122C3F88024FFF726FF05463F4BCD
:101320005B6A13F0020F21D1FFF71EFF401B02285A
:10133000F5D903202FE1394A136823F0F8036169D6
:1013400043EAC1031360DCE7354B00221A60FFF764
:101350000BFF0546314B1B6813F0020FD1D0FFF78E
:1013600003FF401B0228F5D9032014E10120FFF7F9
:1013700001FF236813F0040F00F09680274BDB6910
:1013800013F0805F34D1254BDA6942F08052DA6184
:10139000DB6903F080530193019B0125214B1B68FE
:1013A00013F4807F26D0E368012B3DD0002B53D16E
:1013B00003F1804303F504331A6A22F001021A6232
:1013C0001A6A22F004021A6233E0154B0022C3F8B5
:1013D0008024FFF7C9FE0546104B5B6A13F0020F2D
:1013E000C7D0FFF7C1FE401B0228F5D90320D2E089
:1013F0000025D3E70B4A136843F480731360FFF7AB
:10140000B3FE0646074B1B6813F4807FCBD1FFF772
:10141000ABFE801B6428F5D90320BCE0001002401D
:1014200000004242007000405F4A136A43F001032B
:101430001362E36833B3FFF797FE06465A4B1B6A05
:1014400013F0020F2FD1FFF78FFE801B41F288337C
:101450009842F3D903209EE0052B09D0524B1A6A1B
:1014600022F001021A621A6A22F004021A62E0E70C
:101470004D4B1A6A42F004021A621A6A42F00102E3
:101480001A62D6E7FFF770FE0646474B1B6A13F059
:10149000020F08D0FFF768FE801B41F288339842A4
:1014A000F3D9032077E0E5B9E369002B72D03E4A17
:1014B000526802F00C02082A56D0022B17D03B4B80
:1014C00000221A66FFF750FE0446374B1B6813F0E4
:1014D000007F47D0FFF748FE001B0228F5D9032004
:1014E00059E0314AD36923F08053D361DCE72F4BB5
:1014F00000221A66FFF738FE05462B4B1B6813F0D7
:10150000007F06D0FFF730FE401B0228F5D90320EC
:1015100041E0236AB3F5803F1AD023494B6823F496
:101520007413226A606A024313434B601F4B01220B
:101530001A66FFF719FE04461B4B1B6813F0007F69
:101540000ED1FFF711FE001B0228F5D9032022E07F
:10155000154A536823F40033A1680B435360DCE75A
:10156000002018E0002016E0012B16D00E4B5B681F
:1015700003F48031226A914211D103F47013626A3C
:1015800093420ED1002006E001207047012002E0C6
:10159000012000E0002002B070BD0120FBE7012027
:1015A000F9E70120F7E700BF0010024000004242C7
:1015B0000F4B5B6803F00C02082A01D00D487047FE
:1015C000C3F383420C49885C13F4803F0BD0084B73
:1015D0005B68C3F34043094AD35C064A02FB00F050
:1015E000B0FBF3F07047064B03FB00F0704700BF01
:1015F0000010024000127A00585C0008545C000899
:1016000000093D00002800F0A08070B50D4604469A
:10161000524B1B6803F007038B420BD24F4A1368EF
:1016200023F007030B431360136803F007038B4297
:1016300040F08D80236813F0020F17D013F0040FD1
:1016400004D0474A536843F4E0635360236813F0BF
:10165000080F04D0424A536843F460535360404A31
:10166000536823F0F003A1680B435360236813F021
:10167000010F31D06368012B20D0022B25D0384ACE
:10168000126812F0020F64D035494A6822F0030252
:1016900013434B60FFF768FD0646314B5B6803F070
:1016A0000C036268B3EB820F16D0FFF75DFD801B61
:1016B00041F288339842F0D9032045E0284A126865
:1016C00012F4003FE0D101203EE0254A126812F0FA
:1016D000007FD9D1012037E0204B1B6803F00703BE
:1016E000AB420AD91D4A136823F007032B4313604A
:1016F000136803F00703AB422DD1236813F0040FE6
:1017000006D0174A536823F4E063E1680B43536043
:10171000236813F0080F07D0114A536823F460536D
:10172000216943EAC1035360FFF742FF0C4B5B683A
:10173000C3F303130B4AD35CD8400B4B18600B4B1D
:10174000186801F0BFFD002070BD01207047012026
:10175000FAE70120F8E70120F6E700BF0020024089
:1017600000100240705C0008080000200400002007
:10177000014B1868704700BF0800002008B5FFF74C
:10178000F7FF044B5B68C3F30223034AD35CD840E2
:1017900008BD00BF00100240685C000808B5FFF7F4
:1017A000E7FF044B5B68C3F3C223034AD35CD84012
:1017B00008BD00BF00100240685C00080F230360F2
:1017C0000B4B5A6802F0030242605A6802F0F002C2
:1017D00082605A6802F4E062C2605B68DB0803F46E
:1017E000E0630361034B1B6803F007030B60704762
:1017F000001002400020024070B582B00024A446D0
:101800009EE07C4DAB4214D00CD8A5F58015AB42C0
:101810000FD005F57025AB420BD0A5F58015AB4276
:101820001FD106E0744DAB4203D005F58035AB42C5
:1018300017D18B68A3B1012B0DD04261082410E0B1
:10184000CC680EE0CC6804340BE0CC68083408E0C7
:10185000CC680C3405E00261082402E0002400E0BA
:101860000424BEF1FF0F37D806464FEA8C023368D6
:101870000F25954023EA050304FA02F2134333606F
:101880004B6813F0805F59D05C4B9A6942F00102BB
:101890009A619B6903F001030193019B4FEA9C024B
:1018A000951C574B53F825600CF00305AD000F2332
:1018B000AB4026EA0306534B984214D003F58063ED
:1018C000984279D003F58063984277D003F580631E
:1018D000984206D0042307E0061DACF108029200EE
:1018E000C5E7032300E00023AB4033430232444DFD
:1018F00045F822304B6813F4801F61D0424A936848
:1019000043EA0E0393604B6813F4001F5ED03E4A17
:10191000D36843EA0E03D3604B6813F4003F5BD0F7
:10192000394A536843EA0E0353604B6813F4803F0F
:1019300058D0354A136843EA0E0313600CF1010CCA
:101940000B6833FA0CF253D0012202FA0CF203EACC
:10195000020E32EA0303F1D14B68122B3FF651AF6E
:10196000122B3FF67EAF01A555F823F0331800087F
:10197000411800084B1800085D180008631800089B
:10198000631800086318000863180008631800084B
:10199000631800086318000863180008631800083B
:1019A000631800086318000863180008631800082B
:1019B0004518000851180008012395E7022393E712
:1019C000114A936823EA0E0393609CE70E4AD3689A
:1019D00023EA0E03D3609FE70B4A536823EA0E0302
:1019E0005360A2E7084A136823EA0E031360A5E7D1
:1019F00002B070BD00002210000031100010024043
:101A000000000140000801400004014000226BE09A
:101A1000032500E0002505FA04F4644542D0FF2BBD
:101A20005AD886469500DEF800404FF00F0C0CFAAD
:101A300005FC24EA0C044FF0040C0CFA05FC44EA03
:101A40000C04CEF80040C46824EA0303C3600132EA
:101A500031FA02F346D0012393400B40F7D09608A9
:101A6000B51C264C54F8255002F00304A4004FF096
:101A70000F0C0CFA04FE0EEA050C214DA842C9D049
:101A800005F58065A84209D005F58065A84207D014
:101A900005F58065A842BBD00425BCE70125BAE75F
:101AA0000225B8E7174C256825EA03052560656817
:101AB00025EA03056560E56825EA0305E560A56894
:101AC00025EA0305A5600D4FB41C57F8245025EAFC
:101AD0000E0547F82450A2E700F1040EA2F1080514
:101AE000AD00A0E7F0BD013231FA02F305D00123C9
:101AF00093400B40F7D0F0B5B1E7704700000140CC
:101B000000080140000401400AB101617047090466
:101B100001617047C36801EA030221EA030141EA57
:101B200002410161704730B40124056CAC40C56BC3
:101B30006C60046863604368102B05D0036899608B
:101B40000368DA6030BC704703689A600368D96044
:101B5000F8E7000050B310B402460168144B0B4480
:101B60001448A0FB03031B099B001364124BD363AF
:101B7000022382F8213008686FF30D1053689468CF
:101B80002343D4682343146923435469234394694A
:101B90002343D469234303430B6000209063012354
:101BA00082F8213082F8200010BC70470120704775
:101BB000F8FFFDBFCDCCCCCC0000024038B50446C8
:101BC00090F82000012831D0012084F8200094F8FA
:101BD0002100012804D0002384F82030022038BDE1
:101BE000022084F821000020A0632568286820F0E6
:101BF000010028602046FFF796FFE36A5BB1226888
:101C0000136843F00E0313602268136843F0010366
:101C100013600020E3E72268136823F004031360D5
:101C20002268136843F00A031360EDE70220D6E749
:101C3000034690F82120022A06D004228263002263
:101C400080F820200120704701680A6822F00E0207
:101C50000A6001680A6822F001020A60026CC06B27
:101C6000012101FA02F2426083F82110002083F87A
:101C70002000704708B590F82130022B03D00423D0
:101C80008363012008BD0268136823F00E0313600C
:101C90000268136823F0010313600368194A934232
:101CA00014D0143293421FD0143293421ED01432F7
:101CB00093421ED0143293421ED01432934202D06B
:101CC0004FF0807203E04FF4801200E001220E4BCF
:101CD0005A60012380F82130002380F82030436BC4
:101CE0006BB198470020CDE71022F0E74FF48072E7
:101CF000EDE74FF48052EAE74FF48032E7E7002047
:101D0000C0E700BF080002400000024038B5C36BC6
:101D10001A6804682568016C04238B40134235D08F
:101D200015F0040F32D0236813F0200F03D123687D
:101D300023F0040323600368434A934214D014320F
:101D4000934218D01432934217D01432934217D0D2
:101D50001432934217D01432934202D04FF0806273
:101D600003E04FF4800200E00422384B5A60C36A5B
:101D700003B1984738BD4022F7E74FF48062F4E79B
:101D80004FF48042F1E74FF48022EEE702238B40CC
:101D900013423CD015F0020F39D0236813F0200F06
:101DA00006D1236823F00A032360012380F8213041
:101DB0000368254A934214D0143293421CD0143243
:101DC00093421BD0143293421BD0143293421BD047
:101DD0001432934202D04FF0007203E04FF400122D
:101DE00000E00222194B5A60002380F82030836AF9
:101DF000002BBFD09847BDE72022F3E74FF40072D5
:101E0000F0E74FF40052EDE74FF40032EAE7082321
:101E10008B401342AED015F0080FABD0236823F0EF
:101E20000E032360026CC16B012303FA02F24A60C5
:101E3000836380F82130002380F82030036B002B6F
:101E400098D0984796E700BF080002400000024083
:101E5000002808DB0901C9B200F1604000F56140CB
:101E600080F80013704700F00F000901C9B2014B60
:101E70001954704714ED00E000B500F00700C0F100
:101E8000070CBCF1040F28BF4FF0040C031D062BF8
:101E90000FD9C31E4FF0FF3E0EFA0CF021EA0001ED
:101EA00099400EFA03FE22EA0E0241EA02005DF8B2
:101EB00004FB0023EEE70000074AD36823F4E06345
:101EC0001B041B0C000200F4E060034343F0BF63FB
:101ED00043F40033D360704700ED00E010B50446D2
:101EE000054BD868C0F30220FFF7C6FF0146204625
:101EF000FFF7AEFF10BD00BF00ED00E0002807DBDC
:101F000000F01F02400901239340024A42F82030AA
:101F1000704700BF00E100E070470000074B1B68FE
:101F20001B6823B9064B4FF0FF321A607047034B12
:101F30001B68DB681A68024B1A6070475803002060
:101F4000F00200202DE9F04780460D4617469946DD
:101F5000089EDDF824A00A9C9200A521206B02F0C7
:101F600033FF236B07F18042013A03EB820727F02E
:101F7000070795B34FF0000CBCF10F0F09D815F807
:101F80000C3004EB0C0282F8343013B10CF1010C6C
:101F9000F2E7002384F843301F2E00D91F26E662A3
:101FA000201D00F074FC04F1180000F070FC2461A6
:101FB000C6F12006A66164620023E36484F8503011
:101FC0004A464146384601F0CFF82060BAF1000F8A
:101FD00001D0CAF80040BDE8F087002384F834300F
:101FE000DAE7000038B5002407E004EB8402930030
:101FF0000E48184400F040FC01341F2CF5D90C4D5C
:10200000284600F039FC0B4C204600F035FC0A480D
:1020100000F032FC094800F02FFC094800F02CFCCD
:10202000084B1D60084B1C6038BD00BF84030020B6
:10203000700300205C030020400300202C030020DC
:1020400014030020580300205403002010B5044658
:1020500001F0B0F8294A136801331360284B1B685C
:102060005BB1284B1B686BB9254B1B68DA6AE36AC6
:102070009A4207D8224B1C6004E0214B1C60136875
:10208000012B37D0204A1368013313606364E36A7D
:1020900001229A401D49086802430A601C4A03EB6A
:1020A000830302EB83035B68A3609868E060211DF3
:1020B00041609960E36A03EB8301880002EB8101D0
:1020C000616111580131115001F084F80D4B1B680A
:1020D0007BB10B4B1B68DA6AE36A9A4209D24FF074
:1020E000E0234FF08052C3F8042DBFF34F8FBFF3AE
:1020F0006F8F10BDFFF776FFC4E700BF100300200D
:102100000406002004030020F4020020080300203D
:102110008403002010B5044690F8513013B1012B10
:1021200007D010BD006B00F0D3FF204600F0D0FFB9
:10213000F7E700F0CDFFF4E70F4B1B68D3B110B504
:1021400001F038F80D4BDB68DC68201D00F0BBFBAC
:102150000B4A1368013B1360074A1368013B136085
:1021600001F038F82046FFF7D5FF034B1B68002B22
:10217000E6D110BD704700BF280300202C030020CB
:102180001003002008B5FFF7D7FF074B1B68012B92
:10219000F9D94FF0E0234FF08052C3F8042DBFF37C
:1021A0004F8FBFF36F8FEEE78403002070B50446B6
:1021B0000D46234B1E68234B1868043000F083FB48
:1021C00048B9204B1B68DB6A01229A401E490B6804
:1021D00023EA02030B60B4F1FF3F0DD03444194BE6
:1021E0001B685C60A6421DD9184B1868154B19680E
:1021F000043100F04FFB70BD002DEFD0144A516840
:10220000104B1868816018688C68C46018680430C6
:1022100060601868043088601B685A611368013375
:102220001360E8E70B4B1868064B1968043100F09F
:1022300031FB094B1B68A342DDD9074B1C60DAE771
:102240000C03002004060020080300205403002093
:102250001403002058030020F002002030B587B09E
:102260000B9D0C9C8CB185B12563022584F85150DF
:1022700000250395029405AD01950A9D0095FFF791
:1022800061FE2046FFF7E2FE01E00023059305987A
:1022900007B030BD2DE9F04385B0074688461446A7
:1022A0001E46900000F0A2FE08B38146542000F0C4
:1022B0009DFE0546A8B1C0F83090002380F851304B
:1022C000039302900D9B01930C9B0093334622468F
:1022D00041463846FFF736FE2846FFF7B7FE012095
:1022E00007E0484600F0F4FE4FF0FF3001E04FF009
:1022F000FF3005B0BDE8F08310B588B00024059428
:10230000069407AA06A905A8FDF76AFF059B029394
:10231000069B019300942346079A0F490F48FFF745
:102320009DFF0F4B186090B14FF0500383F311885D
:10233000BFF36F8FBFF34F8F0A4B4FF0FF321A601E
:10234000094B01221A60094B1C6000F09DFF084BED
:102350001B6808B010BD00BF305C00088521000874
:10236000EC020020F0020020040300200C030020F7
:10237000805C0008024A136801331360704700BF95
:10238000E8020020F8B54C4B1B68002B40F08D8014
:102390004A4B1C6801341C60ACB1494B1B68A3421A
:1023A0001ED90020474B1B68DB6A03EB83039A00AE
:1023B000454B9B58012B00D90120444B1B68002B37
:1023C00078D0012076E0424A1168424B18681060CC
:1023D0001960414A136801331360FFF79FFDDCE782
:1023E000002037E0364B4FF0FF321A60DAE7344B0B
:1023F0001A60D7E7D968516042E0002199621168FC
:1024000001391160DA6A01219140344E376839434D
:1024100031602D4902EB82024FEA820C8C44DCF8D9
:1024200004209A609668DE6075609560DA6A02EB57
:10243000820C4FEA8C056E185E614D5901354FEAEA
:102440008C0C41F80C50DA6A1E4B1B68DB6A9A420E
:1024500000D301201E4B1B681B68002BC2D01C4BF5
:102460001B68DB68DB685A689442C0D35A699D6870
:10247000D968A9609D684D6051681D1DA942B9D0F9
:10248000002159611168013911609A6A002AB9D096
:10249000DE69196AB160DE694E60566803F11801A1
:1024A0008E42AAD1196A5160A7E70D4A1368013319
:1024B00013600020F8BD00BFE80200200C030020DC
:1024C000F00200200406002084030020FC0200200B
:1024D0005803002054030020F802002008030020C5
:1024E0000003002038B500F065FE434B1A68013A3E
:1024F0001A601B68002B7AD1404B1B683BB9002443
:1025000076E0196A516015E0D968516021E0002336
:102510003B4A1268002A47D0394BDB68DB689A6A6D
:10252000D869196A8160D8694860506803F1180158
:102530008842E6D0002199621168013911605A6918
:102540009868D9688160986848605168181D814210
:10255000DAD000215961116801391160DA6A01216C
:102560009140284C256829432160274902EB8202CB
:1025700001EB820252689A609468DC60606090604F
:10258000DA6A02EB8200840001EB8000586108598E
:1025900001300851D96A1D4A1268D26A9142B7D3F4
:1025A0001B4A01211160B3E70BB1FFF7B7FC194BD0
:1025B0001C6884B9164B1C68D4B14FF0E0234FF06F
:1025C0008052C3F8042DBFF34F8FBFF36F8F0124E8
:1025D0000EE0013C07D0FFF7D5FE0028F9D00C4BE8
:1025E00001221A60F5E70B4B00221A60E2E7002493
:1025F00000F0F0FD204638BDE80200201003002066
:10260000400300200803002084030020040600206B
:10261000FC0200200003002010B550B94FF0E02369
:102620004FF08052C3F8042DBFF34F8FBFF36F8F6D
:1026300010BD0446FFF79EFE00212046FFF7B6FDC1
:10264000FFF750FF0028F3D1E8E7000008B5264B5C
:102650001B681BB1254B01221A6008BD234B0022C9
:102660001A60234B1B681B6B1A68B2F1A53F03D19C
:102670005A68B2F1A53F26D01D4B1868196834314D
:10268000FDF7BAFD1B4B1B68B3FA83F3DBB2C3F152
:102690001F03194803EB83018A000244516849680B
:1026A000516003EB830C4FEA8C02083202449142E2
:1026B00012D003EB83039A000F4B13445B68DA6874
:1026C0000B4B1A60C9E79A68B2F1A53FD4D1DB6819
:1026D000B3F1A53FD0D1D5E7486862469100064ADC
:1026E0000A445060E5E700BFE8020020FC02002039
:1026F00004060020080300208403002010B50C46C7
:10270000044B1968183100F0C5F801212046FFF785
:102710004DFD10BD0406002030B4C368DB689A6A22
:10272000D869196A8160D8694860516803F1180056
:1027300081423ED000219962116801391160274A17
:102740001268002A3BD15A699868D96881609868F4
:1027500048605168181D81422ED0002159611168CE
:1027600001391160DA6A012191401D4C2568294325
:1027700021601C4902EB820201EB820252689A60DE
:102780009468DC6060609060DA6A02EB820084002A
:1027900001EB80005861085901300851DA6A124B88
:1027A0001B68DB6A9A4216D90120104B186030BCB6
:1027B0007047196A5160BDE7D9685160CDE70C4A8E
:1027C0005168D9618C681C62606088609A62116887
:1027D00001311160E2E70020E9E700BFE8020020D4
:1027E000080300208403002004060020FC020020CF
:1027F00040030020034B1B680360034B1B684360CE
:10280000704700BFF80200200C03002070B504469A
:102810000D4600F0CFFC134B19686368C81A2A688C
:10282000B2F1FF3F19D0104E3668D4F800C0B4455D
:1028300005D08B4203D800232B6001240EE0824296
:1028400003D800232B60012408E05B1A13442B609B
:102850002046FFF7CFFF002400E0002400F0BAFC80
:10286000204670BD0C030020F8020020014B01221D
:102870001A607047FC02002000F1080343604FF02B
:10288000FF328260C360036100230360704700234E
:102890000361704730B40D68B5F1FF3F11D000F10E
:1028A00008031C465B681A68AA42FAD963684B6041
:1028B00099608C606160086103680133036030BC1B
:1028C00070470469F2E70369416882688A60416879
:1028D00051605A68824206D0002202611A68013AA9
:1028E0001A601868704782685A60F5E710B50446A8
:1028F00000F060FCA26BE36B9A4204D0002400F06D
:1029000069FC204610BD0124F9E710B5044600F02B
:1029100051FCA36B23B9012400F05CFC204610BDE0
:102920000024F9E770B504461646856B026CEAB1DF
:1029300066B9406802F0BDFA6368226C13446360B4
:10294000A268934212D3236863600FE0C06802F06C
:10295000B0FAE368226C51429B1AE360226893420A
:1029600002D2A3680B44E360022E03D00135A563B5
:10297000002070BD002DF9D0013DF7E708B50346F2
:10298000026C62B10846D9681144D960D3F808C016
:10299000614501D31968D960D96802F08AFA08BD87
:1029A00038B5054600F006FC95F8454064B201E0F4
:1029B000013C64B2002C0ADD6B6A43B105F12400CE
:1029C000FFF7AAFE0028F3D0FFF750FFF0E7FF2340
:1029D00085F8453000F0FEFB00F0ECFB95F8444034
:1029E00064B201E0013C64B2002C0ADD2B6943B102
:1029F00005F11000FFF790FE0028F3D0FFF736FF37
:102A0000F0E7FF2385F8443000F0E4FB38BD0028F0
:102A100044D038B50D460446C36B002B40D0026C41
:102A20000021A2FB032313B919B1002039E00121D1
:102A3000FAE700F0BFFB2368E26B216C01FB023078
:102A4000A0600020A0636360013A02FB0133E360F1
:102A5000FF2384F8443084F84530B5B923691BB9A5
:102A600000F0B8FB01201CE004F11000FFF754FE59
:102A70000028F5D04FF0E0234FF08052C3F8042D2A
:102A8000BFF34F8FBFF36F8FEAE704F11000FFF73A
:102A9000F3FE04F12400FFF7EFFEE1E700207047AA
:102AA000002038BD38B51D46049C0B4649B924604A
:102AB000E063236401212046FFF7A9FF84F84C500E
:102AC00038BD2260F4E7F0B583B0F8B10C46174684
:102AD00006460023A4FB0012B2B9DBB904FB06F0E2
:102AE00010F1510F18D8503000F080FA054670B13F
:102AF000002380F8463000903B4600F1500221460A
:102B00003046FFF7CFFF02E00123E6E70025284625
:102B100003B0F0BD0025FAE70025F8E7F0B585B071
:102B200004460F4601921D4600263DE02A463946DE
:102B30002046FFF7F7FE636A7BB948B14FF0E02308
:102B40004FF08052C3F8042DBFF34F8FBFF36F8F48
:102B500000F040FB012005B0F0BD04F12400FFF7B8
:102B6000DBFD0028F4D04FF0E0234FF08052C3F893
:102B7000042DBFF34F8FBFF36F8FE9E700F02AFBFF
:102B80000020E8E702A8FFF735FE012619E0002340
:102B900084F8443021E0002384F8453023E02046C7
:102BA000FFF7FEFEFFF79EFC00F004FBA26BE36B59
:102BB0009A42BBD3022DB9D0019B002BDED0002E50
:102BC000E0D000F007FBFFF7D5FB00F0F3FA94F834
:102BD000440040B2B0F1FF3FD9D094F8450040B274
:102BE000B0F1FF3FD7D000F0F5FA01A902A8FFF736
:102BF0000DFED8B92046FFF779FE0028CFD0019905
:102C000004F11000FFF77AFD2046FFF7C9FEFFF739
:102C100069FC0028C8D14FF0E0234FF08052C3F880
:102C2000042DBFF34F8FBFF36F8FBDE72046FFF733
:102C3000B7FEFFF757FC00208DE7F8B504461746AE
:102C40001A46EFF311864FF0500383F31188BFF358
:102C50006F8FBFF34F8F806BE36B984205D3022ACF
:102C600003D0002086F31188F8BD94F845506DB26A
:102C7000A36B2046FFF756FEB5F1FF3F05D00135A7
:102C80006DB284F845500120ECE7636A0BB901206E
:102C9000E8E704F12400FFF73FFD18B127B1012058
:102CA0003860DFE70120DDE70120DBE738B5EFF32F
:102CB00011844FF0500383F31188BFF36F8FBFF37C
:102CC0004F8F826BC36B93421AD90D4690F84530F3
:102CD0005BB201328263B3F1FF3F05D001335BB2D7
:102CE00080F8453001200CE0436A0BB9012008E070
:102CF0002430FFF711FD38B145B10120286000E014
:102D0000002084F3118838BD0120FAE70120F8E79C
:102D1000F0B585B004460F46019200263EE03946E4
:102D20002046FFF72BFE013DA563236923B900F080
:102D300051FA012005B0F0BD04F11000FFF7ECFCE2
:102D40000028F4D04FF0E0234FF08052C3F8042D58
:102D5000BFF34F8FBFF36F8FE9E700F03BFA00201E
:102D6000E8E702A8FFF746FD012621E0002384F8EA
:102D7000443029E0002384F845302BE02046FFF75B
:102D80000FFEFFF7AFFB09E02046FFF709FEFFF754
:102D9000A9FB2046FFF7B9FD00283FD100F00AFA51
:102DA000A56B002DBBD1019B002BD6D0002ED8D017
:102DB00000F010FAFFF7DEFA00F0FCF994F8443066
:102DC0005BB2B3F1FF3FD1D094F845305BB2B3F1C1
:102DD000FF3FCFD000F0FEF901A902A8FFF716FDD2
:102DE0000028D1D12046FFF790FD0028C6D00199D8
:102DF00004F12400FFF782FC2046FFF7D1FDFFF726
:102E000071FB0028CAD14FF0E0234FF08052C3F885
:102E1000042DBFF34F8FBFF36F8FBFE7002089E70B
:102E200030B585B00446019100253AE0013BA3632B
:102E3000236923B900F0CEF9012005B030BD04F1BB
:102E40001000FFF769FC0028F4D04FF0E0234FF0AA
:102E50008052C3F8042DBFF34F8FBFF36F8FE9E7A4
:102E600000F0B8F90020E8E702A8FFF7C3FC01254D
:102E700021E0002384F8443029E0002384F8453021
:102E80002BE02046FFF78CFDFFF72CFB09E02046E6
:102E9000FFF786FDFFF726FB2046FFF736FD0028EB
:102EA0003FD100F087F9A36B002BBFD1019B002B12
:102EB000D6D0002DD8D000F08DF9FFF75BFA00F0E6
:102EC00079F994F844305BB2B3F1FF3FD1D094F874
:102ED00045305BB2B3F1FF3FCFD000F07BF901A9E1
:102EE00002A8FFF793FC0028D1D12046FFF70DFD83
:102EF0000028C6D0019904F12400FFF7FFFB20460B
:102F0000FFF74EFDFFF7EEFA0028CAD14FF0E0239D
:102F10004FF08052C3F8042DBFF34F8FBFF36F8F74
:102F2000BFE7002089E70000124A12F0070F1ED009
:102F3000D11D21F00701C1F5205313440A460E4864
:102F40000260002141601344083B23F007030B4853
:102F5000036059601960991A51601360084B196039
:102F6000084B1960084B4FF000421A6070474FF44D
:102F70002053E4E728060020200600201C0600203D
:102F8000140600201806002008060020154B1A46DB
:102F90001B688342FBD3516802EB010C844509D0C6
:102FA000416800EB010C634509D00360904218D0E2
:102FB000106070474068014451601046F0E710B45B
:102FC000094C2468A3420AD05B6819444160136825
:102FD0001B680360904200D0106010BC7047046012
:102FE000F8E77047200600201C06002038B504468C
:102FF000FFF7C0F9304B1B68DBB1304B1B681C423C
:103000004AD1631E13F10A0F4BD804F1080214F0E1
:10301000070F05D022F007030833934243D91A461D
:10302000002A42D0264B1B68934240D325490C68A6
:1030300004E0FFF779FFE0E721461C46636893420E
:1030400002D22368002BF7D11B4B1B68A34230D060
:103050000D68083523680B6063689B1A102B15D820
:10306000626817490B689B1A0B60174909688B4205
:1030700001D215490B60114B1B6813436360002399
:103080002360124A13680133136006E0A0184360FE
:103090006260FFF77BFFE3E70025FFF723FA28468E
:1030A00038BD0025F9E70025F7E70025F5E70025FD
:1030B000F3E70025F1E700BF1C060020080600200A
:1030C000180600202006002014060020100600200C
:1030D00018B338B50446A0F1080550F8043C0F4A6F
:1030E0001268134202D050F8081C01B138BD23EA1F
:1030F000020340F8043CFFF73DF954F8041C084A69
:1031000013680B4413602846FFF740FF054A136815
:1031100001331360FFF7E6F9E8E77047080600207F
:10312000180600200C06002082B0002301934FF007
:10313000500383F31188BFF36F8FBFF34F8F019B51
:10314000002BFCD002B0704706480068006880F38E
:10315000088862B661B6BFF34F8FBFF36F8F00DF91
:1031600000BF000008ED00E04FF0807340F8043C21
:1031700021F0010140F8081C034B40F80C3C40F8DA
:10318000202C4038704700BF2931000800000000A3
:10319000074B19680868B0E8F00F80F30988BFF39F
:1031A0006F8F4FF0000080F311884EF00D0E7047C6
:1031B000040600204FF0500383F31188BFF36F8F94
:1031C000BFF34F8F024A136801331360704700BF8B
:1031D0000C000020034A1368013B13600BB983F312
:1031E000118870470C000020000000000000000063
:1031F000EFF30980BFF36F8F0D4B1A6820E9F00FD2
:1032000010602DE908404FF0500080F31188FFF75F
:103210001DFA4FF0000080F31188BDE808401968DE
:103220000868B0E8F00F80F30988BFF36F8F70472C
:103230000406002008B54FF0500383F31188BFF354
:103240006F8FBFF34F8FFFF79DF828B14FF0E0234A
:103250004FF08052C3F8042D002383F3118808BD7A
:103260004FF0E022002313619361054B1B68054971
:10327000A1FB03139B09013B5361072313617047B3
:1032800008000020D34D621010B54FF0E023D3F8B2
:10329000202D42F47002C3F8202DD3F8202D42F0E7
:1032A0007042C3F8202DFFF7DBFF0024044B1C60A5
:1032B000FFF74AFFFFF7CAF9FFF736FF204610BDB8
:1032C0000C00002000B589B0014600221C20FEF74A
:1032D00005FE1C20FEF712FE154BDA6942F00102D2
:1032E000DA61DB6903F001030193019B02A903A8E2
:1032F000FEF764FAFEF742FA0E4BA3FB00239B0C89
:10330000013B0D484FF08042026040F2E732C2605C
:103310004360002303618360FDF70AFA18B10120BE
:1033200009B05DF804FB0448FDF7DAF8F8E700BFE0
:103330000010024083DE1B43282E002070B588B0A9
:1033400004AD002404940594069407941C4B9A69D8
:1033500042F010029A619A6902F010020092009AFB
:103360009A6942F020029A619A6902F02002019261
:10337000019A9A6942F004029A619A6902F0040281
:103380000292029A9A6942F008029A619B6903F0DC
:1033900008030393039B0B4E22464FF460413046D3
:1033A000FEF7B2FB4FF460430493012305930694A8
:1033B0000223079329463046FEF71EFA08B070BD77
:1033C000001002400010014008B50A480A4B036093
:1033D0004FF4E133436000238360C36003610C2238
:1033E00042618361C361FDF7CCFA00B908BDFCF707
:1033F00014FFFBE7F82E002000380140F0B587B03D
:10340000002302930393049305930268314B9A427D
:1034100001D007B0F0BD044603F558439A6942F461
:1034200080429A619A6902F480420092009A9A69F5
:1034300042F004029A619B6903F004030193019B2B
:103440004FF400730293022303930323059302AF07
:10345000214E39463046FEF7CFF94FF48063029390
:1034600000250395049539463046FEF7C5F91B48FB
:103470001B4B03601023436085608023C36005619C
:1034800045618561C561FEF765FBE8B9134BA36330
:103490005C621448144B0360002343608360802205
:1034A000C260036143618361C361FEF753FB70B97E
:1034B0000C4BE3635C62002211462520FEF70EFDF3
:1034C0002520FEF71BFDA4E7FCF7A7FEDEE7FCF7CF
:1034D000A4FEEDE70038014000080140B42E0020B2
:1034E00044000240702E00205800024000B593B006
:1034F0004FF0FF3201A90A4B1868FFF709FC0128B9
:10350000F6D1BDF8442001A90648FDF7CFFA0028FE
:10351000EED14FF0FF31044B1868FFF781FCE7E76D
:1035200048300020F82E00204030002000B593B035
:103530004FF0FF3201A9094B1868FFF7E9FB01289A
:10354000F6D1BDF8443048336B44002203F8442CD4
:1035500001A9034801F0F2FAEAE700BF4430002075
:10356000385C00082DE9F04192B088461746144BAC
:103570001B680BB100251CE04FF0FF3392B21148DD
:10358000FDF72FFA384612B0BDE8F08101AE2246B1
:1035900008EB0501304601F08CFCADF844400023F7
:1035A0000A22314606480068FFF7B8FA0128E9D137
:1035B0002544AF42E6D97C1B402CE7D94024E5E7FF
:1035C00048300020F82E002002680F4B9A4200D0AD
:1035D00070470E4B18680028FAD000B583B000235E
:1035E000019301A9FFF762FB019B4BB14FF0E02370
:1035F0004FF08052C3F8042DBFF34F8FBFF36F8F8E
:1036000003B05DF804FB00BF0038014040300020EB
:1036100008B54FF4807202490248FDF757FD08BD16
:10362000402F0020F82E00201B4B1B6803B1704771
:1036300000B583B0032200210120FFF744FA174BA5
:10364000186028B3002242211020FFF73CFA124BE9
:10365000186048B100230193012200924FF4807258
:103660000F491048FEF716FE002242210820FFF7FE
:103670002AFA0D4B186048B10023019301220092F1
:103680004FF4807209490A48FEF704FEFFF7C0FFB5
:1036900003B05DF804FB00BF48300020403000203C
:1036A000445C0008ED340008443000204C5C000805
:1036B0002D35000802681F4B9A4200D07047F0B5C4
:1036C00093B00E4699B31C4B1B6883B3002400943F
:1036D00011E001AF2A4619492144384601F0E9FBBF
:1036E000ADF8445000236A46394613480068FFF796
:1036F000A4FA2C44A4B2B44207D2351BADB2B5F53E
:10370000807FE6D94FF48075E3E74FF480720B4970
:103710000B48FDF7DBFC009B4BB14FF0E0234FF073
:103720008052C3F8042DBFF34F8FBFF36F8F13B0D8
:10373000F0BD00BF0038014044300020402F002081
:10374000F82E002000B583B00E4B5A6942F00102FA
:103750005A615B6903F001030193019B002211464A
:103760000E20FEF7BBFB0E20FEF7C8FB0022114621
:103770000F20FEF7B3FB0F20FEF7C0FB03B05DF890
:1037800004FB00BF0010024008B50B480B4B036060
:103790000B4B436000238360C3604FF4804202619F
:1037A00043618361C361036200F0BCFC00B908BDE2
:1037B000FCF733FDFBE700BF4C3000200054004015
:1037C000801A060010B586B0002302930393049379
:1037D00005930268114B9A4201D006B010BD104CFF
:1037E000A36943F00803A361A36903F008030093EE
:1037F000009BC0230293122303930323059302A982
:103800000848FDF7F9FFE36943F40013E361E36956
:1038100003F400130193019BDFE700BF0054004055
:1038200000100240000C014002680A4B9A4200D08E
:10383000704710B5084AD36923F40013D361074CCD
:1038400040212046FEF7E2F880212046FEF7DEF810
:1038500010BD00BF0054004000100240000C0140A9
:1038600000B585B08DF80C108DF80D206423009301
:10387000022303AA0146034800F04CFD05B05DF8A1
:1038800004FB00BF4C30002070B584B004461646DF
:103890001D468DF80F106423009301230DF10F02D4
:1038A0000146074800F036FD08B104B070BD64233E
:1038B00000932B4632462146014800F0E5FDF4E72F
:1038C0004C30002008B50123FFF7DEFF08BD00B52E
:1038D00083B00DF107027521D020FFF7F3FF40BB45
:1038E0009DF80730682B03D0012003B05DF804FB7E
:1038F00000226B21D020FFF7B3FF08B10120F4E7CD
:1039000003221921D020FFF7ABFF08B10120ECE71B
:1039100000221C21D020FFF7A3FF08B10120E4E71B
:1039200000221B21D020FFF79BFF0028DDD00120C3
:10393000DBE70120D9E710B584B004460E236A46C0
:103940003B21D020FFF7A0FF90BB9DF800209DF801
:10395000013043EA022323809DF802209DF80330C2
:1039600043EA022363809DF804209DF8053043EA72
:103970000223A3809DF806209DF8073043EA022326
:10398000A3819DF808209DF8093043EA0223E380D3
:103990009DF80A209DF80B3043EA022323819DF80D
:1039A0000C209DF80D3043EA0223638104B010BD62
:1039B0000120FBE7034B986800F08000003818BF37
:1039C00001207047000C014010B584B00F4B1A68FD
:1039D00022F001021A601A6822F001021A60694698
:1039E00000230093019302930393C02300931123B8
:1039F000019303230393064C2046FDF7FDFE40236D
:103A000023618023236104B010BD00BF0054004037
:103A1000000C014084B0144B80221A6100230193F2
:103A200002E0019B01330193019B042BF9DD0E4B56
:103A300040221A610023029302E0029B01330293A9
:103A4000029B042BF9DD084B80225A61002303936B
:103A500002E0039B01330393039B042BF9DD024B2C
:103A600040225A6104B07047000C014084B0134BEF
:103A700080225A610023019302E0019B01330193EC
:103A8000019B042BF9DD0D4B40221A6100230293A8
:103A900002E0029B01330293029B042BF9DD074BEA
:103AA00080221A610023039302E0039B01330393F6
:103AB000039B042BF9DD04B0704700BF000C0140EC
:103AC0000022072A36D884B025E01B4B802159619B
:103AD0002BE0019B01330193019B042BF9DD164B75
:103AE000402119610023029302E0029B01330293FB
:103AF000029B042BF9DD104B4021596100230393F5
:103B000002E0039B01330393039B042BF9DD013295
:103B1000D2B2072A0CD8C2F1070340FA03F313F01C
:103B2000010FD2D0044B8021196100230193D3E708
:103B300004B07047704700BF000C014000B583B06F
:103B40000A4B80221A6140221A610023019302E08D
:103B5000019B01330193019B042BF9DDFFF72AFF41
:103B6000024B40225A6103B05DF804FB000C014097
:103B700082B040B10B4B80221A610A4B40221A617D
:103B80000023019306E0074B80225A61F5E7019B71
:103B900001330193019B042BF9DD024B40225A6152
:103BA00002B07047000C014070B582B00646174B5A
:103BB00080221A61002425461AE0009B01330093FD
:103BC000009B042BF9DDFFF7F5FE18B1802323419C
:103BD0002B43DDB20D4B40225A610023019302E0DA
:103BE000019B01330193019B042BF9DD0134E4B205
:103BF000072C05D8054B40221A6100230093DFE70C
:103C00003046FFF7B5FF284602B070BD000C0140FA
:103C100010B5FFF7D9FEFFF7FDFED020FFF750FFEC
:103C2000FFF78CFFB8B97520FFF74AFFFFF786FF53
:103C3000A0B9FFF71BFFFFF7EDFED120FFF740FF14
:103C4000FFF77CFF68B90120FFF7AEFF0446FFF7DE
:103C50000DFF204610BDFFF709FFE4E7FFF706FF61
:103C6000E7E7FFF703FFEEE703685A6912F4806F96
:103C700001D1002070476FF480625A610023036312
:103C8000202280F83D2080F83E30026C42F0040291
:103C9000026480F83C30012070472DE9F04106466F
:103CA0000C46174698463BE0FDF75EFA069BC01AA5
:103CB000404502D8B8F1000F32D1012D18D0336839
:103CC0009B6924EA03039BB2B3FA83F35B099F4227
:103CD00026D100233363202286F83D2086F83E302B
:103CE000326C42F02002326486F83C30012027E03A
:103CF00033685B6924EA03039BB2B3FA83F35B097D
:103D0000E5E733685B6924EA030C1FFA8CFCBCFA14
:103D10008CFC4FEA5C1C674511D1B8F1FF3FC3D161
:103D2000C4F30745012DECD033689B6924EA030CEA
:103D30001FFA8CFCBCFA8CFC4FEA5C1CEBE7002001
:103D4000BDE8F0812DE9F84305460E4690469946B8
:103D500053E01A6842F400721A602B686FF48062B4
:103D60005A6100232B63202285F83D2085F83E30E0
:103D70002A6C42F004022A6485F83C3001204AE0B3
:103D8000FDF7F2F9A0EB0900404502D8B8F1000FA9
:103D900033D1012F17D02B689B6926EA03039BB20E
:103DA000003B18BF012343B300232B63202285F877
:103DB0003D2085F83E302A6C42F020022A6485F8C6
:103DC0003C30012027E02B685B6926EA03039BB2A5
:103DD000003B18BF0123E6E72B689C6926EA040430
:103DE000A4B2003C18BF0124A4B12B685A6912F494
:103DF000806FAED1B8F1FF3FC2D1C6F30747012FA4
:103E0000EAD12B685C6926EA0404A4B2003C18BF1E
:103E10000124E9E70020BDE8F8830000F0B583B095
:103E200004460D4616461F46C36A082B0DD0012BCB
:103E30000BD013F5803F08D0036B122B0AD1026818
:103E4000136843F48073136004E02268136843F43A
:103E5000807313600097334600224FF00111204613
:103E6000FFF71BFF80B92369B3F5804F16D1236894
:103E700005F0FE051D613B46324613492046FFF71B
:103E800061FFF8B903B0F0BD23681B6813F4807FAD
:103E900002D04FF4007323640320F3E7EB11226890
:103EA00003F0060343F0F00313613B463246074933
:103EB0002046FFF747FF18B92368EDB21D61DAE726
:103EC0000120DFE70120DDE702000100080001001A
:103ED0002DE9F04184B004460D4616461F46C26ADD
:103EE00001680B6843F480630B60082A0DD0012A37
:103EF0000BD012F5803F08D0036B112B0AD102685A
:103F0000136843F48073136004E02268136843F479
:103F1000807313600097334600224FF00111204652
:103F2000FFF7BBFE98B92369B3F5804F19D1236819
:103F300045F00105EDB21D613B4632462A49204657
:103F4000FFF700FF00284CD104B0BDE8F0812368E2
:103F50001B6813F4807F02D04FF4007323640320A6
:103F6000F2E74FEAE51808F00608236848F0F00287
:103F70001A613B4632461D492046FFF7E3FE08B171
:103F80000120E1E72368EDB21D613B463246164948
:103F90002046FFF7D7FE08B10120D5E700220392A3
:103FA000236859690391996903910399196841F448
:103FB00080711960009733464FF001112046FFF7DA
:103FC0006CFE20B9226848F0F1031361B4E723685E
:103FD0001B6813F4807F02D04FF400732364032026
:103FE000B2E70120B0E700BF0200010008000100B5
:103FF00070B504460D46164623685B6913F0800FC2
:1040000021D12046FFF730FEF8B9B5F1FF3FF3D0DC
:10401000FDF7AAF8801BA84201D8002DECD1236837
:104020005B6913F0800FE7D100232363202284F81B
:104030003D2084F83E30226C42F02002226484F855
:104040003C30012000E0002070BD0120FCE770B58D
:1040500004460D46164623685B6913F0040F21D110
:104060002046FFF701FEF8B9B5F1FF3FF3D0FDF7A9
:104070007BF8801BA84201D8002DECD123685B6936
:1040800013F0040FE7D100232363202284F83D209E
:1040900084F83E30226C42F02002226484F83C30E6
:1040A000012000E0002070BD0120FCE770B504464F
:1040B0000D46164614E06FF010025A610023236388
:1040C000202284F83D2084F83E30226C226484F85B
:1040D0003C30012025E023685B6913F0400F10D0CD
:1040E0002368586910F0400F1AD1586910F0100F6A
:1040F000E1D1FDF739F8801BA842ECD8002DEFD1B3
:10410000E9E700232363202284F83D2084F83E3031
:10411000226C42F02002226484F83C30012000E04E
:10412000002070BD002800F0CC8070B5044690F8E7
:104130003D30002B77D0242384F83D30226813686B
:1041400023F0010313602268136843F400431360F3
:104150002268136823F400431360FDF70FFB6268C5
:104160005A4B9A4264D85A4B98428CBF0023012381
:10417000002B40F0A8805749A1FB00318B0C25682B
:104180006A6822F03F0242EA91426A6021680A6A44
:1041900022F03F0266684D4DAE424FD801331343C3
:1041A0000B622168CA6922F44F4222F0FF0265685F
:1041B000464B9D424CD8431E6D00B3FBF5F30133D3
:1041C00040F6FC70034278D0C3F30B031A43CA6174
:1041D00021680B6823F0C003E269206A024313439D
:1041E0000B6021688B6823F4034323F0FF032269EB
:1041F000E068024313438B602168CB6823F0FF0320
:104200006269A06902431343CB602268136843F0DC
:104210000103136000202064202384F83D302063D4
:1042200084F83E0070BD80F83C30FFF7CBFA82E79F
:10423000294B98428CBF0023012399E74FF49675D0
:1042400005FB03F3254DA5FB03539B090133A6E7AB
:10425000A668BEB9431E05EB450CB3FBFCF3013366
:10426000C3F30B03B3FA83F35B0943BBC6B9431E25
:1042700005EB4505B3FBF5F30133C3F30B0343F43F
:104280000043A3E7431E05EB850C0CEB8C0CB3FB42
:10429000FCF30133C3F30B03B3FA83F35B09E4E7E5
:1042A000431E05EB850505EB8505B3FBF5F30133EF
:1042B000C3F30B0343F4404388E7042386E7012359
:1042C00084E7012070470120ACE700BFA086010011
:1042D0007F841E0083DE1B43FF083D00D34D621028
:1042E000A8B110B50446242380F83D300268136855
:1042F00023F001031360FFF797FA0020206484F88D
:104300003D00206384F83E0084F83C0010BD01208D
:10431000704700002DE9F04385B004460F469046F3
:1043200099460C9EFCF720FF94F83D10202904D0FC
:104330000227384605B0BDE8F083054600901923F2
:1043400001224F492046FFF7A8FC002840F0928048
:1043500094F83C30012B00F08F80012384F83C302E
:1043600023681A6812F0010F03D11A6842F00102A3
:104370001A602268136823F400631360212384F811
:104380003D30102384F83E3000232364C4F8248099
:10439000A4F82A90638D23853A4BE3622B4632467C
:1043A00039462046FFF73AFD0746002866D100232C
:1043B000039323685A6903929B690393039B11E05B
:1043C000236C042B01D00127B3E72268136843F460
:1043D00000731360F7E72A4631462046FFF737FEA1
:1043E00000282ED1238D002B36D02A463146204678
:1043F000FFF7FEFD0028E3D1626A236812781A6194
:10440000606A431C6362618D89B2013989B261853A
:10441000238D013B9BB223852268516911F0040F63
:10442000D9D0002BD7D043781361636A013363621C
:10443000638D9BB2013B9BB26385238D013B23853A
:10444000C9E7236C042B01D0012772E722681368A7
:1044500043F400731360F7E72268136843F40073B2
:104460001360202384F83D30002384F83E3084F824
:104470003C305EE702275CE702275AE7012758E74E
:10448000020010000000FFFF2DE9F04389B0044650
:104490000F4691469846109E00230793FCF764FE52
:1044A00094F83D30202B04D00227384609B0BDE8EF
:1044B000F08305460090192301229E492046FFF70C
:1044C000ECFB002840F07D8194F83C30012B00F09B
:1044D0007A81012384F83C3023681A6812F0010FB6
:1044E00003D11A6842F001021A602268136823F4AB
:1044F00000631360222384F83D30102384F83E309B
:1045000000232364C4F82490A4F82A80638D2385B3
:10451000894BE3622B46324639462046FFF7D8FCEA
:104520000746002840F05181238D5BB9039323682F
:104530005A6903929A690392039A1A6842F40072C4
:104540001A6076E0012B0FD0022B21D0226813686D
:1045500043F4806313600023069323685A6906922C
:104560009B690693069B64E02268136823F48063CA
:10457000136072B60023049323685A6904929A69FF
:104580000492049A1A6842F400721A6062B650E00B
:104590002268136843F40063136072B60023059326
:1045A00023685A6905929A690592059A1A6822F455
:1045B00080621A6062B63CE02A4631462046FFF728
:1045C00075FD002840F0038123681A69636A1A7038
:1045D000636A01336362238D013B2385638D9BB244
:1045E000013B9BB2638524E072B62268136843F4F2
:1045F0000073136023681A69636A1A70636A01336F
:104600006362238D013B2385638D9BB2013B9BB28B
:10461000638562B623681A69636A1A70636A013334
:104620006362238D013B2385638D9BB2013B9BB26B
:104630006385218D002900F0BB80032900F284806E
:104640000129B9D002290AD10095334600223B49FD
:104650002046FFF722FB0028C6D0012725E700955A
:104660003346002235492046FFF717FB002840F06B
:10467000B0802268136823F48063136072B62368E5
:104680001A69636A1A70636A01336362238D013B9E
:104690002385638D9BB2013B9BB26385284B1B68CE
:1046A000DB08284AA2FB03231B0A03EB8303C3EBAB
:1046B000C30307930799013907910799002928D067
:1046C00023685A6912F0040FF4D01A6842F4007299
:1046D0001A6023681A69636A1A70636A0133636235
:1046E000238D013B2385638D9BB2013B9BB2638588
:1046F00062B623681A69636A1A70636A0133636277
:10470000238D013B2385638D9BB2013B9BB2638567
:104710008FE700232363202284F83D2084F83E3075
:10472000226C42F02002226462B684F83C300127F9
:10473000BBE600BF020010000000FFFF0400010004
:104740000800002089B5F8142A4631462046FFF7B4
:10475000ADFC00283FD123681A69636A1A70636A46
:1047600001336362228D013A92B22285638D9BB23E
:10477000013B9BB263852368596911F0040F3FF434
:1047800058AF032A0FD023681A69636A1A70636AE4
:1047900001336362238D013B2385638D9BB2013B13
:1047A0009BB2638545E71A6822F480621A60EAE7E3
:1047B000202384F83D30002384F83E3084F83C30D8
:1047C00073E6022771E602276FE601276DE60127EF
:1047D0006BE6012769E6012767E600BF2DE9F04394
:1047E00085B00446884691461D46FCF7BDFC94F80A
:1047F0003D30202B03D0022005B0BDE8F0830646F3
:1048000000901923012256492046FFF746FA002856
:1048100040F09D8094F83C30012B00F09A800123F9
:1048200084F83C3023681A6812F0010F03D11A682B
:1048300042F001021A602268136823F400631360D7
:10484000242384F83D3000272764464BE3623DE093
:1048500023681B6813F4807F02D04FF40073236435
:104860000320C9E7A02384F83D3022685369C3F3CD
:1048700040035269C2F3802294F83D10A02909D068
:1048800043B93AB9FCF770FC801BA842EAD8002D66
:10489000EBD1E7E7202384F83D3023685A6912F012
:1048A000020F31D11A6842F400721A6023686FF463
:1048B00080625A6100961923012229492046FFF798
:1048C000ECF9002849D101374F4538D222681368E6
:1048D00043F48073136000962B4600224FF00111C1
:1048E0002046FFF7DAF90028B2D1236808F0FE026B
:1048F0001A61FCF739FC064622685369C3F340038A
:104900005269C2F38022B7E71A6842F400721A6053
:104910000023039323685A6903929B690393039BC3
:104920000096192301220E492046FFF7B6F990B9E7
:10493000202384F83D30002384F83C305CE72023BA
:1049400084F83D30002384F83C30012054E70220F5
:1049500052E7022050E701204EE701204CE700BF5C
:10496000020010000000FFFFFDF7D6FA0B480C49CB
:104970000C4A002302E0D458C4500433C4188C42BB
:10498000F9D3094A094C002301E013600432A24222
:10499000FBD300F067FAFBF76BFC704700000020C8
:1049A0006C000020C05C00086C000020F03100208A
:1049B000FEE70000002310B50446C0E90033C0E95B
:1049C0000433836081814366C28183611946082272
:1049D0005C3000F0F9F90D4B246263620C4BA3626A
:1049E0000C4BE3620C4B23630C4B9C4206D003F14F
:1049F0006802944202D0D0339C4205D104F15800A1
:104A0000BDE8104000F052BA10BD00BF1D4C0008B8
:104A10003F4C0008774C00089D4C0008A030002057
:104A2000024A0349034800F06BB800BF10000020A1
:104A30005D5700082000002041680C4B10B59942DA
:104A4000044601D000F08AFEA168094B994202D0C9
:104A5000204600F083FEE168064B994204D02046D0
:104A6000BDE8104000F07ABE10BD00BFA0300020AD
:104A700008310020703100200C4B0D4A10B5042184
:104A80001A600C480022FFF795FF0A4B01221C46D2
:104A9000092103F16800FFF78DFF04F1D000022225
:104AA000BDE810401221FFF785BF00BFD8310020BC
:104AB000214A0008A0300020014800F0F8B900BFEA
:104AC000E1310020014800F0F3B900BFE1310020DE
:104AD00010B50446FFF7F0FF236A1BB1BDE8104094
:104AE000FFF7F0BF044B2362044B1B68002BF5D18A
:104AF000FFF7C2FFF2E700BF394A0008D8310020B3
:104B00002DE9F8430746884614460026D4E9019566
:104B1000B9F1010905D52468002CF7D13046BDE86C
:104B2000F883AB89012B07D9B5F90E30013303D0D7
:104B300029463846C04706436835E9E70FB407B54C
:104B4000064904AB086853F8042B8168019300F010
:104B5000DDFA03B05DF804EB04B070471C000020E0
:104B6000036A70B505460E4684680BB9FFF7B0FFBF
:104B7000636EDB0705D4A389980502D4A06D00F00D
:104B800096F9A389190702D52369002B35D121464F
:104B9000284600F0C5F880B34FF0FF35636EDA07A2
:104BA00005D4A3899B0502D4A06D00F081F92846A5
:104BB00070BD002B04DAA269934217DB0A2915D0D5
:104BC00023685A1C22601970A36816F8011F013B64
:104BD000A3600029EDD1002B11DA22460A212846D4
:104BE00000F060F80130D7D00A25D7E722462846E2
:104BF00000F058F80130E7D1CEE7013EE4E7236842
:104C00005A1C22600A221A70EEE70000024B01468D
:104C10001868FFF7A5BF00BF1C00002010B50C46A8
:104C2000B1F90E1000F0FAF80028ABBF636DA3894C
:104C30001B1823F48053ACBF6365A38110BD2DE91D
:104C4000F0411F468B890546DB050C46164605D507
:104C500002230022B1F90E1000F0CEF8A3893246EB
:104C600023F48053A38128463B46B4F90E10BDE8D7
:104C7000F04100F0E5B810B50C46B1F90E1000F0A7
:104C8000BBF8B4F90C30421C0BBF23F4805343F43F
:104C90008053A381A38118BF606510BDB1F90E10C8
:104CA00000F09AB8F8B50E461446054618B1036AE6
:104CB0000BB9FFF70DFFA369A360A3891A0701D5FC
:104CC000236943B92146284600F02AF818B14FF06D
:104CD000FF373846F8BD23682269F6B2981A63692F
:104CE0003746834205DC2146284600F037FD002880
:104CF000EDD1A368013BA36023685A1C22601E709B
:104D00006269431C9A4204D0A389DB07E1D50A2ECD
:104D1000DFD12146284600F021FD0028D9D0D6E772
:104D200038B5284B054618680C4618B1036A0BB90C
:104D3000FFF7CEFEB4F90C301A0721D4D80607D4F9
:104D400009222A6043F040034FF0FF30A38130E096
:104D5000590712D5616B41B104F14403994202D065
:104D6000284600F0B5F8002363630022B4F90C3044
:104D70006260226923F02403226043F00803A381C8
:104D800022693AB99A0501D5180603D52146284665
:104D900000F030FDB4F90C3013F001020AD000220B
:104DA000A26062695242A261226942B913F0800096
:104DB000C8D138BD990758BF6269A260F4E70020E6
:104DC000F7E700BF1C00002003460244934200D1D5
:104DD000704703F8011BF9E738B50023054D044679
:104DE00008462B6000F080FD431C02D12B6803B104
:104DF000236038BDDC31002038B504460846114632
:104E00000022054D2A601A4600F086FD431C02D19F
:104E10002B6803B1236038BDDC31002038B504466F
:104E2000084611460022054D2A601A4600F07CFD16
:104E3000431C02D12B6803B1236038BDDC31002054
:104E400038B50446084611460022054D2A601A4628
:104E5000FEF788FB431C02D12B6803B1236038BDE9
:104E6000DC31002070B500260C4D0D4B5B1B9C10F7
:104E7000A64209D1002600F06DFD0A4D0A4B5B1BCE
:104E80009C10A64205D170BD55F8043B98470136E9
:104E9000EEE755F8043B98470136F2E7B85C0008A6
:104EA000B85C0008B85C0008BC5C0008704770473C
:104EB00070470A44914200F1FF3300D1704710B5AA
:104EC00011F8014B914203F8014FF9D110BD0000D8
:104ED00038B50546002940D051F8043C0C1F002B82
:104EE000B8BFE41800F0DEF81C4A136833B96360F9
:104EF00014602846BDE8384000F0DAB8A34208D96B
:104F0000206821188B4201BF19685B68091821606D
:104F1000EDE71A465B680BB1A342FAD91168501845
:104F2000A0420BD120680144501883421160E0D1A7
:104F300018685B68084410605360DAE702D90C23F4
:104F40002B60D6E7206821188B4201BF19685B6887
:104F50000918216063605460CBE738BDE831002058
:104F600070B50F4E0C463168054611B900F09EFC35
:104F700030602146284600F099FC431C03D14FF0D5
:104F8000FF34204670BDC41C24F00304A042F8D0B6
:104F9000211A284600F08AFC0130F2D1EFE700BF69
:104FA000E43100202DE9F843CD1C25F00305083538
:104FB0000C2D38BF0C25002D064601DBA94204D973
:104FC0000C2333600020BDE8F883DFF8D48000F0C4
:104FD00069F8D8F800301C4644BB29463046FFF734
:104FE000BFFF431C044658D1D8F800402746002F85
:104FF00043D1002C4BD023683946304604EB0309DB
:1050000000F054FC814542D1216830466D1A294692
:10501000FFF7A6FF01303AD023682B442360D8F86D
:1050200000305A6862BBC8F800700FE02268521B5B
:1050300020D40B2A17D96119A342256018BF5960E3
:10504000636808BFC8F8001062514B60304600F03A
:105050002FF804F10B00231D20F00700C21A1CBF1B
:105060001B1AA350AFE76268A3420CBFC8F8002028
:105070005A60EBE723466468AEE73C467F68B6E7D4
:105080001A465B68A342FBD100235360DEE70C2382
:105090003046336000F00CF894E70560D6E700BFB7
:1050A000E83100200148FFF702BF00BFE0310020D7
:1050B0000148FFF7FDBE00BFE0310020936810B447
:1050C000013B002B936007DA9469A34201DB0A29B4
:1050D00002D110BCFFF7E6BD1368581C10601970B0
:1050E000084610BC7047F8B506460F461446D5185A
:1050F000AC4201D1002007E03A46304614F8011BCB
:10510000FFF7DCFF431CF3D1F8BD00002DE9F04FA1
:105110000D461446984606469DB018B1036A0BB971
:10512000FFF7D6FC6B6ED90705D4AB899A0502D47C
:10513000A86DFFF7BCFEAB891B0701D52B699BB996
:1051400029463046FFF7ECFD70B16B6EDC0704D5E5
:105150004FF0FF301DB0BDE8F08FAB899805F7D454
:10516000A86DFFF7A5FEF3E70023099320238DF830
:10517000293030234FF00109CDF80C80DFF8A881E9
:105180008DF82A3023469A4613F8012B0AB1252AB6
:10519000F9D1BAEB040B0BD05B46224629463046C8
:1051A000FFF7A1FF013000F0A780099A5A44099245
:1051B0009AF80030002B00F09F8000234FF0FF3260
:1051C000CDE905230AF1010A049307938DF85330C2
:1051D0001A935446052214F8011B534800F076FB3D
:1051E000049AD8B9D10644BF20238DF85330130751
:1051F00044BF2B238DF853309AF800302A2B15D05A
:10520000544600204FF00A0C079A214611F8013B42
:10521000303B092B4BD9B0B1079214E0A0EB080347
:1052200009FA03F31343A2460493D2E7039B191D23
:105230001B680391002BBBBF5B4242F00202079345
:105240000793B8BF049223782E2B0AD163782A2BB8
:1052500032D1039B02341A1D1B68039243EAE373A5
:105260000593DFF8C8A003225046217800F02EFBFA
:1052700038B14022049BA0EB0A0082401343013462
:10528000049314F8011B062229488DF8281000F019
:105290001DFB00283FD0274B1BBB039B073323F08C
:1052A000070308330393099B3B4409936AE70C46C1
:1052B00001200CFB0232A8E700234FF00A0C19462C
:1052C00001340593204610F8012B303A092A03D9FE
:1052D000002BC6D00591C4E7044601230CFB012135
:1052E000F0E703AB00932A463046134B04A9AFF313
:1052F00000800746781CD6D16B6ED90705D4AB89E0
:105300009A0502D4A86DFFF7D3FDAB895B063FF584
:105310001FAF09981EE703AB00932A463046064BA1
:1053200004A900F07DF8E4E7845C00088A5C0008CA
:105330008E5C000800000000E75000082DE9F047EF
:10534000164698468A680B6907469342B8BF1346CB
:10535000336091F843200C46DDF820900AB1013308
:1053600033602368990642BF33680233336025688F
:1053700015F0060506D104F1190AE36832689B1A94
:10538000AB422BDC94F843302268003B18BF01236A
:10539000920630D44146384604F14302C8470130F2
:1053A00023D02368226903F00603042B14BF0025D1
:1053B00033684FF0000608BFE56804F11A0408BF1F
:1053C000ED1A54F8123C08BF25EAE5759342C4BFB4
:1053D0009B1AED18B5421AD1002008E0012352466D
:1053E00041463846C847013003D14FF0FF30BDE891
:1053F000F0870135C1E73020E11881F843005A1CDD
:1054000094F845102244023382F84310C2E7012386
:10541000224641463846C8470130E6D00136D9E732
:105420002DE9FF470F7E9146782F80460C469A461D
:105430000C9E01F1430207D8622F0AD8002F00F01A
:10544000D280582F00F0B78004F1420684F84270F1
:105450003AE0A7F16303152BF6D801A151F823F028
:10546000B9540008CD5400084954000849540008B4
:105470004954000849540008CD5400084954000814
:10548000495400084954000849540008CD55000803
:10549000F75400088355000849540008495400088F
:1054A000EF55000849540008F75400084954000813
:1054B000495400088B55000833681A1D1B68326078
:1054C00004F1420684F8423001239DE033682068ED
:1054D000191D3160060601D51D6803E04506FBD5A0
:1054E000B3F90050002D03DA2D236D4284F84330C8
:1054F0000A23594810E021683368080653F8045B12
:1055000002D4490648BFADB26F2F5348336059D11A
:105510000823002184F843106668002EA66005DB8E
:1055200021682E4321F0040121604DD01646B5FBC1
:10553000F3F103FB1157C75D06F8017D2F46BB420F
:105540000D46F4D9082B0BD12368DF0708D5236952
:1055500061689942DEBF302306F8013C06F1FF3650
:10556000921B22614B4621464046CDF800A003AA7B
:10557000FFF7E4FE01304CD14FF0FF3004B0BDE83E
:10558000F087236843F0200323607827334884F8AA
:105590004570236831681F0651F8045B02D45F062A
:1055A00048BFADB23160D90744BF43F02003236048
:1055B0001DB11023ADE72848E9E7236823F0200355
:1055C0002360F6E70A23A4E71646BBE7336825689D
:1055D000181D616930602E061B6801D5196002E054
:1055E0006806FBD51980002316462361BAE73368A5
:1055F00000211A1D32601E686268304600F066F9AC
:1056000008B1801B606063682361002384F8433025
:10561000A8E73246494640462369D0470130ABD01F
:1056200023689B0713D4E068039B9842B8BF1846D1
:10563000A4E70123324649464046D04701309BD07B
:105640000135E36803995B1AAB42F2DCEBE7002516
:1056500004F11906F5E700BF955C0008A65C000898
:10566000B1F90C20F8B5160705460C4651D44B6825
:10567000002B02DC0B6C002B49DDE66A002E46D0C5
:10568000002312F480522F682B6031D0626DA38901
:10569000590705D56368D21A636B0BB1236CD21A14
:1056A00000232846E66A216AB047421CB4F90C3050
:1056B00006D129681D2945D8274ACA40D60741D5B1
:1056C000002262602269D904226004D5421C01D103
:1056D0002B6803B96065616B2F60C1B104F14403AD
:1056E000994202D02846FFF7F3FB002363630EE0E4
:1056F00001232846216AB0470246501CC7D12B68B7
:10570000002BC4D01D2B01D0162B19D12F600020E7
:105710001DE00F69002FFAD0930718BF00230E6811
:1057200008BF4B69F61B0F608B60002EEFDD334620
:105730003A462846216AD4F828C0E047002807DC0A
:10574000B4F90C304FF0FF3043F04003A381F8BDB3
:105750000744361AE9E700BF0100402038B50B695D
:1057600005460C4613B90025284638BD18B1036A12
:105770000BB9FFF7ADF9B4F90C30002BF3D0626E22
:10578000D00704D4990502D4A06DFFF790FB2846FA
:105790002146FFF765FF636E0546DA07E4D4A38967
:1057A0009B05E1D4A06DFFF783FBDDE770B50C46E8
:1057B000B1F90E10154600291E4696B00ADAA189E5
:1057C00011F0800113D14FF48062002031602A6013
:1057D00016B070BD6A4600F047F80028EFDB01996B
:1057E00001F47041A1F5005359425941EBE7002102
:1057F0004022EAE78B8973B59E0705460C4607D51C
:1058000004F14703236023610123636102B070BD8B
:1058100001AB6A46FFF7CAFF009E28463146FFF7F4
:10582000C1FBB4F90C3038B99A05EFD423F0030367
:1058300043F00203A381E3E743F08003A381019BCC
:10584000C4E904062060002BE0D02846B4F90E100D
:1058500000F01CF80028D9D0A38923F0030343F0FB
:105860000103A381D2E7000038B50023064D0446AA
:10587000084611462B6000F03FF8431C02D12B680C
:1058800003B1236038BD00BFDC31002038B50023F0
:10589000054D044608462B6000F036F8431C02D143
:1058A0002B6803B1236038BDDC31002038B50023FC
:1058B000054D044608462B6000F03EF8431C02D11B
:1058C0002B6803B1236038BDDC310020034610B5DE
:1058D000C9B202449342184601D1002003E0047883
:1058E00001338C42F6D110BD5822024B4FF0FF30ED
:1058F0001A607047DC3100205822024B4FF0FF3015
:105900001A607047DC3100205822024B00201A60D8
:10591000704700BFDC3100205822024B4FF0FF30AF
:105920001A607047DC3100205822024B4FF0FF30E4
:105930001A607047DC310020044A05491368002BC7
:1059400008BF0B461844106018467047EC31002021
:10595000F0310020F8B500BFF8BC08BC9E46704787
:0C596000F8B500BFF8BC08BC9E467047BC
:10596C005B4D50555D2051756575652066756C6C89
:10597C002C2064726F707065642023256C750D0A81
:10598C00000000005B4F4C45445D205461736B205C
:10599C00737461727465642C20713D25700D0A005E
:1059AC005B4F4C45445D2023256C752061783D256B
:1059BC002B36642061793D252B366420617A3D2598
:1059CC002B36640D0A0000000D0A212121205354AE
:1059DC0041434B204F564552464C4F573A20257366
:1059EC00202121210D0A00004F4B00004641494C5B
:1059FC00000000003D3D3D3D3D3D3D3D3D3D3D3DBF
:105A0C003D3D3D3D3D3D3D3D3D3D3D3D3D3D3D3DBA
:105A1C003D3D3D3D3D3D3D3D3D3D3D3D0D00000091
:105A2C002020322E312051756575653A204D505528
:105A3C00363035302053656E736F72205069706547
:105A4C006C696E650D000000202053544D333246B6
:105A5C0031303343385478207C20256C7520487ABB
:105A6C000D0A00003D3D3D3D3D3D3D3D3D3D3D3D37
:105A7C003D3D3D3D3D3D3D3D3D3D3D3D3D3D3D3D4A
:105A8C003D3D3D3D3D3D3D3D3D3D3D3D0D0A0D000A
:105A9C00493243205363616E3A2000003078253040
:105AAC00325820004E4F2044455649434520464F1E
:105ABC00554E44210D00000028256420646576694C
:105ACC006365287329290D0A000000005B536F667B
