:020000040800F2
:10500000005000202DB80008A35D0008A55D000831
:10501000A75D0008A95D0008AB5D00080000000066
:10502000000000000000000000000000C186000831
:10503000AD5D0008000000002187000865870008BA
:1050400075B8000875B8000875B8000875B800088C
:1050500075B8000875B80008AF5D000875B800089D
:1050600075B8000875B8000875B8000875B800086C
:1050700075B8000875B80008B55D0008C15D000886
:10508000CD5D000875B8000875B8000875B800084F
:1050900075B8000875B8000875B8000875B800083C
:1050A00075B8000875B8000875B8000875B800082C
:1050B000D95D000875B8000875B8000875B8000813
:1050C00075B8000875B8000875B8000875B800080C
:1050D00075B80008E55D0008F15D000875B80008C6
:1050E00075B8000875B8000875B800080000000021
:1050F00000000000000000000000000000000000B0
:0C51000000000000000000005FF808F153
:10511000034613F8012B002AFBD1181A01387047F7
:105120004FF0FF0C1CEAD0521EBF1CEAD15392EA8A
:105130000C0F93EA0C0F6FD01A4480EA010C400266
:1051400018BF5FEA41211ED04FF0006343EA5010C0
:1051500043EA5111A0FB01310CF00040B1F5000F02
:105160003EBF490041EAD3715B0040EA010062F1B1
:105170007F02FD2A1DD8B3F1004F40EBC25008BF9B
:1051800020F00100704790F0000F0CF0004C08BFB9
:1051900049024CEA502040EA51207F3AC2BFD2F186
:1051A000FF0340EAC250704740F400004FF0000394
:1051B000013A5DDC12F1190FDCBF00F000407047CE
:1051C000C2F10002410021FA02F1C2F1200200FA0C
:1051D00002FC5FEA310040F1000053EA4C0308BFD3
:1051E00020EADC70704792F0000F00F0004C02BF24
:1051F000400010F4000F013AF9D040EA0C0093F09F
:10520000000F01F0004C02BF490011F4000F013BF8
:10521000F9D041EA0C018FE70CEAD15392EA0C0F66
:1052200018BF93EA0C0F0AD030F0004C18BF31F0D1
:10523000004CD8D180EA010000F00040704790F0A7
:10524000000F17BF90F0004F084691F0000F91F04B
:10525000004F14D092EA0C0F01D142020FD193EA11
:105260000C0F03D14B0218BF084608D180EA010099
:1052700000F0004040F0FE4040F40000704740F075
:10528000FE4040F44000704781F0004102E000BF62
:1052900083F0004330B54FEA41044FEA430594EAF6
:1052A000050F08BF90EA020F1FBF54EA000C55EA31
:1052B000020C7FEA645C7FEA655C00F0E2804FEA02
:1052C0005454D4EB5555B8BF6D420CDD2C4480EAE4
:1052D000020281EA030382EA000083EA010180EA14
:1052E000020281EA0303362D88BF30BD11F0004F62
:1052F0004FEA01314FF4801C4CEA113102D0404298
:1053000061EB410113F0004F4FEA03334CEA1333D2
:1053100002D0524263EB430394EA050F00F0A780EA
:10532000A4F10104D5F1200E0DDB02FA0EFC22FAE5
:1053300005F2801841F1000103FA0EF2801843FAD9
:1053400005F359410EE0A5F120050EF1200E012ACA
:1053500003FA0EFC28BF4CF0020C43FA05F3C01808
:1053600051EBE37101F0004507D54FF0000EDCF181
:10537000000C7EEB00006EEB0101B1F5801F1BD32A
:10538000B1F5001F0CD349085FEA30004FEA3C0C2E
:1053900004F101044FEA445212F5800F80F09A8024
:1053A000BCF1004F08BF5FEA500C50F1000041EB28
:1053B000045141EA050130BD5FEA4C0C404141EB2C
:1053C0000101013C28BFB1F5801FE9D291F0000F27
:1053D00004BF01460020B1FA81F308BF2033A3F1D6
:1053E0000B03B3F120020CDA0C3208DD02F1140CCD
:1053F000C2F10C0201FA0CF021FA02F10CE002F108
:105400001402D8BFC2F1200C01FA02F120FA0CFC00
:10541000DCBF41EA0C019040E41AA2BF01EB045149
:10542000294330BD6FEA04041F3C1CDA0C340EDC47
:1054300004F11404C4F1200220FA04F001FA02F38A
:1054400040EA030021FA04F345EA030130BDC4F148
:105450000C04C4F1200220FA02F001FA04F340EA3D
:105460000300294630BD21FA04F0294630BD94F0EE
:10547000000F83F4801306BF81F480110134013DD5
:105480004EE77FEA645C18BF7FEA655C29D094EA46
:10549000050F08BF90EA020F05D054EA000C04BFC4
:1054A0001946104630BD91EA030F1EBF00210020AF
:1054B00030BD5FEA545C05D14000494128BF41F04E
:1054C000004130BD14F580043CBF01F5801130BDB2
:1054D00001F0004545F0FE4141F470014FF000003D
:1054E00030BD7FEA645C1ABF194610467FEA655CEE
:1054F0001CBF0B46024650EA013406BF52EA033590
:1055000091EA030F41F4002130BD00BF90F0000F7D
:1055100004BF0021704730B54FF4806404F13204B9
:105520004FF000054FF0000150E700BF90F0000F72
:1055300004BF0021704730B54FF4806404F1320499
:1055400010F0004548BF40424FF000013EE700BF69
:1055500042004FEAE2014FEA31014FEA02701FBFF9
:1055600012F07F4393F07F4F81F06051704732F02B
:105570007F4208BF704793F07F4F04BF41F4002182
:10558000704730B54FF4607401F0004521F00041E0
:105590001CE700BF50EA010208BF704730B54FF06A
:1055A00000050AE050EA010208BF704730B511F06B
:1055B000004502D5404261EB41014FF4806404F1A3
:1055C00032045FEA915C3FF4D8AE4FF003025FEA29
:1055D000DC0C18BF03325FEADC0C18BF033202EBAD
:1055E000DC02C2F1200300FA03FC20FA02F001FA07
:1055F00003FE40EA0E0021FA02F11444BDE600BFAA
:1056000080F0004002E000BF81F0004142001FBF77
:105610005FEA410392EA030F7FEA226C7FEA236C80
:105620006AD04FEA1262D2EB1363C1BFD218414075
:1056300048404140B8BF5B42192B88BF704710F00B
:10564000004F40F4000020F07F4018BF404211F0AE
:10565000004F41F4000121F07F4118BF494292EA16
:10566000030F3FD0A2F1010241FA03FC10EB0C0042
:10567000C3F1200301FA03F100F0004302D54942CF
:1056800060EB4000B0F5000F13D3B0F1807F06D37C
:1056900040084FEA310102F10102FE2A51D2B1F174
:1056A000004F40EBC25008BF20F0010040EA030069
:1056B0007047490040EB0000013A28BFB0F5000FE9
:1056C000EDD2B0FA80FCACF1080CB2EB0C0200FA9F
:1056D0000CF0AABF00EBC25052421843BCBFD040EE
:1056E0001843704792F0000F81F4000106BF80F468
:1056F00000000132013BB5E74FEA41037FEA226C2B
:1057000018BF7FEA236C21D092EA030F04D092F0F5
:10571000000F08BF0846704790EA010F1CBF002029
:10572000704712F07F4F04D1400028BF40F0004086
:10573000704712F100723CBF00F50000704700F0A6
:10574000004343F0FE4040F4000070477FEA2262CD
:1057500016BF08467FEA23630146420206BF5FEA9E
:10576000412390EA010F40F4800070474FF000039E
:1057700004E000BF10F0004348BF40425FEA000C65
:1057800008BF704743F0964301464FF000001CE00D
:1057900050EA010208BF70474FF000030AE000BF63
:1057A00050EA010208BF704711F0004302D54042A1
:1057B00061EB41015FEA010C02BF84460146002013
:1057C00043F0B64308BFA3F18053A3F50003BCFA2E
:1057D0008CF2083AA3EBC25310DB01FA02FC6344DB
:1057E00000FA02FCC2F12002BCF1004F20FA02F2E2
:1057F00043EB020008BF20F00100704702F12002D5
:1058000001FA02FCC2F1200250EA4C0021FA02F235
:1058100043EB020008BF20EADC7070474FEA400209
:10582000B2F1FE4F0FD34FF09E03B3EB12620DD9CE
:105830004FEA002343F0004310F0004F23FA02F038
:1058400018BF404270474FF00000704712F1610FDF
:1058500001D1420205D110F0004008BF6FF00040B6
:1058600070474FF00000704710B5054C237833B9EE
:10587000044B13B10448AFF300800123237010BD23
:105880007C0000200000000058D6000808B5034B3B
:105890001BB103490348AFF3008008BD00000000BE
:1058A0008000002058D60008F0B505460024174EA9
:1058B00085B0174F4FF0FF31386802F067FD0128BF
:1058C000F8D1C821306802F061FD0128F2D16846A4
:1058D00003F0F5FA034660B964226946284602F0EF
:1058E000F2FB012804F101040AD02146094806F020
:1058F000AFF9002330681A46194602F0E4FBD8E7F6
:105900004FF40051044801F0C8FBF2E718030020EF
:105910001403002098D60008001001402DE9F04340
:10592000D0E9009804464FF06257204E204D8DB0CC
:105930004FF0FF32484601A902F0B1FC0128F7D12F
:10594000B4F90830BDF90400C01AFFF713FF394657
:10595000FFF7E6FBB4F90A300590BDF90600C01A5E
:10596000FFF708FF3946FFF7DBFBB4F90C30069070
:10597000BDF90800C01AFFF7FDFE3946FFF7D0FB5E
:105980000B9B6422013307900B934046002305A92B
:1059900002F099FB059B079A3360069B2B60054B31
:1059A0001A60054B0B9A1A60C2E700BF1003002073
:1059B0000C03002008030020040300202DE9F0431D
:1059C00006468DB0002003F09FFB0021264A0846C2
:1059D00003F0AEFB3146254806F03AF90025244F86
:1059E0004FF0FF32304605A902F059FC0128F7D1EB
:1059F0006421386802F0CAFC0128044605F101055B
:105A00001CD10146059A022003F0BAFB214603206F
:105A1000069A03F0B5FB2146079A042003F0B0FB79
:105A20002846FFF7A3FE64210246042003F0A8FBEA
:105A3000002338681A46194602F045FB0598FFF71F
:105A400087FD804607988946FFF782FDCDE9020170
:105A50000698FFF77DFD4246CDE900014B462946F9
:105A6000044806F0F5F8BBE7B9D60008BFD6000831
:105A700018030020DBD6000808B541F2883002F098
:105A800017F8034806F04CF904F00EF8F5E700BFEC
:105A900004D7000800B591B02422002107A806F021
:105AA000A3FA1422002101A806F09EFA0223012184
:105AB0000693102306A8CDE90A1300F079FF0146EA
:105AC00008B172B6FEE70F23CDE90300CDE901303E
:105AD000059001A801F02EF908B172B6FEE711B0E9
:105AE0005DF804FBBFB5794B794A9A6062B600F065
:105AF00029FFFFF7CFFF03220021012002F0B9FAAE
:105B0000744B186002F0B2FE02F01AFF03F010F8B6
:105B100005F062FC03F06CFB02F02EFF03F030F89E
:105B200003F0D4FA03F08CF9044618B16A4806F081
:105B3000F7F8FEE703F0B4F90146684806F088F884
:105B40000DF1120204A90DF10E00ADF80E40ADF8F2
:105B50001040ADF8124003F0D9F9012002F030FBFB
:105B60005F4B186018B95F4806F0DAF8FEE704F0FA
:105B7000B7FFE8B95C4806F0D3F805F023F8C8B9D8
:105B80005A4806F0CDF800220E21082002F071FAE2
:105B9000574C002220601C21042002F06AFA554E66
:105BA0002368306003B190B9534806F0B9F8FEE7B6
:105BB0005248E0E705A804F0EDFF9DF816309DF887
:105BC00015209DF814104E4806F042F8DBE700253A
:105BD00002274C4CBDF80E20C4E900302281BDF8EC
:105BE000102049496281BDF812204848A2814FF433
:105BF0008072CDE9007501F0ACFD23464FF4807250
:105C00004349CDE90075434801F0A3FD03234FF458
:105C100080724149009341483368019501F099FD34
:105C200001234FF480723E4900933E482B46019574
:105C300001F08FFD3C4806F073F83C4806F070F820
:105C40003B4806F06DF83B4806F06AF83A4806F023
:105C500067F84FF4FA6000F099FE03F0F1FC03F0EE
:105C600059FC364806F05CF805F028FB344806F08D
:105C700057F803F0FFFD00B3324806F051F803F087
:105C800073FEB0B9304806F04BF800232F4A13607A
:105C90002F4A13602F4A136000222F4B1A6003F023
:105CA000A7FF03F001FF2D4806F03AF801F080FD50
:105CB000FEE72B4806F034F8F5E72A4806F030F8FE
:105CC00003F052FE0028EED1DCE700BF00ED00E05B
:105CD00000500008140300201BD7000845D7000817
:105CE0001803002066D7000889D70008C7D7000826
:105CF000200300201C03002017D80008B3D7000899
:105D0000F0D70008F402002037D80008A95800088E
:105D100040D800081D59000849D80008BD5900089E
:105D200053D80008795A00085ED800089FD80008A8
:105D3000C3D80008FFD800084CD9000873D9000860
:105D40009BD90008BBD90008D1D900081003002056
:105D50000C030020080300200403002030DA0008B0
:105D6000E8D9000803DA0008034B0360034B0B601B
:105D700080231360704700BF980200209800002025
:105D800008B5024805F064FF72B6FEE747DA00087E
:105D90000368B3F1804F01D100F0E6BD704772B6E1
:105DA000FEE7FEE7FEE7FEE7FEE7FEE770470120BD
:105DB00001F07CB9014801F057BA00BF342F002030
:105DC000014801F051BA00BFF02E0020014801F057
:105DD0004BBA00BFAC2E0020014800F067B800BFEE
:105DE000642E0020014800F0C1BB00BFC02F00207E
:105DF00008B5044800F0BAFBBDE80840014800F0CF
:105E0000B5BB00BF782F00200E4B82B09A6942F0DC
:105E100001029A619A6902F001020092009ADA691D
:105E200042F08052DA61DB69074A03F08053019344
:105E3000019B536823F0E06343F00073536002B0AA
:105E4000704700BF00100240000001407047000092
:105E500090F83D30012B20D1022380F83D300368BB
:105E6000DA6842F00102DA600D4A93420AD0B3F1D7
:105E7000804F07D0A2F59432934203D002F580629E
:105E8000934204D19A6802F00702062A03D01A68E6
:105E900042F001021A60002070470120704700BFE5
:105EA000002C01407047704770477047036870B519
:105EB000DD681E690446B1070DD5AA070BD56FF042
:105EC00002021A61012202779B699B0769D0FFF7E2
:105ED000EAFF00232377710710D56A070ED56FF00C
:105EE0000402236820461A61022222779B6913F478
:105EF000407F5CD0FFF7D7FF0023237733070FD510
:105F000028070DD56FF00802236820461A61042285
:105F10002277DB69990750D0FFF7C5FF002323776D
:105F2000F20610D5EB060ED56FF01002236820465E
:105F30001A6108222277DB6913F4407F43D0FFF710
:105F4000B2FF00232377F00708D5E90706D56FF0E5
:105F50000102236820461A61FFF71AFF320608D5AE
:105F60002B0606D56FF08002236820461A6100F0E8
:105F700090F8700608D5690606D56FF040022368D0
:105F800020461A61FFF791FFB20622D5AB0620D555
:105F90006FF0200223682046BDE870401A6100F0CF
:105FA00077B8FFF77FFF2046FFF77EFF91E7FFF707
:105FB00079FF2046FFF778FF9EE7FFF773FF204643
:105FC000FFF772FFAAE7FFF76DFF2046FFF76CFFB0
:105FD000B7E770BD174A036890420AD0B0F1804F0E
:105FE00007D0A2F59432904203D002F5806290422D
:105FF00007D14A6823F070031343CA6823F440733F
:1060000013434A6923F08003134303608B68C36220
:106010000B688362074B984204BF0B69036301233B
:1060200043610369DB0742BF036923F00103036196
:10603000704700BF002C014010B5044630B390F803
:106040003D3003F0FF021BB980F83C20FFF7FEFE55
:106050000223206884F83D30211DFFF7BBFF012398
:10606000002084F8463084F83E3084F83F3084F8CD
:10607000403084F8413084F8423084F8433084F86A
:10608000443084F8453084F83D3010BD0120FCE7F1
:1060900070477047026802F10C0353E8003F23F495
:1060A00090730C3242E8003102680029F2D102F10B
:1060B000140353E8003F23F0010302F1140C4CE8F1
:1060C00000310029F3D1036B012B0BD102F10C033A
:1060D00053E8003F23F0100302F10C0C4CE80031B0
:1060E0000029F3D1202380F8423000230363704756
:1060F00010B504460368C1681A6922F440520A4385
:106100001A6182680069D9680243606921F4B0515C
:1061100021F00C0102430A43DA605A69A16922F4B2
:1061200040720A435A610E4A934215D100F0AEFE06
:1061300019234343626820689200B3FBF2F36422A0
:10614000B3FBF2F102FB11331B013233B3FBF2F369
:1061500003EB0113836010BD00F088FEE8E700BF89
:1061600000380140F7B505460C4617461E462A681A
:10617000136834EA030301D1002021E0701CF7D03A
:1061800000F0FEFBC01B86421CD3DEB12B68DA6830
:106190005107ECD5802CEAD0402CE8D01A681207C1
:1061A000E5D5002401941A68284601925B680193A2
:1061B000019BFFF76FFF082301206B6485F84040C7
:1061C00003B0F0BD0320FBE710B5044648B390F8D8
:1061D000413003F0FF021BB980F8402002F0E8FBD9
:1061E0002423226884F84130D368204623F40053E6
:1061F000D360FFF77DFF236800201A6922F49042E4
:106200001A615A6922F02A025A61DA6842F400528D
:10621000DA602023606484F8413084F8423060639F
:1062200010BD0120FCE72DE9F843984690F8413075
:106230000446202B0E4617463FD100293FD0002AA6
:106240003DD021230025456480F8413000F098FBC3
:10625000A3688146B3F5805FA784E78403D12369EF
:106260000BB935461E46E38C9BB253B943464A46AA
:1062700040212046FFF776FF202350B984F84130B3
:106280000AE043464A4680212046FFF76BFF28B1CB
:106290002023032084F84130BDE8F88322684EB9FA
:1062A00035F8023BC3F308035360E18C013989B22E
:1062B000E184D8E716F8013BF6E70220ECE701207D
:1062C000EAE7000038B50446134694F84120202A36
:1062D00027D141B33BB300222120E384134D6264F4
:1062E00084F84100A06BA38421628562104DC562D1
:1062F000104DC0E90C522268043200F013FF6FF019
:10630000400223681A60226802F1140353E8003F38
:1063100043F0800302F1140141E800300028F3D17A
:1063200038BD0220FCE70120FAE700BF396300080E
:10633000876300089563000808B503461B68406A38
:106340001B6813F020031AD1C384026802F11403FE
:1063500053E8003F23F08003143242E80031026822
:106360000029F2D102F10C0353E8003F43F040034F
:1063700002F10C0040E800310029F3D108BD02F021
:10638000ADFFFBE7704708B5406AFFF7FBFF08BDAC
:106390007047704708B5406A03685A6990F8411021
:1063A000212912D1120610D50022C28403F10C0259
:1063B00052E8002F22F0C00203F10C0C4CE800213F
:1063C0000029F3D1202280F841205B6990F8422017
:1063D000222A05D15B0603D50023C385FFF75AFEA9
:1063E000436C43F010034364FFF7D3FF08BD08B5C7
:1063F0000023406AC385C384FFF7CBFF08BD08B5FF
:106400000123406A4363036B012B04D1818D49084A
:1064100002F0ACFF08BDFFF7BBFFFBE708B5034682
:106420001B68406A1B6813F0200337D1C3850268DC
:1064300002F10C0353E8003F23F480730C3242E86E
:10644000003103680029F2D103F1140252E8002F51
:1064500022F0010203F1140C4CE800210029F3D1D1
:1064600003F1140252E8002F22F0400203F1140C51
:106470004CE800210029F3D1202280F84220026B51
:10648000012A0BD103F10C0252E8002F22F0100276
:1064900003F10C0C4CE800210029F3D100234363E5
:1064A000036B012B03D1818D02F060FF08BD03F067
:1064B000A3F8FBE790F8423007B5222B42D1816860
:1064C0000268B1F5805F836A3FD1016900293FD13D
:1064D0005268C2F3080223F8022B8362C38D013B8A
:1064E0009BB2C385002B2DD10268D16821F0200119
:1064F000D160D16821F48071D160516921F001012E
:106500005161202280F842204363026B012A026815
:1065100028D1036302F10C0353E8003F23F010037A
:1065200002F10C0C4CE800310029F3D11368DB06B2
:1065300005D501911368019353680193019B818DE7
:1065400002F014FF03B05DF804FB39B9016929B901
:106550005268D2B21A70836A0133BEE7526802F001
:106560007F02F7E703F048F8ECE70000036873B533
:106570001A6804461607D9685D6908D1960668D579
:106580008D0666D502B0BDE87040FFF793BF05F0F9
:10659000010001F4907505435BD0D60705D5CD0504
:1065A00042BF636C43F001036364530704D518B121
:1065B000636C43F002036364960704D518B1636CFF
:1065C00043F004036364150707D501F02003034378
:1065D0001EBF636C43F008036364636C002B32D00E
:1065E000920604D58B0602D52046FFF763FF266886
:1065F00020467369626C03F0400302F0080253EA1C
:10660000020522D0FFF746FD73695E0618D52268A1
:1066100002F1140353E8003F23F04003143242E830
:1066200000310029F3D1E06B50B1744B436300F0AB
:10663000D5FD40B1E06B436B02B0BDE87040184738
:106640002046FFF7A6FE02B070BDFFF7A2FE65640C
:10665000F9E7206B012840F09480D50640F1918045
:10666000C80640F18E80002201921A6801925A6891
:106670000192019A5A6952064DD5E16B0A68526837
:1066800092B2002ADFD0A08D9042DCD9E2858A69DF
:10669000202A36D003F10C0252E8002F22F4807237
:1066A00003F10C0040E800210029F3D103F11402AA
:1066B00052E8002F22F0010203F1140040E800210B
:1066C0000029F3D103F1140252E8002F22F0400216
:1066D00003F1140040E800210029F3D1202284F8BE
:1066E0004220216303F10C0252E8002F22F0100235
:1066F00003F10C0040E800210029F3D1E06B00F029
:106700004DFD02236363E38DA18DC91A89B2204632
:1067100002F02CFE97E7E28DE18D92B289B200295A
:1067200091D0A18D891A89B200298CD003F10C0275
:1067300052E8002F22F4907203F10C0545E8002086
:106740000028F3D103F1140252E8002F22F00102D5
:1067500003F1140545E800200028F3D1202284F835
:106760004220206303F10C0252E8002F22F01002B5
:1067700003F10C0545E800200028F3D102236363F0
:10678000C5E7160628D50D0626D594F84120212AFE
:106790007FF459AFA168226AB1F5805F17D12169F2
:1067A000A9B932F8021BC1F3080159602262E28CD8
:1067B000013A92B2E284002A7FF445AFDA6822F00F
:1067C0008002DA60DA6842F04002DA603BE7511C8E
:1067D000216212785A60EAE750067FF534AF4A0624
:1067E0007FF531AFDA68204622F04002DA602023DC
:1067F00084F8413002F072FD25E700BFEF63000826
:106800000023C285436422238285026980F84230D6
:10681000816203681AB1DA6842F48072DA605A69F8
:10682000002042F001025A61DA6842F02002DA6088
:10683000704770B590F84260202E07D141B13AB14F
:1068400000240463FFF7DCFF204670BD0220FCE754
:106850000120FAE773B513468285002522220446FB
:106860008162456480F84220C06B1D4A26688262BE
:106870001C4AC2621C4AC0E90C250A46311D00F0C0
:1068800051FC236801951A6801925A680192019A95
:1068900022695AB103F10C0252E8002F42F48072CF
:1068A00003F10C0040E800210029F3D103F11402A8
:1068B00052E8002F42F0010203F1140040E80021E9
:1068C0000029F3D103F1140252E8002F42F04002F4
:1068D00003F1140141E800200028F3D102B070BD9B
:1068E0001D640008FF6300089563000873B590F805
:1068F00042600446202E22D111B9012002B070BDA1
:10690000002AFAD00123002503634563FFF7A2FFA5
:10691000236B012BF1D12268019513680193536811
:106920000193019B02F10C0353E8003F43F0100375
:1069300002F10C0141E800300028F3D1DEE702202B
:10694000DCE70000074A08B51368032043F0100392
:10695000136000F01DFD0F2001F04AFFFFF754FA0D
:10696000002008BD00200240034A044B11681B7838
:106970000B441360704700BF240300200000002078
:10698000014B1868704700BF2403002038B5044647
:10699000FFF7F6FF0546631C1EBF044B1B78E41887
:1069A000FFF7EEFF431BA342FAD338BD00000020DF
:1069B0002DE9F341054638B30368DB0710D42B6893
:1069C0009F075ED42B68190700F195802B685A0742
:1069D00000F1C180EB69002B40F02C81002029E000
:1069E000904C636803F00C03042B07D0636803F03A
:1069F0000C03082B0AD16368DE0307D523689C03C8
:106A0000DDD56B68002BDAD1012013E06B68B3F59C
:106A1000803F12D1236843F480332360FFF7B0FF37
:106A2000064623689803CAD4FFF7AAFF801B642890
:106A3000F7D9032002B0BDE8F0819BB9236823F4A5
:106A400080332360236823F480232360FFF798FFBB
:106A5000064623689903B2D5FFF792FF801B64288E
:106A6000F7D9E6E7B3F5A02F236803D143F48023D9
:106A70002360CFE723F480332360236823F480234B
:106A8000CBE7684C636813F00C0F07D0636803F022
:106A90000C03082B10D16368DA030DD423689B071D
:106AA00002D52B69012BAFD123686A6923F0F80363
:106AB00043EAC203236085E72A695B4B6AB101227E
:106AC0001A60FFF75DFF064623689F07ECD4FFF7C7
:106AD00057FF801B0228F7D9ABE71A60FFF750FF7A
:106AE0000646236898077FF56DAFFFF749FF801BC7
:106AF0000228F6D99DE7AA694A4E4B4BE2B1012222
:106B0000C3F88024FFF73CFF0446736A9B070DD54A
:106B10004FF4FA52454B1B68B3FBF2F3019300BFED
:106B2000019B5A1E0192002BF9D14FE7FFF728FF76
:106B3000001B0228E9D97CE7C3F88024FFF720FF77
:106B40000446736A9F077FF541AFFFF719FF001BEB
:106B50000228F6D96DE7334CE369D80024D4012725
:106B6000E36943F08053E361E36903F080530093EA
:106B7000009B2F4E3368D90518D5EB68012B26D121
:106B8000236A43F001032362FFF7FAFE41F28838DB
:106B90000646236A9B073FD5002F3FF41BAFE369EE
:106BA00023F08053E36115E70027E2E7336843F4FD
:106BB00080733360FFF7E4FE80463368DA05DCD487
:106BC000FFF7DEFEA0EB08006428F6D931E7ABB989
:106BD000236A41F2883823F001032362236A23F0F9
:106BE00004032362FFF7CCFE0646236A9807D3D539
:106BF000FFF7C6FE801B4045F7D91AE7052B236A2D
:106C000003D143F004032362BAE723F001032362B4
:106C1000236A23F00403B6E7FFF7B2FE801B40456A
:106C2000B7D906E7001002400000424208000020E9
:106C3000007000402A4C626802F00C02082A3ED024
:106C40000022022B274B1A662CD1FFF799FE06462D
:106C50002368990120D42B6AB3F5803F05D162687F
:106C6000A96822F400320A436260696A62680B43D1
:106C700022F474121343012263601A4B1A66FFF761
:106C80007FFE054623689A013FF5A8AEFFF778FE20
:106C9000401B0228F6D9CCE6FFF772FE801B0228C3
:106CA000D6D9C6E6FFF76CFE054623689B017FF543
:106CB00095AEFFF765FE401B0228F6D9B9E6012B19
:106CC0003FF4A2AE60682B6A00F480329A427FF4EF
:106CD0009BAE6B6A00F47010C01A18BF0120A9E6C1
:106CE00000100240000042420D4A536803F00C01BC
:106CF000082912D10B48C3F38341DB03405C09D55B
:106D00005368094AC3F340435043084AD35CB0FB7D
:106D1000F3F07047064B584370470348704700BF75
:106D2000001002409CE6000800127A009AE6000873
:106D300000093D002DE9F0410D46044610B901203F
:106D4000BDE8F081444A136803F007038B4228D35F
:106D500021688E0730D4CA0743D43F4A136803F032
:106D60000703AB4265D822683C4D12F0040F6CD18A
:106D7000130706D56B68226923F4605343EAC20304
:106D80006B60FFF7B1FF6B68354AC3F30313D35C45
:106D9000D840344B1860344B186801F029FD0020AE
:106DA000CEE7136823F007030B431360136803F067
:106DB00007038B42C3D1CBE7284B11F0040F1EBF52
:106DC0005A6842F4E0625A60080742BF5A6842F4C7
:106DD00060525A605A68A06822F0F00202435A607A
:106DE000B9E762681D4E012A33681AD113F4003FD7
:106DF000A5D0736841F2883823F00303134373600E
:106E0000FFF7BEFD07467368626803F00C03B3EB3F
:106E1000820FA2D0FFF7B4FDC01B4045F3D9032079
:106E20008EE7022A02D113F0007FE1E713F0020F90
:106E3000DEE7136823F007032B431360136803F0A6
:106E40000703AB427FF47BAF8DE76B68E16823F407
:106E5000E0630B436B608BE70020024000100240B0
:106E6000B4E600080800002004000020044B054A96
:106E70005B68C3F30223D35C034A1068D8407047B1
:106E800000100240ACE6000808000020044B054A50
:106E90005B68C3F3C223D35C034A1068D8407047D1
:106EA00000100240ACE60008080000200F23036039
:106EB0000B4B5A6802F0030242605A6802F0F0027B
:106EC00082605A6802F4E062C2605B68DB0803F427
:106ED000E0630361034B1B6803F007030B6070471B
:106EE00000100240002002402DE9F74F00244FF02F
:106EF0000F0E2646DFF884C1614B00F104080A68D2
:106F000032FA06F502D103B0BDE8F08F012505FA8B
:106F100006F702EA070537EA020276D14A68032A31
:106F200007D8013A022A00F28380DFE802F0919646
:106F30009C00122A00F0948069D8112A00F08A80FF
:106F4000FF2D94BF8146C1464FEA8602D9F80070F2
:106F500088BF203A0EFA02FA27EA0A0704FA02F278
:106F60001743C9F80070D1F8049019F0805F4CD035
:106F7000DCF8182026F0030742F00102CCF81820B4
:106F8000DCF8182007F1804702F00102019207F5B2
:106F9000803706F0030A019A4FEA8A0ABA680EFAA5
:106FA0000AFB22EA0B0B374A904260D002F580625E
:106FB00090425ED002F5806290425CD002F5806221
:106FC000904214BF0422032202FA0AF242EA0B02A0
:106FD000BA609A6819F4801F14BF2A43AA439A60C2
:106FE000DA6819F4001F14BF2A43AA43DA605A680A
:106FF00019F4003F14BF2A43AA435A601A6819F4CF
:10700000803F14BF2A43AA431A60013677E7DFF8AE
:1070100078904A450CD014D8A9F580194A4507D074
:1070200009F570294A4503D0A9F580194A4587D149
:107030008A68D2B1012A4FF008040CBF076147618A
:107040007EE7DFF848904A45F2D009F58039EDE750
:10705000CC6875E7CC68043472E7CC6808346FE715
:10706000CC680C346CE700246AE7042468E700224B
:10707000AAE70122A8E70222A6E700BF001002400B
:1070800000040140000801400000221000003110FF
:107090000AB1016170470904FBE7C36801EA030212
:1070A00021EA030141EA024101617047044A08B53F
:1070B0005169014202D0506101F066FF08BD00BF76
:1070C00000040140034610B530B301681420134A90
:1070D0000A44B2FBF0F292001A64114ADA63022207
:1070E00083F82120D3E901242243DC680868224385
:1070F0001C696FF30D1022435C6922439C69224393
:10710000DC69224302430A6000200122986383F86D
:10711000200083F8212010BD0120FCE7F8FFFDBF0F
:1071200000000240F0B590F82040012C34D001243A
:1071300080F8204090F82140012CE5B24FF0000487
:1071400028D1022680F8216084630468266826F02E
:1071500001062660D0E90F67BD4075606360436833
:10716000102BC36A0BBFA260A160E160E2604BB16B
:10717000236843F00E0300202360236843F00103DB
:107180002360F0BD236823F004032360236843F0E9
:107190000A03F0E780F820400220F2E790F821206F
:1071A0000346022A06D0042282630120002283F8CB
:1071B000202070470268C06B116821F00E01116039
:1071C000116821F00101116001211A6C01FA02F22B
:1071D0004260002083F82110E8E7000008B590F82D
:1071E0002130022B03D004238363012008BD0368F0
:1071F0001A6822F00E021A601A6822F001021A6060
:10720000174A93421FD0143293421ED01432934235
:107210001DD0143293421DD0143293421DD014322B
:10722000934214BF4FF080734FF480130D4A5360A4
:10723000012380F82130002380F82030436B03B114
:1072400098470020D2E70123F0E71023EEE74FF440
:107250008073EBE74FF48053E8E74FF48033E5E7C2
:10726000080002400000024070B40425C66B026CA6
:107270003468036895402542196832D04D0730D5EF
:107280001A6896065EBF1A6822F004021A603E4A27
:10729000934219D01432934218D01432934217D02B
:1072A0001432934217D01432934217D014329342BF
:1072B00014BF4FF080634FF48003344A5360C36AB5
:1072C000002B5ED070BC18470423F6E74023F4E798
:1072D0004FF48063F1E74FF48043EEE74FF48023EF
:1072E000EBE702259540254235D08D0733D51A6846
:1072F000940606D41A6822F00A021A60012280F865
:107300002120214A934219D01432934218D01432CA
:10731000934217D01432934217D01432934217D0AD
:107320001432934214BF4FF000734FF40013174A06
:107330005360002380F82030836AC1E70223F6E718
:107340002023F4E74FF40073F1E74FF40053EEE726
:107350004FF40033EBE708259540254211D009078B
:107360000FD5196821F00E011960012303FA02F20A
:107370007260836380F82130002380F82030036B33
:107380009EE770BC704700BF08000240000002404A
:1073900007490302CA6803F4E06322F4E0621204BE
:1073A000120C134343F0BF6343F40033CB607047C8
:1073B00000ED00E0154B30B5DC68C4F30224C4F1E5
:1073C0000703251D042B28BF0423062D4FF0FF358E
:1073D00094BF0024033C05FA03F321EA0303A5400C
:1073E00022EA0502A340002843EA0203ACBF00F1F1
:1073F0006040074A4FEA0313DBB2ABBF00F56140C0
:1074000000F00F0080F80033135430BD00ED00E0B1
:1074100014ED00E0002807DB01234109034A00F0D6
:107420001F00834042F82130704700BF00E100E0B8
:10743000704700002DE9F041044601F053F9344B48
:10744000344E1A68344F01321A603568002D53D11A
:1074500034601B68012B1FD1B8464046013500F04F
:107460000FFD202D08F11408F7D1DFF8B0802C4D66
:10747000404600F005FD284600F002FD294800F0D6
:10748000FFFC294800F0FCFC284800F0F9FC284BE0
:10749000C3F80080274B1D60274A284913680868F5
:1074A0000133136001226364E36A9A4002430A6075
:1074B00014225343F9184A68201D9568A260E560BC
:1074C00068609060FA5861610132FA5001F01AF96F
:1074D0001B4B1B6873B13368DA6AE36A9A4209D2BC
:1074E0004FF0E0234FF08052C3F8042DBFF34F8FCD
:1074F000BFF36F8FBDE8F081114B1B68002BCBD120
:107500003368DA6AE36A9A4298BF3460C4E700BF1E
:107510004C03002040060020C0030020AC030020E4
:10752000980300207C030020680300205003002003
:107530009403002090030020300300204403002027
:1075400040030020F8B5204B204C06461D682068FB
:107550000F46043000F0B9FC40B922681C49D06ADB
:1075600001220B68824023EA02030B60731C13D1D3
:1075700097B1184B21685A688A6090682168C86082
:1075800021680431416021680431916022685361AF
:107590001A6801321A60F8BD2368AD195D6007D31F
:1075A0000D4B18682168BDE8F840043100F076BC46
:1075B0000A4B18682168043100F070FC084B1A6807
:1075C000AA4288BF1D60E6E748030020400600206D
:1075D0004403002050030020900300209403002067
:1075E0002C030020064A13681968064B19B94FF09E
:1075F000FF321A6070471268D2681268F9E700BF5C
:10760000940300202C03002010B590F85930044654
:107610003BB9006B00F0F2FF2046BDE8104000F0DF
:10762000EDBF012BF9D010BD80B5134C134F144D95
:10763000236873B9134B1B68012BF8D94FF0E02373
:107640004FF08052C3F8042DBFF34F8FBFF36F8FFD
:10765000EDE701F047F8FB68DE68301D00F035FC0F
:107660002B68013B2B602368013B236001F04AF843
:107670003046FFF7C9FFDBE7640300206803002002
:107680004C030020C00300202DE9F0470D46DDE942
:107690000994960032460746A521206B984604F0CF
:1076A000A3FC236B043E1E4426F00706A5B36B1E05
:1076B00004F133020F3513F8011F02F8011F09B15D
:1076C000AB42F8D1002384F84330089D4FF0000A04
:1076D0001F2D28BF1F25201DE562E564C4F850A0BA
:1076E00000F0D9FBC5F1200504F1180000F0D3FB30
:1076F0004246394630462461A5616462C4F854A00C
:1077000084F858A000F0C6FF2060B9F1000F01D046
:10771000C9F80040BDE8F08784F83450D5E730B5AB
:1077200087B0DDE90B547CB18DB12563022584F867
:10773000595005AD01950A9D02940095FFF7A4FFED
:107740002046FFF777FE059C204607B030BD2C464B
:10775000FAE72DE9F043074685B0900088461646C3
:10776000994600F0C7FE054620B94FF0FF3005B03E
:10777000BDE8F0835C2000F0BDFE044698B1002314
:1077800080F859300D9B056301930C9B32464146AE
:107790000290009338464B46FFF776FF2046FFF7EE
:1077A00049FE0120E3E7284600F028FFDDE700005E
:1077B00010B5002488B007AA06A905A8CDE905449C
:1077C000FEF7D2FA059B079A0293069B0F49CDE973
:1077D00000430F482346FFF7A2FF90B14FF050033C
:1077E00083F31188BFF36F8FBFF34F8F4FF0FF32DA
:1077F000084B1A600122084B1A60084B1C6000F00D
:10780000D9FF074B1B6808B010BD00BF66DA00083F
:10781000297600082C0300204003002048030020A4
:10782000C4E60008024A136801331360704700BFC2
:10783000280300202DE9F84F484B1B68002B40F02F
:107840008780474B1C6801341C605CB9454A464B35
:10785000116818681060454A196013680133136095
:10786000FFF7C0FEDFF808C10022DCF80030414914
:107870009C42DFF804910BD3DFF8E880DFF8FCE0EE
:10788000D8F800301B68A3B94FF0FF33CCF80030B4
:107890001420D9F80030DB6A4343C858384B1B68C2
:1078A000012898BF002B14BF012000201043BDE821
:1078B000F88FD8F80030DB68DB685868844202D261
:1078C000CCF80000E4E75D69D3E9020686607060E9
:1078D00068681F1DB8424FF0000008BF6E60586115
:1078E0002868013828609D6A7DB1D3E90706866063
:1078F0007060686803F1180A50454FF0000008BF37
:107900006E6098622868013828600125D86ADEF820
:10791000006085403543CEF800501425454301EB07
:10792000050ADAF80460D6F808B09E60C3F80CB017
:10793000CBF80470B760C3F814A04B5901334B5116
:10794000D9F80030DB6A984228BF42F0010297E77D
:107950000C4A0020136801331360A8E728030020B5
:1079600048030020940300209003002034030020EB
:107970002C030020C0030020400600204403002008
:10798000380300203C0300202DE9F84F00F0AAFE48
:107990003F4B1A68013A1A601B682BB1002400F0B3
:1079A000B1FE2046BDE8F88F3A4A1268002AF5D0A9
:1079B0004FF0010E4FF01408374EDFF8E0C0384AA0
:1079C000DFF8E090384F41E0F368DB68986AD3E96C
:1079D00007148C606160416803F11805A9424FF0FB
:1079E000000108BF4460996201680139016058696B
:1079F000D3E902148C60616041681D1DA9420168D1
:107A000008BF446001390160D96ADCF800400EFA11
:107A100001F02043CCF8000008FB01F002EB000A63
:107A2000DAF80440D4F808B09C60C3F80CB0CBF886
:107A30000450A5601458C3F814A001341450D9F8A8
:107A40000000C06A814201D3C7F800E03168002914
:107A5000BAD10BB1FFF7C6FD144D2C6844B1012714
:107A6000114EFFF7E7FE00B13760013CF9D12C6001
:107A70000D4B1B68002B91D04FF0E0234FF080524C
:107A8000C3F8042DBFF34F8FBFF36F8F012486E738
:107A9000280300204C0300207C0300204403002026
:107AA000C003002040060020380300203C030020D3
:107AB00008B550B94FF0E0234FF08052C3F8042DC1
:107AC000BFF34F8FBFF36F8F08BD0021FFF7AAFEF2
:107AD000FFF738FDFFF758FF0028EBD0F4E7000070
:107AE0001C4B10B51A681C4B12B101221A6010BD54
:107AF0001A4C1A6023681B6B1A68B2F1A53F0BD1B0
:107B00005A68B2F1A53F07D19A68B2F1A53F03D1F7
:107B1000DB68B3F1A53F04D0206821683431FEF75B
:107B20002FF90F4B1B68B3FA83F31422DBB2C3F1B6
:107B30001F0353430B48C1184A6808335268034473
:107B40009A424A6008BF5268D36808BF4A602360FF
:107B5000CDE700BF280300203803002040060020A6
:107B600044030020C003002010B50C46054B1968E3
:107B7000183100F093F92046BDE810400121FFF7CD
:107B8000E1BC00BF40060020C368F0B5DB689A6A1C
:107B9000D3E9070181604860506803F11804A042EE
:107BA00008BF5160002199621168013911601E4AB5
:107BB000D96A1268002A2AD1D3E902405A69A06022
:107BC000446054681D1DAC4208BF50601068013805
:107BD0001060012215488A40046822430260142282
:107BE0004A43134886187468A7689C60DF607D600C
:107BF000A5605E618358013383500E4B1B68DB6ABE
:107C0000994285BF01200C4B00201860F0BD0B4A43
:107C100050688568D8611D626C6084609A621368E0
:107C200001331360E9E700BF28030020440300206C
:107C3000C003002040060020380300207C03002001
:107C4000034B1B680360034B1B684360704700BF16
:107C5000340300204803002070B50D46044600F0B0
:107C600041FD0F4B19682B685A1C17D00D48266828
:107C700000686268864208D08A4206D80023012440
:107C80002B6000F03FFD204670BD881A8342F5D975
:107C90005B1A134420462B60FFF7D2FF0024F0E765
:107CA00048030020340300200122014B1A60704772
:107CB00038030020054B1B6833B1054B1868B0FA38
:107CC00080F04009400070470120704740030020C9
:107CD00028030020F8B50446002837D0224DC36A97
:107CE0002A68D26A934236D28269204E002AA1BF06
:107CF0002A68D26AC2F120028261142202FB036365
:107D000042699A4223D1071D384600F0DEF818492F
:107D100030B90122E06A0B68824023EA02030B605B
:107D200001222B680868DB6A9A4002430A60142229
:107D3000E3625343F1184A689068A260E0604760CC
:107D40009760F25861610132F2500120F8BD2B6852
:107D5000DB6AC362F9E72B68C06CDB6A98422CBF10
:107D600000200120F2E700BF40060020C0030020F1
:107D700044030020F8B5044608B90020F8BD036D9F
:107D8000C16AC26C013B91420365F6D0002BF4D16D
:107D9000051D284600F099F8114A30B90121E06A22
:107DA0001368814023EA010313600120E36C166825
:107DB000C3F12001A16100FA03F1314311601421E4
:107DC000E3624B43074AD61871688F68A160E76089
:107DD0007D608D60D15866610144D150CEE700BF0F
:107DE00044030020C003002070B50446002835D0AD
:107DF000C36C994238BF1946C36A8B422ED0026DBC
:107E0000012A2BD18269164D002A4FF0140202FB81
:107E100003534269C162A4BFC1F1200181619A424A
:107E20001CD1061D304600F050F80121E36A0D4ACE
:107E3000994018B9106820EA0100106010680143E9
:107E4000116014225343E9184A689068A260E06008
:107E500046609660EA5861610132EA5070BD00BF29
:107E6000C003002044030020044B1A681AB11968AB
:107E70000A6D01320A651868704700BF400600208D
:107E80004FF0FF3200F10803C0E9022343600361B1
:107E900000230360704700230361704730B50C680E
:107EA000631C0AD103695A684A6091608B6059600B
:107EB000036808610133036030BD00F10802134616
:107EC00052681568A542FAD9EDE70369D0E90112B5
:107ED0008A6051605968814208BF5A60002202617D
:107EE0001A68013A1A601868704710B5044600F025
:107EF000F9FBA46B00F006FCB4FA84F0400910BD55
:107F000070B51646026C0446856B42B906689EB988
:107F10008068FFF72FFFA6600135A56370BD6EB9BD
:107F2000406804F046F96368226C1344A2686360F9
:107F3000934224BF236863600020EDE7C06804F02B
:107F400038F9226CE36851429B1A2268E36093423D
:107F50003EBFA3685B18E360022EEDD10DB1013D79
:107F6000EAE72846D8E703461A6C084610B45AB127
:107F7000DC68A1189C68D960A14228BF196810BCB0
:107F800028BFD96004F015B910BC704770B504461D
:107F900000F0A8FB94F8455004F124066DB2002DC2
:107FA00001DD636AB3B9FF2384F8453000F0AAFB12
:107FB00000F098FB94F8445004F110066DB2002DC7
:107FC00001DD23697BB9FF2384F84430BDE87040AC
:107FD00000F098BB3046FFF7D7FD08B1FFF764FE0D
:107FE000013D6DB2DBE73046FFF7CEFD08B1FFF78C
:107FF0005BFE013D6DB2E2E770B50E46044610B37C
:10800000C06B00B3236CA3FB0035DDB900F06AFB45
:10801000D4E90F314B432268A563D0185B1A626024
:108020001A44FF23A06084F84430E26084F84530AD
:1080300056B104F11000FFF723FF04F12400FFF70D
:108040001FFF12E0002070BD236973B104F110001E
:10805000FFF79AFD48B14FF0E0234FF08052C3F88C
:10806000042DBFF34F8FBFF36F8F00F04BFB012048
:10807000E9E72DE9F0410D461746064618B90024F8
:108080002046BDE8F081A1FB0038B8F1000FF6D121
:10809000484310F1510FF2D8503000F02BFA04464B
:1080A0000028ECD080F846805DB100F1500301213A
:1080B0002046C4E90F652360FFF79EFF84F84C70EB
:1080C000DEE70346F3E72DE9FF41002704460E46AD
:1080D0001D46B846019200F005FBA26BE36B9A4285
:1080E0001BD22A4631462046FFF70AFF636A1BB1BE
:1080F00004F12400FFF748FD48B14FF0E0234FF0B2
:108100008052C3F8042DBFF34F8FBFF36F8F00F081
:10811000F9FA012004B0BDE8F081022DE1D0019B05
:108120001BB900F0EFFA0020F4E717B902A8FFF737
:1081300087FD00F0E7FAFFF775FB00F0D3FA94F83B
:108140004430FF2B08BF84F8448094F84530FF2B5F
:1081500008BF84F8458000F0D5FA01A902A8FFF70E
:108160007BFD38BB00F0BEFAA26BE36B9A420ED1E6
:1081700000F0C8FA019904F11000FFF7F5FC204661
:10818000FFF704FFFFF700FC48B10127A3E700F069
:10819000B9FA2046FFF7FAFEFFF7F6FBF5E74FF0D6
:1081A000E0234FF08052C3F8042DBFF34F8FBFF38D
:1081B0006F8FEAE72046FFF7E9FEFFF7E5FBB2E73E
:1081C000024610B500210120FFF753FF044638B1E5
:1081D00000231A46194683600360C360FFF773FFEC
:1081E000204610BDF8B5164604461A46EFF311872F
:1081F0004FF0500383F31188BFF36F8FBFF34F8F9E
:10820000806BE36B984201D3022A1BD194F845504E
:1082100020466DB2A36BFFF773FE6B1C0DD1636A32
:108220003BB104F12400FFF7AFFC10B10EB1012304
:108230003360012087F31188F8BD01356DB284F8F1
:108240004550F6E70020F5E738B50C46EFF3118509
:108250004FF0500383F31188BFF36F8FBFF34F8F3D
:10826000826BC36B934218D990F845100132FF29F5
:108270004BB282630CD1436A33B12430FFF784FCE4
:1082800010B10CB101232360012085F3118838BDA2
:1082900001335BB280F84530F6E70020F5E72DE9C1
:1082A000FF41002704460E46B846019200F01AFA34
:1082B000A56BE5B131462046013DFFF754FEA563AD
:1082C000236973B104F11000FFF75EFC48B14FF071
:1082D000E0234FF08052C3F8042DBFF34F8FBFF35C
:1082E0006F8F00F00FFA012004B0BDE8F081019B10
:1082F0001BB900F007FA0020F6E717B902A8FFF74C
:108300009FFC00F0FFF9FFF78DFA00F0EBF994F80D
:108310004430FF2B08BF84F8448094F84530FF2B8D
:1083200008BF84F8458000F0EDF901A902A8FFF725
:1083300093FC00BB2046FFF7D8FDB0B1019904F1D2
:108340002400FFF711FC2046FFF720FEFFF71CFB7F
:1083500048B94FF0E0234FF08052C3F8042DBFF32B
:108360004F8FBFF36F8F0127A0E72046FFF70EFE68
:10837000FFF70AFBF7E72046FFF708FEFFF704FBCD
:108380002046FFF7B2FD0028EDD0B4E7F0B5002598
:1083900004462F462E4685B0019100F0A3F9A36B49
:1083A000E3B1013BA363236813B9FFF75DFDA06050
:1083B000236973B104F11000FFF7E6FB48B14FF0F9
:1083C000E0234FF08052C3F8042DBFF34F8FBFF36B
:1083D0006F8F00F097F9012005B0F0BD019B1BB92C
:1083E00000F090F90020F7E717B902A8FFF728FC82
:1083F00000F088F9FFF716FA00F074F994F84430A9
:10840000FF2B08BF84F8446094F84530FF2B08BF69
:1084100084F8456000F076F901A902A8FFF71CFC7A
:1084200050BB2046FFF761FD00B323683BB900F065
:1084300059F9A068FFF74EFC054600F063F9019971
:1084400004F12400FFF790FB2046FFF79FFDFFF7A4
:108450009BFA48B94FF0E0234FF08052C3F8042D47
:10846000BFF34F8FBFF36F8F012796E72046FFF7CB
:108470008DFDFFF789FAF7E72046FFF787FDFFF745
:1084800083FA2046FFF731FD0028EDD0002DA9D05A
:1084900000F028F9616A19B1236B1968C1F1200154
:1084A000A068FFF7A1FC9BE710B5104B1A461B68AC
:1084B0008342FBD354681119884201BF41681046BA
:1084C00009195160446801198B420CD108490968A7
:1084D0008B4203D059682144416019689042016081
:1084E00018BF106010BD1946F8E700BF5C060020F9
:1084F000580600202DE9F0410546FFF793F9384969
:10850000384C0B680BBB384A384E50071FBFD01D84
:1085100020F0070002F52052131A0CBF4FF420532D
:10852000024600201344083B23F0070370603260CA
:10853000C3E90000981AC2E900300B602C4B1860A8
:108540002C4B18604FF000432360276817EA05049E
:1085500044D16B1E0A3308D86B0705F1080209D015
:1085600022F007030833934205D8FFF70DFA20469F
:10857000BDE8F0811346DFF87C80D8F800609E42A9
:108580002CD31A4A15686868984201D22C6814BB2B
:108590000968A94222D0296814681160C21A102AF9
:1085A00004F1080404D9E81842606B60FFF77CFF0F
:1085B00000236A680E49B61A17430F4A08682B60F1
:1085C0001368864203F10103C8F8006038BF0E60EB
:1085D0006F601360C9E72A462546D4E70024C4E744
:1085E0005806002044060020640600205C06002097
:1085F00050060020540600204C06002010B504460A
:1086000000B3114A50F8043C126813421AD050F8D3
:10861000081CB9B923EA020340F8043CFFF702F949
:108620000A4A54F8043C1168A4F108000B44136092
:10863000FFF73AFFBDE81040054A136801331360A5
:10864000FFF7A2B910BD00BF440600205406002069
:1086500048060020002382B001934FF0500383F3BB
:108660001188BFF36F8FBFF34F8F019B002BFCD09E
:1086700002B0704706480068006880F3088862B658
:1086800061B6BFF34F8FBFF36F8F00DF00BF0000F5
:1086900008ED00E04FF0807340F8043C054B21F0FA
:1086A000010140F8081C40F80C3C40F8202C4038F0
:1086B000704700BF55860008000000000000000061
:1086C000074B19680868B0E8F00F80F30988BFF31A
:1086D0006F8F4FF0000080F311884EF00D0E704741
:1086E000400600204FF0500383F31188BFF36F8FD3
:1086F000BFF34F8F024A136801331360704700BF06
:108700000C000020034A1368013B13600BB983F38C
:10871000118870470C0000200000000000000000DD
:10872000EFF30980BFF36F8F0D4B1A6820E9F00F4C
:1087300010602DE908404FF0500080F31188FFF7DA
:10874000CFF94FF0000080F31188BDE808401968A8
:108750000868B0E8F00F80F30988BFF36F8F7047A7
:108760004006002008B54FF0500383F31188BFF393
:108770006F8FBFF34F8FFFF75DF828B14FF0E02305
:108780004FF08052C3F8042D002383F3118808BDF5
:108790004FF0E02200234FF47A7113619361044B90
:1087A0001B68B3FBF1F3013B53610723136170476F
:1087B000080000204FF0E02310B50024D3F8202D4E
:1087C00042F47002C3F8202DD3F8202D42F07042FD
:1087D000C3F8202DFFF7DCFF044B1C60FFF74AFFB6
:1087E000FFF77EF9FFF736FF204610BD0C00002092
:1087F00000B5014689B000221C20FEF7DBFD1C20DD
:10880000FEF708FE164B01A9DA6903A842F001023F
:10881000DA61DA6902F001020292029ADB69FEF77C
:1088200045FBFEF723FB4FF080430E4A136040F2F6
:10883000E733D3600C4BB0FBF3F0002301385060FA
:108840001046136193609361FDF7F6FB28B9054864
:10885000FDF7FEFA09B05DF804FB0120FAE700BF5E
:1088600000100240642E002040420F00F0B5102698
:1088700089B0324600210DEB060003F0B5FB2C4B0E
:108880004FF460419A692B4832439A619A690024F7
:1088900032400092009A9A69012542F020029A61C2
:1088A0009A69022702F020020192019A9A6942F025
:1088B00004029A619A6902F004020292029A9A6989
:1088C00042F008029A619B69002203F008030393B7
:1088D000039BFEF7DDFB002231461748FEF7D8FB6D
:1088E0004FF460430DEB06011248CDE90435CDE9A4
:1088F0000647FEF7F9FA114B0DEB06010E48CDE9DC
:1089000005340495FEF7F0FA0DEB06010A48CDE9AF
:108910000465CDE90647FEF7E7FA22460521062061
:10892000FEF748FD0620FEF775FD09B0F0BD00BF5B
:10893000001002400010014000080140000011102A
:1089400008B50B490B4B4FF4E1320B600023C1E932
:1089500001230C220846C1E90333C1E90523CB6199
:10896000FDF732FC18B1BDE80840FDF718BA08BDA4
:10897000C02F00200038014008B50B490B4B4FF4C5
:10898000E1320B600023C1E901230C220846C1E952
:108990000333C1E90523CB61FDF716FC18B1BDE82F
:1089A0000840FDF7FCB908BD782F002000440040C6
:1089B000F0B51027054689B03A4600210DEB0700B7
:1089C00003F012FB2B68504A93425AD14F4B4FF49D
:1089D00000709A690DEB070142F480429A619A692E
:1089E000002602F480420092009A9A69484C42F0B4
:1089F00004029A619B6903F004030193019B022323
:108A0000CDE90403032343480793FEF76DFA4FF4BF
:108A1000806340480DEB0701CDE904360696FEF76A
:108A200063FA3D4B2046C4E900378023C4E905665C
:108A3000C4E90336A660E661FEF744FB08B1FDF722
:108A4000AEF900238022AC636562344C3449204681
:108A5000C4E90013C4E90323C4E90533A360E36157
:108A6000FEF730FB08B1FDF79AF9002225201146E8
:108A7000EC636562FEF79EFC2520FEF7CBFC09B097
:108A8000F0BD284A9342FAD1204B2248DA6904A962
:108A900042F40032DA61DA69002602F4003202920E
:108AA000029A9A69204C42F004029A619B6904225E
:108AB00003F004030393039B0223CDE90423032360
:108AC0000793FEF711FA0823124804A9CDE90436EA
:108AD0000696FEF709FA154B2046C4E900368023B6
:108AE000C4E90566C4E90336A660E661FEF7EAFA62
:108AF00008B1FDF754F9262000220421EC636562D9
:108B0000FEF758FC2620B8E700380140001002406C
:108B1000342F00200008014044000240F02E0020C5
:108B20005800024000440040AC2E00206C0002407F
:108B3000124B07B55A690E2042F001025A61002219
:108B40005B69114603F001030193019BFEF732FCC0
:108B50000E20FEF75FFC00220F201146FEF72AFCD4
:108B60000F20FEF757FC002210201146FEF722FCD2
:108B7000102003B05DF804EBFEF74CBC001002407F
:108B800000F008B8024B9868C0F3C010704700BFEF
:108B9000000C01401FB50E4B4FF0030C1A68C020AB
:108BA00022F001021A601A68112122F001021A60F3
:108BB00000238DE80B1069460648FEF795F940231F
:108BC000044A13618023136105B05DF804FB00BF04
:108BD00000540040000C01408023124A84B013610D
:108BE00000230193019B0E2B12DD40231361002310
:108BF0000293029B0E2B0EDD80230A4A5361002351
:108C00000393039B0E2B09DD4023536104B070478F
:108C1000019B0133E5E7029B0133E9E7039B013345
:108C2000EEE700BF000C01408023114A84B053617D
:108C300000230193019B0E2B10DD402313610023C1
:108C40000293029B0E2B0CDD8022094B1A6100233C
:108C50000393039B0E2B07DD04B07047019B013388
:108C6000E7E7029B0133EBE7039B0133F0E700BF2B
:108C7000000C01407FB50723802600214025124AC1
:108C800040FA03F4E4074CBF166156610191019C60
:108C90000E2C0DDD15610291029C0E2C0CDD556130
:108CA0000391039C0E2C0BDD013BE9D204B070BD97
:108CB000019C01340194EAE7029C01340294EBE741
:108CC000039C01340394ECE7000C0140802307B5BA
:108CD000094A13614023136100230193019B0E2B6A
:108CE00006DDFFF74FFF4023536103B05DF804FB3F
:108CF000019B0133F1E700BF000C014080220A4BC9
:108D000082B060B11A6140221A6100230193019B75
:108D10000E2B06DD4022044B5A6102B070475A61A7
:108D2000F1E7019B0133F1E7000C014000222DE93E
:108D3000F34180260446114640279046134D2E618C
:108D40002F61CDF80080009B0E2B16DDFFF71AFF78
:108D500018B146FA02F30B43D9B26F61CDF8048023
:108D6000019B0E2B0DDD0132082AE9D12046FFF7C9
:108D7000C5FF084602B0BDE8F081009B01330093B7
:108D8000E1E7019B01330193EAE700BF000C0140DA
:108D90002DE9F04104460F461646FFF71DFFD0208F
:108DA000FFF768FFFFF792FF28B1FFF73DFF0124AF
:108DB0002046BDE8F0812046FFF75CFFFFF786FF05
:108DC0000028F2D1FFF730FFFFF706FFD120FFF7B1
:108DD00051FFFFF77BFF04460028E6D1054606F168
:108DE000FF38A8EB050358425841FFF79FFF78551D
:108DF0000135B542F5D1FFF717FFD9E738B505467C
:108E00000C46FFF7E9FED020FFF734FFFFF75EFFC7
:108E100020B1FFF709FF0124204638BD2846FFF79F
:108E200029FFFFF753FF0028F3D12046FFF722FF69
:108E3000FFF74CFF04460028EBD1FFF7F5FEEBE708
:108E400007B501220DF107017520FFF7A1FF0146CB
:108E500010BB9DF80730682B1ED16B20FFF7CEFFAB
:108E6000D0B931211920FFF7C9FF0146A0B91C2054
:108E7000FFF7C4FF014678B91B20FFF7BFFF58B9C1
:108E800010213720FFF7BAFF30B90121382003B095
:108E90005DF804EBFFF7B2BF012003B05DF804FBFF
:108EA00007B5012275200DF10701FFF771FF20B909
:108EB0009DF8070003B05DF804FB0020FAE71FB53A
:108EC00004460E2269463B20FFF762FFD8B9BDF881
:108ED00000305BBA2380BDF802305BBA6380BDF816
:108EE00004305BBAA380BDF806305BBAA381BDF83D
:108EF00008305BBAE380BDF80A305BBA2381BDF865
:108F00000C305BBA638104B010BD00002DE9FF474F
:108F1000002406461A480F4690464FF0640A02F0B5
:108F2000FFFE2546A1466846FFF7C9FF50B9BDF9C7
:108F300000309944BDF902301D44BDF90430A3F559
:108F400080431C440A20FDF721FDBAF1010AEAD151
:108F5000642399FBF3F995FBF3F594FBF3F31BB250
:108F6000A6F800903D80A8F80030B7F90020B6F9C7
:108F70000010044804B0BDE8F04702F069BE00BF2D
:108F80006BDA000895DA0008012807B517D100232D
:108F900001930C4B01A91868FFF756F9019B4BB1DF
:108FA0004FF0E0234FF08052C3F8042DBFF34F8FF2
:108FB000BFF36F8F4FF480410348FEF76EF803B0A4
:108FC0005DF804FB140300200010014008B5FFF712
:108FD00051FEFFF77BFEBDE80840FFF725BE10B548
:108FE0000446FFF7F9FD7820FFF744FEFFF76EFE19
:108FF00018B1BDE81040FFF717BEFFF73BFEFFF7C3
:1090000065FE0028F5D12046BDE81040FFF7DEBF21
:1090100010B50446FFF7E0FD7820FFF72BFEFFF7C1
:1090200055FE18B1BDE81040FFF7FEBD4020FFF728
:1090300021FEFFF74BFE0028F4D12046BDE810408A
:10904000FFF7C4BF38B504460D46FFF7C5FD7820CD
:10905000FFF710FEFFF73AFE18B1BDE83840FFF702
:10906000E3BDFFF707FEFFF731FE0028F5D12544E9
:10907000A542F2D014F8010BFFF7FCFDFFF726FE26
:109080000028F5D0E9E710B50C465038C0B2FFF71C
:10909000A6FF04F00F00FFF7A2FF20091030BDE883
:1090A0001040FFF79CBF38B500250021E8B2FFF75C
:1090B000EAFF80240020013CFFF7AAFF14F0FF0420
:1090C000F8D10135082DF0D138BD000030B564204D
:1090D00089B0FDF75BFC0B4B01AA03F118051446A0
:1090E00018685968083303C4AB422246F7D11B887D
:1090F0001A21238001A8FFF7A5FF09B0BDE8304081
:10910000FFF7D1BF70D6000870B5064600250021D4
:10911000E8B2FFF7B8FF80243046013CFFF778FF44
:1091200014F0FF04F8D10135082DF0D170BD000016
:109130002DE9F04706460D460627DFF8408002F18C
:10914000FF3919F8013F0BB9BDE8F087203B5E2BD2
:10915000F7D829463046FFF796FF99F80030203BB4
:1091600007FB038303F1FF3A5C1D1AF8010FFFF7B9
:109170004FFFA245F9D10635EDB2E2E7C8E6000897
:1091800030B5044687B010460D46FCF7E1F9CDE94D
:1091900000010C21054A0DEB010002F0C9FD294632
:1091A000204603AAFFF7C4FF07B030BDD2DA00089B
:1091B00000B50C4D0C4C93B04FF0FF32286801A95C
:1091C000FFF76DF80128F7D1BDF84420074801A941
:1091D000FDF778F80028EFD14FF0FF312068FFF756
:1091E000D5F8E9E79030002088300020C02F00201B
:1091F00037B5174D2C6844BB032221460120FEF7EA
:1092000038FF144B186000B3224642211020FEF7AD
:1092100030FF286040B10223802200930E4923468C
:109220000E480194FEF795FA002242210820FEF72D
:1092300020FF0B4B186040B1022200230949CDE901
:10924000002309488022FEF784FA03B030BD00BF36
:109250009030002088300020D7DA0008B191000853
:109260008C300020DEDA0008319300082DE9F0414F
:10927000DFF860800F46D8F80030144692B01BB17A
:10928000FEF718FD022822D04FF0FF33394612486E
:10929000A2B2FCF7C8FF204612B0BDE8F081661B01
:1092A000402E28BF40267919324601A802F081FFDE
:1092B00000230A22D8F8000001A9ADF84460FEF7A7
:1092C00002FF0128E7D13544AC42E8D8E3E70025A6
:1092D000FAE700BF90300020C02F002007B50D4BEB
:1092E00002689A4213D10C4B186880B1002301A97F
:1092F0000193FEF7A9FF019B4BB14FF0E0234FF024
:109300008052C3F8042DBFF34F8FBFF36F8F03B0AC
:109310005DF804FB003801408830002080220249BB
:109320000248FDF7E3BA00BF08300020C02F00203C
:1093300000B593B0FFF7F2FF0A4C4FF0FF32206800
:1093400001A9FEF7ACFF0128F7D10022BDF8443097
:1093500001A948336B44044803F8442C02F078FC1C
:10936000EBE700BF8C300020E5DA00082DE9F04182
:1093700002681C4B0E469A4292B02FD171B31A4F1D
:109380003B685BB30024DFF864800094351BADB20A
:10939000402D28BF402508EB04012A4601A82C4493
:1093A00002F007FFA4B200236A46386801A9ADF8AD
:1093B0004450FEF717FFA642E8D880220B490C481C
:1093C000FDF794FA009B4BB14FF0E0234FF0805231
:1093D000C3F8042DBFF34F8FBFF36F8F12B0BDE8FA
:1093E000F08100BF003801408C30002008300020A0
:1093F000C02F0020094B1A8892B262B10848198820
:10940000028889B292B2914202D10020188070473E
:109410001B889BB203800120704700BF983000205A
:10942000963000204FF4806208B50021034802F016
:10943000DBFD0022024B1A8008BD00BF9A300020DD
:109440009830002070B504460E46FBF761FE4FF0E1
:10945000FF3382B221460D48FCF7E5FEC825FFF731
:10946000C9FF044640B93146094802F007FE18B169
:10947000FFF7D8FF204670BD0A20013DFDF786FAB0
:1094800015F0FF05EBD10124F4E700BF782F002091
:109490009A30002030B50C4689B00546FFF7C2FF70
:1094A000202123466846084A02F042FC68460749E4
:1094B000FFF7C8FF30B94FF0FF3322462946044872
:1094C000FCF7B1FE09B030BDEFDA0008FFDA0008A2
:1094D000782F002010B50446FFF78CFF60B90B49C8
:1094E0000B4802F0CBFD38B13A2102F094FD50B1A7
:1094F000013010BD1C46EFE70520FDF747FA631E5B
:109500009BB2002CF6D10020F3E700BF01DB00087E
:109510009A30002000B5A3B0FFF784FF274802F07F
:10952000FFFB27492748FFF78DFF00282DD126484C
:1095300002F0F6FB22492548FFF784FF50BB244880
:1095400002F0EEFB1E492348FFF77CFF38BB2248A0
:1095500002F0E6FB1A492148FFF774FF20BB2048C0
:1095600002F0DEFB1F4B802100931F4A1F4B02A815
:1095700002F0DEFB1E4902A8FFF764FFC8B91D48D0
:1095800002F0CEFB23B05DF804FB4FF4FA70FDF758
:10959000FDF9C6E74FF4FA70FDF7F8F9CAE74FF4A2
:1095A000FA70FDF7F3F9CDE74FF4FA70FDF7EEF935
:1095B000D0E74FF4FA70FDF7E9F9DBE706DB0008C6
:1095C00013DB000816DB00081BDB00082ADB0008A1
:1095D00031DB000844DB000852DB000863DB0008D5
:1095E00073DB0008A2DB00088DDB000883DB0008CA
:1095F000ACDB0008B3DB000802680C4B9A4214D1C4
:109600000B4A13889BB2B3F5806F24BF00231380ED
:1096100013889BB2591C89B211800649064A087802
:10962000D05401220548FDF704B9704700440040BA
:1096300098300020943000209A300020782F0020AD
:10964000012202490248FDF7F4B800BF943000201F
:10965000782F00202DE9F04F0024D7B098469DF8D0
:109660008C310E4617460546BDF88891079309943C
:10967000002800F0E180002900F0DE806F4B9A4264
:1096800040F2DA80B8F1000F00F0D680619B002B29
:1096900000F0D280B9F1770F40F2CE80402221460F
:1096A00034A802F0A1FC4046FBF732FD43464021BE
:1096B000009009AA34A800F089FB4822214644A85A
:1096C00002F092FC079A5E4B002A65D00093482175
:1096D0003B46CDE901655B4A44A802F029FB0DF148
:1096E000900A40220021504602F07EFC34A8FBF78D
:1096F0000FFD044644A8FBF70BFD2146002403465A
:109700000DF1500844AA34A8CDF800A000F026FDC1
:10971000402221464046099402F066FC5046FBF781
:10972000F7FC53464021009009AA404600F0D0FAC9
:109730004046FBF7EDFC1B2852D9C3B20DF1280AB5
:10974000069351464346224693F800C0013401F87F
:1097500001CBDDF818C0E4B2A44503F8012BF3D81F
:109760004FF0000B5C460AAB1A541AF8012B14ABED
:109770002F2A03EB0B001BD81F2A1DD9A2F12001B1
:109780000F2919D8DFE801F03D181845184347188C
:109790001818181C1818183F609A0093CDE9016238
:1097A0003B464821284A039544A802F0C1FA96E7AF
:1097B0003D2A32D03F2A28D002700BF1010304E089
:1097C000224902F019FC0BF103035FFA83FB013419
:1097D000069BE4B2A342C8D8002214AB03F80B20C6
:1097E000079A174BDAB1CDE9023849462B46CDE945
:1097F0000067174A619802F09BFA002057B0BDE855
:10980000F08F1449DDE71449DBE71449D9E714491F
:10981000D7E71449D5E71449D3E71449D1E7CDE98F
:109820000338609B4946CDE90063114A2B46619895
:10983000029702F07DFAE0E70120DFE79454415DF2
:10984000D7DB0008C2DB0008DCDB0008FCDB00081B
:109850001CDC000800DC000804DC000808DC000850
:109860000CDC000810DC000814DC000818DC000820
:1098700052DC000870B50B25AEB02A492A48FFF724
:10988000E1FD044600283ED1902301250AAECDE932
:109890000235CDE90006254B254A26492648FFF723
:1098A000D9FE264B4FF4007101930D23244A0093F7
:1098B0002448334602F03CFA2248FBF729FC81B2E7
:1098C0002048FFF7E7FDFA20FFF704FE40B31E49EA
:1098D00002F0D4FB20B31D4E05AB00931C4A1D497A
:1098E000019606AB059402F07BFA042818D1059B7B
:1098F00017491948009606AA02F0AAF9174918480C
:10990000FFF7A0FD04E0013D05D1164802F008FA7A
:1099100020462EB070BD4FF4FA70FDF737F8ACE773
:109920002C46EBE7B8DC0008C0DC0008EEDC0008E1
:1099300000CF9D741BDD000826DD0008C0DD000897
:1099400031DD00089A340020C3DD00089A3600207B
:10995000CA360020CDDD000816DE000813DB000843
:109960003CDE000899DC0008F0B5B3B006AE10226A
:109970000021304602F038FB0025A023374C0AAF07
:10998000CDE90235364A374B3749384801970094BC
:10999000FFF760FE2146344A354802F059F939464E
:1099A000344802F055F934493448FFF74BFD04467A
:1099B00038BB0123CDE90406CDE9020001900093F4
:1099C00039464FF48073254A274800F0ADFD002842
:1099D00040D1BDF81C100698FFF75CFDFA20FFF798
:1099E00079FD054650B300F073FD022826D12846C4
:1099F00000F0CEFE05282BD8DFE800F0141D22244D
:109A0000262801350B2D294604D11D4802F020F9E6
:109A100001240DE01B4802F01BF94FF4FA70FCF72B
:109A2000B5FFC0E7184802F07BF9304600F051FC62
:109A3000204633B0F0BD154802F072F90124F4E776
:109A40001348F9E71348F7E71348F5E71348F3E736
:109A50001348F1E7134802F063F9D9E7C0DD0008C5
:109A600000CF9D74EEDC00081BDD000826DD000839
:109A70004ADE000865DE0008B8DC0008C0DC00082B
:109A80007ADE0008ACDE0008C7DE0008E1DE000870
:109A900000DF00081DDF00083ADF000858DF00087B
:109AA00072DF000890DF000870B5D2B002AC10225F
:109AB0000021204602F098FA4FF48072002112A88B
:109AC00002F092FA3D4B3E491868FBF729FBFBF781
:109AD000A5FE05463B4912A802F063FB3022002197
:109AE00006A802F081FA384A384906A802F056F969
:109AF00006A912A802F080FA3022002106A802F07E
:109B000073FA0222324906A802F048F906A912A8FF
:109B100002F072FA3022002106A802F065FA2A4605
:109B20002C4906A802F03AF906A912A802F064FA34
:109B30003022002106A802F057FA0322264906A87F
:109B400002F02CF906A912A802F056FA30220021E0
:109B500006A802F049FA6422204906A802F01EF97C
:109B600006A912A802F048FA1D4912A802F044FA08
:109B700012A8FBF7CDFAF8B105B200232A4619491D
:109B80001948009400F010FEB0B912ABD4E90012ED
:109B90000130561C666000B213F8016B85428E548A
:109BA000F4DCA1882068FFF775FC61680F4802F0BB
:109BB0004FF8204600F08DFB52B070BD0803002026
:109BC00000007A44B4DF0008CBDF0008D1DF0008D2
:109BD000E5DF0008FCDF000812E0000828E00008CC
:109BE0003DE00008C0DD00081BDD000840E0000883
:109BF000F0B59DB004AC304F08AD102200212046D6
:109C000002F0F2F92D4B2E4A502128460097039579
:109C100002F08EF829462B4802F01AF801230021A1
:109C20001420009403AA00F0DBFD38B90498BDF8B5
:109C30001410FFF72FFC204600F04BFB00261F4BB3
:109C4000214A502128460097CDE9046602F070F8B9
:109C500029461C4801F0FCFF0123314615200094E1
:109C600003AA00F0BDFD38B90498BDF81410FFF741
:109C700011FC204600F02DFB0026104B134A50210A
:109C800028460097CDE9046602F052F829460D48AF
:109C900001F0DEFF012331461620009403AA00F0F4
:109CA0009FFD38B90498BDF81410FFF7F3FB204668
:109CB00000F00FFB1DB0F0BDC0DD00081BDD00088B
:109CC00059E0000877E0000890E00008ACE00008E8
:109CD0002DE9F043079D15B91560002012E003241B
:109CE000B5FBF4F404EB4407BD4218BF0134B4F1F2
:109CF000804F09D2A40001348C4200D838B96FF0EB
:109D000029001460BDE8F0834FF0FF34F7E7044604
:109D10000021DFF8B4E0B94203F1030C04F10406BA
:109D20002BD3A942274623D201F1010CAC451F7861
:109D300028BF002324494FEAA70E38BF5B7811F8EB
:109D40000EE0AC4584F800E001EB131E2EBF3D236E
:109D50009B0003F03C034FEA071738BFCB5C07F0CA
:109D600030071EF80770A3703D2367703746E37015
:109D70000023381A10603B70AFE71CF8034C1CF846
:109D8000023C4FEAA4091EF8099024011CF8018C3A
:109D900004F0300406F8049C0EEB131919F8044083
:109DA0009B0006F8034C03F03C030EEB9814E35CB5
:109DB00008F03F0806F8023C1EF80830344606F862
:109DC000013C03316346A6E782E900082DE9F04330
:109DD00000273C463E46DDF81CE0DFF81C81764556
:109DE00026D3D4BB00201460BDE8F083013575454F
:109DF00031D013F805C0BCF1200FF7D0AEEB050948
:109E0000B9F1010F16D0BCF10D0F13D103EB050909
:109E100099F80190B9F10A0F1BD0B54205D1BCF1F8
:109E20003D0F0AD10137022F0AD96FF02B00DBE773
:109E30003546DCE7BCF10A0FEEE71CF0800FF4D1E9
:109E400018F80C607F2EF0D03F2E01D8002FECD1F7
:109E500001346E1CC3E72E46C3E74FF0060C04F036
:109E60000705E4080CFB05F50CFB04F40735E41BBF
:109E700004EBD50470B18C420CD8002701460325B1
:109E80003C46DFF874E0DFF874801E44B34205D12D
:109E90000C1AA7E76FF029001460A5E713F8019BDF
:109EA000A9F10A0C5FFA8CFCBCF1160F04D828FA51
:109EB0000CFC1CF0010FE9D11EF809C00134BCF103
:109EC000400F08BF013D0CF03F0C042C4CEA8717F3
:109ED000DCD17DB13C0C012D0C7002D1013100248C
:109EE000D4E7022D4FEA17244C7016BF8F70023151
:109EF0000331F4E72C46C9E702E9000809004000F5
:109F0000132810B506DC23EA0103114083EA01049B
:109F1000204610BD272803DC5A4082EA0104F7E7F7
:109F20003B2805DC82EA03040C401A405440EFE76A
:109F30004F28F1DDECE700001328024608DD272852
:109F400008DD3B2808DD05484F2AC8BF00207047C0
:109F5000034870470348704703487047D6C162CA38
:109F60009979825AA1EBD96EDCBC1B8F012310B505
:109F7000C0F12004A3405A1E5B420A400B4002FA83
:109F800000F0E340184310BD2DE9F04F01F1090343
:109F9000D9B003901846002BB8BF01F148008011DA
:109FA0000290584200F03F0003F03F034FF00005DD
:109FB00058BF43420846002BC8BF029B1446C4BF8B
:109FC00001330293029BCA009B0183424BDC802039
:109FD000039D5D4E68542B44110A03F8012C03F8CD
:109FE000021C110C120E03F8031C03F8042C0023AE
:109FF000564D574FDFF85C81DFF85C910193DDE946
:10A000000132934233DB4FEA1923A3704FEA19431D
:10A0100063704FEA1823A3714FEA184363713B0A38
:10A02000A3723B0C6372330AA373330C63732B0A62
:10A0300084F8039084F807804FEA19694FEA18689A
:10A04000E772E6733F0E360EE574A3742B0C2D0EEB
:10A0500084F8009084F80480277226736374257452
:10A0600059B0BDE8F08F039E35540130ADE7039B36
:10A07000019A0DF1200B03EB821A00230F2B4CD811
:10A080009AF801009AF80020000400EB02609AF8A8
:10A09000032010449AF8022000EB02200133502BD9
:10A0A0004BF8040B0AF1040AE8D133463A464FF064
:10A0B000000A0595CDF81080CDF800900099052094
:10A0C000CDE90623FFF752FFDDE906230499834615
:10A0D0005046FFF715FF83445046FFF72DFF08ABAE
:10A0E00053F82A108344059B8B441E2004999B44FB
:10A0F000FFF73CFF009B0AF1010A0493079BBAF1AA
:10A10000500F069A059319D100991D44019BD9441B
:10A11000884407441644013370E75BF8202C5BF851
:10A120000C1C012051405BF8382C009351405BF827
:10A13000402C5140FFF71AFF009BAFE71346CDF8C4
:10A1400000B00246BAE700BF76543210F0E1D2C345
:10A15000FEDCBA9889ABCDEF012345672DE9F043CA
:10A160000D46ADF29C5D044690460021402201A8B8
:10A170001F46DDF8B86501F037FF402D6FD008DCD1
:10A18000002301AAAB4217DAE15C013302F8011B9C
:10A19000F8E7324629462046FFF7F6FE334601AA85
:10A1A00006F11005144618685968083303C4AB4219
:10A1B0002246F7D1186820600DF1040911AA48461B
:10A1C0000023144610F8011B013381F03601402BA7
:10A1D00002F8011BF6D146AD0FCC0FC50FCC0FC551
:10A1E0000FCC0FC594E80F0085E80F0000230DF297
:10A1F0005712BB423FDB324607F1400146A8FFF74A
:10A20000C3FE21AA0023144619F8011B013381F073
:10A210005C01402B02F8011BF6D131AD0FCC0FC50C
:10A220000FCC0FC50FCC0FC594E80F0085E80F00C9
:10A23000334641AA06F110051446186859680833D8
:10A2400003C4AB422246F7D118683246206054213D
:10A2500031A8FFF799FE0DF29C5DBDE8F08301AADD
:10A2600004F14005134620686168083403C3AC421A
:10A270001A46F7D1A0E718F80310013302F8011FBE
:10A28000B7E770B5056804460E4695B90123037318
:10A290000846FEF72FF9206030B12B462946C4E965
:10A2A0000156A268934200D370BD2268D154013395
:10A2B000F7E70223037300231A46A168994204D8E2
:10A2C000B142626038BF2260EEE72168CA540133B0
:10A2D000F3E710B5037B0446012B02D10068FEF7BB
:10A2E0008DF900232373C4E90033A36010BD034636
:10A2F0000120DAB2DB0909D0013062F07F020528C3
:10A3000001F8012BF5D14FF0FF3070470A7070470C
:10A310002DE9F04F1646002585B09946CDE901019B
:10A320009DF83830109C0093029B5F5D8FBB0F9BA4
:10A3300005EB090A002B009B14BF4FF0310B4FF0C7
:10A34000300B012B2BD0022B2ED0002B40F09E8007
:10A350000AF1020A002E50D03378022B3DD1731E31
:10A360001A4613F8011F7D29FAD1C6F10608904458
:10A37000C9F1030252444244114620460392FFF7BA
:10A3800080FF2068039A90B90427384605B0BDE8DD
:10A39000F08F07F0F707232F76D00135C4E74BF095
:10A3A000020B0AF1040AD5E74BF0040BF9E7002190
:10A3B00001F01AFED4E90023591C616002F803B0D1
:10A3C000D4E9001350461944FFF791FF431C20D1F4
:10A3D0002046FFF77EFF0527D7E70AF1050820464C
:10A3E0004146FFF74EFF20680028CDD042460021AD
:10A3F00001F0FAFD4FF00008DCE70AF105082046FD
:10A400004146FFF73EFF20680028BDD04246314656
:10A41000EEE763681844421C236862602A0A1A54F3
:10A42000D4E90023591C6160D554D4E900032A46BD
:10A430001844029901F0FCFD63681D44009B6560AF
:10A440005BB16A1C6260019A2368120A5A55D4E90A
:10A450000023591C61600199D154002E95D0D4E994
:10A46000000318443378022B07D14246314601F0ED
:10A47000A0FE63684344636087E74A46314601F0C3
:10A4800098FE63684B44F6E702277EE703277CE7E4
:10A49000002370B50124136001388B4202DB4FF0BA
:10A4A000FF300CE010F8016F156806F07F0604FB22
:10A4B0000655156090F90050002D01DB581C70BD49
:10A4C000022B02D0E4010133E7E76FF00100F6E769
:10A4D00073B5067805463409631E0D2B1FD8032C6F
:10A4E0001AD1002301AA042101300193FFF7D0FF04
:10A4F000019A012A13D9F30711D4431CE818EB5A27
:10A500005BBA9BB202339A4209D30649023001F08A
:10A51000B5FD002818BF0F24204602B070BDFF24EF
:10A52000FAE700BFC9E000082DE9F04F804685B08A
:10A5300010460E469B460192FAF7EAFD9DF8382038
:10A54000109B520082469DF83C50DDF84490139CCD
:10A5500081B2D7B2002B40D101F1110305EB4505C3
:10A56000129A47EA85059BB2EDB20AB145F024057F
:10A570000293B8F1000F00F00481002E00F0018179
:10A580004046FAF7C5FD07463046FAF7C1FD029B83
:10A5900004333B4403449FB220463946FFF771FE23
:10A5A0002068002800F0EF803A46002101F01CFDF1
:10A5B000D4E90023591C61601021D154D4E900135F
:10A5C000781F1944FFF793FE421C17D12046FFF76E
:10A5D00080FE052005B0BDE8F08F10980391FAF7D2
:10A5E00097FD02904846FAF793FD0399029B1531B7
:10A5F0000144DBB247F004070B44AFE763680FFA8E
:10A600008AF71844421C6260002223681A54D4E975
:10A6100000214B1C636004235354D4E90021481CDF
:10A6200060604D205054D4E90021481C60605120E6
:10A630005054D4E90021481C606054205054616893
:10A640004A1C626022685054D4E90021481C6060B2
:10A650005354D4E90023591C616065F03F01D15483
:10A66000D4E90023591C61604FEA1B21D154D4E97D
:10A670000023591C616002F803B0D4E90023591C7F
:10A6800061604AF30721D154D4E90023591C616069
:10A6900002F803A0D4E900033A461844019901F0F6
:10A6A000C7FC63681F446B07676036D5374B10984B
:10A6B000B9F1000F08BF9946FAF72AFD23687A1C02
:10A6C0006260C0F30722DA55D4E90023591C6160A7
:10A6D00085B2D05410992A46D4E90003184401F0F9
:10A6E000A7FC636848461D446560FAF711FD2368BE
:10A6F0006A1C6260C0F307225A55D4E90023591C32
:10A70000616087B2D054D4E900033A461844494600
:10A7100001F08EFC63681F4467604046FAF7F8FC5E
:10A7200023687A1C6260C0F30722DA55D4E900235B
:10A73000591C616085B2D0544146D4E900032A46D1
:10A74000184401F075FC636830461D446560FAF7F3
:10A75000DFFC23686A1C6260C0F307225A55D4E903
:10A760000023591C616085B2D054D4E900032A4605
:10A770001844314601F05CFC636800202B446360A0
:10A7800028E7032026E7042024E700BFDAE10008D9
:10A790004378022B04D18378012B03D8C07870470B
:10A7A00001207047FF20704710B590B00346144653
:10A7B00000910A4A302104A801F0BAFA129B002243
:10A7C0000293012304A9CDE900320A202346FFF7B2
:10A7D0009FFD003818BF012010B010BDCFE0000869
:10A7E0002DE9F84F0A9C0F4615461E468146002863
:10A7F0005FD093464FF0000A02EB8308C3451ED199
:10A8000006EB460656442046F11DFFF73AFD226846
:10A8100006F1020A002A50D063685046591C616054
:10A820008221D154D4E900131944FFF760FD431C81
:10A830000DD12046FFF74DFD0420BDE8F88F5BF8F1
:10A84000040B002837D0FAF763FC8244D6E763682C
:10A850001844421C236862604FEA19221A54D4E952
:10A860000023591C616002F80390454501D1002086
:10A87000E3E72868FAF74CFCD4E900238146591C29
:10A880006160010AD154D4E90023591C6160D0549D
:10A89000D4E900604A4655F8041B304401F0C8FB77
:10A8A00063689944236809F10102626003F8097042
:10A8B000DBE70120C1E70220BFE70320BDE707B5C2
:10A8C000FDF7F8F9022805D1062003B05DF804EB86
:10A8D000FDF7EEB8062300210191019AB2F5FA6F57
:10A8E00004D3013BF8D103B05DF804FB019A0132B7
:10A8F0000192F2E770B5184E05460C4630686421A7
:10A90000FDF744FD012824D1FEF766F9A020FEF7EB
:10A91000B1F9FEF7DBF960B10024FEF785F90023F9
:10A9200030681A461946FDF7CEFBFFF7C8FF2046F0
:10A9300070BD2846FEF79EF9FEF7C8F90028EBD156
:10A940002046FEF797F9FEF7C1F9B0FA80F46409E2
:10A95000E3E70024EBE700BF180300202DE9F74FE1
:10A96000054616468A46B9B38318B3F5807F33DCB3
:10A970004FF00008DFF8B0900EB901202DE005F08F
:10A980000704C4F10804E4B2B4424FF06401D9F8FA
:10A99000000088BFF4B2FDF7F9FC01281CD1FEF7D6
:10A9A0001BF9A020FEF766F9FEF790F9834618B16F
:10A9B000FEF73AF9002309E02846FEF75BF9FEF7B7
:10A9C00085F9074660B1FEF72FF95B461A4619462E
:10A9D000D9F80000FDF777FB002003B0BDE8F08F49
:10A9E0000AEB080313F8010B0193FEF743F9FEF796
:10A9F0006DF9019B83460028DAD10137FFB2BC42D2
:10AA0000F0D1FEF711F9A0445B465A465946254459
:10AA1000D9F80000341BFDF756FB5FFA88F8FFF702
:10AA20004EFFEDB2A6B2A7E7180300202DE9F843C8
:10AA3000074616460C46D9B18318B3F5807F17DC5C
:10AA4000264D64212868FDF7A1FC012810D1FEF7EE
:10AA5000C3F8A020FEF70EF9FEF738F9804650B192
:10AA6000FEF7E2F800231A4619462868FDF72BFB8B
:10AA70000020BDE8F8833846FEF7FCF8FEF726F91B
:10AA800018B1FEF7D1F84346EDE7FEF7A5F8A1208F
:10AA9000FEF7F0F8FEF71AF90028E1D104F1FF38CB
:10AAA000771EC4F1010909EB08039F4210DC012065
:10AAB000FEF73CF9002E08BF0027E055FEF7B4F87A
:10AAC000002328681A461946FDF7FDFA0120D0E751
:10AAD0000020FEF72BF908F8010FE4E71803002027
