:020000040800F2
:1000000000500020E9680008091300080B130008DD
:100010000D1300080F130008111300080000000062
:10002000000000000000000000000000E1420008A5
:100030001313000800000000414300088543000836
:100040003169000831690008316900083169000828
:10005000316900083169000815130008316900088A
:100060003169000831690008316900083169000808
:1000700031690008316900082113000831130008B4
:10008000411300083169000831690008316900082E
:1000900031690008316900083169000831690008D8
:1000A00031690008316900083169000831690008C8
:1000B00051130008316900083169000831690008EE
:1000C00031690008316900083169000831690008A8
:1000D00031690008611300087113000831690008D4
:1000E000316900083169000831690008000000002A
:1000F0000000000000000000000000000000000000
:0C01000000000000000000005FF808F1A3
:10011000034613F8012B002AFBD1181A0138704747
:100120004FF0FF0C1CEAD0521EBF1CEAD15392EADA
:100130000C0F93EA0C0F6FD01A4480EA010C4002B6
:1001400018BF5FEA41211ED04FF0006343EA501010
:1001500043EA5111A0FB01310CF00040B1F5000F52
:100160003EBF490041EAD3715B0040EA010062F101
:100170007F02FD2A1DD8B3F1004F40EBC25008BFEB
:1001800020F00100704790F0000F0CF0004C08BF09
:1001900049024CEA502040EA51207F3AC2BFD2F1D6
:1001A000FF0340EAC250704740F400004FF00003E4
:1001B000013A5DDC12F1190FDCBF00F0004070471E
:1001C000C2F10002410021FA02F1C2F1200200FA5C
:1001D00002FC5FEA310040F1000053EA4C0308BF23
:1001E00020EADC70704792F0000F00F0004C02BF74
:1001F000400010F4000F013AF9D040EA0C0093F0EF
:10020000000F01F0004C02BF490011F4000F013B48
:10021000F9D041EA0C018FE70CEAD15392EA0C0FB6
:1002200018BF93EA0C0F0AD030F0004C18BF31F021
:10023000004CD8D180EA010000F00040704790F0F7
:10024000000F17BF90F0004F084691F0000F91F09B
:10025000004F14D092EA0C0F01D142020FD193EA61
:100260000C0F03D14B0218BF084608D180EA0100E9
:1002700000F0004040F0FE4040F40000704740F0C5
:10028000FE4040F44000704781F0004102E000BFB2
:1002900083F0004330B54FEA41044FEA430594EA46
:1002A000050F08BF90EA020F1FBF54EA000C55EA81
:1002B000020C7FEA645C7FEA655C00F0E2804FEA52
:1002C0005454D4EB5555B8BF6D420CDD2C4480EA34
:1002D000020281EA030382EA000083EA010180EA64
:1002E000020281EA0303362D88BF30BD11F0004FB2
:1002F0004FEA01314FF4801C4CEA113102D04042E8
:1003000061EB410113F0004F4FEA03334CEA133322
:1003100002D0524263EB430394EA050F00F0A7803A
:10032000A4F10104D5F1200E0DDB02FA0EFC22FA35
:1003300005F2801841F1000103FA0EF2801843FA29
:1003400005F359410EE0A5F120050EF1200E012A1A
:1003500003FA0EFC28BF4CF0020C43FA05F3C01858
:1003600051EBE37101F0004507D54FF0000EDCF1D1
:10037000000C7EEB00006EEB0101B1F5801F1BD37A
:10038000B1F5001F0CD349085FEA30004FEA3C0C7E
:1003900004F101044FEA445212F5800F80F09A8074
:1003A000BCF1004F08BF5FEA500C50F1000041EB78
:1003B000045141EA050130BD5FEA4C0C404141EB7C
:1003C0000101013C28BFB1F5801FE9D291F0000F77
:1003D00004BF01460020B1FA81F308BF2033A3F126
:1003E0000B03B3F120020CDA0C3208DD02F1140C1D
:1003F000C2F10C0201FA0CF021FA02F10CE002F158
:100400001402D8BFC2F1200C01FA02F120FA0CFC50
:10041000DCBF41EA0C019040E41AA2BF01EB045199
:10042000294330BD6FEA04041F3C1CDA0C340EDC97
:1004300004F11404C4F1200220FA04F001FA02F3DA
:1004400040EA030021FA04F345EA030130BDC4F198
:100450000C04C4F1200220FA02F001FA04F340EA8D
:100460000300294630BD21FA04F0294630BD94F03E
:10047000000F83F4801306BF81F480110134013D25
:100480004EE77FEA645C18BF7FEA655C29D094EA96
:10049000050F08BF90EA020F05D054EA000C04BF14
:1004A0001946104630BD91EA030F1EBF00210020FF
:1004B00030BD5FEA545C05D14000494128BF41F09E
:1004C000004130BD14F580043CBF01F5801130BD02
:1004D00001F0004545F0FE4141F470014FF000008D
:1004E00030BD7FEA645C1ABF194610467FEA655C3E
:1004F0001CBF0B46024650EA013406BF52EA0335E0
:1005000091EA030F41F4002130BD00BF90F0000FCD
:1005100004BF0021704730B54FF4806404F1320409
:100520004FF000054FF0000150E700BF90F0000FC2
:1005300004BF0021704730B54FF4806404F13204E9
:1005400010F0004548BF40424FF000013EE700BFB9
:1005500042004FEAE2014FEA31014FEA02701FBF49
:1005600012F07F4393F07F4F81F06051704732F07B
:100570007F4208BF704793F07F4F04BF41F40021D2
:10058000704730B54FF4607401F0004521F0004130
:100590001CE700BF50EA010208BF704730B54FF0BA
:1005A00000050AE050EA010208BF704730B511F0BB
:1005B000004502D5404261EB41014FF4806404F1F3
:1005C00032045FEA915C3FF4D8AE4FF003025FEA79
:1005D000DC0C18BF03325FEADC0C18BF033202EBFD
:1005E000DC02C2F1200300FA03FC20FA02F001FA57
:1005F00003FE40EA0E0021FA02F11444BDE600BFFA
:1006000070B54FF0FF0C4CF4E06C1CEA11541DBFA8
:100610001CEA135594EA0C0F95EA0C0F00F0DEF873
:100620002C4481EA030621EA4C5123EA4C5350EA58
:10063000013518BF52EA033541F4801143F48013A9
:1006400038D0A0FB02CE4FF00005E1FB02E506F03A
:100650000042E0FB03E54FF00006E1FB03569CF08F
:10066000000F18BF4EF0010EA4F1FF04B6F5007F95
:1006700064F5407404D25FEA4E0E6D4146EB060607
:1006800042EAC62141EA55514FEAC52040EA5E5090
:100690004FEACE2EB4F1FD0C88BFBCF5E06F1ED83A
:1006A000BEF1004F08BF5FEA500E50F1000041EB71
:1006B000045170BD06F0004646EA010140EA02001E
:1006C00081EA0301B4EB5C04C2BFD4EB0C0541EA40
:1006D000045170BD41F480114FF0000E013C00F355
:1006E000AB8014F1360FDEBF002001F0004170BD79
:1006F000C4F10004203C35DA0C341BDC04F1140492
:10070000C4F1200500FA05F320FA04F001FA05F21D
:1007100040EA020001F0004221F0004110EBD370EA
:1007200021FA04F642EB06015EEA430E08BF20EA16
:10073000D37070BDC4F10C04C4F1200500FA04F3B9
:1007400020FA05F001FA04F240EA020001F000414B
:1007500010EBD37041F100015EEA430E08BF20EABE
:10076000D37070BDC4F1200500FA05F24EEA020E06
:1007700020FA04F301FA05F243EA020321FA04F035
:1007800001F0004121FA04F220EA020000EBD370EC
:100790005EEA430E08BF20EAD37070BD94F0000FEC
:1007A0000FD101F00046400041EB010111F4801F20
:1007B00008BF013CF7D041EA060195F0000F18BFD1
:1007C000704703F00046520043EB030313F4801F0D
:1007D00008BF013DF7D043EA0603704794EA0C0FC7
:1007E0000CEA135518BF95EA0C0F0CD050EA4106DD
:1007F00018BF52EA4306D1D181EA030101F000415A
:100800004FF0000070BD50EA410606BF1046194681
:1008100052EA430619D094EA0C0F02D150EA01368D
:1008200013D195EA0C0F05D152EA03361CBF1046CE
:1008300019460AD181EA030101F0004141F0FE416D
:1008400041F470014FF0000070BD41F0FE4141F4F1
:10085000780170BD70B54FF0FF0C4CF4E06C1CEAF1
:1008600011541DBF1CEA135594EA0C0F95EA0C0FA6
:1008700000F0A7F8A4EB050481EA030E52EA033561
:100880004FEA013100F088804FEA03334FF0805582
:1008900045EA131343EA12634FEA022245EA1115AF
:1008A00045EA10654FEA00260EF000419D4208BF60
:1008B000964244F1FD0404F5407402D25B084FEA0D
:1008C0003202B61A65EB03055B084FEA32024FF4B9
:1008D00080104FF4002CB6EB020E75EB030E22BF16
:1008E000B61A754640EA0C005B084FEA3202B6EBD6
:1008F000020E75EB030E22BFB61A754640EA5C0085
:100900005B084FEA3202B6EB020E75EB030E22BF14
:10091000B61A754640EA9C005B084FEA3202B6EB15
:10092000020E75EB030E22BFB61A754640EADC00D4
:1009300055EA060E18D04FEA051545EA16754FEA36
:1009400006164FEAC30343EA52734FEAC2025FEA54
:100950001C1CC0D111F4801F0BD141EA00014FF0E3
:1009600000004FF0004CB6E711F4801F04BF0143B4
:100970000020B4F1FD0C88BFBCF5E06F3FF6AFAED0
:10098000B5EB030C04BFB6EB020C5FEA500C50F160
:10099000000041EB045170BD0EF0004E4EEA1131E3
:1009A00014EB5C04C2BFD4EB0C0541EA045170BDEA
:1009B00041F480114FF0000E013C90E645EA060E2E
:1009C0008DE60CEA135594EA0C0F08BF95EA0C0F5C
:1009D0003FF43BAF94EA0C0F0AD150EA01347FF4A4
:1009E00034AF95EA0C0F7FF425AF104619462CE77B
:1009F00095EA0C0F06D152EA03353FF4FDAE1046DE
:100A0000194622E750EA410618BF52EA43067FF42E
:100A1000C5AE50EA41047FF40DAF52EA43057FF4BE
:100A2000EBAE12E74FF0FF3C06E000BF4FF0010CC9
:100A300002E000BF4FF0010C4DF804CD4FEA410C2D
:100A40007FEA6C5C4FEA430C18BF7FEA6C5C1BD0FA
:100A500001B050EA410C0CBF52EA430C91EA030F7B
:100A600002BF90EA020F0020704710F1000F91EAD8
:100A7000030F58BF994208BF90422CBFD8176FEAA6
:100A8000E37040F0010070474FEA410C7FEA6C5C74
:100A900002D150EA013C07D14FEA430C7FEA6C5C7B
:100AA000D6D152EA033CD3D05DF8040B704700BFA7
:100AB0008446104662468C461946634600E000BFF5
:100AC00001B5FFF7B7FF002848BF10F1000F01BDC7
:100AD0004DF808EDFFF7F4FF0CBF012000205DF892
:100AE00008FB00BF4DF808EDFFF7EAFF34BF012017
:100AF00000205DF808FB00BF4DF808EDFFF7E0FFB0
:100B000094BF012000205DF808FB00BF4DF808ED00
:100B1000FFF7CEFF94BF012000205DF808FB00BF67
:100B20004DF808EDFFF7C4FF34BF012000205DF849
:100B300008FB00BF4FEA410C7FEA6C5C02D150EA2F
:100B4000013C0AD14FEA430C7FEA6C5C02D152EAC5
:100B5000033C02D14FF0000070474FF00100704796
:100B60004FEA410212F5001215D211D56FF47873D5
:100B7000B3EB625212D94FEAC12343F0004343EA78
:100B8000505311F0004F23FA02F018BF4042704753
:100B90004FF00000704750EA013005D111F00040DD
:100BA00008BF6FF0004070474FF00000704700BF73
:100BB00080F0004002E000BF81F0004142001FBF12
:100BC0005FEA410392EA030F7FEA226C7FEA236C1B
:100BD0006AD04FEA1262D2EB1363C1BFD218414010
:100BE00048404140B8BF5B42192B88BF704710F0A6
:100BF000004F40F4000020F07F4018BF404211F049
:100C0000004F41F4000121F07F4118BF494292EAB0
:100C1000030F3FD0A2F1010241FA03FC10EB0C00DC
:100C2000C3F1200301FA03F100F0004302D5494269
:100C300060EB4000B0F5000F13D3B0F1807F06D316
:100C400040084FEA310102F10102FE2A51D2B1F10E
:100C5000004F40EBC25008BF20F0010040EA030003
:100C60007047490040EB0000013A28BFB0F5000F83
:100C7000EDD2B0FA80FCACF1080CB2EB0C0200FA39
:100C80000CF0AABF00EBC25052421843BCBFD04088
:100C90001843704792F0000F81F4000106BF80F402
:100CA00000000132013BB5E74FEA41037FEA226CC5
:100CB00018BF7FEA236C21D092EA030F04D092F090
:100CC000000F08BF0846704790EA010F1CBF0020C4
:100CD000704712F07F4F04D1400028BF40F0004021
:100CE000704712F100723CBF00F50000704700F041
:100CF000004343F0FE4040F4000070477FEA226268
:100D000016BF08467FEA23630146420206BF5FEA38
:100D1000412390EA010F40F4800070474FF0000338
:100D200004E000BF10F0004348BF40425FEA000CFF
:100D300008BF704743F0964301464FF000001CE0A7
:100D400050EA010208BF70474FF000030AE000BFFD
:100D500050EA010208BF704711F0004302D540423B
:100D600061EB41015FEA010C02BF844601460020AD
:100D700043F0B64308BFA3F18053A3F50003BCFAC8
:100D80008CF2083AA3EBC25310DB01FA02FC634475
:100D900000FA02FCC2F12002BCF1004F20FA02F27C
:100DA00043EB020008BF20F00100704702F120026F
:100DB00001FA02FCC2F1200250EA4C0021FA02F2D0
:100DC00043EB020008BF20EADC7070474FEA4002A4
:100DD000B2F1FE4F0FD34FF09E03B3EB12620DD969
:100DE0004FEA002343F0004310F0004F23FA02F0D3
:100DF00018BF404270474FF00000704712F1610F7A
:100E000001D1420205D110F0004008BF6FF0004050
:100E100070474FF00000704710B5054C237833B988
:100E2000044B13B10448AFF300800123237010BDBD
:100E3000DC01002000000000E0A1000808B5034B21
:100E40001BB103490348AFF3008008BD0000000058
:100E5000E0010020E0A1000830B585B0054600247F
:100E60000BE04FF40051164801F08CFD00231A46A8
:100E700019461448006802F0C4FE4FF0FF31124BCF
:100E8000186803F057F80128F7D1C8210D4B1868EE
:100E900003F050F80128F0D1684603F06EFE0028F8
:100EA000E4D10134002364226946284602F0A9FEF9
:100EB0000128D6D02146054806F012FBD6E700BF30
:100EC00000100140780400207404002020A20008D3
:100ED00070B58CB00546046846684FF0FF3208A92B
:100EE000204602F09FFF0128F7D1BDF92000B5F997
:100EF0000830C01AFFF716FF4FF06251FFF710F9E4
:100F00000190BDF92200B5F90A30C01AFFF70AFFB7
:100F10004FF06251FFF704F90290BDF92400B5F9D2
:100F20000C30C01AFFF7FEFE4FF06251FFF7F8F8E1
:100F30000390079B013307930023642201A93046E5
:100F400002F05FFE019A064B1A60029A054B1A6086
:100F5000039A054B1A60079A044B1A60BDE700BF5D
:100F6000700400206C040020680400206404002049
:100F7000F0B58DB00446002003F014FF274A00218D
:100F8000084603F05DFF2146254806F0A9FA002532
:100F900014E00598FFF7DCFA06460F460798FFF7BE
:100FA000D7FACDE902010698FFF7D2FACDE90001A0
:100FB00032463B4629461B4806F092FA4FF0FF3274
:100FC00005A9204602F02EFF0128F7D10135642142
:100FD000154B186802F0AEFF0128DAD1059A0121FD
:100FE000022003F049FF069A0121032003F044FF89
:100FF000079A0121042003F03FFF2846FFF78EFEE9
:1010000002466421042003F037FF00231A461946E4
:101010000548006802F0F5FDBBE700BF44A20008E8
:101020004CA2000868A200087804002008B541F22C
:10103000883002F039FA034806F0BAFA04F01CFDD1
:10104000F5E700BF94A20008034B0360034B0B605D
:1010500080231360704700BFF8030020F8010020D0
:1010600008B5024806F03CFA72B6FEE7ACA20008EA
:1010700008B50368B3F1804F00D008BD01F00AF84D
:10108000FBE772B6FEE710B590B006AC282200214F
:10109000204606F0F1FB002301930293039304938F
:1010A00005930223069301230A9310230B932046F2
:1010B00001F02CF860B90F230193002102910391F4
:1010C0000491059101A801F053FA18B910B010BDB0
:1010D000FFF7D7FFFFF7D5FF00B585B000F0C8FFD9
:1010E000FFF7D1FF03220021012002F05FFD684BD2
:1010F000186003F0CBF903F023FA03F01DFB03F0B3
:10110000F3FE03F037FA03F041FB03F07DFE03F03A
:10111000E0FC18B15F4806F04BFAFEE703F01DFD56
:1011200001465D4806F0DCF90023ADF80E30ADF85D
:101130000C30ADF80A300DF10A0203A90DF10E00D2
:1011400003F05AFD012002F0F7FD544B186000280F
:1011500074D000220E21082002F028FD504C20609F
:1011600000221C21042002F021FD4E4B1860236850
:10117000002B67D0002865D04B4C23606060BDF821
:101180000E202281BDF80C206281BDF80A20A281C8
:1011900000250195022600964FF480724349444889
:1011A00001F0C0FF0195009623464FF4807241493B
:1011B000414801F0B7FF019503230093394B1B68A9
:1011C0004FF480723D493E4801F0ACFF0195012388
:1011D00000932B464FF480723A493B4801F0A2FF3E
:1011E0003A4806F0E5F93A4806F0E2F9394806F0DF
:1011F000DFF94FF4FA6000F05FFF04F0C1F804F08B
:1012000021F8354806F0D4F904F004FB10B3334854
:1012100006F0CEF904F080FBC0B9314806F0C8F9F9
:101220000023304A1360304A1360304A1360304B59
:101230001D6004F05FFC04F01FFC11E02D4806F077
:10124000B7F9FEE72C4806F0B3F9FEE72B4806F0A5
:10125000AFF905E02A4806F0ABF904F05DFB28B1D0
:10126000284806F0A5F901F08FFFFEE71C4806F0BC
:101270009FF900231B4A13601B4A13601B4A13602B
:101280001B4B00221A6004F035FC04F0F5FBE7E785
:1012900074040020CCA20008F8A200087804002002
:1012A000800400207C0400205404002060A3000877
:1012B000590E00086CA30008D10E000878A300089E
:1012C000710F000884A300082D10000890A30008E7
:1012D000D4A3000824A400084CA400086CA40008AF
:1012E00084A40008700400206C040020680400201E
:1012F000640400201CA3000840A300089CA400086C
:10130000B8A40008E8A40008FEE7FEE7FEE7FEE751
:10131000FEE7704708B5012001F03EFB08BD000064
:1013200008B5024801F038FC08BD00BF9830002025
:1013300008B5024801F030FC08BD00BF5430002061
:1013400008B5024801F028FC08BD00BF103000209D
:1013500008B5024800F06EF808BD00BFC82F002095
:1013600008B5024800F036FC08BD00BF243100205B
:1013700008B5024800F02EFC08BD00BFDC3000209C
:1013800082B00E4B9A6942F001029A619A6902F0AA
:1013900001020092009ADA6942F08052DA61DB6958
:1013A00003F080530193019B054A536823F0E063E7
:1013B00043F00073536002B0704700BF001002405A
:1013C000000001407047000090F83D30012B27D10C
:1013D000022380F83D300268D36843F00103D360F4
:1013E0000368114A934210D0B3F1804F0DD0A2F59B
:1013F0009432934209D002F58062934205D01A6874
:1014000042F001021A60002070479A6802F0070259
:10141000062A07D01A6842F001021A6000207047BD
:101420000120704700207047002C01407047704732
:101430007047704770B504460368DE681D6915F093
:10144000020F10D016F0020F0DD06FF002021A61D9
:101450000123037703689B6913F0030F5ED0FFF746
:10146000E6FF0023237715F0040F12D016F0040FC7
:101470000FD023686FF004021A61022323772368D8
:101480009B6913F4407F4FD02046FFF7D0FF002325
:10149000237715F0080F12D016F0080F0FD023682D
:1014A0006FF008021A61042323772368DB6913F0C5
:1014B000030F40D02046FFF7BAFF0023237715F033
:1014C000100F12D016F0100F0FD023686FF010021B
:1014D0001A61082323772368DB6913F4407F31D036
:1014E0002046FFF7A4FF0023237715F0010F02D059
:1014F00016F0010F2DD115F0800F02D016F0800FDD
:101500002FD115F0400F02D016F0400F31D115F059
:10151000200F02D016F0200F33D170BDFFF786FFE9
:101520002046FFF785FF9CE72046FFF77FFF204618
:10153000FFF77EFFABE72046FFF778FF2046FFF777
:1015400077FFBAE72046FFF771FF2046FFF770FFED
:10155000C9E723686FF001021A612046FFF788FD92
:10156000C9E723686FF080021A61204600F081F815
:10157000C7E723686FF040021A612046FFF759FF62
:10158000C5E723686FF020021A61204600F070F86A
:10159000C3E7000003681F4A90420AD0B0F1804FB1
:1015A00007D0A2F59432904203D002F580629042B7
:1015B00003D123F070034A681343164A90420AD0BD
:1015C000B0F1804F07D0A2F59432904203D002F5DB
:1015D0008062904203D123F44073CA68134323F01E
:1015E00080034A69134303608B68C3620B6883629C
:1015F000084B98420AD001234361036913F0010F9D
:1016000003D0036923F00103036170470B6903638F
:10161000F1E700BF002C014040B310B5044690F83C
:101620003D30F3B1022384F83D30214651F8040BDC
:10163000FFF7B0FF012384F8463084F83E3084F889
:101640003F3084F8403084F8413084F8423084F8E8
:10165000433084F8443084F8453084F83D3000202D
:1016600010BD80F83C30FFF7ADFEDBE7012070478E
:1016700070477047026802F10C0353E8003F23F003
:10168000C0030C3242E800310029F3D1202380F856
:1016900041307047026802F10C0353E8003F23F425
:1016A00090730C3242E800310029F3D1026802F154
:1016B000140353E8003F23F00103143242E80031E1
:1016C0000029F3D1036B012B05D0202380F8423091
:1016D000002303637047026802F10C0353E8003FE4
:1016E00023F010030C3242E800310029F3D1ECE77B
:1016F00090F84130212B01D0022070478368B3F568
:10170000805F17D0036A5A1C02621A7803685A6015
:10171000C38C9BB2013B9BB2C3844BB90268D368B4
:1017200023F08003D3600268D36843F04003D360A2
:10173000002070470369002BE4D1036A1B8802680C
:10174000C3F308035360036A02330362E0E7000057
:1017500010B504460268136923F44053C1680B4373
:10176000136183680269134342691A430168CB68B5
:1017700023F4B05323F00C031343CB600268536986
:1017800023F4407381690B4353610268134B9A42FF
:1017900020D000F0A9FF024602EB820202EB820297
:1017A00063689B00B2FBF3F20D48A0FB02314909CC
:1017B000642303FB11231B013233A0FB03035B09EA
:1017C00003F0F00202EB011203F00F03216813444F
:1017D0008B6010BD00F098FF0246DDE70038014045
:1017E0001F85EB512DE9F04383B005460E461746A1
:1017F0009946DDF828802B681C6836EA04040CBF83
:1018000001240024BC4228D1B8F1FF3FF3D000F0FE
:101810004DFCA0EB0900404523D8B8F1000F22D0C1
:101820002B68DA6812F0040FE5D0802EE3D0402E4A
:10183000E1D01A6812F0080FDDD0002401941A6874
:1018400001925B680193019B2846FFF723FF082361
:101850006B6485F84040012000E0002003B0BDE843
:10186000F0830320FAE70320F8E760B310B50446DD
:1018700090F8413013B3242384F841302268D368B0
:1018800023F40053D3602046FFF762FF22681369F8
:1018900023F4904313612268536923F02A035361B0
:1018A0002268D36843F40053D3600020606420238F
:1018B00084F8413084F84230606310BD80F84030D5
:1018C00002F072FED7E7012070472DE9F04182B0A7
:1018D0001E4690F84130202B56D104460D469046C6
:1018E000002955D00AB901204FE000234364212389
:1018F00080F8413000F0DAFB0746A4F82480A4F811
:101900002680A368B3F5805F02D04FF0000814E092
:1019100023692BB34FF000080FE0202384F84130F7
:10192000032032E038F8023B2268C3F30803536017
:10193000E28C92B2013A92B2E284E38C9BB293B110
:1019400000963B46002280212046FFF74BFF0028EF
:10195000E3D1002DE6D015F8012B23685A60E7E7A4
:10196000A8460025E9E700963B4600224021204694
:10197000FFF738FF18B9202384F8413005E0202311
:1019800084F84130032000E0022002B0BDE8F0817D
:101990000120FAE738B590F84130202B30D10446C9
:1019A00000292FD00AB9012038BD01628284C28487
:1019B00000234364212084F84100A06B124D85620E
:1019C000A06B124DC562A06B114D0563A06B436304
:1019D00020681346021DA06B01F036F823686FF0F3
:1019E00040021A60226802F1140353E8003F43F0FA
:1019F0008003143242E800310029F3D10020D3E7FC
:101A00000220D1E70120CFE7151A00087D1A00084F
:101A10008B1A000808B50346406A1B681B6813F060
:101A2000200F1AD10023C384026802F1140353E883
:101A3000003F23F08003143242E800310029F3D143
:101A4000026802F10C0353E8003F43F040030C32FC
:101A500042E800310029F3D108BD03F0C1FAFBE7E9
:101A600008B50168CA6822F04002CA60202280F8E6
:101A7000412003F0B5FA002008BD704708B5406A60
:101A8000FFF7FBFF08BD7047704710B5446A236835
:101A90005B6994F84120212A0FD023685B6903F029
:101AA000400394F84220222A11D0636C43F01003C3
:101AB00063642046FFF7E8FF10BD03F08003002BAE
:101AC000EBD00023E3842046FFF7D4FDE5E7002BAD
:101AD000EBD00023E3852046FFF7DCFDE5E708B502
:101AE000406A0023C385C384FFF7CEFF08BD90F88A
:101AF0004230222B69D18368B3F5805F4FD0826A70
:101B0000B3F5805F04D0002B56D10369002B53D16D
:101B100003685B681370836A01338362C38D9BB271
:101B2000013B9BB2C385002B51D100B583B0026845
:101B3000D36823F02003D3600268D36823F4807352
:101B4000D3600268536923F001035361202380F8B6
:101B5000423000234363036B012B33D10023036323
:101B6000026802F10C0353E8003F23F010030C322B
:101B700042E800310029F3D103681A6812F0100F0F
:101B800006D0002201921A6801925B680193019BC2
:101B9000818D03F073FA002003B05DF804FB026945
:101BA000002AACD1826A03685B68C3F30803138020
:101BB000836A02338362B1E703685B6803F07F03E3
:101BC0001370A8E703F0B4FBE5E70220704700209C
:101BD0007047000010B582B0044602681368D068F0
:101BE000516913F00F0F09D113F0200F0CD010F032
:101BF000200F09D02046FFF77AFF16E011F001010F
:101C000015D110F4907F12D1216B012979D013F0F6
:101C1000800F03D010F0800F40F0138113F0400FBD
:101C200003D010F0400F40F0108102B010BD13F04F
:101C3000010F06D010F4807F03D0626C42F00102E5
:101C4000626413F0040F04D019B1626C42F0020216
:101C5000626413F0020F04D019B1626C42F0040206
:101C6000626413F0080F07D010F0200F00D119B1F3
:101C7000626C42F008026264626C002AD5D013F0F4
:101C8000200F02D010F0200F29D123685B6903F0E8
:101C90004003626C12F0080F00D163B32046FFF7D7
:101CA000F9FC23685B6913F0400F20D0226802F131
:101CB000140353E8003F23F04003143242E800319C
:101CC0000029F3D1E36B73B1624A5A63E06B00F011
:101CD00017FF0028A9D0E06B436B9847A5E7204683
:101CE000FFF705FFD1E72046FFF7CEFE9DE7204630
:101CF000FFF7CAFE99E72046FFF7C6FE002363649C
:101D000093E713F0100F82D010F0100F3FF47FAF65
:101D1000002301931368019353680193019B536956
:101D200013F0400F51D0E26B13685B689BB2002B3D
:101D30003FF47BAFA18D99427FF677AFE38593693E
:101D4000202B37D0226802F10C0353E8003F23F424
:101D500080730C3242E800310029F3D1226802F18D
:101D6000140353E8003F23F00103143242E800312A
:101D70000029F3D1226802F1140353E8003F23F055
:101D80004003143242E800310029F3D1202384F8C3
:101D9000423000232363226802F10C0353E8003F22
:101DA00023F010030C3242E800310029F3D1E06B3C
:101DB00000F084FE02236363A18DE38D9BB2C91AF8
:101DC00089B2204603F05AF92FE7A18DE38D9BB22B
:101DD000C91A89B2E38D9BB2002B3FF426AF0029CC
:101DE0003FF423AF226802F10C0353E8003F23F4D1
:101DF00090730C3242E800300028F3D1226802F1DF
:101E0000140353E8003F23F00103143242E800308A
:101E10000028F3D1202384F8423000232363226872
:101E200002F10C0353E8003F23F010030C3242E8A8
:101E300000300028F3D102236363204603F01EF92B
:101E4000F3E62046FFF754FCEFE62046FFF708FED6
:101E5000EBE600BFDF1A000808B5406A01234363C0
:101E6000036B012B02D0FFF70EFE08BD818D4908E0
:101E700003F004F9F9E708B50346406A1B681B68DC
:101E800013F0200F2BD10023C385026802F10C034D
:101E900053E8003F23F480730C3242E800310029FC
:101EA000F3D1026802F1140353E8003F23F0010369
:101EB000143242E800310029F3D1026802F1140320
:101EC00053E8003F23F04003143242E80031002978
:101ED000F3D1202380F84230036B012B07D000237D
:101EE0004363036B012B0FD003F022FA08BD026895
:101EF00002F10C0353E8003F23F010030C3242E8D8
:101F000000310029F3D1EAE7818D03F0B7F8EDE75E
:101F100081628285C28500234364222380F8423097
:101F2000036923B10268D36843F48073D360026805
:101F3000536943F0010353610268D36843F02003FF
:101F4000D3600020704708B590F84230202B08D1AC
:101F500049B10AB9012008BD00230363FFF7D8FF88
:101F6000F9E70220F7E70120F5E7000030B583B07C
:101F7000044613468162828500254564222280F84A
:101F80004220C26B1F489062E26B1F48D062E26B36
:101F90001E481063E26B556320680A46011DE06B22
:101FA00000F052FD019523681A6801925B68019365
:101FB000019B23695BB1226802F10C0353E8003FE7
:101FC00043F480730C3242E800310029F3D12268D7
:101FD00002F1140353E8003F43F00103143242E8D6
:101FE00000310029F3D1226802F1140353E8003FC5
:101FF00043F04003143242E800310029F3D10020BD
:1020000003B030BD771E0008591E00088B1A000867
:1020100090F84230202B27D110B582B0044629B366
:1020200012B9012002B010BD0123036300234363F2
:10203000FFF79CFF236B012B01D00120F2E7002367
:10204000019323681A6801925B680193019B2268DF
:1020500002F10C0353E8003F43F010030C3242E856
:1020600000310029F3D1DDE7022070470120D9E7D4
:1020700008B5074A136843F010031360032000F00B
:1020800061FE0F2002F0C6F9FFF77AF9002008BDC3
:1020900000200240034A1168034B1B780B44136075
:1020A000704700BF8404002000000020014B186826
:1020B000704700BF8404002038B50446FFF7F6FFE0
:1020C0000546B4F1FF3F02D0044B1B781C44FFF7D8
:1020D000EDFF401BA042FAD338BD00BF0000002036
:1020E00082B0084B1B68084AA2FB03235B0A00FB73
:1020F00003F3019300BF019B5A1E0192002BF9D1FB
:1021000002B0704708000020D34D6210002800F094
:10211000F18170B582B00446036813F0010F2CD032
:10212000994B5B6803F00C03042B1DD0964B5B6846
:1021300003F00C03082B12D06368B3F5803F41D045
:10214000002B55D103F1804303F504331A6822F4C0
:1021500080321A601A6822F480221A6037E08A4BB3
:102160005B6813F4803FE7D0874B1B6813F4003F94
:1021700003D06368002B00F0BF81236813F0020FC7
:1021800075D0814B5B6813F00C0F5FD07E4B5B68A2
:1021900003F00C03082B54D02369002B00F08A8035
:1021A0007A4B01221A60FFF781FF0546764B1B68C8
:1021B00013F0020F75D1FFF779FF401B0228F5D904
:1021C00003209EE1704A136843F480331360636810
:1021D00043B3FFF76BFF05466B4B1B6813F4003FDF
:1021E000CBD1FFF763FF401B6428F5D9032088E1BA
:1021F000B3F5A02F09D0644B1A6822F480321A601C
:102200001A6822F480221A60E1E703F18043A3F503
:102210003C331A6842F480221A601A6842F4803211
:102220001A60D4E7FFF742FF0546574B1B6813F4CB
:10223000003FA2D0FFF73AFF401B6428F5D90320E6
:102240005FE1514B5B6813F4803FA5D14E4B1B6897
:1022500013F0020F03D02369012B40F04F814A4A4B
:10226000136823F0F803616943EAC103136023682C
:1022700013F0080F33D0A369002B5CD0434B01222D
:10228000C3F88024FFF712FF05463F4B5B6A13F04B
:10229000020F21D1FFF70AFF401B0228F5D90320C6
:1022A0002FE1394A136823F0F803616943EAC10357
:1022B0001360DCE7354B00221A60FFF7F7FE054696
:1022C000314B1B6813F0020FD1D0FFF7EFFE401B1C
:1022D0000228F5D9032014E10120FFF701FF23684C
:1022E00013F0040F00F09680274BDB6913F0805F3A
:1022F00034D1254BDA6942F08052DA61DB6903F0B0
:1023000080530193019B0125214B1B6813F4807FAF
:1023100026D0E368012B3DD0002B53D103F180433D
:1023200003F504331A6A22F001021A621A6A22F0D3
:1023300004021A6233E0154B0022C3F88024FFF731
:10234000B5FE0546104B5B6A13F0020FC7D0FFF7CE
:10235000ADFE401B0228F5D90320D2E00025D3E7CB
:102360000B4A136843F480731360FFF79FFE064621
:10237000074B1B6813F4807FCBD1FFF797FE801BC0
:102380006428F5D90320BCE000100240000042425E
:10239000007000405F4A136A43F001031362E36870
:1023A00033B3FFF783FE06465A4B1B6A13F0020F46
:1023B0002FD1FFF77BFE801B41F288339842F3D97F
:1023C00003209EE0052B09D0524B1A6A22F001022D
:1023D0001A621A6A22F004021A62E0E74D4B1A6A86
:1023E00042F004021A621A6A42F001021A62D6E747
:1023F000FFF75CFE0646474B1B6A13F0020F08D03E
:10240000FFF754FE801B41F288339842F3D9032032
:1024100077E0E5B9E369002B72D03E4A526802F0DA
:102420000C02082A56D0022B17D03B4B00221A660A
:10243000FFF73CFE0446374B1B6813F0007F47D084
:10244000FFF734FE001B0228F5D9032059E0314A7A
:10245000D36923F08053D361DCE72F4B00221A6647
:10246000FFF724FE05462B4B1B6813F0007F06D0B8
:10247000FFF71CFE401B0228F5D9032041E0236A28
:10248000B3F5803F1AD023494B6823F47413226AB2
:10249000606A024313434B601F4B01221A66FFF729
:1024A00005FE04461B4B1B6813F0007F0ED1FFF79F
:1024B000FDFD001B0228F5D9032022E0154A5368D0
:1024C00023F40033A1680B435360DCE7002018E0DD
:1024D000002016E0012B16D00E4B5B6803F4803110
:1024E000226A914211D103F47013626A93420ED1B1
:1024F000002006E001207047012002E0012000E0FA
:10250000002002B070BD0120FBE70120F9E70120A7
:10251000F7E700BF00100240000042420F4B5B682B
:1025200003F00C02082A01D00D487047C3F3834220
:102530000C49885C13F4803F0BD0084B5B68C3F3F5
:102540004043094AD35C064A02FB00F0B0FBF3F0BB
:102550007047064B03FB00F0704700BF00100240BD
:1025600000127A00B0AB0008ACAB000800093D00D7
:10257000002800F0A08070B50D460446524B1B6841
:1025800003F007038B420BD24F4A136823F0070373
:102590000B431360136803F007038B4240F08D80F8
:1025A000236813F0020F17D013F0040F04D0474A2A
:1025B000536843F4E0635360236813F0080F04D0BA
:1025C000424A536843F460535360404A536823F0CF
:1025D000F003A1680B435360236813F0010F31D05F
:1025E0006368012B20D0022B25D0384A126812F0E4
:1025F000020F64D035494A6822F0030213434B604E
:10260000FFF754FD0646314B5B6803F00C0362682C
:10261000B3EB820F16D0FFF749FD801B41F28833E0
:102620009842F0D9032045E0284A126812F4003F8E
:10263000E0D101203EE0254A126812F0007FD9D196
:10264000012037E0204B1B6803F00703AB420AD997
:102650001D4A136823F007032B431360136803F02C
:102660000703AB422DD1236813F0040F06D0174A9D
:10267000536823F4E063E1680B435360236813F06D
:10268000080F07D0114A536823F46053216943EAC5
:10269000C1035360FFF742FF0C4B5B68C3F30313A6
:1026A0000B4AD35CD8400B4B18600B4B186801F0F9
:1026B000B1FE002070BD012070470120FAE7012023
:1026C000F8E70120F6E700BF0020024000100240BA
:1026D000C8AB00080800002004000020014B186867
:1026E000704700BF0800002008B5FFF7F7FF044B54
:1026F0005B68C3F30223034AD35CD84008BD00BF24
:1027000000100240C0AB000808B5FFF7E7FF044B1C
:102710005B68C3F3C223034AD35CD84008BD00BF43
:1027200000100240C0AB00080F2303600B4B5A6837
:1027300002F0030242605A6802F0F00282605A68B6
:1027400002F4E062C2605B68DB0803F4E0630361EB
:10275000034B1B6803F007030B6070470010024037
:102760000020024070B582B00024A4469EE07C4D5B
:10277000AB4214D00CD8A5F58015AB420FD005F5AF
:102780007025AB420BD0A5F58015AB421FD106E0FA
:10279000744DAB4203D005F58035AB4217D18B6841
:1027A000A3B1012B0DD04261082410E0CC680EE0EB
:1027B000CC6804340BE0CC68083408E0CC680C34F6
:1027C00005E00261082402E0002400E00424BEF1D8
:1027D000FF0F37D806464FEA8C0233680F25954025
:1027E00023EA050304FA02F2134333604B6813F043
:1027F000805F59D05C4B9A6942F001029A619B69F3
:1028000003F001030193019B4FEA9C02951C574B77
:1028100053F825600CF00305AD000F23AB4026EA0A
:102820000306534B984214D003F58063984279D045
:1028300003F58063984277D003F58063984206D011
:10284000042307E0061DACF108029200C5E703234C
:1028500000E00023AB4033430232444D45F82230C0
:102860004B6813F4801F61D0424A936843EA0E0319
:1028700093604B6813F4001F5ED03E4AD36843EA6E
:102880000E03D3604B6813F4003F5BD0394A5368A2
:1028900043EA0E0353604B6813F4803F58D0354A27
:1028A000136843EA0E0313600CF1010C0B6833FA52
:1028B0000CF253D0012202FA0CF203EA020E32EAC1
:1028C0000303F1D14B68122B3FF651AF122B3FF6A9
:1028D0007EAF01A555F823F09F270008AD2700081B
:1028E000B7270008C9270008CF270008CF2700080E
:1028F000CF270008CF270008CF270008CF270008E0
:10290000CF270008CF270008CF270008CF270008CF
:10291000CF270008CF270008CF270008B1270008DD
:10292000BD270008012395E7022393E7114A936826
:1029300023EA0E0393609CE70E4AD36823EA0E0352
:10294000D3609FE70B4A536823EA0E035360A2E764
:10295000084A136823EA0E031360A5E702B070BDAE
:102960000000221000003110001002400000014061
:1029700000080140000401400AB1016170470904E8
:1029800001617047C36801EA030221EA030141EAD9
:10299000024101617047000008B5054B5B690342C5
:1029A00000D108BD024B586102F072F9F9E700BF8F
:1029B0000004014030B40124056CAC40C56B6C6070
:1029C000046863604368102B05D00368996003684E
:1029D000DA6030BC704703689A600368D960F8E732
:1029E00050B310B402460168144B0B441448A0FBCA
:1029F00003031B099B001364124BD363022382F869
:102A0000213008686FF30D10536894682343D4682D
:102A10002343146923435469234394692343D469AA
:102A2000234303430B6000209063012382F821308D
:102A300082F8200010BC704701207047F8FFFDBFEE
:102A4000CDCCCCCC0000024038B5044690F8200034
:102A5000012831D0012084F8200094F821000128B9
:102A600004D0002384F82030022038BD022084F8EE
:102A700021000020A0632568286820F0010028605C
:102A80002046FFF797FFE36A5BB12268136843F0C3
:102A90000E0313602268136843F0010313600020E3
:102AA000E3E72268136823F00403136022681368C5
:102AB00043F00A031360EDE70220D6E7034690F8DF
:102AC0002120022A06D004228263002280F82020DE
:102AD0000120704701680A6822F00E020A6001684E
:102AE0000A6822F001020A60026CC06B012101FA3F
:102AF00002F2426083F82110002083F82000704722
:102B000008B590F82130022B03D004238363012001
:102B100008BD0268136823F00E031360026813688F
:102B200023F0010313600368194A934214D014324E
:102B300093421FD0143293421ED0143293421ED0BF
:102B4000143293421ED01432934202D04FF080725E
:102B500003E04FF4801200E001220E4B5A60012383
:102B600080F82130002380F82030436B6BB1984708
:102B70000020CDE71022F0E74FF48072EDE74FF42C
:102B80008052EAE74FF48032E7E70020C0E700BF59
:102B9000080002400000024038B5C36B1A680468A0
:102BA0002568016C04238B40134235D015F0040FC7
:102BB00032D0236813F0200F03D1236823F00403DD
:102BC00023600368434A934214D01432934218D0CE
:102BD0001432934217D01432934217D014329342D6
:102BE00017D01432934202D04FF0806203E04FF4CA
:102BF000800200E00422384B5A60C36A03B1984750
:102C000038BD4022F7E74FF48062F4E74FF480428A
:102C1000F1E74FF48022EEE702238B4013423CD0D1
:102C200015F0020F39D0236813F0200F06D1236866
:102C300023F00A032360012380F821300368254A2A
:102C4000934214D0143293421CD0143293421BD0BE
:102C5000143293421BD0143293421BD0143293424D
:102C600002D04FF0007203E04FF4001200E00222A5
:102C7000194B5A60002380F82030836A002BBFD0A4
:102C80009847BDE72022F3E74FF40072F0E74FF4D6
:102C90000052EDE74FF40032EAE708238B4013427D
:102CA000AED015F0080FABD0236823F00E032360DD
:102CB000026CC16B012303FA02F24A60836380F85D
:102CC0002130002380F82030036B002B98D09847E8
:102CD00096E700BF0800024000000240002808DB21
:102CE0000901C9B200F1604000F5614080F80013AD
:102CF000704700F00F000901C9B2014B1954704729
:102D000014ED00E000B500F00700C0F1070CBCF1C5
:102D1000040F28BF4FF0040C031D062B0FD9C31E50
:102D20004FF0FF3E0EFA0CF021EA000199400EFA36
:102D300003FE22EA0E0241EA02005DF804FB0023D2
:102D4000EEE70000074AD36823F4E0631B041B0C82
:102D5000000200F4E060034343F0BF6343F4003338
:102D6000D360704700ED00E010B50446054BD8680D
:102D7000C0F30220FFF7C6FF01462046FFF7AEFF73
:102D800010BD00BF00ED00E0002807DB00F01F02CF
:102D9000400901239340024A42F82030704700BFA7
:102DA00000E100E070470000074B1B681B6823B977
:102DB000064B4FF0FF321A607047034B1B68DB680D
:102DC0001A68024B1A607047F80400209004002033
:102DD0002DE9F04780460D4617469946089EDDF8D6
:102DE00024A00A9C9200A521206B04F045FD236BD2
:102DF00007F18042013A03EB820727F00707A5B3EA
:102E00004FF0000CBCF10F0F09D815F80C3004EB93
:102E10000C0282F8343013B10CF1010CF2E70023FC
:102E200084F843301F2E00D91F26E662E664002591
:102E30002565201D00F087FD04F1180000F083FDDA
:102E40002461C6F12006A6616462656584F8585065
:102E50004A464146384601F031FA2060BAF1000F87
:102E600001D0CAF80040BDE8F087002384F8343070
:102E7000D8E7000038B5002407E004EB8402930093
:102E80000E48184400F054FD01341F2CF5D90C4DA8
:102E9000284600F04DFD0B4C204600F049FD0A4845
:102EA00000F046FD094800F043FD094800F040FDF0
:102EB000084B1D60084B1C6038BD00BF2405002076
:102EC00010050020FC040020E0040020CC040020B9
:102ED000B4040020F8040020F404002010B50446D7
:102EE00001F010FA294A136801331360284B1B685C
:102EF0005BB1284B1B686BB9254B1B68DA6AE36A28
:102F00009A4207D8224B1C6004E0214B1C601368D6
:102F1000012B37D0204A1368013313606364E36ADE
:102F200001229A401D49086802430A601C4A03EBCB
:102F3000830302EB83035B68A3609868E060211D54
:102F400041609960E36A03EB8301880002EB810131
:102F5000616111580131115001F0E4F90D4B1B680A
:102F60007BB10B4B1B68DA6AE36A9A4209D24FF0D5
:102F7000E0234FF08052C3F8042DBFF34F8FBFF30F
:102F80006F8F10BDFFF776FFC4E700BFB0040020CD
:102F9000A4070020A404002094040020A80400201A
:102FA0002405002010B5044690F8593013B1012BC8
:102FB00007D010BD006B01F035F9204601F032F961
:102FC000F7E701F02FF9F4E70F4B1B68D3B110B509
:102FD00001F098F90D4BDB68DC68201D00F0CFFC98
:102FE0000B4A1368013B1360074A1368013B1360E7
:102FF00001F098F92046FFF7D5FF034B1B68002B23
:10300000E6D110BD704700BFC8040020CC040020EA
:10301000B004002008B5FFF7D7FF074B1B68012B52
:10302000F9D94FF0E0234FF08052C3F8042DBFF3DD
:103030004F8FBFF36F8FEEE72405002070B5044675
:103040000D46234B1E68234B1868043000F097FC94
:1030500048B9204B1B68DB6A01229A401E490B6865
:1030600023EA02030B60B4F1FF3F0DD03444194B47
:103070001B685C60A6421DD9184B1868154B19686F
:10308000043100F063FC70BD002DEFD0144A51688C
:10309000104B1868816018688C68C4601868043028
:1030A00060601868043088601B685A6113680133D7
:1030B0001360E8E70B4B1868064B1968043100F001
:1030C00045FC094B1B68A342DDD9074B1C60DAE7BE
:1030D000AC040020A4070020A8040020F404002071
:1030E000B4040020F80400209004002030B587B01C
:1030F0000B9D0C9C8CB185B12563022584F8595039
:1031000000250395029405AD01950A9D0095FFF7F2
:103110005FFE2046FFF7E2FE01E0002305930598DD
:1031200007B030BD2DE9F04385B007468846144608
:103130001E46900001F004F808B381465C2000F0C0
:10314000FFFF0546A8B1C0F83090002380F8593041
:10315000039302900D9B01930C9B009333462246F0
:1031600041463846FFF734FE2846FFF7B7FE0120F8
:1031700007E0484601F056F84FF0FF3001E04FF00D
:10318000FF3005B0BDE8F08310B588B00024059489
:10319000069407AA06A905A8FDF756FF059B02930A
:1031A000069B019300942346079A0F490F48FFF7A7
:1031B0009DFF0F4B186090B14FF0500383F31188BF
:1031C000BFF36F8FBFF34F8F0A4B4FF0FF321A6080
:1031D000094B01221A60094B1C6001F0FDF8084BF5
:1031E0001B6808B010BD00BF00A50008153000081E
:1031F0008C04002090040020A4040020AC040020D3
:10320000D8AB0008024A136801331360704700BF4F
:1032100088040020F8B54C4B1B68002B40F08D80D3
:103220004A4B1C6801341C60ACB1494B1B68A3427B
:103230001ED90020474B1B68DB6A03EB83039A000F
:10324000454B9B58012B00D90120444B1B68002B98
:1032500078D0012076E0424A1168424B186810602D
:103260001960414A136801331360FFF79DFDDCE7E5
:10327000002037E0364B4FF0FF321A60DAE7344B6C
:103280001A60D7E7D968516042E00021996211685D
:1032900001391160DA6A01219140344E37683943AF
:1032A00031602D4902EB82024FEA820C8C44DCF83B
:1032B00004209A609668DE6075609560DA6A02EBB9
:1032C000820C4FEA8C056E185E614D5901354FEA4C
:1032D0008C0C41F80C50DA6A1E4B1B68DB6A9A4270
:1032E00000D301201E4B1B681B68002BC2D01C4B57
:1032F0001B68DB68DB685A689442C0D35A699D68D2
:10330000D968A9609D684D6051681D1DA942B9D05A
:10331000002159611168013911609A6A002AB9D0F7
:10332000DE69196AB160DE694E60566803F1180102
:103330008E42AAD1196A5160A7E70D4A136801337A
:1033400013600020F8BD00BF88040020AC040020FA
:1033500090040020A4070020240500209C040020E5
:10336000F8040020F404002098040020A8040020A1
:10337000A004002038B500F0C5FF434B1A68013A9D
:103380001A601B68002B7AD1404B1B683BB90024A4
:1033900076E0196A516015E0D968516021E0002398
:1033A0003B4A1268002A47D0394BDB68DB689A6ACF
:1033B000D869196A8160D8694860506803F11801BA
:1033C0008842E6D0002199621168013911605A697A
:1033D0009868D9688160986848605168181D814272
:1033E000DAD000215961116801391160DA6A0121CE
:1033F0009140284C256829432160274902EB82022D
:1034000001EB820252689A609468DC6060609060B0
:10341000DA6A02EB8200840001EB800058610859EF
:1034200001300851D96A1D4A1268D26A9142B7D355
:103430001B4A01211160B3E70BB1FFF7B5FC194B33
:103440001C6884B9164B1C68D4B14FF0E0234FF0D0
:103450008052C3F8042DBFF34F8FBFF36F8F012449
:103460000EE0013C07D0FFF7D5FE0028F9D00C4B49
:1034700001221A60F5E70B4B00221A60E2E70024F4
:1034800000F050FF204638BD88040020B004002022
:10349000E0040020A804002024050020A407002048
:1034A0009C040020A004002010B550B94FF0E02388
:1034B0004FF08052C3F8042DBFF34F8FBFF36F8FCF
:1034C00010BD0446FFF79EFE00212046FFF7B6FD23
:1034D000FFF750FF0028F3D1E8E7000008B5264BBE
:1034E0001B681BB1254B01221A6008BD234B00222B
:1034F0001A60234B1B681B6B1A68B2F1A53F03D1FE
:103500005A68B2F1A53F26D01D4B186819683431AE
:10351000FDF7A6FD1B4B1B68B3FA83F3DBB2C3F1C7
:103520001F03194803EB83018A000244516849686C
:10353000516003EB830C4FEA8C0208320244914243
:1035400012D003EB83039A000F4B13445B68DA68D5
:103550000B4B1A60C9E79A68B2F1A53FD4D1DB687A
:10356000B3F1A53FD0D1D5E7486862469100064A3D
:103570000A445060E5E700BF880400209C04002056
:10358000A4070020A80400202405002010B50C4644
:10359000044B1968183100F0D9F901212046FFF7D2
:1035A0004DFD10BDA407002030B4C368DB689A6AE3
:1035B000D869196A8160D8694860516803F11800B8
:1035C00081423ED000219962116801391160274A79
:1035D0001268002A3BD15A699868D9688160986856
:1035E00048605168181D81422ED000215961116830
:1035F00001391160DA6A012191401D4C2568294387
:1036000021601C4902EB820201EB820252689A603F
:103610009468DC6060609060DA6A02EB820084008B
:1036200001EB80005861085901300851DA6A124BE9
:103630001B68DB6A9A4216D90120104B186030BC17
:103640007047196A5160BDE7D9685160CDE70C4AEF
:103650005168D9618C681C62606088609A621168E8
:1036600001311160E2E70020E9E700BF8804002093
:10367000A804002024050020A40700209C040020AA
:10368000E0040020034B1B680360034B1B6843608E
:10369000704700BF98040020AC04002070B50446B9
:1036A0000D4600F02FFE134B19686368C81A2A688C
:1036B000B2F1FF3F19D0104E3668D4F800C0B445BF
:1036C00005D08B4203D800232B6001240EE08242F8
:1036D00003D800232B60012408E05B1A13442B60FD
:1036E0002046FFF7CFFF002400E0002400F01AFE80
:1036F000204670BDAC04002098040020014B01223C
:103700001A6070479C040020054B1B6833B1054BC1
:103710001B680BB1002070470220704701207047E2
:10372000A404002088040020002854D070B504466A
:10373000C36A2B4A1268D26A934244D28269002A31
:1037400005DB274A1268D26AC2F1200282616169F0
:1037500003EB8303234A02EB8303994205D0204BFA
:103760001B68DB6AE362012070BD251D284600F05E
:1037700006F938B9E36A01229A401B490B6823EA2B
:1037800002030B60164B1B68DB6AE362012000FA40
:1037900003F215490E6832430A60124A03EB8303B1
:1037A00002EB83035B68A3609968E1604D609D60F4
:1037B000E36A03EB83018D0002EB810161615159E2
:1037C00001445151D0E7C26C054B1B68DB6A9A4239
:1037D00003D30020C8E7002070470120C4E700BFE2
:1037E000A407002024050020A804002000283AD0C7
:1037F00070B50446036D013B0365C16AC26C91421A
:1038000033D00BB1002070BD051D284600F0B7F87D
:1038100038B9E36A01229A4015490B6823EA02038A
:103820000B60E36CE362C3F12002A261012000FAA5
:1038300003F20F490E6832430A600E4A03EB83031A
:1038400002EB83035B68A3609968E1604D609D6053
:10385000E36A03EB83018D0002EB81016161515941
:1038600001445151CFE7002070470020CBE700BF53
:10387000A804002024050020002845D038B50446BF
:10388000C36C8B4200D20B46E26A9A4202D0216D91
:10389000012900D038BDE362A169002902DBC3F130
:1038A0002003A361616902EB8202184B03EB8203E0
:1038B0009942EFD1251D284600F061F838B9E36A36
:1038C00001229A4012490B6823EA02030B60E36A63
:1038D00001229A400E49086802430A600B4A03EB32
:1038E000830302EB83035B68A3609968E1604D602A
:1038F0009D60E36A03EB8301880002EB8101616153
:10390000115801311150C5E7704700BF2405002050
:10391000A8040020054B1B6823B1044B1A68136DE3
:1039200001331365014B1868704700BFA4070020DE
:1039300000F1080343604FF0FF328260C36003610F
:1039400000230360704700230361704730B40D68A3
:10395000B5F1FF3F11D000F108031C465B681A68FF
:10396000AA42FAD963684B6099608C606160086113
:1039700003680133036030BC70470469F2E70369F0
:10398000416882688A60416851605A68824206D004
:10399000002202611A68013A1A601868704782684A
:1039A0005A60F5E70346406A18B11B6B1868C0F10E
:1039B0002000704710B5044600F0A4FCA26BE36B36
:1039C0009A4204D0002400F0ADFC204610BD012432
:1039D000F9E710B5044600F095FCA36B23B9012468
:1039E00000F0A0FC204610BD0024F9E770B50446A5
:1039F0001546866B026C5AB903681BB1002001366C
:103A0000A66370BD8068FFF7F1FE0023A360F6E7B0
:103A10006DB9406804F00DF86368226C134463606C
:103A2000A268934219D3236863602846E7E7C06819
:103A300003F0FFFFE368226C51429B1AE3602268A7
:103A4000934202D2A3680B44E360022D01D0002010
:103A5000D5E726B1013E0020D1E72846CFE7002078
:103A6000CDE708B50346026C62B10846D968114437
:103A7000D960D3F808C0614501D31968D960D96805
:103A800003F0D7FF08BD38B5054600F03BFC95F8BC
:103A9000454064B201E0013C64B2002C0ADD6B6A6F
:103AA00043B105F12400FFF77FFD0028F3D0FFF7B5
:103AB00025FEF0E7FF2385F8453000F033FC00F0E9
:103AC00021FC95F8444064B201E0013C64B2002C52
:103AD0000ADD2B6943B105F11000FFF765FD0028F1
:103AE000F3D0FFF70BFEF0E7FF2385F8443000F03A
:103AF00019FC38BD002844D038B50D460446C36BC8
:103B0000002B40D0026C0021A2FB032313B919B192
:103B1000002039E00121FAE700F0F4FB2368E26BB2
:103B2000216C01FB0230A0600020A0636360013AB9
:103B300002FB0133E360FF2384F8443084F845300E
:103B4000B5B923691BB900F0EDFB01201CE004F1BD
:103B50001000FFF729FD0028F5D04FF0E0234FF0CB
:103B60008052C3F8042DBFF34F8FBFF36F8FEAE786
:103B700004F11000FFF7DCFE04F12400FFF7D8FE8B
:103B8000E1E700207047002038BD38B51D46049C91
:103B90000B4649B92460E063236401212046FFF706
:103BA000A9FF84F84C5038BD2260F4E7F0B583B02B
:103BB000F8B10C46174606460023A4FB0012B2B922
:103BC000DBB904FB06F010F1510F18D8503000F0AB
:103BD000B7FA054670B1002380F8463000903B46A6
:103BE00000F1500221463046FFF7CFFF02E00123EB
:103BF000E6E70025284603B0F0BD0025FAE70025DA
:103C0000F8E7F0B585B004460F4601921D46002640
:103C10003DE02A4639462046FFF7E8FE636A7BB955
:103C200048B14FF0E0234FF08052C3F8042DBFF3AA
:103C30004F8FBFF36F8F00F075FB012005B0F0BD13
:103C400004F12400FFF7B0FC0028F4D04FF0E0238B
:103C50004FF08052C3F8042DBFF34F8FBFF36F8F27
:103C6000E9E700F05FFB0020E8E702A8FFF70AFDA4
:103C7000012619E0002384F8443021E0002384F871
:103C8000453023E02046FFF7FEFEFFF773FB00F010
:103C900039FBA26BE36B9A42BBD3022DB9D0019BD7
:103CA000002BDED0002EE0D000F03CFBFFF7AAFA9C
:103CB00000F028FB94F8440040B2B0F1FF3FD9D0A7
:103CC00094F8450040B2B0F1FF3FD7D000F02AFB96
:103CD00001A902A8FFF7E2FCD8B92046FFF76AFE67
:103CE0000028CFD0019904F11000FFF74FFC2046C7
:103CF000FFF7C9FEFFF73EFB0028C8D14FF0E023D5
:103D00004FF08052C3F8042DBFF34F8FBFF36F8F76
:103D1000BDE72046FFF7B7FEFFF72CFB00208DE73D
:103D200048B108B5002181600160C1600B460A46B8
:103D3000FFF767FF08BD704710B50246002101205C
:103D4000FFF734FF0446FFF7EBFF204610BDF8B540
:103D5000044617461A46EFF311864FF0500383F3DB
:103D60001188BFF36F8FBFF34F8F806BE36B984267
:103D700005D3022A03D0002086F31188F8BD94F8F9
:103D800045506DB2A36B2046FFF730FEB5F1FF3F03
:103D900005D001356DB284F845500120ECE7636A27
:103DA0000BB90120E8E704F12400FFF7FDFB18B18F
:103DB00027B101203860DFE70120DDE70120DBE7E4
:103DC00038B5EFF311844FF0500383F31188BFF33C
:103DD0006F8FBFF34F8F826BC36B93421AD90D461F
:103DE00090F845305BB201328263B3F1FF3F05D0FA
:103DF00001335BB280F8453001200CE0436A0BB917
:103E0000012008E02430FFF7CFFB38B145B1012095
:103E1000286000E0002084F3118838BD0120FAE713
:103E20000120F8E7F0B585B004460F460192002660
:103E30003EE039462046FFF714FE013DA5632369A5
:103E400023B900F06FFA012005B0F0BD04F11000B5
:103E5000FFF7AAFB0028F4D04FF0E0234FF0805288
:103E6000C3F8042DBFF34F8FBFF36F8FE9E700F066
:103E700059FA0020E8E702A8FFF704FC012621E038
:103E8000002384F8443029E0002384F845302BE0F7
:103E90002046FFF7F8FDFFF76DFA09E02046FFF72F
:103EA000F2FDFFF767FA2046FFF793FD00283FD1A8
:103EB00000F028FAA56B002DBBD1019B002BD6D0BA
:103EC000002ED8D000F02EFAFFF79CF900F01AFA75
:103ED00094F844305BB2B3F1FF3FD1D094F8453051
:103EE0005BB2B3F1FF3FCFD000F01CFA01A902A8EA
:103EF000FFF7D4FB0028D1D12046FFF76AFD002848
:103F0000C6D0019904F12400FFF740FB2046FFF7DB
:103F1000BAFDFFF72FFA0028CAD14FF0E0234FF087
:103F20008052C3F8042DBFF34F8FBFF36F8FBFE7ED
:103F3000002089E770B584B004460191002635461B
:103F400049E0013BA363236833B1236943B900F01F
:103F5000E9F9012004B070BDFFF7DCFCA060F4E7D4
:103F600004F11000FFF720FB0028F0D04FF0E02311
:103F70004FF08052C3F8042DBFF34F8FBFF36F8F04
:103F8000E5E700F0CFF90020E4E702A8FFF77AFBAD
:103F900001252AE0002384F8443032E0002384F82D
:103FA000453034E000F0AEF9A068FFF7BDFB0646EF
:103FB00000F0B8F93BE02046FFF765FDFFF7DAF9BE
:103FC00009E02046FFF75FFDFFF7D4F92046FFF731
:103FD00000FD002842D100F095F9A36B002BB0D171
:103FE000019B002BCDD0002DCFD000F09BF9FFF727
:103FF00009F900F087F994F844305BB2B3F1FF3F60
:10400000C8D094F845305BB2B3F1FF3FC6D000F0A2
:1040100089F901A902A8FFF741FB0028D1D1204668
:10402000FFF7D7FC0028C6D02368002BBAD001992F
:1040300004F12400FFF7AAFA2046FFF724FDFFF75A
:1040400099F90028C7D14FF0E0234FF08052C3F810
:10405000042DBFF34F8FBFF36F8FBCE70EB9002065
:1040600078E700F04FF92046FFF79CFC0146A06876
:10407000FFF702FC00F056F9F1E70000124A12F0D7
:10408000070F1ED0D11D21F00701C1F520531344A5
:104090000A460E480260002141601344083B23F0A9
:1040A00007030B48036059601960991A5160136047
:1040B000084B1960084B1960084B4FF000421A601A
:1040C00070474FF42053E4E7C8070020C0070020E2
:1040D000BC070020B4070020B8070020A807002074
:1040E000154B1A461B688342FBD3516802EB010C47
:1040F000844509D0416800EB010C634509D0036099
:10410000904218D0106070474068014451601046DA
:10411000F0E710B4094C2468A3420AD05B68194444
:10412000416013681B680360904200D0106010BCAF
:1041300070470460F8E77047C0070020BC07002004
:1041400038B50446FFF75EF8304B1B68DBB1304BE7
:104150001B681C424AD1631E13F10A0F4BD804F1AD
:10416000080214F0070F05D022F00703083393422A
:1041700043D91A46002A42D0264B1B68934240D3AB
:1041800025490C6804E0FFF779FFE0E721461C466B
:104190006368934202D22368002BF7D11B4B1B6844
:1041A000A34230D00D68083523680B6063689B1A02
:1041B000102B15D8626817490B689B1A0B601749BA
:1041C00009688B4201D215490B60114B1B681343E0
:1041D000636000232360124A13680133136006E012
:1041E000A01843606260FFF77BFFE3E70025FFF75D
:1041F000C1F8284638BD0025F9E70025F7E7002576
:10420000F5E70025F3E70025F1E700BFBC07002034
:10421000A8070020B8070020C0070020B40700202E
:10422000B007002018B338B50446A0F1080550F8CF
:10423000043C0F4A1268134202D050F8081C01B126
:1042400038BD23EA020340F8043CFEF7DBFF54F8D4
:10425000041C084A13680B4413602846FFF740FF0C
:10426000054A136801331360FFF784F8E8E77047E5
:10427000A8070020B8070020AC07002082B0002368
:1042800001934FF0500383F31188BFF36F8FBFF397
:104290004F8F019B002BFCD002B07047064800688E
:1042A000006880F3088862B661B6BFF34F8FBFF332
:1042B0006F8F00DF00BF000008ED00E04FF080735B
:1042C00040F8043C21F0010140F8081C034B40F881
:1042D0000C3C40F8202C4038704700BF7D4200085D
:1042E000074B19680868B0E8F00F80F30988BFF33E
:1042F0006F8F4FF0000080F311884EF00D0E704765
:10430000A40700204FF0500383F31188BFF36F8F91
:10431000BFF34F8F024A136801331360704700BF29
:104320000C000020034A1368013B13600BB983F3B0
:10433000118870470C000020000000000000000001
:10434000EFF30980BFF36F8F0D4B1A6820E9F00F70
:1043500010602DE908404FF0500080F31188FFF7FE
:10436000BDF84FF0000080F31188BDE808401968DF
:104370000868B0E8F00F80F30988BFF36F8F7047CB
:10438000A407002008B54FF0500383F31188BFF352
:104390006F8FBFF34F8FFEF73DFF28B14FF0E02343
:1043A0004FF08052C3F8042D002383F3118808BD19
:1043B0004FF0E022002313619361054B1B68054910
:1043C000A1FB03139B09013B536107231361704752
:1043D00008000020D34D621010B54FF0E023D3F851
:1043E000202D42F47002C3F8202DD3F8202D42F086
:1043F0007042C3F8202DFFF7DBFF0024044B1C6044
:10440000FFF74CFFFFF76AF8FFF738FF204610BDB3
:104410000C00002000B589B0014600221C20FEF7E8
:10442000A3FC1C20FEF7B0FC154BDA6942F0010238
:10443000DA61DB6903F001030193019B02A903A880
:10444000FEF772F9FEF750F90E4BA3FB00239B0C0D
:10445000013B0D484FF08042026040F2E732C260FB
:104460004360002303618360FDF7D6F818B1012093
:1044700009B05DF804FB0448FCF7A6FFF8E700BFAD
:104480000010024083DE1B43C82F0020F0B589B026
:1044900004AD00240494059406940794244B9A696F
:1044A00042F010029A619A6902F010020092009A9A
:1044B0009A6942F020029A619A6902F02002019200
:1044C000019A9A6942F004029A619A6902F0040220
:1044D0000292029A9A6942F008029A619B6903F07B
:1044E00008030393039B134F22464FF46041384661
:1044F000FEF742FA4FF460430493012605960694B2
:104500000223079329463846FEF72CF904960A4BF6
:104510000593069429460948FEF724F92246052109
:104520000620FEF721FC0620FEF72EFC09B0F0BDA8
:10453000001002400010014000001110000801406E
:1045400008B50A480A4B03604FF4E1334360002387
:104550008360C36003610C2242618361C361FDF724
:1045600084F900B908BDFCF78CFDFBE7243100207D
:104570000038014008B50A480A4B03604FF4E133A4
:10458000436000238360C36003610C224261836146
:10459000C361FDF76AF900B908BDFCF772FDFBE7DE
:1045A000DC30002000440040F0B589B00446002310
:1045B00004930593069307930368554A934204D0E6
:1045C000544A93425ED009B0F0BD534B9A6942F40D
:1045D00080429A619A6902F480420092009A9A6934
:1045E00042F004029A619B6903F004030193019B6A
:1045F0004FF400730493022305930323079304AF3E
:10460000464E39463046FEF7ADF84FF480630493CA
:1046100000250595069539463046FEF7A3F8404833
:10462000404B03601023436085608023C3600561B5
:1046300045618561C561FEF7D3F9E8B9384BA363DD
:104640005C623948394B03600023436083608022F9
:10465000C260036143618361C361FEF7C1F970B950
:10466000314BE3635C62002211462520FEF77CFBA0
:104670002520FEF789FBA6E7FCF703FDDEE7FCF744
:1046800000FDEDE7244BDA6942F40032DA61DA69C1
:1046900002F400320292029A9A6942F004029A618C
:1046A0009B6903F004030393039B042304930223F5
:1046B00005930323079304AF184E39463046FEF79F
:1046C00051F8082304930025059506953946304690
:1046D000FEF748F81648174B036045608560802355
:1046E000C360056145618561C561FEF779F958B917
:1046F0000F4BE3635C62002204212620FEF734FBAB
:104700002620FEF741FB5EE7FCF7BBFCF0E700BFAD
:104710000038014000440040001002400008014001
:1047200098300020440002405430002058000240DD
:10473000103000206C00024000B583B0124B5A6963
:1047400042F001025A615B6903F001030193019B8E
:10475000002211460E20FEF707FB0E20FEF714FB89
:10476000002211460F20FEF7FFFA0F20FEF70CFB88
:10477000002211461020FEF7F7FA1020FEF704FB86
:1047800003B05DF804FB00BF0010024008B500F064
:104790000BF808BD034B986800F08000003818BF84
:1047A00001207047000C014010B584B00F4B1A680F
:1047B00022F001021A601A6822F001021A606946AA
:1047C00000230093019302930393C02300931123CA
:1047D000019303230393064C2046FDF7C3FF4023B8
:1047E00023618023236104B010BD00BF005400404A
:1047F000000C014084B0144B80221A610023019305
:1048000002E0019B01330193019B0E2BF9DD0E4B5E
:1048100040221A610023029302E0029B01330293BB
:10482000029B0E2BF9DD084B80225A610023039373
:1048300002E0039B01330393039B0E2BF9DD024B34
:1048400040225A6104B07047000C014084B0134B01
:1048500080225A610023019302E0019B01330193FE
:10486000019B0E2BF9DD0D4B40221A6100230293B0
:1048700002E0029B01330293029B0E2BF9DD074BF2
:1048800080221A610023039302E0039B0133039308
:10489000039B0E2BF9DD04B0704700BF000C0140F4
:1048A0000022072A36D884B025E01B4B80215961AD
:1048B0002BE0019B01330193019B0E2BF9DD164B7D
:1048C000402119610023029302E0029B013302930D
:1048D000029B0E2BF9DD104B4021596100230393FD
:1048E00002E0039B01330393039B0E2BF9DD01329E
:1048F000D2B2072A0CD8C2F1070340FA03F313F02F
:10490000010FD2D0044B8021196100230193D3E71A
:1049100004B07047704700BF000C014000B583B081
:104920000A4B80221A6140221A610023019302E09F
:10493000019B01330193019B0E2BF9DDFFF72AFF49
:10494000024B40225A6103B05DF804FB000C0140A9
:1049500082B040B10B4B80221A610A4B40221A618F
:104960000023019306E0074B80225A61F5E7019B83
:1049700001330193019B0E2BF9DD024B40225A615A
:1049800002B07047000C014070B582B00646174B6C
:1049900080221A61002425461AE0009B013300930F
:1049A000009B0E2BF9DDFFF7F5FE18B180232341A4
:1049B0002B43DDB20D4B40225A610023019302E0EC
:1049C000019B01330193019B0E2BF9DD0134E4B20D
:1049D000072C05D8054B40221A6100230093DFE71E
:1049E0003046FFF7B5FF284602B070BD000C01400D
:1049F00070B504460D461646FFF7FCFE640004F051
:104A0000FE00FFF74DFFFFF789FF78B92846FFF753
:104A100047FFFFF783FF70B93046FFF741FFFFF70D
:104A20007DFF044658B9FFF711FF02E0FFF70EFFC4
:104A30000124204670BDFFF709FF0124F9E7FFF7C5
:104A400005FF0124F5E7F8B504460F4616461D4656
:104A5000FFF7D0FE600000F0FE00FFF721FFFFF738
:104A60005DFFA8B93846FFF71BFFFFF757FF98B95E
:104A7000FFF7ECFEFFF7BEFE600040F00100C0B2A1
:104A8000FFF70EFFFFF74AFF074648B9044615E057
:104A9000FFF7DCFE012715E0FFF7D8FE012711E044
:104AA000FFF7D4FE01270DE0681E844214BF0020EA
:104AB0000120FFF769FF30550134E4B2AC42F3D373
:104AC000FFF7C4FE3846F8BD08B50123FFF7BBFF6A
:104AD00008BD00B583B00DF1070275216820FFF70E
:104AE000F3FFC0BB9DF80730682B03D0012003B053
:104AF0005DF804FB00226B216820FFF779FF08B105
:104B00000120F4E7312219216820FFF771FF08B175
:104B10000120ECE700221C216820FFF769FF08B1A3
:104B20000120E4E700221B216820FFF761FF08B1A4
:104B30000120DCE7102237216820FFF759FF08B178
:104B40000120D4E7012238216820FFF751FF002817
:104B5000CDD00120CBE70120C9E700B583B00DF12E
:104B6000070275216820FFF7AFFF18B1002003B0DE
:104B70005DF804FB9DF80700F9E710B584B0044622
:104B80000E236A463B216820FFF75DFF90BB9DF82E
:104B900000209DF8013043EA022323809DF8022083
:104BA0009DF8033043EA022363809DF804209DF8BA
:104BB000053043EA0223A3809DF806209DF80730C4
:104BC00043EA0223A3819DF808209DF8093043EAB7
:104BD0000223E3809DF80A209DF80B3043EA02236C
:104BE00023819DF80C209DF80D3043EA0223638158
:104BF00004B010BD0120FBE72DE9F04784B08046EA
:104C0000894692461F4802F0D3FC002425462646DA
:104C1000274603E00A20FDF74FFA0134632C10DC2D
:104C20006846FFF7AAFF0028F4D1BDF900301F4401
:104C3000BDF902301E44BDF90430A3F580431D4484
:104C4000E8E7114A82FB0731FB17C3EB6113A8F8B1
:104C5000003082FB0631F317C3EB6113A9F8003073
:104C600082FB0532EB17C3EB62131BB2AAF80030CC
:104C7000B9F90020B8F90010044802F031FC04B082
:104C8000BDE8F08708A500081F85EB5134A5000892
:104C9000012800D0704700B583B00023019301A91B
:104CA0000B4B1868FFF78CF8019B4BB14FF0E023DA
:104CB0004FF08052C3F8042DBFF34F8FBFF36F8FB7
:104CC0004FF480410348FDF75DFE03B05DF804FB3F
:104CD000740400200010014070B506460D46FFF731
:104CE00089FD7820FFF7DCFDFFF718FE88B900206A
:104CF000FFF7D6FDFFF712FE044668B9AC4211D2A9
:104D0000305DFFF7CDFDFFF709FE40B90134E4B295
:104D1000F4E7FFF79BFD70BDFFF798FDFBE7FFF79A
:104D200095FDF8E7FFF792FDF5E770B506460D46ED
:104D3000FFF760FD7820FFF7B3FDFFF7EFFD88B9BF
:104D40004020FFF7ADFDFFF7E9FD044668B9AC422E
:104D500011D2305DFFF7A4FDFFF7E0FD40B901344B
:104D6000E4B2F4E7FFF772FD70BDFFF76FFDFBE7FC
:104D7000FFF76CFDF8E7FFF769FDF5E700B583B0D5
:104D800050388DF8040001F00F038DF80530090943
:104D900010318DF80610032101A8FFF79DFF03B025
:104DA0005DF804FB10B5124B1B784BB1114B1B780F
:104DB00083420DD0002303E00F4AD0540133DBB20D
:104DC00013F0800FF8D00A4B01221A70094B1870AB
:104DD000002409E000212046FFF7D0FF802106488B
:104DE000FFF7A3FF0134E4B2072CF3D910BD00BFD5
:104DF000EC310020100000206C31002008B50020AC
:104E0000FFF7D0FF08BD000010B588B06420FDF7A3
:104E100053F90DF1040C094C0FCCACE80F0094E8E9
:104E20000700ACE80300ACF800201A2101A8FFF746
:104E300053FFFFF7E3FF08B010BD00BFF8A1000863
:104E400010B51446FFF79AFF09E0203800EB400048
:104E50000621084B03EB4000FFF767FF0134207881
:104E600030B1A0F12003DBB25E2BEED90134F6E7BE
:104E700010BD00BFDCAB000870B586B004460D461F
:104E800003AE1046FBF764FBCDE90001054A0C2197
:104E9000304602F095FB324629462046FFF7D0FF08
:104EA00006B070BD74A5000800B593B04FF0FF3296
:104EB00001A90A4B1868FEF7B5FF0128F6D1BDF825
:104EC000442001A90648FCF765FD0028EED14FF00B
:104ED000FF31044B1868FFF72DF8E7E77832002020
:104EE00024310020703200201A4B1B6803B1704738
:104EF00000B583B0032200210120FEF757FE164BB8
:104F0000186018B3002242211020FEF74FFE114B0B
:104F1000186048B100230193022200924FF480727E
:104F20000E490F48FEF7FEF8002242210820FEF746
:104F30003DFE0C4B186048B1002301930222009201
:104F40004FF4807208490948FEF7ECF803B05DF8A9
:104F500004FB00BF78320020703200207CA50008DE
:104F6000A94E00087432002084A5000841500008B2
:104F70002DE9F04192B088461646174B1B681BB1CD
:104F8000FEF7C2FB022824D04FF0FF33B2B24146F5
:104F90001248FCF79AFC304612B0BDE8F08101AF30
:104FA000224608EB0501384602F043FDADF84440C7
:104FB00000230A22394608480068FEF722FE01282D
:104FC000E9D12544AE42E6D9741B402CE7D94024F0
:104FD000E5E70025F6E700BF783200202431002005
:104FE00002680F4B9A4200D070470E4B1868002899
:104FF000FAD000B583B00023019301A9FEF7E0FECB
:10500000019B4BB14FF0E0234FF08052C3F8042DC9
:10501000BFF34F8FBFF36F8F03B05DF804FB00BF8A
:10502000003801407032002008B580220249034850
:10503000FCF7EEFF08BD00BFF03100202431002056
:1050400000B593B0FFF7F0FF4FF0FF3201A9094B15
:105050001868FEF7E7FE0128F6D1BDF84430483362
:105060006B44002203F8442C01A9034802F038FAEB
:10507000EAE700BF743200208CA5000802681D4BCF
:105080009A4200D07047F0B593B00E4681B31A4BE8
:105090001B686BB30024009411E001AF2A46174946
:1050A0002144384602F0C5FCADF8445000236A465E
:1050B000394611480068FEF74AFE2C44A4B2B442B7
:1050C00005D2351BADB2402DE7D94025E5E780225A
:1050D0000A490B48FCF79CFF009B4BB14FF0E023C3
:1050E0004FF08052C3F8042DBFF34F8FBFF36F8F83
:1050F00013B0F0BD0038014074320020F0310020C0
:10510000243100200C4B1B889BB293B10A4B1A88A8
:1051100092B20A4B1B889BB29A4206D0064B1B8860
:105120009BB2064A1380012070470020024B188072
:1051300070470120704700BF803200207E3200207F
:1051400008B54FF0FF33FCF7C0FB08BD08B5FCF70E
:10515000B3FF08BD08B54FF400720021034802F008
:105160008BFB034B00221A8008BD00BF8432002055
:105170008032002070B504460E46FAF7C9FF82B2AD
:1051800021460E48FFF7DCFFC82203E00A20FFF7A4
:10519000DDFF2246531EDCB272B1FFF7B3FF0546B6
:1051A0000028F3D13146064802F09DFB0028EDD0DF
:1051B000FFF7D0FF284670BD0125FBE7DC3000205B
:1051C0008432002070B588B005460C46FFF7C2FF58
:1051D0002346094A2021684602F0F2F90749684649
:1051E000FFF7C8FF08B108B070BD22462946044841
:1051F000FFF7A6FFF7E700BF98A50008A8A50008DD
:10520000DC30002010B5044606E00520FFF79EFFC5
:10521000631E9BB284B11C46FFF774FF0028F4D1D3
:105220000649074802F05FFB0028EED03A2102F061
:105230003AFB10B1013000E0002010BDACA5000821
:105240008432002000B5A3B0FFF784FF294802F0A4
:10525000AFF903E04FF4FA70FFF778FF26492748CB
:10526000FFF788FF0028F5D1254802F0A1F903E0F7
:105270004FF4FA70FFF76AFF1F492248FFF77AFFE1
:105280000028F5D1204802F093F903E04FF4FA70BA
:10529000FFF75CFF18491D48FFF76CFF0028F5D1A8
:1052A0001B4802F085F903E04FF4FA70FFF74EFF58
:1052B00011491848FFF75EFF0028F5D1164802F0A3
:1052C00077F9164B0093164B164A802102A802F07C
:1052D00077F903E04FF4FA70FFF738FF124902A89C
:1052E000FFF748FF0028F5D1104802F061F923B01C
:1052F0005DF804FBB4A50008C4A50008C8A5000813
:10530000D0A50008E0A50008E8A50008FCA5000855
:105310000CA6000820A6000830A6000864A6000815
:1053200040A600084CA6000870A6000878A6000851
:1053300008B502680D4B9A4200D008BD0C4B1B8883
:105340009BB2B3F5007F02D3094B00221A800849B3
:105350000B889BB25A1C92B20A8006490878064A0A
:10536000D05401220548FCF7EEFDE6E7004400407A
:10537000803200207C32002084320020DC3000208B
:1053800008B5012202490348FCF7DDFD08BD00BF56
:105390007C320020DC30002008B5FCF78DFE08BD13
:1053A0002DE9F0418AB00646FAF7B2FE002E00F071
:1053B000DA80C7B21B2F40F2D8800023BB420AD24A
:1053C000F15C03F128026A4402F8281C0022F2541E
:1053D0000133DBB2F2E728336B44002403F8284C96
:1053E00025466CE006EB05084046FAF791FE0346B9
:1053F0005F4A106848F803000335EDB25DE006EB44
:1054000005084046FAF784FE03465A4A106848F8F1
:1054100003000335EDB250E006EB05084046FAF70D
:1054200077FE0346544A106848F803000335EDB28E
:1054300043E006EB05084046FAF76AFE03464F4A8A
:10544000106848F803000335EDB236E006EB0508B6
:105450004046FAF75DFE0346494A106848F80300E3
:105460000335EDB229E006EB05084046FAF750FE99
:105470000346444A106848F803000335EDB21CE0C7
:1054800006EB05084046FAF743FE03463E4A10681D
:1054900048F803000335EDB20FE006EB050840467F
:1054A000FAF736FE0346394A106848F80300033518
:1054B000EDB202E072550135EDB20134E4B2BC4206
:1054C0004CD204F128036B4413F8282CA2F12003DA
:1054D0001F2BEFD801A151F823F000BFFF530008A4
:1054E000B5540008B554000867540008B5540008C6
:1054F0004D54000881540008B5540008B554000804
:10550000B5540008B5540008E5530008B554000828
:10551000B5540008B554000819540008B5540008E3
:10552000B5540008B5540008B5540008B554000837
:10553000B5540008B5540008B5540008B554000827
:10554000B5540008B5540008B5540008B554000817
:105550009B540008B55400083354000800207055CF
:105560000AB0BDE8F0810120FAE70120F8E700BFAA
:1055700088A600088CA6000890A6000894A600083B
:1055800098A600089CA60008A0A60008A4A60008EB
:105590002DE9F04FCDB01546BDF860619DF86471FE
:1055A00000224B920690002800F099800C46984605
:1055B0008346002900F095804F4B9D4240F2938036
:1055C000B8F1000F00F09380579B002B00F0918002
:1055D000772E01D8012087E00DF16C094FF0400AC9
:1055E00052460021484602F047F94046FAF790FD3E
:1055F000009043464BAA5146484600F03FFB4822E4
:10560000002109A802F038F9002F4AD0CDF808B0DF
:1056100001943A4B00932B46394A482109A801F0DE
:10562000CFFF0DF1AC084FF040094A46002140463B
:1056300002F022F90DF16C0A5046FAF769FD079065
:105640000DF1240B5846FAF763FD0346CDF80080B0
:105650005A460799504600F017FD00214B910DF175
:10566000EC0A4A46504602F007F94046FAF750FD68
:10567000009043464BAA4946504600F06DFA50460A
:10568000FFF78EFEDFB1CDF80CA01C4B0293019505
:105690000094069B1B4A3146579801F091FF002069
:1056A00022E0069B0393569B02930194134B0093B5
:1056B0002B46154A482109A801F082FFB1E73BAB10
:1056C00004930E4B03930295569B01930094069B03
:1056D0000E4A3146579801F073FF002004E0012084
:1056E00002E0012000E001204DB0BDE8F08F012074
:1056F000FAE70120F8E700BF9454415DC0A6000816
:10570000A8A60008E8A60008C8A6000820A7000868
:10571000F0B58DB004463549354B1868FAF700FDF1
:10572000FBF754FB0746334D0FCD20606160A2604C
:10573000E36028682061AA88AB79A282A37530262D
:1057400032460021684602F097F82B4A2B496846FA
:1057500001F06CFF6946204602F096F832460021BF
:10576000684602F089F802222549684601F05EFF8A
:105770006946204602F088F832460021684602F069
:105780007BF83A461F49684601F050FF69462046BB
:1057900002F07AF832460021684602F06DF80322E2
:1057A0001949684601F042FF6946204602F06CF84C
:1057B00032460021684602F05FF8642213496846C9
:1057C00001F034FF6946204602F05EF82046FAF701
:1057D0009FFC22180E4B19889B782152937020460B
:1057E000FAF796FCC0B20DB0F0BD00BF00007A44DD
:1057F0006804002068A7000880A7000888A70008A0
:105800009CA70008B4A70008CCA70008E4A70008DC
:10581000FCA7000870B5AEB000242E492E48FFF753
:10582000A9FC054668B101340A2C04DC4FF4FA7077
:10583000FFF7B2FDF1E7294801F0BAFE28462EB085
:1058400070BD01230393902302930AAE01960023B7
:105850000093234B234A24492448FFF799FE244C04
:10586000244B01930D2300933346234A4FF40071D8
:10587000204601F0A5FE2046FAF74AFC81B22046F8
:10588000FFF7A0FCFA20FFF7BDFCD8B11B4902F0DE
:105890002AF8C8B100230593194B019305AB009377
:1058A00006AB184A184901F0E3FE042801D001258F
:1058B0000BE0134B0093059B06AA1249134801F015
:1058C0000FFE02E0012500E0012511491148FFF714
:1058D00051FCB3E720A8000828A8000800A8000889
:1058E00058A8000800CF9D7488A8000894A8000854
:1058F0008434002030A90008A0A8000834A90008BA
:1059000084360020B436002040A900088CA9000885
:10591000C4A50008B4A9000870B5B2B000242E9444
:105920002F9430943194424E0394A023029306ABFB
:105930000193404D0095404B404A31464048FFF7A7
:1059400027FE324629463F4801F0CAFD3E493F48FE
:10595000FFF710FC054690B101340A2C08DC214603
:105960003B4801F0BDFD4FF4FA70FFF715FDEDE780
:105970002146384801F0B4FD284632B070BD2EAB48
:10598000059300230493039302930193012300934F
:105990004FF48073274A06A9254800F0B5FC00287B
:1059A00040D1BDF8BC102E98FFF70CFCFA20FFF791
:1059B00029FC044688B300F073FC022801D00125BD
:1059C0002CE0204600F0F2FD052821D8DFE800F0A9
:1059D00003070C11161B204801F0EAFD1EE01F48CA
:1059E00001F0E6FD012519E01D4801F0E1FD01256A
:1059F00014E01C4801F0DCFD01250FE01A4801F01D
:105A0000D7FD01250AE0194801F0D2FD012505E086
:105A1000174801F0CDFD012500E001252EA800F07A
:105A2000F6FBA9E7134801F0C3FD0125A4E700BF79
:105A300088A8000830A9000858A8000800CF9D7465
:105A400094A80008C4A9000820A8000828A80008F5
:105A500014AA0008E0A9000830AA00084CAA00080F
:105A60006CAA00088CAA0008ACAA0008CCAA0008FE
:105A7000E8AA000808AB000810B5C6B000214291A2
:105A800043914491459102AC4FF48072204601F05D
:105A9000F3FE2046FFF73CFE04B20CB946B010BD41
:105AA00042AB0093002322460F49104800F0FEFE4F
:105AB0000028F3D1002308E0439A511C439102A926
:105AC000C85C4299885401331BB2A342F4DBBDF891
:105AD0000C114298FFF776FB4399054801F000FD51
