:020000040800F2
:10000000005000205D4D0008791100087B110008A8
:100010007D1100087F110008811100080000000018
:10002000000000000000000000000000B1400008D7
:10003000831100080000000011410008554100082C
:10004000A54D0008A54D0008A54D0008A54D0008C8
:10005000A54D0008A54D0008A54D0008A54D0008B8
:10006000A54D0008A54D0008A54D0008A54D0008A8
:10007000A54D0008A54D0008851100089511000840
:10008000A54D0008A54D0008A54D0008A54D000888
:10009000A54D0008A54D0008A54D0008A54D000878
:1000A000A54D0008A54D0008A54D0008A54D000868
:1000B000A5110008A54D0008A54D0008A54D000894
:1000C000A54D0008A54D0008A54D0008A54D000848
:1000D000A54D0008B5110008A54D0008A54D000864
:1000E000A54D0008A54D0008A54D00080000000022
:1000F0000000000000000000000000000000000000
:0C01000000000000000000005FF808F1A3
:10011000034613F8012B002AFBD1181A0138704747
:100120004FF0FF0C1CEAD0521EBF1CEAD15392EADA
:100130000C0F93EA0C0F6FD01A4480EA010C4002B6
:1001400018BF5FEA41211ED04FF0006343EA501010
:1001500043EA5111A0FB01310CF00040B1F5000F52
:100160003EBF490041EAD3715B0040EA010062F101
:100170007F02FD2A1DD8B3F1004F40EBC25008BFEB
:1001800020F00100704790F0000F0CF0004C08BF09
:1001900049024CEA502040EA51207F3AC2BFD2F1D6
:1001A000FF0340EAC250704740F400004FF00003E4
:1001B000013A5DDC12F1190FDCBF00F0004070471E
:1001C000C2F10002410021FA02F1C2F1200200FA5C
:1001D00002FC5FEA310040F1000053EA4C0308BF23
:1001E00020EADC70704792F0000F00F0004C02BF74
:1001F000400010F4000F013AF9D040EA0C0093F0EF
:10020000000F01F0004C02BF490011F4000F013B48
:10021000F9D041EA0C018FE70CEAD15392EA0C0FB6
:1002200018BF93EA0C0F0AD030F0004C18BF31F021
:10023000004CD8D180EA010000F00040704790F0F7
:10024000000F17BF90F0004F084691F0000F91F09B
:10025000004F14D092EA0C0F01D142020FD193EA61
:100260000C0F03D14B0218BF084608D180EA0100E9
:1002700000F0004040F0FE4040F40000704740F0C5
:10028000FE4040F44000704781F0004102E000BFB2
:1002900083F0004330B54FEA41044FEA430594EA46
:1002A000050F08BF90EA020F1FBF54EA000C55EA81
:1002B000020C7FEA645C7FEA655C00F0E2804FEA52
:1002C0005454D4EB5555B8BF6D420CDD2C4480EA34
:1002D000020281EA030382EA000083EA010180EA64
:1002E000020281EA0303362D88BF30BD11F0004FB2
:1002F0004FEA01314FF4801C4CEA113102D04042E8
:1003000061EB410113F0004F4FEA03334CEA133322
:1003100002D0524263EB430394EA050F00F0A7803A
:10032000A4F10104D5F1200E0DDB02FA0EFC22FA35
:1003300005F2801841F1000103FA0EF2801843FA29
:1003400005F359410EE0A5F120050EF1200E012A1A
:1003500003FA0EFC28BF4CF0020C43FA05F3C01858
:1003600051EBE37101F0004507D54FF0000EDCF1D1
:10037000000C7EEB00006EEB0101B1F5801F1BD37A
:10038000B1F5001F0CD349085FEA30004FEA3C0C7E
:1003900004F101044FEA445212F5800F80F09A8074
:1003A000BCF1004F08BF5FEA500C50F1000041EB78
:1003B000045141EA050130BD5FEA4C0C404141EB7C
:1003C0000101013C28BFB1F5801FE9D291F0000F77
:1003D00004BF01460020B1FA81F308BF2033A3F126
:1003E0000B03B3F120020CDA0C3208DD02F1140C1D
:1003F000C2F10C0201FA0CF021FA02F10CE002F158
:100400001402D8BFC2F1200C01FA02F120FA0CFC50
:10041000DCBF41EA0C019040E41AA2BF01EB045199
:10042000294330BD6FEA04041F3C1CDA0C340EDC97
:1004300004F11404C4F1200220FA04F001FA02F3DA
:1004400040EA030021FA04F345EA030130BDC4F198
:100450000C04C4F1200220FA02F001FA04F340EA8D
:100460000300294630BD21FA04F0294630BD94F03E
:10047000000F83F4801306BF81F480110134013D25
:100480004EE77FEA645C18BF7FEA655C29D094EA96
:10049000050F08BF90EA020F05D054EA000C04BF14
:1004A0001946104630BD91EA030F1EBF00210020FF
:1004B00030BD5FEA545C05D14000494128BF41F09E
:1004C000004130BD14F580043CBF01F5801130BD02
:1004D00001F0004545F0FE4141F470014FF000008D
:1004E00030BD7FEA645C1ABF194610467FEA655C3E
:1004F0001CBF0B46024650EA013406BF52EA0335E0
:1005000091EA030F41F4002130BD00BF90F0000FCD
:1005100004BF0021704730B54FF4806404F1320409
:100520004FF000054FF0000150E700BF90F0000FC2
:1005300004BF0021704730B54FF4806404F13204E9
:1005400010F0004548BF40424FF000013EE700BFB9
:1005500042004FEAE2014FEA31014FEA02701FBF49
:1005600012F07F4393F07F4F81F06051704732F07B
:100570007F4208BF704793F07F4F04BF41F40021D2
:10058000704730B54FF4607401F0004521F0004130
:100590001CE700BF50EA010208BF704730B54FF0BA
:1005A00000050AE050EA010208BF704730B511F0BB
:1005B000004502D5404261EB41014FF4806404F1F3
:1005C00032045FEA915C3FF4D8AE4FF003025FEA79
:1005D000DC0C18BF03325FEADC0C18BF033202EBFD
:1005E000DC02C2F1200300FA03FC20FA02F001FA57
:1005F00003FE40EA0E0021FA02F11444BDE600BFFA
:1006000070B54FF0FF0C4CF4E06C1CEA11541DBFA8
:100610001CEA135594EA0C0F95EA0C0F00F0DEF873
:100620002C4481EA030621EA4C5123EA4C5350EA58
:10063000013518BF52EA033541F4801143F48013A9
:1006400038D0A0FB02CE4FF00005E1FB02E506F03A
:100650000042E0FB03E54FF00006E1FB03569CF08F
:10066000000F18BF4EF0010EA4F1FF04B6F5007F95
:1006700064F5407404D25FEA4E0E6D4146EB060607
:1006800042EAC62141EA55514FEAC52040EA5E5090
:100690004FEACE2EB4F1FD0C88BFBCF5E06F1ED83A
:1006A000BEF1004F08BF5FEA500E50F1000041EB71
:1006B000045170BD06F0004646EA010140EA02001E
:1006C00081EA0301B4EB5C04C2BFD4EB0C0541EA40
:1006D000045170BD41F480114FF0000E013C00F355
:1006E000AB8014F1360FDEBF002001F0004170BD79
:1006F000C4F10004203C35DA0C341BDC04F1140492
:10070000C4F1200500FA05F320FA04F001FA05F21D
:1007100040EA020001F0004221F0004110EBD370EA
:1007200021FA04F642EB06015EEA430E08BF20EA16
:10073000D37070BDC4F10C04C4F1200500FA04F3B9
:1007400020FA05F001FA04F240EA020001F000414B
:1007500010EBD37041F100015EEA430E08BF20EABE
:10076000D37070BDC4F1200500FA05F24EEA020E06
:1007700020FA04F301FA05F243EA020321FA04F035
:1007800001F0004121FA04F220EA020000EBD370EC
:100790005EEA430E08BF20EAD37070BD94F0000FEC
:1007A0000FD101F00046400041EB010111F4801F20
:1007B00008BF013CF7D041EA060195F0000F18BFD1
:1007C000704703F00046520043EB030313F4801F0D
:1007D00008BF013DF7D043EA0603704794EA0C0FC7
:1007E0000CEA135518BF95EA0C0F0CD050EA4106DD
:1007F00018BF52EA4306D1D181EA030101F000415A
:100800004FF0000070BD50EA410606BF1046194681
:1008100052EA430619D094EA0C0F02D150EA01368D
:1008200013D195EA0C0F05D152EA03361CBF1046CE
:1008300019460AD181EA030101F0004141F0FE416D
:1008400041F470014FF0000070BD41F0FE4141F4F1
:10085000780170BD70B54FF0FF0C4CF4E06C1CEAF1
:1008600011541DBF1CEA135594EA0C0F95EA0C0FA6
:1008700000F0A7F8A4EB050481EA030E52EA033561
:100880004FEA013100F088804FEA03334FF0805582
:1008900045EA131343EA12634FEA022245EA1115AF
:1008A00045EA10654FEA00260EF000419D4208BF60
:1008B000964244F1FD0404F5407402D25B084FEA0D
:1008C0003202B61A65EB03055B084FEA32024FF4B9
:1008D00080104FF4002CB6EB020E75EB030E22BF16
:1008E000B61A754640EA0C005B084FEA3202B6EBD6
:1008F000020E75EB030E22BFB61A754640EA5C0085
:100900005B084FEA3202B6EB020E75EB030E22BF14
:10091000B61A754640EA9C005B084FEA3202B6EB15
:10092000020E75EB030E22BFB61A754640EADC00D4
:1009300055EA060E18D04FEA051545EA16754FEA36
:1009400006164FEAC30343EA52734FEAC2025FEA54
:100950001C1CC0D111F4801F0BD141EA00014FF0E3
:1009600000004FF0004CB6E711F4801F04BF0143B4
:100970000020B4F1FD0C88BFBCF5E06F3FF6AFAED0
:10098000B5EB030C04BFB6EB020C5FEA500C50F160
:10099000000041EB045170BD0EF0004E4EEA1131E3
:1009A00014EB5C04C2BFD4EB0C0541EA045170BDEA
:1009B00041F480114FF0000E013C90E645EA060E2E
:1009C0008DE60CEA135594EA0C0F08BF95EA0C0F5C
:1009D0003FF43BAF94EA0C0F0AD150EA01347FF4A4
:1009E00034AF95EA0C0F7FF425AF104619462CE77B
:1009F00095EA0C0F06D152EA03353FF4FDAE1046DE
:100A0000194622E750EA410618BF52EA43067FF42E
:100A1000C5AE50EA41047FF40DAF52EA43057FF4BE
:100A2000EBAE12E74FF0FF3C06E000BF4FF0010CC9
:100A300002E000BF4FF0010C4DF804CD4FEA410C2D
:100A40007FEA6C5C4FEA430C18BF7FEA6C5C1BD0FA
:100A500001B050EA410C0CBF52EA430C91EA030F7B
:100A600002BF90EA020F0020704710F1000F91EAD8
:100A7000030F58BF994208BF90422CBFD8176FEAA6
:100A8000E37040F0010070474FEA410C7FEA6C5C74
:100A900002D150EA013C07D14FEA430C7FEA6C5C7B
:100AA000D6D152EA033CD3D05DF8040B704700BFA7
:100AB0008446104662468C461946634600E000BFF5
:100AC00001B5FFF7B7FF002848BF10F1000F01BDC7
:100AD0004DF808EDFFF7F4FF0CBF012000205DF892
:100AE00008FB00BF4DF808EDFFF7EAFF34BF012017
:100AF00000205DF808FB00BF4DF808EDFFF7E0FFB0
:100B000094BF012000205DF808FB00BF4DF808ED00
:100B1000FFF7CEFF94BF012000205DF808FB00BF67
:100B20004DF808EDFFF7C4FF34BF012000205DF849
:100B300008FB00BF4FEA410C7FEA6C5C02D150EA2F
:100B4000013C0AD14FEA430C7FEA6C5C02D152EAC5
:100B5000033C02D14FF0000070474FF00100704796
:100B60004FEA410212F5001215D211D56FF47873D5
:100B7000B3EB625212D94FEAC12343F0004343EA78
:100B8000505311F0004F23FA02F018BF4042704753
:100B90004FF00000704750EA013005D111F00040DD
:100BA00008BF6FF0004070474FF00000704700BF73
:100BB00080F0004002E000BF81F0004142001FBF12
:100BC0005FEA410392EA030F7FEA226C7FEA236C1B
:100BD0006AD04FEA1262D2EB1363C1BFD218414010
:100BE00048404140B8BF5B42192B88BF704710F0A6
:100BF000004F40F4000020F07F4018BF404211F049
:100C0000004F41F4000121F07F4118BF494292EAB0
:100C1000030F3FD0A2F1010241FA03FC10EB0C00DC
:100C2000C3F1200301FA03F100F0004302D5494269
:100C300060EB4000B0F5000F13D3B0F1807F06D316
:100C400040084FEA310102F10102FE2A51D2B1F10E
:100C5000004F40EBC25008BF20F0010040EA030003
:100C60007047490040EB0000013A28BFB0F5000F83
:100C7000EDD2B0FA80FCACF1080CB2EB0C0200FA39
:100C80000CF0AABF00EBC25052421843BCBFD04088
:100C90001843704792F0000F81F4000106BF80F402
:100CA00000000132013BB5E74FEA41037FEA226CC5
:100CB00018BF7FEA236C21D092EA030F04D092F090
:100CC000000F08BF0846704790EA010F1CBF0020C4
:100CD000704712F07F4F04D1400028BF40F0004021
:100CE000704712F100723CBF00F50000704700F041
:100CF000004343F0FE4040F4000070477FEA226268
:100D000016BF08467FEA23630146420206BF5FEA38
:100D1000412390EA010F40F4800070474FF0000338
:100D200004E000BF10F0004348BF40425FEA000CFF
:100D300008BF704743F0964301464FF000001CE0A7
:100D400050EA010208BF70474FF000030AE000BFFD
:100D500050EA010208BF704711F0004302D540423B
:100D600061EB41015FEA010C02BF844601460020AD
:100D700043F0B64308BFA3F18053A3F50003BCFAC8
:100D80008CF2083AA3EBC25310DB01FA02FC634475
:100D900000FA02FCC2F12002BCF1004F20FA02F27C
:100DA00043EB020008BF20F00100704702F120026F
:100DB00001FA02FCC2F1200250EA4C0021FA02F2D0
:100DC00043EB020008BF20EADC70704710B5054C09
:100DD000237833B9044B13B10448AFF300800123E7
:100DE000237010BDDC01002000000000207C000802
:100DF00008B5034B1BB103490348AFF3008008BD9E
:100E000000000000E0010020207C000830B585B023
:100E1000054600240FE04FF40051144801F0A6FCF1
:100E200000231A4619461248006802F0D0FD4FF41C
:100E3000FA7002F01FFAC8210D4B186802F060FF2B
:100E40000128F4D1684603F0E8FC0028E8D1013419
:100E5000002364226946284602F0B9FD0128DAD051
:100E60002146044804F0C0FCDAE700BF001001404E
:100E700064040020547C000870B58CB005460468FA
:100E800046684FF0FF3208A9204602F0B1FE012863
:100E9000F7D1BDF92000B5F90830C01AFFF742FFBD
:100EA0004FF06251FFF73CF90190BDF92200B5F90E
:100EB0000A30C01AFFF736FF4FF06251FFF730F9E2
:100EC0000290BDF92400B5F90C30C01AFFF72AFFD3
:100ED0004FF06251FFF724F903900023642201A927
:100EE000304602F074FDCCE7F0B58DB0044600202A
:100EF00003F0B2FE274A0021084603F0FBFE21461C
:100F0000254804F071FC002514E00598FFF720FB4C
:100F100006460F460798FFF71BFBCDE9020106982E
:100F2000FFF716FBCDE9000132463B4629461B4838
:100F300004F05AFC4FF0FF3205A9204602F058FE9B
:100F40000128F7D101356421154B186802F0D8FE4D
:100F50000128DAD1059A0121022003F0E7FE069A62
:100F60000121032003F0E2FE079A0121042003F08F
:100F7000DDFE2846FFF7D2FE02466421042003F07E
:100F8000D5FE00231A4619460548006802F01FFDE9
:100F9000BBE700BF787C0008807C00089C7C0008D0
:100FA00064040020034B0360034B0B608023136039
:100FB000704700BFF8030020F801002008B5024880
:100FC00004F012FC72B6FEE7C87C000808B503689E
:100FD000B3F1804F00D008BD00F050FFFBE772B6C0
:100FE000FEE710B590B006AC28220021204604F0A0
:100FF00077FD002301930293039304930593022347
:10100000069301230A9310230B93204600F072FFEE
:1010100060B90F230193002102910391049105917E
:1010200001A801F099F918B910B010BDFFF7D7FF6A
:10103000FFF7D5FF00B585B000F00EFFFFF7D1FF39
:1010400003F014FB03F00AF903F04EF903F07AFC05
:1010500003F034FE03F09DFB18B1374804F02CFC7C
:10106000FEE703F0CAFB0146344804F0BDFB002351
:10107000ADF80E30ADF80C30ADF80A300DF10A02C3
:1010800003A90DF10E0003F007FC012002F03AFD68
:101090002B4B1860002847D000220E21082002F0B8
:1010A0006BFC284C206000221C21042002F064FC10
:1010B000254B18602368002B3AD0002838D0234CE9
:1010C00023606060BDF80E202281BDF80C20628193
:1010D000BDF80A20A28100250195022600964FF452
:1010E00080721B491B4801F003FF019500962346BF
:1010F0004FF400721849194801F0FAFE01950123D6
:101100000093114B1B684FF480721549154801F08C
:10111000EFFE03F09BF9144804F0CEFB134804F0F3
:10112000CBFB01F017FFFEE7114804F0C5FBFEE71B
:10113000104804F0C1FBFEE7E87C0008147D0008BD
:10114000640400206C040020680400205404002083
:101150007C7D00080D0E0008887D0008790E0008CF
:10116000947D0008E90E0008A07D0008E47D0008D9
:10117000387D00085C7D0008FEE7FEE7FEE7FEE73D
:10118000FEE7704708B5024801F0ECFB08BD00BF60
:101190004030002008B5024801F0E4FB08BD00BF64
:1011A000FC2F002008B5024800F066F808BD00BF1B
:1011B000B42F002008B5024800F02EFC08BD00BF87
:1011C0008430002082B00E4B9A6942F001029A618D
:1011D0009A6902F001020092009ADA6942F08052A4
:1011E000DA61DB6903F080530193019B054A536880
:1011F00023F0E06343F00073536002B0704700BF18
:1012000000100240000001407047000090F83D309F
:10121000012B27D1022380F83D300268D36843F0C8
:101220000103D3600368114A934210D0B3F1804F99
:101230000DD0A2F59432934209D002F58062934218
:1012400005D01A6842F001021A60002070479A68BF
:1012500002F00702062A07D01A6842F001021A605B
:10126000002070470120704700207047002C01408B
:10127000704770477047704770B504460368DE6872
:101280001D6915F0020F10D016F0020F0DD06FF08F
:1012900002021A610123037703689B6913F0030FAD
:1012A0005ED0FFF7E6FF0023237715F0040F12D07E
:1012B00016F0040F0FD023686FF004021A610223A6
:1012C000237723689B6913F4407F4FD02046FFF7B4
:1012D000D0FF0023237715F0080F12D016F0080F67
:1012E0000FD023686FF008021A6104232377236864
:1012F000DB6913F0030F40D02046FFF7BAFF00234D
:10130000237715F0100F12D016F0100F0FD02368AE
:101310006FF010021A61082323772368DB6913F446
:10132000407F31D02046FFF7A4FF0023237715F03C
:10133000010F02D016F0010F2DD115F0800F02D051
:1013400016F0800F2FD115F0400F02D016F0400F8D
:1013500031D115F0200F02D016F0200F33D170BD1F
:10136000FFF786FF2046FFF785FF9CE72046FFF743
:101370007FFF2046FFF77EFFABE72046FFF778FFB1
:101380002046FFF777FFBAE72046FFF771FF2046B8
:10139000FFF770FFC9E723686FF001021A6120466A
:1013A000FFF714FEC9E723686FF080021A61204638
:1013B00000F081F8C7E723686FF040021A61204609
:1013C000FFF759FFC5E723686FF020021A61204636
:1013D00000F070F8C3E7000003681F4A90420AD08B
:1013E000B0F1804F07D0A2F59432904203D002F5BD
:1013F0008062904203D123F070034A681343164A77
:1014000090420AD0B0F1804F07D0A2F594329042BA
:1014100003D002F58062904203D123F44073CA687E
:10142000134323F080034A69134303608B68C3624C
:101430000B688362084B98420AD001234361036919
:1014400013F0010F03D0036923F001030361704718
:101450000B690363F1E700BF002C014040B310B5F6
:10146000044690F83D30F3B1022384F83D30214624
:1014700051F8040BFFF7B0FF012384F8463084F8DD
:101480003E3084F83F3084F8403084F8413084F8AE
:10149000423084F8433084F8443084F8453084F88E
:1014A0003D30002010BD80F83C30FFF7ADFEDBE79B
:1014B0000120704770477047026802F10C0353E83F
:1014C000003F23F0C0030C3242E800310029F3D181
:1014D000202380F841307047026802F10C0353E882
:1014E000003F23F490730C3242E800310029F3D11D
:1014F000026802F1140353E8003F23F001031432A1
:1015000042E800310029F3D1036B012B05D02023E1
:1015100080F84230002303637047026802F10C0335
:1015200053E8003F23F010030C3242E80031002959
:10153000F3D1ECE790F84130212B01D00220704725
:101540008368B3F5805F17D0036A5A1C02621A7869
:1015500003685A60C38C9BB2013B9BB2C3844BB9F6
:101560000268D36823F08003D3600268D36843F035
:101570004003D360002070470369002BE4D1036A65
:101580001B880268C3F308035360036A02330362D3
:10159000E0E7000010B504460268136923F44053E5
:1015A000C1680B43136183680269134342691A439C
:1015B0000168CB6823F4B05323F00C031343CB60D2
:1015C0000268536923F4407381690B4353610268D5
:1015D000134B9A4220D000F07BFF024602EB8202BE
:1015E00002EB820263689B00B2FBF3F20D48A0FBA2
:1015F00002314909642303FB11231B013233A0FB91
:1016000003035B0903F0F00202EB011203F00F0386
:10161000216813448B6010BD00F06AFF0246DDE7CD
:10162000003801401F85EB512DE9F04383B005469A
:101630000E4617469946DDF828802B681C6836EA66
:1016400004040CBF01240024BC4228D1B8F1FF3FA0
:10165000F3D000F01FFCA0EB0900404523D8B8F1FF
:10166000000F22D02B68DA6812F0040FE5D0802E2C
:10167000E3D0402EE1D01A6812F0080FDDD000242C
:1016800001941A6801925B680193019B2846FFF759
:1016900023FF08236B6485F84040012000E0002010
:1016A00003B0BDE8F0830320FAE70320F8E760B356
:1016B00010B5044690F8413013B3242384F8413028
:1016C0002268D36823F40053D3602046FFF762FFFB
:1016D0002268136923F4904313612268536923F04D
:1016E0002A0353612268D36843F40053D360002077
:1016F0006064202384F8413084F84230606310BD78
:1017000080F8403002F00AFED7E7012070472DE94B
:10171000F04182B01E4690F84130202B56D104464D
:101720000D469046002955D00AB901204FE000230C
:101730004364212380F8413000F0ACFB0746A4F855
:101740002480A4F82680A368B3F5805F02D04FF010
:10175000000814E023692BB34FF000080FE02023AA
:1017600084F84130032032E038F8023B2268C3F3AA
:1017700008035360E28C92B2013A92B2E284E38CA5
:101780009BB293B100963B46002280212046FFF792
:101790004BFF0028E3D1002DE6D015F8012B23687C
:1017A0005A60E7E7A8460025E9E700963B46002295
:1017B00040212046FFF738FF18B9202384F8413034
:1017C00005E0202384F84130032000E0022002B02D
:1017D000BDE8F0810120FAE738B590F84130202BC0
:1017E00030D1044600292FD00AB9012038BD01624A
:1017F0008284C28400234364212084F84100A06BCA
:10180000124D8562A06B124DC562A06B114D056330
:10181000A06B436320681346021DA06B00F0FAFF23
:1018200023686FF040021A60226802F1140353E843
:10183000003F43F08003143242E800310029F3D125
:101840000020D3E70220D1E70120CFE75918000894
:10185000C1180008D118000808B50346406A1B6883
:101860001B6813F0200F1AD10023C384026802F111
:10187000140353E8003F23F08003143242E80031A0
:101880000029F3D1026802F10C0353E8003F43F052
:1018900040030C3242E800310029F3D108BD02F0C8
:1018A00051FEFBE708B50168CA6822F04002CA6031
:1018B000202280F8412002F045FE002008BD70473C
:1018C00008B5406AFFF7FBFF08BD704770477047D7
:1018D00010B5446A23685B6994F84120212A0FD02F
:1018E00023685B6903F0400394F84220222A11D058
:1018F000636C43F0100363642046FFF7E8FF10BDFC
:1019000003F08003002BEBD00023E3842046FFF795
:10191000D3FDE5E7002BEBD00023E3852046FFF75E
:10192000DBFDE5E708B5406A0023C385C384FFF704
:10193000CEFF08BD90F84230222B69D18368B3F501
:10194000805F4FD0826AB3F5805F04D0002B56D100
:101950000369002B53D103685B681370836A0133FA
:101960008362C38D9BB2013B9BB2C385002B51D1D7
:1019700000B583B00268D36823F02003D360026807
:10198000D36823F48073D3600268536923F00103A2
:101990005361202380F8423000234363036B012B03
:1019A00033D100230363026802F10C0353E8003FC4
:1019B00023F010030C3242E800310029F3D1036810
:1019C0001A6812F0100F06D0002201921A680192D4
:1019D0005B680193019B818D02F002FE002003B041
:1019E0005DF804FB0269002AACD1826A03685B6877
:1019F000C3F308031380836A02338362B1E7036889
:101A00005B6803F07F031370A8E7FFF75EFFE5E76D
:101A1000022070470020704710B582B0044602686B
:101A20001368D068516913F00F0F09D113F0200F1C
:101A30000CD010F0200F09D02046FFF77BFF16E0F6
:101A400011F0010115D110F4907F12D1216B012901
:101A500079D013F0800F03D010F0800F40F0138185
:101A600013F0400F03D010F0400F40F0108102B08F
:101A700010BD13F0010F06D010F4807F03D0626C0C
:101A800042F00102626413F0040F04D019B1626CD9
:101A900042F00202626413F0020F04D019B1626CCA
:101AA00042F00402626413F0080F07D010F0200F18
:101AB00000D119B1626C42F008026264626C002AC3
:101AC000D5D013F0200F02D010F0200F29D12368B9
:101AD0005B6903F04003626C12F0080F00D163B33E
:101AE0002046FFF7F9FC23685B6913F0400F20D014
:101AF000226802F1140353E8003F23F0400314323C
:101B000042E800310029F3D1E36B73B1624A5A63B2
:101B1000E06B00F0DBFE0028A9D0E06B436B984738
:101B2000A5E72046FFF706FFD1E72046FFF7CFFEE7
:101B30009DE72046FFF7CBFE99E72046FFF7C7FE5B
:101B40000023636493E713F0100F82D010F0100F9E
:101B50003FF47FAF0023019313680193536801930F
:101B6000019B536913F0400F51D0E26B13685B681F
:101B70009BB2002B3FF47BAFA18D99427FF677AFEC
:101B8000E3859369202B37D0226802F10C0353E8D8
:101B9000003F23F480730C3242E800310029F3D176
:101BA000226802F1140353E8003F23F001031432CA
:101BB00042E800310029F3D1226802F1140353E80E
:101BC000003F23F04003143242E800310029F3D1F2
:101BD000202384F8423000232363226802F10C039F
:101BE00053E8003F23F010030C3242E80031002993
:101BF000F3D1E06B00F048FE02236363A18DE38D17
:101C00009BB2C91A89B2204602F0EAFC2FE7A18DE7
:101C1000E38D9BB2C91A89B2E38D9BB2002B3FF4CE
:101C200026AF00293FF423AF226802F10C0353E8EA
:101C3000003F23F490730C3242E800300028F3D1C7
:101C4000226802F1140353E8003F23F00103143229
:101C500042E800300028F3D1202384F842300023EA
:101C60002363226802F10C0353E8003F23F01003C2
:101C70000C3242E800300028F3D10223636320468F
:101C800002F0AEFCF3E62046FFF754FCEFE62046F8
:101C9000FFF708FEEBE600BF2519000808B5406A0B
:101CA00001234363036B012B02D0FFF70FFE08BD36
:101CB000818D490802F094FCF9E708B50346406AB3
:101CC0001B681B6813F0200F2BD10023C38502680B
:101CD00002F10C0353E8003F23F480730C3242E816
:101CE00000310029F3D1026802F1140353E8003FE8
:101CF00023F00103143242E800310029F3D10268D5
:101D000002F1140353E8003F23F04003143242E889
:101D100000310029F3D1202380F84230036B012BDE
:101D200007D000234363036B012B0FD0FFF7CDFDDA
:101D300008BD026802F10C0353E8003F23F01003D2
:101D40000C3242E800310029F3D1EAE7818D02F03C
:101D500047FCEDE730B583B00446134681628285C7
:101D600000254564222280F84220C26B1F48906201
:101D7000E26B1F48D062E26B1E481063E26B556352
:101D800020680A46011DE06B00F044FD01952368C0
:101D90001A6801925B680193019B23695BB1226819
:101DA00002F10C0353E8003F43F480730C3242E825
:101DB00000310029F3D1226802F1140353E8003FF7
:101DC00043F00103143242E800310029F3D12268C4
:101DD00002F1140353E8003F43F04003143242E899
:101DE00000310029F3D1002003B030BDBB1C000836
:101DF0009D1C0008D118000890F84230202B27D1F4
:101E000010B582B0044629B312B9012002B010BD4A
:101E10000123036300234363FFF79CFF236B012B24
:101E200001D00120F2E70023019323681A68019290
:101E30005B680193019B226802F10C0353E8003FA9
:101E400043F010030C3242E800310029F3D1DDE702
:101E5000022070470120D9E708B5074A136843F00C
:101E600010031360032000F053FE0F2002F0BAF9B4
:101E7000FFF7A8F9002008BD00200240034A1168BE
:101E8000034B1B780B441360704700BF70040020A5
:101E900000000020014B1868704700BF700400204C
:101EA00038B50446FFF7F6FF0546B4F1FF3F02D010
:101EB000044B1B781C44FFF7EDFF401BA042FAD3F4
:101EC00038BD00BF0000002082B0084B1B68084AE4
:101ED000A2FB03235B0A00FB03F3019300BF019BFA
:101EE0005A1E0192002BF9D102B070470800002061
:101EF000D34D6210002800F0F18170B582B0044625
:101F0000036813F0010F2CD0994B5B6803F00C03AE
:101F1000042B1DD0964B5B6803F00C03082B12D0EA
:101F20006368B3F5803F41D0002B55D103F1804366
:101F300003F504331A6822F480321A601A6822F416
:101F400080221A6037E08A4B5B6813F4803FE7D049
:101F5000874B1B6813F4003F03D06368002B00F02D
:101F6000BF81236813F0020F75D0814B5B6813F0BB
:101F70000C0F5FD07E4B5B6803F00C03082B54D032
:101F80002369002B00F08A807A4B01221A60FFF748
:101F900081FF0546764B1B6813F0020F75D1FFF7E2
:101FA00079FF401B0228F5D903209EE1704A13688F
:101FB00043F480331360636843B3FFF76BFF054658
:101FC0006B4B1B6813F4003FCBD1FFF763FF401B43
:101FD0006428F5D9032088E1B3F5A02F09D0644B1C
:101FE0001A6822F480321A601A6822F480221A6079
:101FF000E1E703F18043A3F53C331A6842F4802201
:102000001A601A6842F480321A60D4E7FFF742FF80
:102010000546574B1B6813F4003FA2D0FFF73AFF69
:10202000401B6428F5D903205FE1514B5B6813F432
:10203000803FA5D14E4B1B6813F0020F03D02369DC
:10204000012B40F04F814A4A136823F0F80361697D
:1020500043EAC1031360236813F0080F33D0A36968
:10206000002B5CD0434B0122C3F88024FFF712FF02
:1020700005463F4B5B6A13F0020F21D1FFF70AFFC1
:10208000401B0228F5D903202FE1394A136823F0B9
:10209000F803616943EAC1031360DCE7354B0022B2
:1020A0001A60FFF7F7FE0546314B1B6813F0020F6D
:1020B000D1D0FFF7EFFE401B0228F5D9032014E131
:1020C0000120FFF701FF236813F0040F00F0968052
:1020D000274BDB6913F0805F34D1254BDA6942F07E
:1020E0008052DA61DB6903F080530193019B012583
:1020F000214B1B6813F4807F26D0E368012B3DD071
:10210000002B53D103F1804303F504331A6A22F004
:1021100001021A621A6A22F004021A6233E0154BB5
:102120000022C3F88024FFF7B5FE0546104B5B6A1A
:1021300013F0020FC7D0FFF7ADFE401B0228F5D900
:102140000320D2E00025D3E70B4A136843F48073E1
:102150001360FFF79FFE0646074B1B6813F4807F52
:10216000CBD1FFF797FE801B6428F5D90320BCE094
:102170000010024000004242007000405F4A136AB3
:1021800043F001031362E36833B3FFF783FE0646AF
:102190005A4B1B6A13F0020F2FD1FFF77BFE801BF7
:1021A00041F288339842F3D903209EE0052B09D0F1
:1021B000524B1A6A22F001021A621A6A22F00402D1
:1021C0001A62E0E74D4B1A6A42F004021A621A6A78
:1021D00042F001021A62D6E7FFF75CFE0646474B63
:1021E0001B6A13F0020F08D0FFF754FE801B41F268
:1021F00088339842F3D9032077E0E5B9E369002BEF
:1022000072D03E4A526802F00C02082A56D0022BC5
:1022100017D03B4B00221A66FFF73CFE0446374BB3
:102220001B6813F0007F47D0FFF734FE001B022825
:10223000F5D9032059E0314AD36923F08053D361A3
:10224000DCE72F4B00221A66FFF724FE05462B4BD6
:102250001B6813F0007F06D0FFF71CFE401B02280E
:10226000F5D9032041E0236AB3F5803F1AD0234912
:102270004B6823F47413226A606A024313434B6071
:102280001F4B01221A66FFF705FE04461B4B1B6815
:1022900013F0007F0ED1FFF7FDFD001B0228F5D9DA
:1022A000032022E0154A536823F40033A1680B434E
:1022B0005360DCE7002018E0002016E0012B16D068
:1022C0000E4B5B6803F48031226A914211D103F412
:1022D0007013626A93420ED1002006E0012070471D
:1022E000012002E0012000E0002002B070BD0120CA
:1022F000FBE70120F9E70120F7E700BF00100240EB
:10230000000042420F4B5B6803F00C02082A01D028
:102310000D487047C3F383420C49885C13F4803F37
:102320000BD0084B5B68C3F34043094AD35C064AB1
:1023300002FB00F0B0FBF3F07047064B03FB00F02C
:10234000704700BF0010024000127A00D07E0008E3
:10235000CC7E000800093D00002800F0A08070B588
:102360000D460446524B1B6803F007038B420BD209
:102370004F4A136823F007030B431360136803F0FD
:1023800007038B4240F08D80236813F0020F17D0B3
:1023900013F0040F04D0474A536843F4E0635360DA
:1023A000236813F0080F04D0424A536843F4605383
:1023B0005360404A536823F0F003A1680B43536015
:1023C000236813F0010F31D06368012B20D0022B5A
:1023D00025D0384A126812F0020F64D035494A6895
:1023E00022F0030213434B60FFF754FD0646314BC6
:1023F0005B6803F00C036268B3EB820F16D0FFF743
:1024000049FD801B41F288339842F0D9032045E012
:10241000284A126812F4003FE0D101203EE0254A2C
:10242000126812F0007FD9D1012037E0204B1B68E1
:1024300003F00703AB420AD91D4A136823F00703D0
:102440002B431360136803F00703AB422DD12368BD
:1024500013F0040F06D0174A536823F4E063E168D1
:102460000B435360236813F0080F07D0114A5368D9
:1024700023F46053216943EAC1035360FFF742FF2D
:102480000C4B5B68C3F303130B4AD35CD8400B4B74
:1024900018600B4B186801F0A5FE002070BD0120EC
:1024A00070470120FAE70120F8E70120F6E700BFB6
:1024B0000020024000100240E87E000808000020D2
:1024C00004000020014B1868704700BF080000207E
:1024D00008B5FFF7F7FF044B5B68C3F30223034A19
:1024E000D35CD84008BD00BF00100240E07E000869
:1024F00008B5FFF7E7FF044B5B68C3F3C223034A49
:10250000D35CD84008BD00BF00100240E07E000848
:102510000F2303600B4B5A6802F0030242605A68B3
:1025200002F0F00282605A6802F4E062C2605B6806
:10253000DB0803F4E0630361034B1B6803F007034C
:102540000B607047001002400020024070B582B05E
:102550000024A4469EE07C4DAB4214D00CD8A5F5D7
:102560008015AB420FD005F57025AB420BD0A5F519
:102570008015AB421FD106E0744DAB4203D005F588
:102580008035AB4217D18B68A3B1012B0DD04261CE
:10259000082410E0CC680EE0CC6804340BE0CC6872
:1025A000083408E0CC680C3405E00261082402E03D
:1025B000002400E00424BEF1FF0F37D806464FEA9E
:1025C0008C0233680F25954023EA050304FA02F2D2
:1025D000134333604B6813F0805F59D05C4B9A69AA
:1025E00042F001029A619B6903F001030193019B90
:1025F0004FEA9C02951C574B53F825600CF00305DD
:10260000AD000F23AB4026EA0306534B984214D08B
:1026100003F58063984279D003F58063984277D0C0
:1026200003F58063984206D0042307E0061DACF151
:1026300008029200C5E7032300E00023AB403343C8
:102640000232444D45F822304B6813F4801F61D0AC
:10265000424A936843EA0E0393604B6813F4001FE9
:102660005ED03E4AD36843EA0E03D3604B6813F44E
:10267000003F5BD0394A536843EA0E0353604B680E
:1026800013F4803F58D0354A136843EA0E031360B1
:102690000CF1010C0B6833FA0CF253D0012202FA50
:1026A0000CF203EA020E32EA0303F1D14B68122B5B
:1026B0003FF651AF122B3FF67EAF01A555F823F040
:1026C00087250008952500089F250008B1250008EA
:1026D000B7250008B7250008B7250008B72500086A
:1026E000B7250008B7250008B7250008B72500085A
:1026F000B7250008B7250008B7250008B72500084A
:10270000B725000899250008A5250008012395E7AD
:10271000022393E7114A936823EA0E0393609CE730
:102720000E4AD36823EA0E03D3609FE70B4A53682F
:1027300023EA0E035360A2E7084A136823EA0E0354
:102740001360A5E702B070BD000022100000311038
:102750000010024000000140000801400004014058
:102760000AB101617047090401617047C36801EA59
:10277000030221EA030141EA02410161704730B4DA
:102780000124056CAC40C56B6C60046863604368F1
:10279000102B05D0036899600368DA6030BC70477D
:1027A00003689A600368D960F8E7000050B310B47A
:1027B00002460168144B0B441448A0FB03031B0999
:1027C0009B001364124BD363022382F82130086804
:1027D0006FF30D10536894682343D468234314693E
:1027E00023435469234394692343D4692343034314
:1027F0000B6000209063012382F8213082F82000D2
:1028000010BC704701207047F8FFFDBFCDCCCCCC89
:102810000000024038B5044690F82000012831D06D
:10282000012084F8200094F82100012804D000231E
:1028300084F82030022038BD022084F821000020D6
:10284000A0632568286820F0010028602046FFF773
:1028500096FFE36A5BB12268136843F00E031360CE
:102860002268136843F0010313600020E3E7226845
:10287000136823F0040313602268136843F00A030B
:102880001360EDE70220D6E7034690F82120022AE4
:1028900006D004228263002280F8202001207047A5
:1028A00001680A6822F00E020A6001680A6822F0D4
:1028B00001020A60026CC06B012101FA02F242605F
:1028C00083F82110002083F82000704708B590F8A5
:1028D0002130022B03D004238363012008BD02684A
:1028E000136823F00E0313600268136823F00103DA
:1028F00013600368194A934214D0143293421FD0D4
:10290000143293421ED0143293421ED0143293429A
:102910001ED01432934202D04FF0807203E04FF485
:10292000801200E001220E4B5A60012380F8213012
:10293000002380F82030436B6BB198470020CDE72F
:102940001022F0E74FF48072EDE74FF48052EAE78F
:102950004FF48032E7E70020C0E700BF08000240E4
:102960000000024038B5C36B1A6804682568016C22
:1029700004238B40134235D015F0040F32D0236866
:1029800013F0200F03D1236823F0040323600368AE
:10299000434A934214D01432934218D014329342D3
:1029A00017D01432934217D01432934217D01432F6
:1029B000934202D04FF0806203E04FF4800200E0C7
:1029C0000422384B5A60C36A03B1984738BD40228D
:1029D000F7E74FF48062F4E74FF48042F1E74FF4F9
:1029E0008022EEE702238B4013423CD015F0020F09
:1029F00039D0236813F0200F06D1236823F00A038F
:102A00002360012380F821300368254A934214D0C3
:102A1000143293421CD0143293421BD0143293428E
:102A20001BD0143293421BD01432934202D04FF089
:102A3000007203E04FF4001200E00222194B5A60CA
:102A4000002380F82030836A002BBFD09847BDE771
:102A50002022F3E74FF40072F0E74FF40052EDE765
:102A60004FF40032EAE708238B401342AED015F052
:102A7000080FABD0236823F00E032360026CC16BF8
:102A8000012303FA02F24A60836380F821300023B5
:102A900080F82030036B002B98D0984796E700BF52
:102AA0000800024000000240002808DB0901C9B20A
:102AB00000F1604000F5614080F80013704700F0BD
:102AC0000F000901C9B2014B1954704714ED00E021
:102AD00000B500F00700C0F1070CBCF1040F28BFDF
:102AE0004FF0040C031D062B0FD9C31E4FF0FF3E01
:102AF0000EFA0CF021EA000199400EFA03FE22EAD8
:102B00000E0241EA02005DF804FB0023EEE700003C
:102B1000074AD36823F4E0631B041B0C000200F493
:102B2000E060034343F0BF6343F40033D360704776
:102B300000ED00E010B50446054BD868C0F3022054
:102B4000FFF7C6FF01462046FFF7AEFF10BD00BFEE
:102B500000ED00E0002807DB00F01F024009012320
:102B60009340024A42F82030704700BF00E100E085
:102B700070470000074B1B681B6823B9064B4FF0DA
:102B8000FF321A607047034B1B68DB681A68024B00
:102B90001A607047E40400207C0400202DE9F0470F
:102BA00080460D4617469946089EDDF824A00A9CEB
:102BB0009200A521206B02F093FF236B07F1804266
:102BC000013A03EB820727F00707A5B34FF0000C8B
:102BD000BCF10F0F09D815F80C3004EB0C0282F889
:102BE000343013B10CF1010CF2E7002384F84330C8
:102BF0001F2E00D91F26E662E66400252565201DEC
:102C000000F087FD04F1180000F083FD2461C6F197
:102C10002006A6616462656584F858504A464146BC
:102C2000384601F031FA2060BAF1000F01D0CAF83D
:102C30000040BDE8F087002384F83430D8E7000076
:102C400038B5002407E004EB840293000E481844D2
:102C500000F054FD01341F2CF5D90C4D284600F02E
:102C60004DFD0B4C204600F049FD0A4800F046FDA2
:102C7000094800F043FD094800F040FD084B1D6085
:102C8000084B1C6038BD00BF10050020FC0400206C
:102C9000E8040020CC040020B8040020A004002098
:102CA000E4040020E004002010B5044601F012FA0C
:102CB000294A136801331360284B1B685BB1284B0A
:102CC0001B686BB9254B1B68DA6AE36A9A4207D81E
:102CD000224B1C6004E0214B1C601368012B37D091
:102CE000204A1368013313606364E36A01229A4047
:102CF0001D49086802430A601C4A03EB830302EB88
:102D000083035B68A3609868E060211D416099605F
:102D1000E36A03EB8301880002EB810161611158D2
:102D20000131115001F0E6F90D4B1B687BB10B4BE3
:102D30001B68DA6AE36A9A4209D24FF0E0234FF047
:102D40008052C3F8042DBFF34F8FBFF36F8F10BDB8
:102D5000FFF776FFC4E700BF9C0400209007002027
:102D6000900400208004002094040020100500201E
:102D700010B5044690F8593013B1012B07D010BD9F
:102D8000006B01F035F9204601F032F9F7E701F068
:102D90002FF9F4E70F4B1B68D3B110B501F09AF986
:102DA0000D4BDB68DC68201D00F0CFFC0B4A13687C
:102DB000013B1360074A1368013B136001F09AF965
:102DC0002046FFF7D5FF034B1B68002BE6D110BD53
:102DD000704700BFB4040020B80400209C04002009
:102DE00008B5FFF7D7FF074B1B68012BF9D94FF048
:102DF000E0234FF08052C3F8042DBFF34F8FBFF391
:102E00006F8FEEE71005002070B504460D46234B8A
:102E10001E68234B1868043000F097FC48B9204B1B
:102E20001B68DB6A01229A401E490B6823EA0203F1
:102E30000B60B4F1FF3F0DD03444194B1B685C604C
:102E4000A6421DD9184B1868154B1968043100F0BB
:102E500063FC70BD002DEFD0144A5168104B186808
:102E6000816018688C68C4601868043060601868F5
:102E7000043088601B685A61136801331360E8E707
:102E80000B4B1868064B1968043100F045FC094BE0
:102E90001B68A342DDD9074B1C60DAE798040020C9
:102EA0009007002094040020E0040020A0040020EB
:102EB000E40400207C04002030B587B00B9D0C9CFE
:102EC0008CB185B12563022584F8595000250395FE
:102ED000029405AD01950A9D0095FFF75FFE20461F
:102EE000FFF7E2FE01E000230593059807B030BD2F
:102EF0002DE9F04385B00746884614461E469000EB
:102F000001F004F808B381465C2000F0FFFF05469D
:102F1000A8B1C0F83090002380F859300393029094
:102F20000D9B01930C9B0093334622464146384645
:102F3000FFF734FE2846FFF7B7FE012007E04846BA
:102F400001F056F84FF0FF3001E04FF0FF3005B0D0
:102F5000BDE8F08310B588B000240594069407AA54
:102F600006A905A8FEF71EF8059B0293069B019390
:102F700000942346079A0F490F48FFF79DFF0F4B18
:102F8000186090B14FF0500383F31188BFF36F8F37
:102F9000BFF34F8F0A4B4FF0FF321A60094B0122EB
:102FA0001A60094B1C6001F0FFF8084B1B6808B061
:102FB00010BD00BF347E0008E12D00087804002019
:102FC0007C0400209004002098040020F87E000873
:102FD000024A136801331360704700BF7404002075
:102FE000F8B54C4B1B68002B40F08D804A4B1C6899
:102FF00001341C60ACB1494B1B68A3421ED90020B0
:10300000474B1B68DB6A03EB83039A00454B9B58D5
:10301000012B00D90120444B1B68002B78D00120E4
:1030200076E0424A1168424B186810601960414AC4
:10303000136801331360FFF79DFDDCE7002037E0E4
:10304000364B4FF0FF321A60DAE7344B1A60D7E79D
:10305000D968516042E0002199621168013911601C
:10306000DA6A01219140344E3768394331602D4985
:1030700002EB82024FEA820C8C44DCF804209A6056
:103080009668DE6075609560DA6A02EB820C4FEA42
:103090008C056E185E614D5901354FEA8C0C41F874
:1030A0000C50DA6A1E4B1B68DB6A9A4200D301207F
:1030B0001E4B1B681B68002BC2D01C4B1B68DB68B7
:1030C000DB685A689442C0D35A699D68D968A96080
:1030D0009D684D6051681D1DA942B9D000215961FC
:1030E0001168013911609A6A002AB9D0DE69196A3B
:1030F000B160DE694E60566803F118018E42AAD1B4
:10310000196A5160A7E70D4A136801331360002064
:10311000F8BD00BF74040020980400207C04002047
:10312000900700201005002088040020E4040020FF
:10313000E004002084040020940400208C0400207B
:1031400038B500F0C7FF434B1A68013A1A601B6894
:10315000002B7AD1404B1B683BB9002476E0196AFA
:10316000516015E0D968516021E000233B4A1268A4
:10317000002A47D0394BDB68DB689A6AD869196A3C
:103180008160D8694860506803F118018842E6D030
:10319000002199621168013911605A699868D968EB
:1031A0008160986848605168181D8142DAD000211A
:1031B0005961116801391160DA6A01219140284C86
:1031C000256829432160274902EB820201EB820234
:1031D00052689A609468DC6060609060DA6A02EB22
:1031E0008200840001EB80005861085901300851C9
:1031F000D96A1D4A1268D26A9142B7D31B4A01218B
:103200001160B3E70BB1FFF7B5FC194B1C6884B92B
:10321000164B1C68D4B14FF0E0234FF08052C3F836
:10322000042DBFF34F8FBFF36F8F01240EE0013CDD
:1032300007D0FFF7D5FE0028F9D00C4B01221A6009
:10324000F5E70B4B00221A60E2E7002400F052FF82
:10325000204638BD740400209C040020CC040020CB
:10326000940400201005002090070020880400200E
:103270008C04002010B550B94FF0E0234FF080527D
:10328000C3F8042DBFF34F8FBFF36F8F10BD0446FB
:10329000FFF79EFE00212046FFF7B6FDFFF750FF27
:1032A0000028F3D1E8E7000008B5264B1B681BB1E6
:1032B000254B01221A6008BD234B00221A60234BC4
:1032C0001B681B6B1A68B2F1A53F03D15A68B2F1B3
:1032D000A53F26D01D4B186819683431FDF76EFEE6
:1032E0001B4B1B68B3FA83F3DBB2C3F11F0319480E
:1032F00003EB83018A00024451684968516003EB83
:10330000830C4FEA8C0208320244914212D003EB44
:1033100083039A000F4B13445B68DA680B4B1A6007
:10332000C9E79A68B2F1A53FD4D1DB68B3F1A53FF4
:10333000D0D1D5E7486862469100064A0A445060F9
:10334000E5E700BF740400208804002090070020F7
:10335000940400201005002010B50C46044B196899
:10336000183100F0D9F901212046FFF74DFD10BDBD
:103370009007002030B4C368DB689A6AD869196A7C
:103380008160D8694860516803F1180081423ED0DD
:1033900000219962116801391160274A1268002AD8
:1033A0003BD15A699868D9688160986848605168CB
:1033B000181D81422ED00021596111680139116018
:1033C000DA6A012191401D4C2568294321601C497E
:1033D00002EB820201EB820252689A609468DC6020
:1033E00060609060DA6A02EB8200840001EB80008A
:1033F0005861085901300851DA6A124B1B68DB6AC0
:103400009A4216D90120104B186030BC7047196AD7
:103410005160BDE7D9685160CDE70C4A5168D96168
:103420008C681C62606088609A621168013111606A
:10343000E2E70020E9E700BF7404002094040020C4
:10344000100500209007002088040020CC040020F4
:10345000034B1B680360034B1B684360704700BF4E
:10346000840400209804002070B504460D4600F046
:1034700031FE134B19686368C81A2A68B2F1FF3F1E
:1034800019D0104E3668D4F800C0B44505D08B4230
:1034900003D800232B6001240EE0824203D80023CE
:1034A0002B60012408E05B1A13442B602046FFF7D1
:1034B000CFFF002400E0002400F01CFE204670BD79
:1034C0009804002084040020014B01221A607047F8
:1034D00088040020054B1B6833B1054B1B680BB1FA
:1034E00000207047022070470120704790040020A0
:1034F00074040020002854D070B50446C36A2B4AD7
:103500001268D26A934244D28269002A05DB274AB4
:103510001268D26AC2F120028261616903EB8303FF
:10352000234A02EB8303994205D0204B1B68DB6AD8
:10353000E362012070BD251D284600F006F938B968
:10354000E36A01229A401B490B6823EA02030B60DD
:10355000164B1B68DB6AE362012000FA03F215498F
:103560000E6832430A60124A03EB830302EB8303C3
:103570005B68A3609968E1604D609D60E36A03EB5E
:1035800083018D0002EB8101616151590144515168
:10359000D0E7C26C054B1B68DB6A9A4203D300205C
:1035A000C8E7002070470120C4E700BF9007002053
:1035B000100500209404002000283AD070B504467D
:1035C000036D013B0365C16AC26C914233D00BB1FC
:1035D000002070BD051D284600F0B7F838B9E36A31
:1035E00001229A4015490B6823EA02030B60E36C41
:1035F000E362C3F12002A261012000FA03F20F4945
:103600000E6832430A600E4A03EB830302EB830326
:103610005B68A3609968E1604D609D60E36A03EBBD
:1036200083018D0002EB81016161515901445151C7
:10363000CFE7002070470020CBE700BF94040020B4
:1036400010050020002845D038B50446C36C8B42D5
:1036500000D20B46E26A9A4202D0216D012900D0C5
:1036600038BDE362A169002902DBC3F12003A36135
:10367000616902EB8202184B03EB82039942EFD19E
:10368000251D284600F061F838B9E36A01229A4006
:1036900012490B6823EA02030B60E36A01229A4095
:1036A0000E49086802430A600B4A03EB830302EBEE
:1036B00083035B68A3609968E1604D609D60E36A85
:1036C00003EB8301880002EB810161611158013134
:1036D0001150C5E7704700BF10050020940400207A
:1036E000054B1B6823B1044B1A68136D0133136536
:1036F000014B1868704700BF9007002000F10803D5
:1037000043604FF0FF328260C360036100230360B7
:10371000704700230361704730B40D68B5F1FF3F77
:1037200011D000F108031C465B681A68AA42FAD956
:1037300063684B6099608C60616008610368013365
:10374000036030BC70470469F2E70369416882682E
:103750008A60416851605A68824206D00022026144
:103760001A68013A1A601868704782685A60F5E76B
:103770000346406A18B11B6B1868C0F120007047FF
:1037800010B5044600F0A6FCA26BE36B9A4204D08D
:10379000002400F0AFFC204610BD0124F9E710B56D
:1037A000044600F097FCA36B23B9012400F0A2FCAF
:1037B000204610BD0024F9E770B504461546866B17
:1037C000026C5AB903681BB100200136A66370BDB4
:1037D0008068FFF7F1FE0023A360F6E76DB940684B
:1037E00002F005FA6368226C13446360A268934296
:1037F00019D3236863602846E7E7C06802F0F7F949
:10380000E368226C51429B1AE3602268934202D221
:10381000A3680B44E360022D01D00020D5E726B158
:10382000013E0020D1E72846CFE70020CDE708B5CC
:103830000346026C62B10846D9681144D960D3F8D6
:1038400008C0614501D31968D960D96802F0CFF981
:1038500008BD38B5054600F03DFC95F8454064B21A
:1038600001E0013C64B2002C0ADD6B6A43B105F152
:103870002400FFF77FFD0028F3D0FFF725FEF0E7D7
:10388000FF2385F8453000F035FC00F023FC95F867
:10389000444064B201E0013C64B2002C0ADD2B69B3
:1038A00043B105F11000FFF765FD0028F3D0FFF7E5
:1038B0000BFEF0E7FF2385F8443000F01BFC38BD19
:1038C000002844D038B50D460446C36B002B40D0C9
:1038D000026C0021A2FB032313B919B1002039E0C7
:1038E0000121FAE700F0F6FB2368E26B216C01FB93
:1038F0000230A0600020A0636360013A02FB013344
:10390000E360FF2384F8443084F84530B5B9236977
:103910001BB900F0EFFB01201CE004F11000FFF7E1
:1039200029FD0028F5D04FF0E0234FF08052C3F876
:10393000042DBFF34F8FBFF36F8FEAE704F1100040
:10394000FFF7DCFE04F12400FFF7D8FEE1E70020DA
:103950007047002038BD38B51D46049C0B4649B958
:103960002460E063236401212046FFF7A9FF84F867
:103970004C5038BD2260F4E7F0B583B0F8B10C4686
:10398000174606460023A4FB0012B2B9DBB904FBBC
:1039900006F010F1510F18D8503000F0B7FA054674
:1039A00070B1002380F8463000903B4600F1500291
:1039B00021463046FFF7CFFF02E00123E6E700256E
:1039C000284603B0F0BD0025FAE70025F8E7F0B57A
:1039D00085B004460F4601921D4600263DE02A466A
:1039E00039462046FFF7E8FE636A7BB948B14FF0DD
:1039F000E0234FF08052C3F8042DBFF34F8FBFF385
:103A00006F8F00F077FB012005B0F0BD04F12400BA
:103A1000FFF7B0FC0028F4D04FF0E0234FF08052C5
:103A2000C3F8042DBFF34F8FBFF36F8FE9E700F0AA
:103A300061FB0020E8E702A8FFF70AFD012619E074
:103A4000002384F8443021E0002384F8453023E04B
:103A50002046FFF7FEFEFFF773FB00F03BFBA26B77
:103A6000E36B9A42BBD3022DB9D0019B002BDED071
:103A7000002EE0D000F03EFBFFF7AAFA00F02AFB90
:103A800094F8440040B2B0F1FF3FD9D094F845001B
:103A900040B2B0F1FF3FD7D000F02CFB01A902A843
:103AA000FFF7E2FCD8B92046FFF76AFE0028CFD026
:103AB000019904F11000FFF74FFC2046FFF7C9FE03
:103AC000FFF73EFB0028C8D14FF0E0234FF08052B3
:103AD000C3F8042DBFF34F8FBFF36F8FBDE72046B0
:103AE000FFF7B7FEFFF72CFB00208DE748B108B5C4
:103AF000002181600160C1600B460A46FFF767FF45
:103B000008BD704710B5024600210120FFF734FFC1
:103B10000446FFF7EBFF204610BDF8B504461746F4
:103B20001A46EFF311864FF0500383F31188BFF369
:103B30006F8FBFF34F8F806BE36B984205D3022AE0
:103B400003D0002086F31188F8BD94F845506DB27B
:103B5000A36B2046FFF730FEB5F1FF3F05D00135DE
:103B60006DB284F845500120ECE7636A0BB901207F
:103B7000E8E704F12400FFF7FDFB18B127B10120AD
:103B80003860DFE70120DDE70120DBE738B5EFF340
:103B900011844FF0500383F31188BFF36F8FBFF38D
:103BA0004F8F826BC36B93421AD90D4690F8453004
:103BB0005BB201328263B3F1FF3F05D001335BB2E8
:103BC00080F8453001200CE0436A0BB9012008E081
:103BD0002430FFF7CFFB38B145B10120286000E069
:103BE000002084F3118838BD0120FAE70120F8E7AE
:103BF000F0B585B004460F46019200263EE03946F6
:103C00002046FFF714FE013DA563236923B900F0A8
:103C100071FA012005B0F0BD04F11000FFF7AAFB16
:103C20000028F4D04FF0E0234FF08052C3F8042D69
:103C3000BFF34F8FBFF36F8FE9E700F05BFA00200F
:103C4000E8E702A8FFF704FC012621E0002384F83E
:103C5000443029E0002384F845302BE02046FFF76C
:103C6000F8FDFFF76DFA09E02046FFF7F2FDFFF7D8
:103C700067FA2046FFF793FD00283FD100F02AFAAB
:103C8000A56B002DBBD1019B002BD6D0002ED8D028
:103C900000F030FAFFF79CF900F01CFA94F8443079
:103CA0005BB2B3F1FF3FD1D094F845305BB2B3F1D2
:103CB000FF3FCFD000F01EFA01A902A8FFF7D4FB06
:103CC0000028D1D12046FFF76AFD0028C6D001990F
:103CD00004F12400FFF740FB2046FFF7BAFDFFF791
:103CE0002FFA0028CAD14FF0E0234FF08052C3F8DA
:103CF000042DBFF34F8FBFF36F8FBFE7002089E71D
:103D000070B584B0044601910026354649E0013B78
:103D1000A363236833B1236943B900F0EBF90120B1
:103D200004B070BDFFF7DCFCA060F4E704F1100004
:103D3000FFF720FB0028F0D04FF0E0234FF0805237
:103D4000C3F8042DBFF34F8FBFF36F8FE5E700F08B
:103D5000D1F90020E4E702A8FFF77AFB01252AE069
:103D6000002384F8443032E0002384F8453034E006
:103D700000F0B0F9A068FFF7BDFB064600F0BAF905
:103D80003BE02046FFF765FDFFF7DAF909E0204642
:103D9000FFF75FFDFFF7D4F92046FFF700FD00288D
:103DA00042D100F097F9A36B002BB0D1019B002BFF
:103DB000CDD0002DCFD000F09DF9FFF709F900F02C
:103DC00089F994F844305BB2B3F1FF3FC8D094F85E
:103DD00045305BB2B3F1FF3FC6D000F08BF901A9CB
:103DE00002A8FFF741FB0028D1D12046FFF7D7FCFE
:103DF0000028C6D02368002BBAD0019904F1240012
:103E0000FFF7AAFA2046FFF724FDFFF799F90028EB
:103E1000C7D14FF0E0234FF08052C3F8042DBFF319
:103E20004F8FBFF36F8FBCE70EB9002078E700F02B
:103E300051F92046FFF79CFC0146A068FFF702FC01
:103E400000F058F9F1E70000124A12F0070F1ED0F7
:103E5000D11D21F00701C1F5205313440A460E4835
:103E60000260002141601344083B23F007030B4824
:103E7000036059601960991A51601360084B19600A
:103E8000084B1960084B4FF000421A6070474FF41E
:103E90002053E4E7B4070020AC070020A807002067
:103EA000A0070020A407002094070020154B1A4605
:103EB0001B688342FBD3516802EB010C844509D097
:103EC000416800EB010C634509D00360904218D0B3
:103ED000106070474068014451601046F0E710B42C
:103EE000094C2468A3420AD05B68194441601368F6
:103EF0001B680360904200D0106010BC70470460E3
:103F0000F8E77047AC070020A807002038B5044642
:103F1000FFF75EF8304B1B68DBB1304B1B681C426F
:103F20004AD1631E13F10A0F4BD804F1080214F0B2
:103F3000070F05D022F007030833934243D91A46EE
:103F4000002A42D0264B1B68934240D325490C6877
:103F500004E0FFF779FFE0E721461C4663689342DF
:103F600002D22368002BF7D11B4B1B68A34230D031
:103F70000D68083523680B6063689B1A102B15D8F1
:103F8000626817490B689B1A0B60174909688B42D6
:103F900001D215490B60114B1B681343636000236A
:103FA0002360124A13680133136006E0A0184360CF
:103FB0006260FFF77BFFE3E70025FFF7C1F82846C3
:103FC00038BD0025F9E70025F7E70025F5E70025CE
:103FD000F3E70025F1E700BFA807002094070020C1
:103FE000A4070020AC070020A00700209C070020A9
:103FF00018B338B50446A0F1080550F8043C0F4A40
:104000001268134202D050F8081C01B138BD23EAEF
:10401000020340F8043CFEF7DBFF54F8041C084A96
:1040200013680B4413602846FFF740FF054A1368E6
:1040300001331360FFF784F8E8E770479407002026
:10404000A40700209807002082B0002301934FF0BE
:10405000500383F31188BFF36F8FBFF34F8F019B22
:10406000002BFCD002B0704706480068006880F35F
:10407000088862B661B6BFF34F8FBFF36F8F00DF62
:1040800000BF000008ED00E04FF0807340F8043CF2
:1040900021F0010140F8081C034B40F80C3C40F8AB
:1040A000202C4038704700BF494000080000000045
:1040B000074B19680868B0E8F00F80F30988BFF370
:1040C0006F8F4FF0000080F311884EF00D0E704797
:1040D000900700204FF0500383F31188BFF36F8FD8
:1040E000BFF34F8F024A136801331360704700BF5C
:1040F0000C000020034A1368013B13600BB983F3E3
:10410000118870470C000020000000000000000033
:10411000EFF30980BFF36F8F0D4B1A6820E9F00FA2
:1041200010602DE908404FF0500080F31188FFF730
:10413000BBF84FF0000080F31188BDE80840196813
:104140000868B0E8F00F80F30988BFF36F8F7047FD
:104150009007002008B54FF0500383F31188BFF398
:104160006F8FBFF34F8FFEF73BFF28B14FF0E02377
:104170004FF08052C3F8042D002383F3118808BD4B
:104180004FF0E022002313619361054B1B68054942
:10419000A1FB03139B09013B536107231361704784
:1041A00008000020D34D621010B54FF0E023D3F883
:1041B000202D42F47002C3F8202DD3F8202D42F0B8
:1041C0007042C3F8202DFFF7DBFF0024044B1C6076
:1041D000FFF74AFFFFF768F8FFF736FF204610BDEC
:1041E0000C00002000B589B0014600221C20FEF71B
:1041F000A1FC1C20FEF7AEFC154BDA6942F001026F
:10420000DA61DB6903F001030193019B02A903A8B2
:10421000FEF77EF9FEF75CF90E4BA3FB00239B0C27
:10422000013B0D484FF08042026040F2E732C2602D
:104230004360002303618360FDF710F918B101208A
:1042400009B05DF804FB0448FCF7E0FFF8E700BFA5
:104250000010024083DE1B43B42F002070B588B0ED
:1042600004AD002404940594069407941C4B9A69A9
:1042700042F010029A619A6902F010020092009ACC
:104280009A6942F020029A619A6902F02002019232
:10429000019A9A6942F004029A619A6902F0040252
:1042A0000292029A9A6942F008029A619B6903F0AD
:1042B00008030393039B0B4E22464FF460413046A4
:1042C000FEF74EFA4FF460430493012305930694DE
:1042D0000223079329463046FEF738F908B070BD2F
:1042E000001002400010014008B50A480A4B036064
:1042F0004FF4E133436000238360C36003610C2209
:1043000042618361C361FDF7D2F900B908BDFCF7D2
:1043100066FEFBE78430002000380140F0B587B02E
:10432000002302930393049305930268314B9A424E
:1043300001D007B0F0BD044603F558439A6942F432
:1043400080429A619A6902F480420092009A9A69C6
:1043500042F004029A619B6903F004030193019BFC
:104360004FF400730293022303930323059302AFD8
:10437000214E39463046FEF7E9F84FF48063029348
:1043800000250395049539463046FEF7DFF81B48B3
:104390001B4B03601023436085608023C36005616D
:1043A00045618561C561FEF701FAE8B9134BA36366
:1043B0005C621448144B03600023436083608022D6
:1043C000C260036143618361C361FEF7EFF970B9B5
:1043D0000C4BE3635C62002211462520FEF7AAFB2A
:1043E0002520FEF7B7FBA4E7FCF7F9FDDEE7FCF7B5
:1043F000F6FDEDE7003801400008014040300020A4
:1044000044000240FC2F00205800024000B593B049
:104410004FF0FF3201A90A4B1868FFF7E9FB0128AA
:10442000F6D1BDF8442001A90648FDF7D5F90028CA
:10443000EED14FF0FF31044B1868FFF761FCE7E75E
:10444000D431002084300020CC3100201A4B1B686E
:1044500003B1704700B583B0032200210120FFF7AC
:104460008BFA164B186018B3002242211020FFF778
:1044700083FA114B186048B1002301930122009286
:104480004FF480720E490F48FEF732FD00224221A0
:104490000820FFF771FA0C4B186048B10023019314
:1044A000012200924FF4807208490948FEF720FD6E
:1044B00003B05DF804FB00BFD4310020CC310020F4
:1044C0003C7E00080D440008D0310020447E0008E6
:1044D000A54500082DE9F04192B088461646174BD5
:1044E0001B681BB1FEF7F6FF022824D04FF0FF3304
:1044F000B2B241461248FDF70AF9304612B0BDE8A3
:10450000F08101AF224608EB0501384601F06FFB50
:10451000ADF8444000230A22394608480068FFF7F6
:1045200056FA0128E9D12544AE42E6D9741B402C45
:10453000E7D94024E5E70025F6E700BFD4310020A5
:104540008430002002680F4B9A4200D070470E4B17
:1045500018680028FAD000B583B00023019301A9A0
:10456000FFF714FB019B4BB14FF0E0234FF080525B
:10457000C3F8042DBFF34F8FBFF36F8F03B05DF807
:1045800004FB00BF00380140CC31002008B54FF4D7
:10459000807202490248FDF72FFC08BDCC30002094
:1045A0008430002000B593B0FFF7F0FF4FF0FF32EA
:1045B00001A9094B1868FFF71BFB0128F6D1BDF8CC
:1045C000443048336B44002203F8442C01A90348CB
:1045D00001F00AF9EAE700BFD03100204C7E000864
:1045E00002681E4B9A4200D07047F0B593B00E4659
:1045F00089B31B4B1B6873B30024009411E001AF17
:104600002A4618492144384601F0F1FAADF84450E1
:1046100000236A46394612480068FFF77EFA2C44A8
:10462000A4B2B44205D2351BADB2402DE7D9402526
:10463000E5E74FF480720B490B48FDF7DDFB009B6B
:104640004BB14FF0E0234FF08052C3F8042DBFF37D
:104650004F8FBFF36F8F13B0F0BD00BF0038014024
:10466000D0310020CC3000208430002000B583B051
:104670000E4B5A6942F001025A615B6903F0010373
:104680000193019B002211460E20FEF753FA0E20E3
:10469000FEF760FA002211460F20FEF74BFA0F20BA
:1046A000FEF758FA03B05DF804FB00BF00100240AB
:1046B00070B504460D46164600F06AF9640004F031
:1046C000FE0000F0BBF900F0F7F978B9284600F0D9
:1046D000B5F900F0F1F970B9304600F0AFF900F02B
:1046E000EBF9044658B900F07FF902E000F07CF9DC
:1046F0000124204670BD00F077F90124F9E700F0AD
:1047000073F90124F5E7F8B504460F4616461D4631
:1047100000F03EF9600000F0FE0000F08FF900F0BC
:10472000CBF9A8B9384600F089F900F0C5F998B975
:1047300000F05AF900F02CF9600040F00100C0B21E
:1047400000F07CF900F0B8F9074648B9044615E0D6
:1047500000F04AF9012715E000F046F9012711E0C1
:1047600000F042F901270DE0681E844214BF0020CA
:10477000012000F0D7F930550134E4B2AC42F3D354
:1047800000F032F93846F8BD08B50123FFF7BBFF4A
:1047900008BD00B583B00DF1070275216820FFF751
:1047A000F3FF40BB9DF80730682B03D0012003B016
:1047B0005DF804FB00226B216820FFF779FF08B148
:1047C0000120F4E7032219216820FFF771FF08B1E7
:1047D0000120ECE700221C216820FFF769FF08B1E7
:1047E0000120E4E700221B216820FFF761FF002879
:1047F000DDD00120DBE70120D9E700B583B00DF162
:10480000070275216820FFF7BFFF18B1002003B031
:104810005DF804FB9DF80700F9E710B584B0044685
:104820000E236A463B216820FFF76DFF90BB9DF881
:1048300000209DF8013043EA022323809DF80220E6
:104840009DF8033043EA022363809DF804209DF81D
:10485000053043EA0223A3809DF806209DF8073027
:1048600043EA0223A3819DF808209DF8093043EA1A
:104870000223E3809DF80A209DF80B3043EA0223CF
:1048800023819DF80C209DF80D3043EA02236381BB
:1048900004B010BD0120FBE72DE9F04784B080464D
:1048A000894692461F4801F007F80024254626460F
:1048B000274603E00A20FDF7F3FA0134632C10DCED
:1048C0006846FFF7AAFF0028F4D1BDF900301F4465
:1048D000BDF902301E44BDF90430A3F580431D44E8
:1048E000E8E7114A82FB0731FB17C3EB6113A8F815
:1048F000003082FB0631F317C3EB6113A9F80030D7
:1049000082FB0532EB17C3EB62131BB2AAF800302F
:10491000B9F90020B8F90010044800F065FF04B0B0
:10492000BDE8F087587E00081F85EB51847E0008A3
:10493000034B986800F08000003818BF01207047D2
:10494000000C014010B584B00F4B1A6822F0010230
:104950001A601A6822F001021A6069460023009367
:10496000019302930393C023009311230193032324
:104970000393064C2046FDF7E9FD40232361802385
:10498000236104B010BD00BF00540040000C014082
:1049900084B0144B80221A610023019302E0019B32
:1049A00001330193019B4F2BF9DD0E4B40221A611D
:1049B0000023029302E0029B01330293029B4F2BE0
:1049C000F9DD084B80225A610023039302E0039B28
:1049D00001330393039B4F2BF9DD024B40225A61B5
:1049E00004B07047000C014084B0134B80225A6120
:1049F0000023019302E0019B01330193019B4F2BA4
:104A0000F9DD0D4B40221A610023029302E0029B64
:104A100001330293029B4F2BF9DD074B80221A6171
:104A20000023039302E0039B01330393039B4F2B6B
:104A3000F9DD04B0704700BF000C01400022072AD6
:104A400036D884B025E01B4B802159612BE0019BB7
:104A500001330193019B4F2BF9DD164B4021196166
:104A60000023029302E0029B01330293029B4F2B2F
:104A7000F9DD104B402159610023039302E0039BB1
:104A800001330393039B4F2BF9DD0132D2B2072A86
:104A90000CD8C2F1070340FA03F313F0010FD2D090
:104AA000044B8021196100230193D3E704B07047C0
:104AB000704700BF000C014000B583B00A4B802254
:104AC0001A6140221A610023019302E0019B013325
:104AD0000193019B4F2BF9DDFFF72AFF024B402288
:104AE0005A6103B05DF804FB000C014082B040B194
:104AF0000B4B80221A610A4B40221A61002301935A
:104B000006E0074B80225A61F5E7019B01330193D0
:104B1000019B4F2BF9DD024B40225A6102B07047D6
:104B2000000C014070B582B00646174B80221A6116
:104B3000002425461AE0009B01330093009B4F2B75
:104B4000F9DDFFF7F5FE18B1802323412B43DDB2D9
:104B50000D4B40225A610023019302E0019B013377
:104B60000193019B4F2BF9DD0134E4B2072C05D8EA
:104B7000054B40221A6100230093DFE73046FFF720
:104B8000B5FF284602B070BD000C014070B5064666
:104B90000D46FFF7FDFE7820FFF750FFFFF78CFF73
:104BA00088B90020FFF74AFFFFF786FF044668B97F
:104BB000AC4211D2305DFFF741FFFFF77DFF40B9F6
:104BC0000134E4B2F4E7FFF70FFF70BDFFF70CFF0D
:104BD000FBE7FFF709FFF8E7FFF706FFF5E770B51A
:104BE00006460D46FFF7D4FE7820FFF727FFFFF7B4
:104BF00063FF88B94020FFF721FFFFF75DFF044600
:104C000068B9AC4211D2305DFFF718FFFFF754FFCF
:104C100040B90134E4B2F4E7FFF7E6FE70BDFFF7F8
:104C2000E3FEFBE7FFF7E0FEF8E7FFF7DDFEF5E761
:104C300000B583B050388DF8040001F00F038DF8F3
:104C40000530090910318DF80610032101A8FFF77E
:104C50009DFF03B05DF804FB10B5124B1B784BB100
:104C6000114B1B7883420DD0002303E00F4AD05430
:104C70000133DBB213F0800FF8D00A4B01221A7017
:104C8000094B1870002409E000212046FFF7D0FFEF
:104C900080210648FFF7A3FF0134E4B2072CF3D9C3
:104CA00010BD00BF5832002010000020D831002075
:104CB00008B50020FFF7D0FF08BD000010B588B090
:104CC0006420FDF7EDF80DF1040C094C0FCCACE8B5
:104CD0000F0094E80700ACE80300ACF800201A21AC
:104CE00001A8FFF753FFFFF7E3FF08B010BD00BFB7
:104CF000387C000810B51446FFF79AFF09E0203809
:104D000000EB40000621084B03EB4000FFF767FF74
:104D10000134207830B1A0F12003DBB25E2BEED954
:104D20000134F6E710BD00BFFC7E000870B586B008
:104D300004460D4603AE1046FBF70AFCCDE9000120
:104D4000054A0C21304600F0BFFD32462946204678
:104D5000FFF7D0FF06B070BDC47E0008FDF708FF66
:104D60000B480C490C4A002302E0D458C4500433C9
:104D7000C4188C42F9D3094A094C002301E013609E
:104D80000432A242FBD300F0FDFEFCF753F970475A
:104D900000000020DC0100200C850008DC01002060
:104DA000AC330020FEE7002B2DE9F0471D46BBBFCA
:104DB00003F100431D4600232D2388B01446B8BFDD
:104DC0001446129A109E1370149BDDF84CA023F029
:104DD0002008B8F1460F05D0B8F1450F00D10136D3
:104DE000022300E0032307AA049206AACDE902A247
:104DF000CDE9003622462B4600F092FFB8F1470F6E
:104E0000074619D1119BDB070ED500EB06090022DE
:104E1000002320462946FBF75BFE08B1CDF81C9025
:104E20003022079B4B451ED33846079B159ADB1B48
:104E3000136008B0BDE8F087B8F1460F00EB060933
:104E4000E5D10378302B0AD10022002320462946E1
:104E5000FBF73EFE18B9C6F10106CAF80060DAF8A1
:104E600000309944D3E7591C07911A70D9E7F7B578
:104E70000029B6BF2D232B23494209290270437014
:104E800029DD0DF1070425460A27B1FBF7F6224676
:104E900007FB1613303302F8013C0B46632B3146F7
:104EA00004F1FF34F1DC3031931E04F8011C1C4680
:104EB000411CAB420AD30DF109039B1AA54238BF2E
:104EC0000023821C1344181A03B0F0BD13F8016BC1
:104ED00001F8016FEDE7302330318370C170031D9D
:104EE000F1E700002DE9F04F91B00C46DDF8688045
:104EF00016461F46054600F0FBFD036818460A9358
:104F0000FBF706F900230E93D8F8003094F818A0A8
:104F1000073323F00703F3E80212D4F800B0CDE919
:104F20000812C8F8003013460A46C4E91223DDE926
:104F3000088323F000490B904FF0FF32404649466A
:104F40009B4BFBF7F7FD70BB4FF0FF3240464946E5
:104F5000974BFBF7D1FD30BBDDE9080100220023B0
:104F6000FBF7C0FD10B12D2384F84330914A924BDA
:104F7000BAF1470F8CBF9046984603234FF00009C3
:104F800023612BF004032360334621462846009713
:104F90000FAA00F0D3F9013040F08F804FF0FF30BE
:104FA00011B0BDE8F08FDDE9082310461946FBF784
:104FB000C1FD40B1099B814A002BBCBF2D2384F861
:104FC00043307F4BD4E763680AF0DF095A1C3ED1B7
:104FD0000623636000224BF48063236006920EAACE
:104FE000CDE904A20DAA03920DF13302CDE90132FD
:104FF000636828460093DDE90823FFF7D4FEB9F182
:10500000470F80460D9929D1C81C02DB63688B428B
:1050100041DAAAF1020A5FFA8AFA5246013904F12A
:1050200050000D91FFF723FF0E9A81461318012AB5
:10503000236102DC2268D20701D5013323619DF888
:105040003330002BA0D02D2384F843309CE7B9F1F6
:10505000470FBFD1002BBDD10123BAE7BAF1650FCD
:10506000DBD9BAF1660F18D1002963680BDD216125
:1050700013B92268D00702D501330B4423614FF0E6
:105080000009A165DBE713B92268D20701D5023315
:10509000F4E70123F2E74FF0670A0E9B8B4205DC31
:1050A00023682161D807EAD54B1CE7E70029CCBF6C
:1050B0000122C1F102021344E0E723685A0507D434
:1050C0002369424631462846B84701302BD165E76F
:1050D000BAF1650F40F2DC80D4E91201002200230E
:1050E000FBF7F6FC002833D0012331462846354A29
:1050F000B84701303FF452AFDDE90D38434502DBDC
:105100002368D8070FD5DDE90A2331462846B8477A
:1051100001303FF443AF4FF0000908F1FF3804F1CC
:105120001A0AC84509DC23689B0700F10281E06880
:105130000F9B9842B8BF184632E7012352463146CA
:105140002846B84701303FF429AF09F10109E8E7E3
:105150000D9B002B38DC012331462846194AB847FD
:1051600001303FF41BAFDDE90D3959EA030302D1E9
:105170002368D907D7D5DDE90A2331462846B84741
:1051800001303FF40BAF4FF0000A04F11A0B0D9BF6
:105190005B42534501DC4B4693E701235A463146B7
:1051A0002846B84701303FF4F9AE0AF1010AEEE7AC
:1051B000FFFFEF7F3A810008368100084281000836
:1051C0003E81000846810008A36DDDF838A05345F4
:1051D000A8BF5346002B994636DC4FF0000B29EA56
:1051E000E97904F11A02A36D0893A3EB09035B4567
:1051F00031DC0D9B9A453ADC2368DA0737D40D9BE6
:10520000AAEB0309089BAAEB03039945A8BF99469B
:10521000B9F1000F33DC4FF0000829EAE97904F115
:105220001A0B0D9BAAEB0303A3EB090343457FF77E
:105230007AAF01235A4631462846B84701303FF439
:10524000ADAE08F10108ECE7424631462846B847C2
:105250000130C2D1A2E60123314628460892B84760
:1052600001303FF49BAE089A0BF1010BBBE73146CE
:10527000DDE90A232846B8470130C0D18EE6089AF6
:105280004B46314628464244B8470130C3D185E6F3
:10529000DDF838A0BAF1010F01DCDB0736D50123B8
:1052A000424631462846B84701303FF477AEDDE943
:1052B0000A2331462846B84701303FF46FAED4E99F
:1052C0001201002200230AF1FF3AFBF701FCC0B9EA
:1052D000534608F1010231462846B84701300CD147
:1052E0005CE601235A4631462846B84701303FF470
:1052F00055AE08F10108D045F3DB4B4604F15002EE
:10530000E0E64FF0000804F11A0BF4E701234246EF
:10531000E1E701234A4631462846B84701303FF4C9
:105320003DAE08F10108E3680F995B1A4345F0DCD4
:10533000FDE64FF0000804F11909F4E72DE9F04704
:10534000164698468A680B6907469342B8BF1346CB
:10535000336091F843200C46DDF820900AB1013308
:1053600033602368990642BF33680233336025688F
:1053700015F0060506D104F1190AE36832689B1A94
:10538000AB422BDC94F843302268003B18BF01236A
:10539000920630D44146384604F14302C8470130F2
:1053A00023D02368226903F00603042B14BF0025D1
:1053B00033684FF0000608BFE56804F11A0408BF1F
:1053C000ED1A54F8123C08BF25EAE5759342C4BFB4
:1053D0009B1AED18B5421AD1002008E0012352466D
:1053E00041463846C847013003D14FF0FF30BDE891
:1053F000F0870135C1E73020E11881F843005A1CDD
:1054000094F845102244023382F84310C2E7012386
:10541000224641463846C8470130E6D00136D9E732
:105420002DE9FF470F7E9146782F80460C469A461D
:105430000C9E01F1430207D8622F0AD8002F00F01A
:10544000D280582F00F0B78004F1420684F84270F1
:105450003AE0A7F16303152BF6D801A151F823F028
:10546000B9540008CD5400084954000849540008B4
:105470004954000849540008CD5400084954000814
:10548000495400084954000849540008CD55000803
:10549000F75400088355000849540008495400088F
:1054A000EF55000849540008F75400084954000813
:1054B000495400088B55000833681A1D1B68326078
:1054C00004F1420684F8423001239DE033682068ED
:1054D000191D3160060601D51D6803E04506FBD5A0
:1054E000B3F90050002D03DA2D236D4284F84330C8
:1054F0000A23594810E021683368080653F8045B12
:1055000002D4490648BFADB26F2F5348336059D11A
:105510000823002184F843106668002EA66005DB8E
:1055200021682E4321F0040121604DD01646B5FBC1
:10553000F3F103FB1157C75D06F8017D2F46BB420F
:105540000D46F4D9082B0BD12368DF0708D5236952
:1055500061689942DEBF302306F8013C06F1FF3650
:10556000921B22614B4621464046CDF800A003AA7B
:10557000FFF7E4FE01304CD14FF0FF3004B0BDE83E
:10558000F087236843F0200323607827334884F8AA
:105590004570236831681F0651F8045B02D45F062A
:1055A00048BFADB23160D90744BF43F02003236048
:1055B0001DB11023ADE72848E9E7236823F0200355
:1055C0002360F6E70A23A4E71646BBE7336825689D
:1055D000181D616930602E061B6801D5196002E054
:1055E0006806FBD51980002316462361BAE73368A5
:1055F00000211A1D32601E686268304600F0E9FA28
:1056000008B1801B606063682361002384F8433025
:10561000A8E73246494640462369D0470130ABD01F
:1056200023689B0713D4E068039B9842B8BF1846D1
:10563000A4E70123324649464046D04701309BD07B
:105640000135E36803995B1AAB42F2DCEBE7002516
:1056500004F11906F5E700BF4881000859810008E8
:10566000002310B50446C0E90033C0E90433836069
:1056700081814366C2818361194608225C3000F053
:105680002FFA0D4B246263620C4BA3620C4BE36256
:105690000C4B23630C4B9C4206D003F168029442EE
:1056A00002D0D0339C4205D104F15800BDE810402F
:1056B00000F08CBA10BD00BF3559000857590008DA
:1056C0008F590008B55900085C320020024A03498E
:1056D000034800F06BB800BF1400002025780008D4
:1056E0002400002041680C4B10B59942044601D0BB
:1056F00002F098F8A168094B994202D0204602F0C6
:1057000091F8E168064B994204D02046BDE810406C
:1057100002F088B810BD00BF5C320020C432002007
:105720002C3300200C4B0D4A10B504211A600C4894
:105730000022FFF795FF0A4B01221C46092103F1C5
:105740006800FFF78DFF04F1D0000222BDE8104091
:105750001221FFF785BF00BF94330020CD5600080B
:105760005C320020014800F032BA00BF9D330020B7
:10577000014800F02DBA00BF9D33002010B504464B
:10578000FFF7F0FF236A1BB1BDE81040FFF7F0BF41
:10579000044B2362044B1B68002BF5D1FFF7C2FFBB
:1057A000F2E700BFE5560008943300202DE9F843E6
:1057B0000746884614460026D4E90195B9F1010947
:1057C00005D52468002CF7D13046BDE8F883AB89B5
:1057D000012B07D9B5F90E30013303D029463846DD
:1057E000C04706436835E9E70FB407B5064904AB7F
:1057F000086853F8042B8168019301F07DFE03B023
:105800005DF804EB04B0704720000020036A70B517
:1058100005460E4684680BB9FFF7B0FF636EDB07E1
:1058200005D4A389980502D4A06D00F0D0F9A3890E
:10583000190702D52369002B35D12146284600F0EF
:10584000FBF880B34FF0FF35636EDA0705D4A38908
:105850009B0502D4A06D00F0BBF9284670BD002B5B
:1058600004DAA269934217DB0A2915D023685A1C6F
:1058700022601970A36816F8011F013BA36000297C
:10588000EDD1002B11DA22460A21284600F096F8C5
:105890000130D7D00A25D7E72246284600F08EF8F7
:1058A0000130E7D1CEE7013EE4E723685A1C2260CD
:1058B0000A221A70EEE70000024B01461868FFF753
:1058C000A5BF00BF200000200CB430B5184B0C1E43
:1058D0001D689DB008DA8B234FF0FF302B601DB0A0
:1058E000BDE8304002B070474FF40273ADF8143099
:1058F0004FF000031B930CBF234604F1FF330493C6
:1059000007934FF6FF7302900690ADF816302846C5
:1059100021AB209A02A9019301F0CAFC431CBCBF31
:105920008B232B60002CDAD00022029B1A70D6E762
:105930002000002010B50C46B1F90E1000F0FEF862
:105940000028ABBF636DA3891B1823F48053ACBF41
:105950006365A38110BD2DE9F0411F468B89054683
:10596000DB050C46164605D502230022B1F90E10C0
:1059700000F0D2F8A389324623F48053A38128464D
:105980003B46B4F90E10BDE8F04100F0E9B810B59F
:105990000C46B1F90E1000F0BFF8B4F90C30421CFF
:1059A0000BBF23F4805343F48053A381A38118BF1A
:1059B000606510BDB1F90E1000F09EB8F8B50E4646
:1059C0001446054618B1036A0BB9FFF7D7FEA36961
:1059D000A360A3891A0701D5236943B92146284644
:1059E00000F02AF818B14FF0FF373846F8BD2368A9
:1059F0002269F6B2981A63693746834205DC21466C
:105A0000284601F00FFF0028EDD1A368013BA360F9
:105A100023685A1C22601E706269431C9A4204D09B
:105A2000A389DB07E1D50A2EDFD12146284601F004
:105A3000F9FE0028D9D0D6E738B5284B05461868B6
:105A40000C4618B1036A0BB9FFF798FEB4F90C3095
:105A50001A0721D4D80607D409222A6043F040034C
:105A60004FF0FF30A38130E0590712D5616B41B18F
:105A700004F14403994202D0284600F037FF002386
:105A800063630022B4F90C306260226923F02403BE
:105A9000226043F00803A38122693AB99A0501D52F
:105AA000180603D52146284601F008FFB4F90C304A
:105AB00013F001020AD00022A26062695242A26180
:105AC000226942B913F08000C8D138BD990758BF88
:105AD0006269A260F4E70020F7E700BF2000002021
